{
  "contractName": "CollectionManager",
  "abi": [
    {
      "anonymous": false,
      "inputs": [
        {
          "indexed": false,
          "internalType": "address",
          "name": "account",
          "type": "address"
        }
      ],
      "name": "Paused",
      "type": "event"
    },
    {
      "anonymous": false,
      "inputs": [
        {
          "indexed": false,
          "internalType": "address",
          "name": "account",
          "type": "address"
        }
      ],
      "name": "Unpaused",
      "type": "event"
    },
    {
      "inputs": [],
      "name": "d",
      "outputs": [
        {
          "internalType": "contract IDependencies",
          "name": "",
          "type": "address"
        }
      ],
      "stateMutability": "view",
      "type": "function"
    },
    {
      "inputs": [
        {
          "internalType": "address",
          "name": "",
          "type": "address"
        }
      ],
      "name": "gearLocks",
      "outputs": [
        {
          "internalType": "uint64",
          "name": "transportId",
          "type": "uint64"
        },
        {
          "internalType": "uint64",
          "name": "gear1Id",
          "type": "uint64"
        },
        {
          "internalType": "uint64",
          "name": "gear2Id",
          "type": "uint64"
        },
        {
          "internalType": "uint64",
          "name": "gear3Id",
          "type": "uint64"
        },
        {
          "internalType": "bool",
          "name": "set",
          "type": "bool"
        },
        {
          "internalType": "uint16",
          "name": "locks",
          "type": "uint16"
        }
      ],
      "stateMutability": "view",
      "type": "function"
    },
    {
      "inputs": [
        {
          "internalType": "uint256",
          "name": "",
          "type": "uint256"
        }
      ],
      "name": "initialCommonGears",
      "outputs": [
        {
          "internalType": "enum IEnums.Rarity",
          "name": "rarity",
          "type": "uint8"
        },
        {
          "internalType": "uint256",
          "name": "gearType",
          "type": "uint256"
        },
        {
          "internalType": "uint256",
          "name": "category",
          "type": "uint256"
        },
        {
          "internalType": "uint256",
          "name": "durability",
          "type": "uint256"
        },
        {
          "internalType": "bool",
          "name": "locked",
          "type": "bool"
        },
        {
          "internalType": "bool",
          "name": "set",
          "type": "bool"
        }
      ],
      "stateMutability": "view",
      "type": "function"
    },
    {
      "inputs": [
        {
          "internalType": "uint256",
          "name": "",
          "type": "uint256"
        }
      ],
      "name": "initialLegendaryGears",
      "outputs": [
        {
          "internalType": "enum IEnums.Rarity",
          "name": "rarity",
          "type": "uint8"
        },
        {
          "internalType": "uint256",
          "name": "gearType",
          "type": "uint256"
        },
        {
          "internalType": "uint256",
          "name": "category",
          "type": "uint256"
        },
        {
          "internalType": "uint256",
          "name": "durability",
          "type": "uint256"
        },
        {
          "internalType": "bool",
          "name": "locked",
          "type": "bool"
        },
        {
          "internalType": "bool",
          "name": "set",
          "type": "bool"
        }
      ],
      "stateMutability": "view",
      "type": "function"
    },
    {
      "inputs": [
        {
          "internalType": "uint256",
          "name": "",
          "type": "uint256"
        }
      ],
      "name": "initialRareGears",
      "outputs": [
        {
          "internalType": "enum IEnums.Rarity",
          "name": "rarity",
          "type": "uint8"
        },
        {
          "internalType": "uint256",
          "name": "gearType",
          "type": "uint256"
        },
        {
          "internalType": "uint256",
          "name": "category",
          "type": "uint256"
        },
        {
          "internalType": "uint256",
          "name": "durability",
          "type": "uint256"
        },
        {
          "internalType": "bool",
          "name": "locked",
          "type": "bool"
        },
        {
          "internalType": "bool",
          "name": "set",
          "type": "bool"
        }
      ],
      "stateMutability": "view",
      "type": "function"
    },
    {
      "inputs": [],
      "name": "maxTokenId",
      "outputs": [
        {
          "internalType": "uint256",
          "name": "",
          "type": "uint256"
        }
      ],
      "stateMutability": "view",
      "type": "function"
    },
    {
      "inputs": [],
      "name": "paused",
      "outputs": [
        {
          "internalType": "bool",
          "name": "",
          "type": "bool"
        }
      ],
      "stateMutability": "view",
      "type": "function"
    },
    {
      "inputs": [
        {
          "internalType": "uint256",
          "name": "",
          "type": "uint256"
        }
      ],
      "name": "transportGears",
      "outputs": [
        {
          "internalType": "enum IEnums.Rarity",
          "name": "rarity",
          "type": "uint8"
        },
        {
          "internalType": "uint256",
          "name": "gearType",
          "type": "uint256"
        },
        {
          "internalType": "uint256",
          "name": "category",
          "type": "uint256"
        },
        {
          "internalType": "uint256",
          "name": "durability",
          "type": "uint256"
        },
        {
          "internalType": "bool",
          "name": "locked",
          "type": "bool"
        },
        {
          "internalType": "bool",
          "name": "set",
          "type": "bool"
        }
      ],
      "stateMutability": "view",
      "type": "function"
    },
    {
      "inputs": [
        {
          "internalType": "contract IDependencies",
          "name": "_d",
          "type": "address"
        }
      ],
      "name": "initialize",
      "outputs": [],
      "stateMutability": "nonpayable",
      "type": "function"
    },
    {
      "inputs": [
        {
          "internalType": "contract IDependencies",
          "name": "addr",
          "type": "address"
        }
      ],
      "name": "setDependencies",
      "outputs": [],
      "stateMutability": "nonpayable",
      "type": "function"
    },
    {
      "inputs": [
        {
          "internalType": "uint256[]",
          "name": "avatarIds",
          "type": "uint256[]"
        }
      ],
      "name": "getXP",
      "outputs": [
        {
          "internalType": "uint256[]",
          "name": "",
          "type": "uint256[]"
        }
      ],
      "stateMutability": "view",
      "type": "function"
    },
    {
      "inputs": [
        {
          "internalType": "uint256",
          "name": "avatarId",
          "type": "uint256"
        },
        {
          "internalType": "uint256",
          "name": "increment",
          "type": "uint256"
        }
      ],
      "name": "addXP",
      "outputs": [],
      "stateMutability": "nonpayable",
      "type": "function"
    },
    {
      "inputs": [
        {
          "internalType": "uint256",
          "name": "avatarId",
          "type": "uint256"
        },
        {
          "internalType": "uint256",
          "name": "increment",
          "type": "uint256"
        }
      ],
      "name": "addXPAfterCryo",
      "outputs": [],
      "stateMutability": "nonpayable",
      "type": "function"
    },
    {
      "inputs": [],
      "name": "allMyTokens",
      "outputs": [
        {
          "internalType": "uint256[]",
          "name": "",
          "type": "uint256[]"
        }
      ],
      "stateMutability": "view",
      "type": "function"
    },
    {
      "inputs": [
        {
          "internalType": "uint256",
          "name": "_from",
          "type": "uint256"
        },
        {
          "internalType": "uint256",
          "name": "_to",
          "type": "uint256"
        }
      ],
      "name": "allTokensPaginate",
      "outputs": [
        {
          "internalType": "uint256[]",
          "name": "",
          "type": "uint256[]"
        },
        {
          "components": [
            {
              "internalType": "string",
              "name": "name",
              "type": "string"
            },
            {
              "internalType": "uint256",
              "name": "xp",
              "type": "uint256"
            },
            {
              "internalType": "address",
              "name": "owner",
              "type": "address"
            }
          ],
          "internalType": "struct CollectionManager.AvatarData[]",
          "name": "",
          "type": "tuple[]"
        }
      ],
      "stateMutability": "view",
      "type": "function"
    },
    {
      "inputs": [
        {
          "internalType": "uint256",
          "name": "_maxTokenId",
          "type": "uint256"
        }
      ],
      "name": "setMaxTokenId",
      "outputs": [],
      "stateMutability": "nonpayable",
      "type": "function"
    },
    {
      "inputs": [],
      "name": "ableToMint",
      "outputs": [
        {
          "internalType": "bool",
          "name": "",
          "type": "bool"
        }
      ],
      "stateMutability": "view",
      "type": "function"
    },
    {
      "inputs": [
        {
          "internalType": "address",
          "name": "receiver",
          "type": "address"
        }
      ],
      "name": "mint",
      "outputs": [],
      "stateMutability": "nonpayable",
      "type": "function"
    },
    {
      "inputs": [],
      "name": "pause",
      "outputs": [],
      "stateMutability": "nonpayable",
      "type": "function"
    },
    {
      "inputs": [],
      "name": "unpause",
      "outputs": [],
      "stateMutability": "nonpayable",
      "type": "function"
    },
    {
      "inputs": [
        {
          "internalType": "uint256",
          "name": "tokenId",
          "type": "uint256"
        },
        {
          "internalType": "string",
          "name": "_name",
          "type": "string"
        }
      ],
      "name": "setName",
      "outputs": [],
      "stateMutability": "nonpayable",
      "type": "function"
    },
    {
      "inputs": [
        {
          "internalType": "uint256",
          "name": "tokenId",
          "type": "uint256"
        },
        {
          "internalType": "string",
          "name": "_name",
          "type": "string"
        }
      ],
      "name": "setNameByGameManager",
      "outputs": [],
      "stateMutability": "nonpayable",
      "type": "function"
    },
    {
      "inputs": [
        {
          "internalType": "uint256[]",
          "name": "tokenIds",
          "type": "uint256[]"
        }
      ],
      "name": "getNames",
      "outputs": [
        {
          "internalType": "string[]",
          "name": "",
          "type": "string[]"
        }
      ],
      "stateMutability": "view",
      "type": "function"
    },
    {
      "inputs": [
        {
          "internalType": "enum IEnums.Rarity",
          "name": "_lootboxRarity",
          "type": "uint8"
        },
        {
          "internalType": "enum IEnums.Rarity",
          "name": "_gearRarity",
          "type": "uint8"
        },
        {
          "internalType": "uint256",
          "name": "nonce",
          "type": "uint256"
        }
      ],
      "name": "getRandomizedGear",
      "outputs": [
        {
          "components": [
            {
              "internalType": "enum IEnums.Rarity",
              "name": "rarity",
              "type": "uint8"
            },
            {
              "internalType": "uint256",
              "name": "gearType",
              "type": "uint256"
            },
            {
              "internalType": "uint256",
              "name": "category",
              "type": "uint256"
            },
            {
              "internalType": "uint256",
              "name": "durability",
              "type": "uint256"
            },
            {
              "internalType": "bool",
              "name": "locked",
              "type": "bool"
            },
            {
              "internalType": "bool",
              "name": "set",
              "type": "bool"
            }
          ],
          "internalType": "struct IGears.Gear",
          "name": "gear",
          "type": "tuple"
        }
      ],
      "stateMutability": "view",
      "type": "function"
    },
    {
      "inputs": [
        {
          "internalType": "enum IEnums.Rarity",
          "name": "_lootBoxRarity",
          "type": "uint8"
        }
      ],
      "name": "calculateGear",
      "outputs": [
        {
          "components": [
            {
              "internalType": "enum IEnums.Rarity",
              "name": "rarity",
              "type": "uint8"
            },
            {
              "internalType": "uint256",
              "name": "gearType",
              "type": "uint256"
            },
            {
              "internalType": "uint256",
              "name": "category",
              "type": "uint256"
            },
            {
              "internalType": "uint256",
              "name": "durability",
              "type": "uint256"
            },
            {
              "internalType": "bool",
              "name": "locked",
              "type": "bool"
            },
            {
              "internalType": "bool",
              "name": "set",
              "type": "bool"
            }
          ],
          "internalType": "struct IGears.Gear",
          "name": "",
          "type": "tuple"
        }
      ],
      "stateMutability": "view",
      "type": "function"
    },
    {
      "inputs": [
        {
          "internalType": "uint64",
          "name": "transportId",
          "type": "uint64"
        },
        {
          "internalType": "uint64",
          "name": "gear1Id",
          "type": "uint64"
        },
        {
          "internalType": "uint64",
          "name": "gear2Id",
          "type": "uint64"
        },
        {
          "internalType": "uint64",
          "name": "gear3Id",
          "type": "uint64"
        }
      ],
      "name": "setLocks",
      "outputs": [],
      "stateMutability": "nonpayable",
      "type": "function"
    },
    {
      "inputs": [
        {
          "internalType": "uint256",
          "name": "_from",
          "type": "uint256"
        },
        {
          "internalType": "uint256",
          "name": "_to",
          "type": "uint256"
        }
      ],
      "name": "allMyTokensPaginate",
      "outputs": [
        {
          "internalType": "uint256[]",
          "name": "",
          "type": "uint256[]"
        }
      ],
      "stateMutability": "view",
      "type": "function"
    },
    {
      "inputs": [
        {
          "internalType": "address",
          "name": "owner",
          "type": "address"
        },
        {
          "internalType": "enum IEnums.Rarity",
          "name": "_lootBoxrarity",
          "type": "uint8"
        }
      ],
      "name": "mintGear",
      "outputs": [],
      "stateMutability": "nonpayable",
      "type": "function"
    },
    {
      "inputs": [
        {
          "internalType": "address",
          "name": "_tokenContract",
          "type": "address"
        },
        {
          "internalType": "address",
          "name": "_whereTo",
          "type": "address"
        },
        {
          "internalType": "uint256",
          "name": "_amount",
          "type": "uint256"
        }
      ],
      "name": "withdrawToken",
      "outputs": [],
      "stateMutability": "nonpayable",
      "type": "function"
    },
    {
      "inputs": [],
      "name": "getLootboxOpeningPrice",
      "outputs": [
        {
          "internalType": "uint256",
          "name": "common",
          "type": "uint256"
        },
        {
          "internalType": "uint256",
          "name": "rare",
          "type": "uint256"
        },
        {
          "internalType": "uint256",
          "name": "legendary",
          "type": "uint256"
        }
      ],
      "stateMutability": "view",
      "type": "function"
    },
    {
      "inputs": [
        {
          "internalType": "address",
          "name": "user",
          "type": "address"
        }
      ],
      "name": "getLockedGears",
      "outputs": [
        {
          "internalType": "uint256[]",
          "name": "",
          "type": "uint256[]"
        },
        {
          "components": [
            {
              "internalType": "enum IEnums.Rarity",
              "name": "rarity",
              "type": "uint8"
            },
            {
              "internalType": "uint256",
              "name": "gearType",
              "type": "uint256"
            },
            {
              "internalType": "uint256",
              "name": "category",
              "type": "uint256"
            },
            {
              "internalType": "uint256",
              "name": "durability",
              "type": "uint256"
            },
            {
              "internalType": "bool",
              "name": "locked",
              "type": "bool"
            },
            {
              "internalType": "bool",
              "name": "set",
              "type": "bool"
            }
          ],
          "internalType": "struct IGears.Gear[]",
          "name": "",
          "type": "tuple[]"
        },
        {
          "internalType": "uint256",
          "name": "locksCount",
          "type": "uint256"
        }
      ],
      "stateMutability": "view",
      "type": "function"
    },
    {
      "inputs": [
        {
          "internalType": "address",
          "name": "transport",
          "type": "address"
        },
        {
          "internalType": "uint16",
          "name": "percents",
          "type": "uint16"
        }
      ],
      "name": "increaseTransportDamage",
      "outputs": [],
      "stateMutability": "nonpayable",
      "type": "function"
    },
    {
      "inputs": [
        {
          "internalType": "address",
          "name": "transport",
          "type": "address"
        },
        {
          "internalType": "uint16",
          "name": "percents",
          "type": "uint16"
        }
      ],
      "name": "repairTransport",
      "outputs": [],
      "stateMutability": "nonpayable",
      "type": "function"
    },
    {
      "inputs": [
        {
          "internalType": "address",
          "name": "transport",
          "type": "address"
        }
      ],
      "name": "getTransportCondition",
      "outputs": [
        {
          "internalType": "uint16",
          "name": "",
          "type": "uint16"
        }
      ],
      "stateMutability": "view",
      "type": "function"
    }
  ],
  "bytecode": "0x608060405234801561001057600080fd5b5061597980620000216000396000f3fe608060405234801561001057600080fd5b50600436106101965760003560e01c806301e336671461019b5780631c71cfcd146101b05780631cc06baa146101c3578063202fcbbd146101ec5780632e9c75a8146101ff5780633f4ba83a146102a557806343c18b0d146102ad5780635146ea0e146102c05780635c975abb146102d35780635f40b408146102ea578063612d4868146102fd5780636a6278421461032057806370ef41b0146103335780637630514e1461034657806381aa90c4146103595780638389cb18146103795780638456cb591461038c57806385a8f9e414610394578063893f390a146103b95780638a054ac2146103cc5780638cabaaee146103ec57806391ba317a1461040d578063a3fd250314610424578063a57788111461044a578063a8ee06891461045d578063aa6f426914610465578063aa89fef014610487578063b77c52151461049a578063bde4cbe5146104ad578063c4d66de8146104b5578063ea6e1671146104c8578063ecde8503146104e8578063fe28c0b4146104fb578063fe55932a1461050e575b600080fd5b6101ae6101a9366004614d0f565b610521565b005b6101ae6101be366004614d50565b61064b565b6101d66101d1366004614d9d565b6107a8565b6040516101e39190614e37565b60405180910390f35b6101ae6101fa366004614e45565b6107ed565b61026061020d366004614e5e565b609e60205260009081526040902080546001909101546001600160401b0380831692600160401b8104821692600160801b8204831692600160c01b9092049091169060ff811690610100900461ffff1686565b604080516001600160401b03978816815295871660208701529386169385019390935293166060830152911515608082015261ffff90911660a082015260c0016101e3565b6101ae6108de565b6101d66102bb366004614e7b565b61098f565b6101ae6102ce366004614eab565b610b7a565b60675460ff165b60405190151581526020016101e3565b6101ae6102f8366004614f3a565b610c74565b610305610f05565b604080519384526020840192909252908201526060016101e3565b6101ae61032e366004614e5e565b611093565b6101ae610341366004614fd8565b61126f565b6101ae610354366004615034565b611fe2565b61036c610367366004614eab565b612150565b6040516101e3919061509d565b6101ae610387366004614e5e565b6123b0565b6101ae612466565b6103a76103a2366004614e45565b612515565b6040516101e3969594939291906150b0565b6103a76103c7366004614e45565b612567565b60a4546103df906001600160a01b031681565b6040516101e391906150ea565b6103ff6103fa366004614eab565b612577565b6040516101e392919061515a565b61041660995481565b6040519081526020016101e3565b610437610432366004614e5e565b6129ad565b60405161ffff90911681526020016101e3565b6103a7610458366004614e45565b6129fd565b61036c612a0d565b610478610473366004614e5e565b612c10565b6040516101e3939291906151f4565b6101ae610495366004614d50565b613379565b6101ae6104a8366004614eab565b61346e565b6102da61353f565b6101ae6104c3366004614e5e565b613618565b6104db6104d636600461525e565b614231565b6040516101e391906152d2565b6103a76104f6366004614e45565b6143cd565b61036c610509366004615334565b6143dd565b6101ae61051c366004614f3a565b6145f0565b60a460009054906101000a90046001600160a01b03166001600160a01b0316638da5cb5b6040518163ffffffff1660e01b8152600401602060405180830381865afa158015610574573d6000803e3d6000fd5b505050506040513d601f19601f8201168201806040525081019061059891906153d9565b6001600160a01b0316336001600160a01b0316146105d15760405162461bcd60e51b81526004016105c8906153f6565b60405180910390fd5b60405163a9059cbb60e01b815283906001600160a01b0382169063a9059cbb90610601908690869060040161541a565b6020604051808303816000875af1158015610620573d6000803e3d6000fd5b505050506040513d601f19601f820116820180604052508101906106449190615448565b5050505050565b60a460009054906101000a90046001600160a01b03166001600160a01b031663c6b052666040518163ffffffff1660e01b8152600401602060405180830381865afa15801561069e573d6000803e3d6000fd5b505050506040513d601f19601f820116820180604052508101906106c291906153d9565b6001600160a01b0316336001600160a01b0316146106f25760405162461bcd60e51b81526004016105c890615463565b6001600160a01b038216600090815260a560205260409020805462010000900460ff166107825760405180604001604052806107306101f485614824565b61ffff908116825260016020928301526001600160a01b038616600090815260a58352604090208351815494909301511515620100000262ffffff199094169290911691909117919091179055505050565b80546107929061ffff1683614824565b815461ffff191661ffff919091161790555b5050565b6107b0614c92565b60006107c6836107c16047426154a4565b614847565b905060006107e584836107da6047426154a4565b6102bb9060016154ce565b949350505050565b60a460009054906101000a90046001600160a01b03166001600160a01b0316638da5cb5b6040518163ffffffff1660e01b8152600401602060405180830381865afa158015610840573d6000803e3d6000fd5b505050506040513d601f19601f8201168201806040525081019061086491906153d9565b6001600160a01b0316336001600160a01b0316146108945760405162461bcd60e51b81526004016105c8906153f6565b60995481116108d95760405162461bcd60e51b815260206004820152601160248201527063616e206f6e6c7920696e63726561736560781b60448201526064016105c8565b609955565b60a460009054906101000a90046001600160a01b03166001600160a01b031663c6b052666040518163ffffffff1660e01b8152600401602060405180830381865afa158015610931573d6000803e3d6000fd5b505050506040513d601f19601f8201168201806040525081019061095591906153d9565b6001600160a01b0316336001600160a01b0316146109855760405162461bcd60e51b81526004016105c890615463565b61098d61490c565b565b610997614c92565b60018460028111156109ab576109ab614dba565b1480156109c9575060028360028111156109c7576109c7614dba565b145b15610a815760a1546000906109de9084614999565b905060a181815481106109f3576109f36154e6565b600091825260209091206040805160c081019091526005909202018054829060ff166002811115610a2657610a26614dba565b6002811115610a3757610a37614dba565b815260018201546020820152600282015460408201526003820154606082015260049091015460ff8082161515608084015261010090910416151560a0909101529150610b739050565b6000836002811115610a9557610a95614dba565b03610abf57609f54600090610aaa9084614999565b9050609f81815481106109f3576109f36154e6565b6001836002811115610ad357610ad3614dba565b03610afd5760a054600090610ae89084614999565b905060a081815481106109f3576109f36154e6565b6002836002811115610b1157610b11614dba565b03610b735760a25460a154600091610b3391610b2d91906154ce565b84614999565b60a154909150811015610b535760a181815481106109f3576109f36154e6565b60a15460a290610b6390836154fc565b815481106109f3576109f36154e6565b9392505050565b60a460009054906101000a90046001600160a01b03166001600160a01b031663c6b052666040518163ffffffff1660e01b8152600401602060405180830381865afa158015610bcd573d6000803e3d6000fd5b505050506040513d601f19601f82011682018060405250810190610bf191906153d9565b6001600160a01b0316336001600160a01b031614610c445760405162461bcd60e51b815260206004820152601060248201526f27b7363c9023b0b6b2a6b0b730b3b2b960811b60448201526064016105c8565b6000828152609b6020526040902054610c5e9082906154ce565b6000928352609b60205260409092209190915550565b60a460009054906101000a90046001600160a01b03166001600160a01b031663c6b052666040518163ffffffff1660e01b8152600401602060405180830381865afa158015610cc7573d6000803e3d6000fd5b505050506040513d601f19601f82011682018060405250810190610ceb91906153d9565b6001600160a01b0316336001600160a01b031614610d1b5760405162461bcd60e51b81526004016105c890615463565b60a454604080516358aad3e760e01b815290516000926001600160a01b0316916358aad3e79160048083019260209291908290030181865afa158015610d65573d6000803e3d6000fd5b505050506040513d601f19601f82011682018060405250810190610d8991906153d9565b9050600f82511115610dad5760405162461bcd60e51b81526004016105c890615513565b604051634622ab0360e01b8152600481018490526001600160a01b03821690634622ab0390602401600060405180830381865afa158015610df2573d6000803e3d6000fd5b505050506040513d6000823e601f3d908101601f19168201604052610e1a919081019061553a565b604051602001610e2a91906155a7565b6040516020818303038152906040528051906020012082604051602001610e5191906155a7565b6040516020818303038152906040528051906020012003610ea05760405162461bcd60e51b815260206004820152600960248201526873616d65206e616d6560b81b60448201526064016105c8565b604051637f2ac99560e11b81526001600160a01b0382169063fe55932a90610ece90869086906004016155c3565b600060405180830381600087803b158015610ee857600080fd5b505af1158015610efc573d6000803e3d6000fd5b50505050505050565b600080600080600060a460009054906101000a90046001600160a01b03166001600160a01b0316637dc0d1d06040518163ffffffff1660e01b8152600401602060405180830381865afa158015610f60573d6000803e3d6000fd5b505050506040513d601f19601f82011682018060405250810190610f8491906153d9565b6001600160a01b031663cdfd3ff26040518163ffffffff1660e01b81526004016040805180830381865afa158015610fc0573d6000803e3d6000fd5b505050506040513d601f19601f82011682018060405250810190610fe491906155dc565b915091508161103f5760405162461bcd60e51b815260206004820152602160248201527f6f7261636c65207072696365206f6620636c6e79206973206e6f742076616c696044820152601960fa1b60648201526084016105c8565b606461104c8260c8615608565b6110569190615627565b9450606461106682610190615608565b6110709190615627565b9350606461108082610320615608565b61108a9190615627565b92505050909192565b60a460009054906101000a90046001600160a01b03166001600160a01b031663c6b052666040518163ffffffff1660e01b8152600401602060405180830381865afa1580156110e6573d6000803e3d6000fd5b505050506040513d601f19601f8201168201806040525081019061110a91906153d9565b6001600160a01b0316336001600160a01b03161461113a5760405162461bcd60e51b81526004016105c890615463565b60675460ff161561115d5760405162461bcd60e51b81526004016105c89061563b565b61116561353f565b61119f5760405162461bcd60e51b815260206004820152600b60248201526a18d85b9b9bdd081b5a5b9d60aa1b60448201526064016105c8565b60a460009054906101000a90046001600160a01b03166001600160a01b03166358aad3e76040518163ffffffff1660e01b8152600401602060405180830381865afa1580156111f2573d6000803e3d6000fd5b505050506040513d601f19601f8201168201806040525081019061121691906153d9565b6001600160a01b0316636a627842826040518263ffffffff1660e01b815260040161124191906150ea565b600060405180830381600087803b15801561125b57600080fd5b505af1158015610644573d6000803e3d6000fd5b60a45460408051631bd12d0d60e01b815290516000926001600160a01b031691631bd12d0d9160048083019260209291908290030181865afa1580156112b9573d6000803e3d6000fd5b505050506040513d601f19601f820116820180604052508101906112dd91906153d9565b90506000806001600160401b0387161561148a576040516331a9108f60e11b81526001600160a01b03841690636352211e9061131d908a90600401615665565b602060405180830381865afa15801561133a573d6000803e3d6000fd5b505050506040513d601f19601f8201168201806040525081019061135e91906153d9565b6001600160a01b0316336001600160a01b0316146113bc5760405162461bcd60e51b815260206004820152601b60248201527a3cb7ba9030b932903737ba103a3930b739b837b93a1037bbb732b960291b60448201526064016105c8565b604051632392089d60e21b81526000906001600160a01b03851690638e482274906113eb908b90600401615665565b60c060405180830381865afa158015611408573d6000803e3d6000fd5b505050506040513d601f19601f8201168201806040525081019061142c9190615679565b509196509193505060048514915061148790505760405162461bcd60e51b815260206004820152601c60248201527b1d1c985b9cdc1bdc9d1259081a5cc81b9bdd081d1c985b9cdc1bdc9d60221b60448201526064016105c8565b90505b60006001600160401b038716156115d6576040516331a9108f60e11b81526001600160a01b03851690636352211e906114c7908a90600401615665565b602060405180830381865afa1580156114e4573d6000803e3d6000fd5b505050506040513d601f19601f8201168201806040525081019061150891906153d9565b6001600160a01b0316336001600160a01b0316146115385760405162461bcd60e51b81526004016105c8906156dc565b604051632392089d60e21b81526001600160a01b03851690638e48227490611564908a90600401615665565b60c060405180830381865afa158015611581573d6000803e3d6000fd5b505050506040513d601f19601f820116820180604052508101906115a59190615679565b5091965050600319860192506115d09150505760405162461bcd60e51b81526004016105c89061570c565b506001821b5b6001600160401b03861615611743576040516331a9108f60e11b81526001600160a01b03851690636352211e90611611908990600401615665565b602060405180830381865afa15801561162e573d6000803e3d6000fd5b505050506040513d601f19601f8201168201806040525081019061165291906153d9565b6001600160a01b0316336001600160a01b0316146116825760405162461bcd60e51b81526004016105c8906156dc565b604051632392089d60e21b81526001600160a01b03851690638e482274906116ae908990600401615665565b60c060405180830381865afa1580156116cb573d6000803e3d6000fd5b505050506040513d601f19601f820116820180604052508101906116ef9190615679565b50919650506003198601925061171a9150505760405162461bcd60e51b81526004016105c89061570c565b6001831b81161561173d5760405162461bcd60e51b81526004016105c890615743565b6001831b175b6001600160401b03851615611911576040516331a9108f60e11b81526001600160a01b03851690636352211e9061177e908890600401615665565b602060405180830381865afa15801561179b573d6000803e3d6000fd5b505050506040513d601f19601f820116820180604052508101906117bf91906153d9565b6001600160a01b0316336001600160a01b0316146117ef5760405162461bcd60e51b81526004016105c8906156dc565b604051632392089d60e21b81526001600160a01b03851690638e4822749061181b908890600401615665565b60c060405180830381865afa158015611838573d6000803e3d6000fd5b505050506040513d601f19601f8201168201806040525081019061185c9190615679565b5091965050600319860192506118879150505760405162461bcd60e51b81526004016105c89061570c565b6001831b8116156118aa5760405162461bcd60e51b81526004016105c890615743565b600c82146119115760405162461bcd60e51b815260206004820152602e60248201527f63616e206e6f74206c6f636b203320676561727320776974686f75742073706560448201526d18da585b081d1c985b9cdc1bdc9d60921b60648201526084016105c8565b336000908152609e6020908152604091829020825160c08101845281546001600160401b038082168352600160401b8204811694830194909452600160801b8104841694820194909452600160c01b90930490911660608301526001015460ff8116158015608084015261010090910461ffff1660a0830152611b8a5780516001600160401b0316158015906119bd5750886001600160401b031681600001516001600160401b031614155b15611a22578051604051632775cfd960e11b81526001600160a01b03871691634eeb9fb2916119ef9190600401615665565b600060405180830381600087803b158015611a0957600080fd5b505af1158015611a1d573d6000803e3d6000fd5b505050505b611a3281602001518989896149dc565b15611a9a576020810151604051632775cfd960e11b81526001600160a01b03871691634eeb9fb291611a679190600401615665565b600060405180830381600087803b158015611a8157600080fd5b505af1158015611a95573d6000803e3d6000fd5b505050505b611aaa81604001518989896149dc565b15611b12576040808201519051632775cfd960e11b81526001600160a01b03871691634eeb9fb291611adf9190600401615665565b600060405180830381600087803b158015611af957600080fd5b505af1158015611b0d573d6000803e3d6000fd5b505050505b611b2281606001518989896149dc565b15611b8a576060810151604051632775cfd960e11b81526001600160a01b03871691634eeb9fb291611b579190600401615665565b600060405180830381600087803b158015611b7157600080fd5b505af1158015611b85573d6000803e3d6000fd5b505050505b60a081015161fffe1961ffff821601611ba557506000611bb3565b80611baf8161578c565b9150505b6001600160401b038a1615801590611bd8575081516001600160401b038b8116911614155b15611c3c57604051633b7ee59360e11b81526001600160a01b038716906376fdcb2690611c09908d90600401615665565b600060405180830381600087803b158015611c2357600080fd5b505af1158015611c37573d6000803e3d6000fd5b505050505b6001600160401b03891615801590611c675750611c67898360200151846040015185606001516149dc565b15611ccb57604051633b7ee59360e11b81526001600160a01b038716906376fdcb2690611c98908c90600401615665565b600060405180830381600087803b158015611cb257600080fd5b505af1158015611cc6573d6000803e3d6000fd5b505050505b6001600160401b03881615801590611cf65750611cf6888360200151846040015185606001516149dc565b15611d5a57604051633b7ee59360e11b81526001600160a01b038716906376fdcb2690611d27908b90600401615665565b600060405180830381600087803b158015611d4157600080fd5b505af1158015611d55573d6000803e3d6000fd5b505050505b6001600160401b03871615801590611d855750611d85878360200151846040015185606001516149dc565b15611e5f5760a460009054906101000a90046001600160a01b03166001600160a01b0316631bd12d0d6040518163ffffffff1660e01b8152600401602060405180830381865afa158015611ddd573d6000803e3d6000fd5b505050506040513d601f19601f82011682018060405250810190611e0191906153d9565b6001600160a01b03166376fdcb26886040518263ffffffff1660e01b8152600401611e2c9190615665565b600060405180830381600087803b158015611e4657600080fd5b505af1158015611e5a573d6000803e3d6000fd5b505050505b6040518060c001604052808b6001600160401b031681526020018a6001600160401b03168152602001896001600160401b03168152602001886001600160401b031681526020016001151581526020018261ffff16815250609e6000336001600160a01b03166001600160a01b0316815260200190815260200160002060008201518160000160006101000a8154816001600160401b0302191690836001600160401b0316021790555060208201518160000160086101000a8154816001600160401b0302191690836001600160401b0316021790555060408201518160000160106101000a8154816001600160401b0302191690836001600160401b0316021790555060608201518160000160186101000a8154816001600160401b0302191690836001600160401b0316021790555060808201518160010160006101000a81548160ff02191690831515021790555060a08201518160010160016101000a81548161ffff021916908361ffff16021790555090505050505050505050505050565b60a460009054906101000a90046001600160a01b03166001600160a01b031663c6b052666040518163ffffffff1660e01b8152600401602060405180830381865afa158015612035573d6000803e3d6000fd5b505050506040513d601f19601f8201168201806040525081019061205991906153d9565b6001600160a01b0316336001600160a01b0316146120895760405162461bcd60e51b81526004016105c890615463565b6000612094826107a8565b905060a460009054906101000a90046001600160a01b03166001600160a01b0316631bd12d0d6040518163ffffffff1660e01b8152600401602060405180830381865afa1580156120e9573d6000803e3d6000fd5b505050506040513d601f19601f8201168201806040525081019061210d91906153d9565b6001600160a01b031663236f0b208483600001518460200151856040015186606001516040518663ffffffff1660e01b8152600401610ece9594939291906157ad565b6060600060a460009054906101000a90046001600160a01b03166001600160a01b03166358aad3e76040518163ffffffff1660e01b8152600401602060405180830381865afa1580156121a7573d6000803e3d6000fd5b505050506040513d601f19601f820116820180604052508101906121cb91906153d9565b90506000816001600160a01b03166370a08231336040518263ffffffff1660e01b81526004016121fb91906150ea565b602060405180830381865afa158015612218573d6000803e3d6000fd5b505050506040513d601f19601f8201168201806040525081019061223c91906157e6565b9050848111158061224c57508385115b80612255575080155b1561227257505060408051600081526020810190915290506123aa565b6000846122806001846154fc565b11612295576122906001836154fc565b612297565b845b905060006122a587836154fc565b6122b09060016154ce565b6001600160401b038111156122c7576122c7614ecd565b6040519080825280602002602001820160405280156122f0578160200160208202803683370190505b509050865b8281116123a357604051632f745c5960e01b81526001600160a01b03861690632f745c599061232a903390859060040161541a565b602060405180830381865afa158015612347573d6000803e3d6000fd5b505050506040513d601f19601f8201168201806040525081019061236b91906157e6565b826123768a846154fc565b81518110612386576123866154e6565b60209081029190910101528061239b816157ff565b9150506122f5565b5093505050505b92915050565b60a4546001600160a01b0316158061243b575060a45460408051638da5cb5b60e01b8152905133926001600160a01b031691638da5cb5b9160048083019260209291908290030181865afa15801561240c573d6000803e3d6000fd5b505050506040513d601f19601f8201168201806040525081019061243091906153d9565b6001600160a01b0316145b61244457600080fd5b60a480546001600160a01b0319166001600160a01b0392909216919091179055565b60a460009054906101000a90046001600160a01b03166001600160a01b031663c6b052666040518163ffffffff1660e01b8152600401602060405180830381865afa1580156124b9573d6000803e3d6000fd5b505050506040513d601f19601f820116820180604052508101906124dd91906153d9565b6001600160a01b0316336001600160a01b03161461250d5760405162461bcd60e51b81526004016105c890615463565b61098d614a39565b60a0818154811061252557600080fd5b60009182526020909120600590910201805460018201546002830154600384015460049094015460ff9384169550919390929091808216916101009091041686565b60a1818154811061252557600080fd5b606080600060a460009054906101000a90046001600160a01b03166001600160a01b03166358aad3e76040518163ffffffff1660e01b8152600401602060405180830381865afa1580156125cf573d6000803e3d6000fd5b505050506040513d601f19601f820116820180604052508101906125f391906153d9565b90506000816001600160a01b03166318160ddd6040518163ffffffff1660e01b8152600401602060405180830381865afa158015612635573d6000803e3d6000fd5b505050506040513d601f19601f8201168201806040525081019061265991906157e6565b9050858111158061266957508486115b80612672575080155b156126bc57604080516000808252602082018181528284019093529091906126b0565b61269d614ccd565b8152602001906001900390816126955790505b509350935050506129a6565b6000856126ca6001846154fc565b116126df576126da6001836154fc565b6126e1565b855b905060006126ef88836154fc565b6126fa9060016154ce565b6001600160401b0381111561271157612711614ecd565b60405190808252806020026020018201604052801561273a578160200160208202803683370190505b509050600061274989846154fc565b6127549060016154ce565b6001600160401b0381111561276b5761276b614ecd565b6040519080825280602002602001820160405280156127a457816020015b612791614ccd565b8152602001906001900390816127895790505b509050885b83811161299c57604051634f6ccce760e01b8152600481018290526000906001600160a01b03881690634f6ccce790602401602060405180830381865afa1580156127f8573d6000803e3d6000fd5b505050506040513d601f19601f8201168201806040525081019061281c91906157e6565b9050808461282a8d856154fc565b8151811061283a5761283a6154e6565b6020908102919091018101919091526000828152609b9091526040808220549051634622ab0360e01b8152600481018490529091906001600160a01b038a1690634622ab0390602401600060405180830381865afa1580156128a0573d6000803e3d6000fd5b505050506040513d6000823e601f3d908101601f191682016040526128c8919081019061553a565b6040516331a9108f60e11b8152600481018590529091506000906001600160a01b038b1690636352211e90602401602060405180830381865afa158015612913573d6000803e3d6000fd5b505050506040513d601f19601f8201168201806040525081019061293791906153d9565b90506040518060600160405280838152602001848152602001826001600160a01b0316815250868f8761296a91906154fc565b8151811061297a5761297a6154e6565b6020026020010181905250505050508080612994906157ff565b9150506127a9565b5090955093505050505b9250929050565b6001600160a01b038116600090815260a56020908152604080832081518083019092525461ffff8116825262010000900460ff161515918101829052906129f6576101f4610b73565b5192915050565b60a2818154811061252557600080fd5b6060600060a460009054906101000a90046001600160a01b03166001600160a01b03166358aad3e76040518163ffffffff1660e01b8152600401602060405180830381865afa158015612a64573d6000803e3d6000fd5b505050506040513d601f19601f82011682018060405250810190612a8891906153d9565b90506000816001600160a01b03166370a08231336040518263ffffffff1660e01b8152600401612ab891906150ea565b602060405180830381865afa158015612ad5573d6000803e3d6000fd5b505050506040513d601f19601f82011682018060405250810190612af991906157e6565b905080600003612b19575050604080516000815260208101909152919050565b6000816001600160401b03811115612b3357612b33614ecd565b604051908082528060200260200182016040528015612b5c578160200160208202803683370190505b50905060005b82811015612c0857604051632f745c5960e01b81526001600160a01b03851690632f745c5990612b98903390859060040161541a565b602060405180830381865afa158015612bb5573d6000803e3d6000fd5b505050506040513d601f19601f82011682018060405250810190612bd991906157e6565b828281518110612beb57612beb6154e6565b602090810291909101015280612c00816157ff565b915050612b62565b509392505050565b6001600160a01b0381166000908152609e60209081526040808320815160c08101835281546001600160401b038082168352600160401b8204811695830195909552600160801b8104851693820193909352600160c01b90920490921660608083019190915260019092015460ff811615156080830181905261010090910461ffff1660a083015291928392909190612ceb5760408051600080825260208201818152828401909352909190612cdc565b612cc9614c92565b815260200190600190039081612cc15790505b50600093509350935050613372565b60408051600480825260a0820190925260009160208201608080368337505060408051600480825260a082019092529293506000929150602082015b612d2f614c92565b815260200190600190039081612d2757905050905082600001516001600160401b031682600081518110612d6557612d656154e6565b60200260200101818152505082602001516001600160401b031682600181518110612d9257612d926154e6565b60200260200101818152505082604001516001600160401b031682600281518110612dbf57612dbf6154e6565b60200260200101818152505082606001516001600160401b031682600381518110612dec57612dec6154e6565b60200260200101818152505060008060008060008060a460009054906101000a90046001600160a01b03166001600160a01b0316631bd12d0d6040518163ffffffff1660e01b8152600401602060405180830381865afa158015612e54573d6000803e3d6000fd5b505050506040513d601f19601f82011682018060405250810190612e7891906153d9565b8951604051632392089d60e21b81526001600160a01b039290921691638e48227491612ea691600401615665565b60c060405180830381865afa158015612ec3573d6000803e3d6000fd5b505050506040513d601f19601f82011682018060405250810190612ee79190615679565b9550955095509550955095506040518060c00160405280876002811115612f1057612f10614dba565b8152602001868152602001858152602001848152602001831515815260200182151581525087600081518110612f4857612f486154e6565b602002602001018190525060a460009054906101000a90046001600160a01b03166001600160a01b0316631bd12d0d6040518163ffffffff1660e01b8152600401602060405180830381865afa158015612fa6573d6000803e3d6000fd5b505050506040513d601f19601f82011682018060405250810190612fca91906153d9565b6001600160a01b0316638e4822748a602001516040518263ffffffff1660e01b8152600401612ff99190615665565b60c060405180830381865afa158015613016573d6000803e3d6000fd5b505050506040513d601f19601f8201168201806040525081019061303a9190615679565b6040805160c08101909152959b509399509197509550935091508087600281111561306757613067614dba565b815260200186815260200185815260200184815260200183151581526020018215158152508760018151811061309f5761309f6154e6565b602002602001018190525060a460009054906101000a90046001600160a01b03166001600160a01b0316631bd12d0d6040518163ffffffff1660e01b8152600401602060405180830381865afa1580156130fd573d6000803e3d6000fd5b505050506040513d601f19601f8201168201806040525081019061312191906153d9565b6001600160a01b0316638e4822748a604001516040518263ffffffff1660e01b81526004016131509190615665565b60c060405180830381865afa15801561316d573d6000803e3d6000fd5b505050506040513d601f19601f820116820180604052508101906131919190615679565b6040805160c08101909152959b50939950919750955093509150808760028111156131be576131be614dba565b81526020018681526020018581526020018481526020018315158152602001821515815250876002815181106131f6576131f66154e6565b602002602001018190525060a460009054906101000a90046001600160a01b03166001600160a01b0316631bd12d0d6040518163ffffffff1660e01b8152600401602060405180830381865afa158015613254573d6000803e3d6000fd5b505050506040513d601f19601f8201168201806040525081019061327891906153d9565b6001600160a01b0316638e4822748a606001516040518263ffffffff1660e01b81526004016132a79190615665565b60c060405180830381865afa1580156132c4573d6000803e3d6000fd5b505050506040513d601f19601f820116820180604052508101906132e89190615679565b6040805160c08101909152959b509399509197509550935091508087600281111561331557613315614dba565b815260200186815260200185815260200184815260200183151581526020018215158152508760038151811061334d5761334d6154e6565b60209081029190910101525050505060a094909401519296509094505061ffff169150505b9193909250565b60a460009054906101000a90046001600160a01b03166001600160a01b031663c6b052666040518163ffffffff1660e01b8152600401602060405180830381865afa1580156133cc573d6000803e3d6000fd5b505050506040513d601f19601f820116820180604052508101906133f091906153d9565b6001600160a01b0316336001600160a01b0316146134205760405162461bcd60e51b81526004016105c890615463565b6001600160a01b038216600090815260a560205260409020805462010000900460ff1661345e5760405180604001604052806107306101f485614a91565b80546107929061ffff1683614a91565b60a460009054906101000a90046001600160a01b03166001600160a01b031663da10feee6040518163ffffffff1660e01b8152600401602060405180830381865afa1580156134c1573d6000803e3d6000fd5b505050506040513d601f19601f820116820180604052508101906134e591906153d9565b6001600160a01b0316336001600160a01b031614610c445760405162461bcd60e51b815260206004820152601760248201527627b7363c9021b93cb7b1b430b6b132b926b0b730b3b2b960491b60448201526064016105c8565b60995460a454604080516358aad3e760e01b81529051600093926001600160a01b0316916358aad3e79160048083019260209291908290030181865afa15801561358d573d6000803e3d6000fd5b505050506040513d601f19601f820116820180604052508101906135b191906153d9565b6001600160a01b03166318160ddd6040518163ffffffff1660e01b8152600401602060405180830381865afa1580156135ee573d6000803e3d6000fd5b505050506040513d601f19601f8201168201806040525081019061361291906157e6565b10905090565b603454610100900460ff166136335760345460ff1615613637565b303b155b61369a5760405162461bcd60e51b815260206004820152602e60248201527f496e697469616c697a61626c653a20636f6e747261637420697320616c72656160448201526d191e481a5b9a5d1a585b1a5e995960921b60648201526084016105c8565b603454610100900460ff161580156136bc576034805461ffff19166101011790555b60a480546001600160a01b0319166001600160a01b0384161790556136df614abf565b600060998190556040805160c081018252828152602081018390529081018290526064606082015260808101829052600160a08201819052609f80548083018255935281516005909302600080516020615904833981519152018054929390929091839160ff19169083600281111561375a5761375a614dba565b02179055506020820151600182015560408083015160028301556060830151600383015560808301516004909201805460a09094015115156101000261ff00199315159390931661ffff199094169390931791909117909155805160c08101909152609f90806000815260036020808301919091526001604083018190526064606084015260006080840181905260a090930181905284548082018655948352912082516005909402018054929390929091839160ff19169083600281111561382557613825614dba565b021790555060208281015160018381019190915560408085015160028086019190915560608087015160038701556080808801516004909701805460a0998a015115156101000261ff00199915159990991661ffff199091161797909717909655825160c0810184526000808252600696820196909652928301829052606490830152938101839052938401819052609f805480830182559252835160008051602061590483398151915260059093029290920180549093849260ff19909216919084908111156138f8576138f8614dba565b02179055506020820151600182015560408083015160028301556060830151600383015560808301516004909201805460a09094015115156101000261ff00199315159390931661ffff199094169390931791909117909155805160c08101909152609f90806000815260096020808301919091526003604083015260646060830152600060808301819052600160a0909301839052845480840186559481522082516005909402018054929390929091839160ff1916908360028111156139c2576139c2614dba565b0217905550602082015160018083019190915560408084015160028401556060840151600384015560808401516004909301805460a09586015115156101000261ff00199515159590951661ffff199091161793909317909255815160c081019092528190815260016020808301829052600060408401819052609660608501526080840181905260a09093018290528454808301865594835290912082516005909402018054929390929091839160ff191690836002811115613a8857613a88614dba565b0217905550602082015160018083019190915560408084015160028401556060840151600384015560808401516004909301805460a09586015115156101000261ff00199515159590951661ffff199091161793909317909255815160c081019092528190815260046020808301919091526001604083018190526096606084015260006080840181905260a090930181905284548082018655948352912082516005909402018054929390929091839160ff191690836002811115613b5057613b50614dba565b0217905550602082015160018083019190915560408084015160028401556060840151600384015560808401516004909301805460a09586015115156101000261ff00199515159590951661ffff199091161793909317909255815160c0810190925281908152600760208083019190915260026040830181905260966060840152600060808401819052600160a0909401849052855480850187559581529190912083516005909502018054939490939092849260ff19909216918490811115613c1d57613c1d614dba565b0217905550602082015160018083019190915560408084015160028401556060840151600384015560808401516004909301805460a09586015115156101000261ff00199515159590951661ffff199091161793909317909255815160c0810190925281908152600a6020808301919091526003604083015260966060830152600060808301819052600160a0909301839052845480840186559481522082516005909402018054929390929091839160ff191690836002811115613ce457613ce4614dba565b021790555060208281015160018381019190915560408085015160028086019190915560608087015160038701556080808801516004909701805460a0998a015115156101000261ff00199915159990991661ffff199091161797909717909655825160c081018452828152948501829052600092850183905260c89085015293830181905293820181905260a180548083018255945281516000805160206159248339815191526005909502949094018054929490939092849260ff19909116918490811115613db757613db7614dba565b0217905550602082015160018201556040808301516002808401919091556060840151600384015560808401516004909301805460a09095015115156101000261ff00199415159490941661ffff199095169490941792909217909255815160c0810190925260a19190819081526005602080830182905260016040840181905260c8606085015260006080850181905260a0909401819052855480820187559584529220835194909102018054929390929091839160ff191690836002811115613e8457613e84614dba565b021790555060208281015160018381019190915560408085015160028086019190915560608087015160038701556080808801516004909701805460a0998a015115156101000261ff00199915159990991661ffff199091161797909717909655825160c08101845282815260089581019590955291840181905260c891840191909152600093830184905293820181905260a1805480830182559352815160008051602061592483398151915260059094029390930180549294909392849260ff19909116918490811115613f5c57613f5c614dba565b0217905550602082015160018201556040808301516002808401919091556060840151600384015560808401516004909301805460a09095015115156101000261ff00199415159490941661ffff199095169490941792909217909255815160c0810190925260a1919081908152600b6020808301919091526003604083015260c86060830152600060808301819052600160a0909301839052845480840186559481522082516005909402018054929390929091839160ff19169083600281111561402a5761402a614dba565b0217905550602082015160018201556040808301516002808401919091556060840151600384015560808401516004909301805460a09095015115156101000261ff00199415159490941661ffff199095169490941792909217909255815160c0810190925260a2919081908152600c6020808301919091526004604083015261015e6060830152600060808301819052600160a0909301839052845480840186559481522082516005909402018054929390929091839160ff1916908360028111156140f9576140f9614dba565b0217905550602082015160018201556040808301516002808401919091556060840151600384015560808401516004909301805460a09095015115156101000261ff00199415159490941661ffff199095169490941792909217909255815160c0810190925260a2919081908152600d6020808301919091526004604083015261015e6060830152600060808301819052600160a0909301839052845480840186559481522082516005909402018054929390929091839160ff1916908360028111156141c8576141c8614dba565b021790555060208201516001820155604082015160028201556060820151600382015560808201516004909101805460a09093015115156101000261ff00199215159290921661ffff199093169290921717905580156107a4576034805461ff00191690555050565b6060600060a460009054906101000a90046001600160a01b03166001600160a01b03166358aad3e76040518163ffffffff1660e01b8152600401602060405180830381865afa158015614288573d6000803e3d6000fd5b505050506040513d601f19601f820116820180604052508101906142ac91906153d9565b90506000836001600160401b038111156142c8576142c8614ecd565b6040519080825280602002602001820160405280156142fb57816020015b60608152602001906001900390816142e65790505b50905060005b848110156143c457826001600160a01b0316634622ab0387878481811061432a5761432a6154e6565b905060200201356040518263ffffffff1660e01b815260040161434f91815260200190565b600060405180830381865afa15801561436c573d6000803e3d6000fd5b505050506040513d6000823e601f3d908101601f19168201604052614394919081019061553a565b8282815181106143a6576143a66154e6565b602002602001018190525080806143bc906157ff565b915050614301565b50949350505050565b609f818154811061252557600080fd5b6060600082516001600160401b038111156143fa576143fa614ecd565b604051908082528060200260200182016040528015614423578160200160208202803683370190505b50905060005b83518110156145e957614454848281518110614447576144476154e6565b6020026020010151614af6565b828281518110614466576144666154e6565b602002602001018181525050600060a460009054906101000a90046001600160a01b03166001600160a01b031663da10feee6040518163ffffffff1660e01b8152600401602060405180830381865afa1580156144c7573d6000803e3d6000fd5b505050506040513d601f19601f820116820180604052508101906144eb91906153d9565b6001600160a01b031663cd8b766786848151811061450b5761450b6154e6565b60200260200101516040518263ffffffff1660e01b815260040161453191815260200190565b6040805180830381865afa15801561454d573d6000803e3d6000fd5b505050506040513d601f19601f820116820180604052508101906145719190615818565b80519091506001600160401b0316158015906145a2575080600001516001600160401b0316426001600160401b0316115b156145d65780602001518383815181106145be576145be6154e6565b602002602001018181516145d291906154ce565b9052505b50806145e1816157ff565b915050614429565b5092915050565b60a454604080516358aad3e760e01b815290516000926001600160a01b0316916358aad3e79160048083019260209291908290030181865afa15801561463a573d6000803e3d6000fd5b505050506040513d601f19601f8201168201806040525081019061465e91906153d9565b6040516331a9108f60e11b81526004810185905290915033906001600160a01b03831690636352211e90602401602060405180830381865afa1580156146a8573d6000803e3d6000fd5b505050506040513d601f19601f820116820180604052508101906146cc91906153d9565b6001600160a01b0316146147135760405162461bcd60e51b815260206004820152600e60248201526d3737ba103cb7bab9103a37b5b2b760911b60448201526064016105c8565b60008251116147515760405162461bcd60e51b815260206004820152600a602482015269656d707479206e616d6560b01b60448201526064016105c8565b600f825111156147735760405162461bcd60e51b81526004016105c890615513565b604051634622ab0360e01b8152600481018490526001600160a01b03821690634622ab0390602401600060405180830381865afa1580156147b8573d6000803e3d6000fd5b505050506040513d6000823e601f3d908101601f191682016040526147e0919081019061553a565b5115610ea05760405162461bcd60e51b81526020600482015260136024820152721b985b59481a5cc8185b1c9958591e481cd95d606a1b60448201526064016105c8565b60008161ffff168361ffff16101561483d576000610b73565b610b73828461586f565b600080614855606484614999565b9050600084600281111561486b5761486b614dba565b0361488d57600a8110156148835760019150506123aa565b60009150506123aa565b60018460028111156148a1576148a1614dba565b036148d65760558111156148b95760009150506123aa565b60468111156148cc5760029150506123aa565b60019150506123aa565b60028460028111156148ea576148ea614dba565b036145e957600a8110156149025760019150506123aa565b60029150506123aa565b60675460ff166149555760405162461bcd60e51b815260206004820152601460248201527314185d5cd8589b194e881b9bdd081c185d5cd95960621b60448201526064016105c8565b6067805460ff191690557f5db9ee0a495bf2e6ff9c91a7834c1ba4fdd244a5e8aa4e537bd38aeae4b073aa335b60405161498f91906150ea565b60405180910390a1565b60008282336149a88242615608565b6149b36001436154fc565b6149be9190406154ce565b6149c891906154ce565b6149d291906154ce565b610b7391906154a4565b6000836001600160401b0316856001600160401b031614158015614a125750826001600160401b0316856001600160401b031614155b8015614a305750816001600160401b0316856001600160401b031614155b95945050505050565b60675460ff1615614a5c5760405162461bcd60e51b81526004016105c89061563b565b6067805460ff191660011790557f62e78cea01bee320cd4e420270b5ea74000d11b0c9f74754ebdbfc544b05a2586149823390565b600080614a9e8385615892565b90506103e88161ffff161015614ab457806107e5565b6103e8949350505050565b603454610100900460ff16614ae65760405162461bcd60e51b81526004016105c8906158b8565b614aee614c38565b61098d614c5f565b60008060a460009054906101000a90046001600160a01b03166001600160a01b03166358aad3e76040518163ffffffff1660e01b8152600401602060405180830381865afa158015614b4c573d6000803e3d6000fd5b505050506040513d601f19601f82011682018060405250810190614b7091906153d9565b6001600160a01b03166318160ddd6040518163ffffffff1660e01b8152600401602060405180830381865afa158015614bad573d6000803e3d6000fd5b505050506040513d601f19601f82011682018060405250810190614bd191906157e6565b905080831115614c1e5760405162461bcd60e51b81526020600482015260186024820152771ddc9bdb99c8185d985d185c9259081c995c5d595cdd195960421b60448201526064016105c8565b6000838152609b6020526040902054610b739060646154ce565b603454610100900460ff1661098d5760405162461bcd60e51b81526004016105c8906158b8565b603454610100900460ff16614c865760405162461bcd60e51b81526004016105c8906158b8565b6067805460ff19169055565b6040805160c0810190915280600081526020016000815260200160008152602001600081526020016000151581526020016000151581525090565b6040518060600160405280606081526020016000815260200160006001600160a01b031681525090565b6001600160a01b0381168114614d0c57600080fd5b50565b600080600060608486031215614d2457600080fd5b8335614d2f81614cf7565b92506020840135614d3f81614cf7565b929592945050506040919091013590565b60008060408385031215614d6357600080fd5b8235614d6e81614cf7565b9150602083013561ffff81168114614d8557600080fd5b809150509250929050565b60038110614d0c57600080fd5b600060208284031215614daf57600080fd5b8135610b7381614d90565b634e487b7160e01b600052602160045260246000fd5b60038110614dee57634e487b7160e01b600052602160045260246000fd5b9052565b614dfd828251614dd0565b60208101516020830152604081015160408301526060810151606083015260808101511515608083015260a0810151151560a08301525050565b60c081016123aa8284614df2565b600060208284031215614e5757600080fd5b5035919050565b600060208284031215614e7057600080fd5b8135610b7381614cf7565b600080600060608486031215614e9057600080fd5b8335614e9b81614d90565b92506020840135614d3f81614d90565b60008060408385031215614ebe57600080fd5b50508035926020909101359150565b634e487b7160e01b600052604160045260246000fd5b604051601f8201601f191681016001600160401b0381118282101715614f0b57614f0b614ecd565b604052919050565b60006001600160401b03821115614f2c57614f2c614ecd565b50601f01601f191660200190565b60008060408385031215614f4d57600080fd5b8235915060208301356001600160401b03811115614f6a57600080fd5b8301601f81018513614f7b57600080fd5b8035614f8e614f8982614f13565b614ee3565b818152866020838501011115614fa357600080fd5b816020840160208301376000602083830101528093505050509250929050565b6001600160401b0381168114614d0c57600080fd5b60008060008060808587031215614fee57600080fd5b8435614ff981614fc3565b9350602085013561500981614fc3565b9250604085013561501981614fc3565b9150606085013561502981614fc3565b939692955090935050565b6000806040838503121561504757600080fd5b823561505281614cf7565b91506020830135614d8581614d90565b600081518084526020808501945080840160005b8381101561509257815187529582019590820190600101615076565b509495945050505050565b602081526000610b736020830184615062565b60c081016150be8289614dd0565b60208201969096526040810194909452606084019290925215156080830152151560a090910152919050565b6001600160a01b0391909116815260200190565b60005b83811015615119578181015183820152602001615101565b83811115615128576000848401525b50505050565b600081518084526151468160208601602086016150fe565b601f01601f19169290920160200192915050565b6000604080835261516d81840186615062565b6020848203818601528186518084528284019150828160051b85010183890160005b838110156151e457601f198784030185528151606081518186526151b58287018261512e565b838a0151878b0152928b01516001600160a01b0316958b0195909552509486019492509085019060010161518f565b50909a9950505050505050505050565b6060815260006152076060830186615062565b82810360208481019190915285518083528682019282019060005b8181101561524857615235838651614df2565b9383019360c09290920191600101615222565b5050809350505050826040830152949350505050565b6000806020838503121561527157600080fd5b82356001600160401b038082111561528857600080fd5b818501915085601f83011261529c57600080fd5b8135818111156152ab57600080fd5b8660208260051b85010111156152c057600080fd5b60209290920196919550909350505050565b6000602080830181845280855180835260408601915060408160051b870101925083870160005b8281101561532757603f1988860301845261531585835161512e565b945092850192908501906001016152f9565b5092979650505050505050565b6000602080838503121561534757600080fd5b82356001600160401b038082111561535e57600080fd5b818501915085601f83011261537257600080fd5b81358181111561538457615384614ecd565b8060051b9150615395848301614ee3565b81815291830184019184810190888411156153af57600080fd5b938501935b838510156153cd578435825293850193908501906153b4565b98975050505050505050565b6000602082840312156153eb57600080fd5b8151610b7381614cf7565b6020808252600a908201526927b7363c9037bbb732b960b11b604082015260600190565b6001600160a01b03929092168252602082015260400190565b8051801515811461544357600080fd5b919050565b60006020828403121561545a57600080fd5b610b7382615433565b60208082526011908201527027b7363c9033b0b6b29036b0b730b3b2b960791b604082015260600190565b634e487b7160e01b600052601260045260246000fd5b6000826154b3576154b361548e565b500690565b634e487b7160e01b600052601160045260246000fd5b600082198211156154e1576154e16154b8565b500190565b634e487b7160e01b600052603260045260246000fd5b60008282101561550e5761550e6154b8565b500390565b6020808252600d908201526c6e616d6520746f6f206c6f6e6760981b604082015260600190565b60006020828403121561554c57600080fd5b81516001600160401b0381111561556257600080fd5b8201601f8101841361557357600080fd5b8051615581614f8982614f13565b81815285602083850101111561559657600080fd5b614a308260208301602086016150fe565b600082516155b98184602087016150fe565b9190910192915050565b8281526040602082015260006107e5604083018461512e565b600080604083850312156155ef57600080fd5b6155f883615433565b9150602083015190509250929050565b6000816000190483118215151615615622576156226154b8565b500290565b6000826156365761563661548e565b500490565b60208082526010908201526f14185d5cd8589b194e881c185d5cd95960821b604082015260600190565b6001600160401b0391909116815260200190565b60008060008060008060c0878903121561569257600080fd5b865161569d81614d90565b809650506020870151945060408701519350606087015192506156c260808801615433565b91506156d060a08801615433565b90509295509295509295565b6020808252601690820152753cb7ba9030b932903737ba1033b2b0b91037bbb732b960511b604082015260600190565b6020808252601e908201527f63616e206e6f74206c6f636b207472616e73706f727420617320676561720000604082015260600190565b60208082526029908201527f796f752063616e2774206c6f636b206765617273206f66207468652073616d656040820152682063617465676f727960b81b606082015260800190565b600061ffff8083168181036157a3576157a36154b8565b6001019392505050565b6001600160a01b038616815260a081016157ca6020830187614dd0565b8460408301528360608301528260808301529695505050505050565b6000602082840312156157f857600080fd5b5051919050565b600060018201615811576158116154b8565b5060010190565b60006040828403121561582a57600080fd5b604080519081016001600160401b038111828210171561584c5761584c614ecd565b604052825161585a81614fc3565b81526020928301519281019290925250919050565b600061ffff8381169083168181101561588a5761588a6154b8565b039392505050565b600061ffff8083168185168083038211156158af576158af6154b8565b01949350505050565b6020808252602b908201527f496e697469616c697a61626c653a20636f6e7472616374206973206e6f74206960408201526a6e697469616c697a696e6760a81b60608201526080019056fe0bc14066c33013fe88f66e314e4cf150b0b2d4d6451a1a51dbbd1c27cd11de28aadc37b8ba5645e62f4546802db221593a94729ccbfc5a97d01365a88f649878a264697066735822122065758d63b7578fe74109856fe0ba89ffb233e7c356c97497273356cc41e9020d64736f6c634300080d0033",
  "immutableReferences": {},
  "source": "// SPDX-License-Identifier: MIT\npragma solidity >=0.8.0 <0.9.0;\n\nimport '@openzeppelin/contracts-upgradeable/security/PausableUpgradeable.sol';\nimport '@openzeppelin/contracts/token/ERC721/extensions/ERC721Enumerable.sol';\nimport './GameConnection.sol';\nimport '@openzeppelin/contracts/token/ERC20/IERC20.sol';\nimport './interfaces/ICollectionManager.sol';\nimport './interfaces/IEnums.sol';\nimport './interfaces/IDependencies.sol';\nimport './interfaces/IOwnable.sol';\nimport './Constants.sol';\n\ncontract CollectionManager is ICollectionManager, GameConnection, PausableUpgradeable, Constants {\n  uint256 public maxTokenId;\n\n  address reserved0;\n  mapping(uint256 => uint256) private xp;\n\n  address reserved1;\n  address reserved2;\n\n  uint8 randomNonce;\n\n  struct GearLocks {\n    uint64 transportId;\n    uint64 gear1Id;\n    uint64 gear2Id;\n    uint64 gear3Id;\n    bool set;\n    uint16 locks;\n  }\n  \n  struct AvatarData {\n    string name;\n    uint256 xp;\n    address owner;\n  }\n\n  mapping(address => GearLocks) public gearLocks;\n\n  IGears.Gear[] public initialCommonGears;\n  IGears.Gear[] public initialRareGears;\n  IGears.Gear[] public initialLegendaryGears;\n  IGears.Gear[] public transportGears;\n\n  address reserved3;\n\n  IDependencies public d;\n\n  // from 0 to 100\n  struct TransportCondition {\n    uint16 condition;\n    bool set;\n  }\n\n  mapping(address => TransportCondition) private transportCondition;\n\n  uint256[39] private ______mc_gap;\n\n  modifier onlyCryochamberManager() {\n    require(msg.sender == address(d.cryochamber()), 'Only CryochamberManager');\n    _;\n  }\n\n  modifier onlyOwner() {\n    require(msg.sender == d.owner(), 'Only owner');\n    _;\n  }\n\n  modifier onlyGameManager() {\n    require(msg.sender == address(d.gameManager()), 'Only game manager');\n    _;\n  }\n\n  function initialize(IDependencies _d) external initializer {\n    d = _d;\n    PausableUpgradeable.__Pausable_init();\n    maxTokenId = 0;\n\n    // gears\n    initialCommonGears.push(\n      IGears.Gear(IEnums.Rarity.COMMON, ROCKET_FUEL, CATEGORY_ENGINE, COMMON_GEAR_DURABILITY, false, true)\n    );\n    initialCommonGears.push(\n      IGears.Gear(IEnums.Rarity.COMMON, TITANIUM_DRILL, CATEGORY_DRILL, COMMON_GEAR_DURABILITY, false, true)\n    );\n    initialCommonGears.push(\n      IGears.Gear(IEnums.Rarity.COMMON, SMALL_AREA_SCANNER, CATEGORY_SCANNER, COMMON_GEAR_DURABILITY, false, true)\n    );\n    initialCommonGears.push(\n      IGears.Gear(\n        IEnums.Rarity.COMMON,\n        ULTRASONIC_TRANSMITTER,\n        CATEGORY_TRANSMITTER,\n        COMMON_GEAR_DURABILITY,\n        false,\n        true\n      )\n    );\n\n    initialRareGears.push(\n      IGears.Gear(IEnums.Rarity.RARE, ENGINE_FURIOUS, CATEGORY_ENGINE, RARE_GEAR_DURABILITY, false, true)\n    );\n    initialRareGears.push(\n      IGears.Gear(IEnums.Rarity.RARE, DIAMOND_DRILL, CATEGORY_DRILL, RARE_GEAR_DURABILITY, false, true)\n    );\n    initialRareGears.push(\n      IGears.Gear(IEnums.Rarity.RARE, MEDIUM_AREA_SCANNER, CATEGORY_SCANNER, RARE_GEAR_DURABILITY, false, true)\n    );\n    initialRareGears.push(\n      IGears.Gear(IEnums.Rarity.RARE, INFRARED_TRANSMITTER, CATEGORY_TRANSMITTER, RARE_GEAR_DURABILITY, false, true)\n    );\n\n    initialLegendaryGears.push(\n      IGears.Gear(IEnums.Rarity.LEGENDARY, WD_40, CATEGORY_ENGINE, LEGENDARY_GEAR_DURABILITY, false, true)\n    );\n    initialLegendaryGears.push(\n      IGears.Gear(IEnums.Rarity.LEGENDARY, LASER_DRILL, CATEGORY_DRILL, LEGENDARY_GEAR_DURABILITY, false, true)\n    );\n    initialLegendaryGears.push(\n      IGears.Gear(IEnums.Rarity.LEGENDARY, LARGE_AREA_SCANNER, CATEGORY_SCANNER, LEGENDARY_GEAR_DURABILITY, false, true)\n    );\n    initialLegendaryGears.push(\n      IGears.Gear(\n        IEnums.Rarity.LEGENDARY,\n        VIBRATION_TRANSMITTER,\n        CATEGORY_TRANSMITTER,\n        LEGENDARY_GEAR_DURABILITY,\n        false,\n        true\n      )\n    );\n\n    transportGears.push(\n      IGears.Gear(\n        IEnums.Rarity.LEGENDARY,\n        THE_NEBUCHADNEZZAR,\n        CATEGORY_TRANSPORT,\n        TRANSPORT_GEAR_DURABILITY,\n        false,\n        true\n      )\n    );\n    transportGears.push(\n      IGears.Gear(IEnums.Rarity.LEGENDARY, THE_WRAITH, CATEGORY_TRANSPORT, TRANSPORT_GEAR_DURABILITY, false, true)\n    );\n  }\n\n  function setDependencies(IDependencies addr) external {\n    require(address(d) == address(0) || d.owner() == msg.sender);\n    d = addr;\n  }\n\n  function _getXP(uint256 avatarId) private view returns (uint256) {\n    uint256 totalAvatarsCount = d.martianColonists().totalSupply();\n    require(avatarId <= totalAvatarsCount, 'wrong avatarId requested');\n    return xp[avatarId] + 100; // 100 is a base for every avatar\n  }\n\n  function getXP(uint256[] memory avatarIds) public view returns (uint256[] memory) {\n    uint256[] memory result = new uint256[](avatarIds.length);\n\n    for (uint256 i = 0; i < avatarIds.length; i++) {\n      result[i] = _getXP(avatarIds[i]);\n\n      ICryochamber.CryoTime memory cryo = d.cryochamber().getAvatarCryoStatus(avatarIds[i]);\n\n      if (cryo.endTime > 0 && uint64(block.timestamp) > cryo.endTime) {\n        result[i] += cryo.reward;\n      }\n    }\n    return result;\n  }\n\n  function addXP(uint256 avatarId, uint256 increment) external {\n    require(msg.sender == address(d.gameManager()), 'Only GameManager');\n    xp[avatarId] = xp[avatarId] + increment;\n  }\n\n  function addXPAfterCryo(uint256 avatarId, uint256 increment) external onlyCryochamberManager {\n    xp[avatarId] = xp[avatarId] + increment;\n  }\n\n  function allMyTokens() external view returns (uint256[] memory) {\n    IMartianColonists martianColonists = d.martianColonists();\n    uint256 tokenCount = martianColonists.balanceOf(msg.sender);\n    if (tokenCount == 0) {\n      return new uint256[](0);\n    }\n\n    uint256[] memory result = new uint256[](tokenCount);\n    for (uint256 i = 0; i < tokenCount; i++) {\n      result[i] = martianColonists.tokenOfOwnerByIndex(msg.sender, i);\n    }\n    return result;\n  }\n\n  function allTokensPaginate(uint256 _from, uint256 _to) external view returns (uint256[] memory, AvatarData[] memory) {\n    IMartianColonists martianColonists = d.martianColonists();\n    uint256 tokenCount = martianColonists.totalSupply();\n    if (tokenCount <= _from || _from > _to || tokenCount == 0) {\n      return (new uint256[](0), new AvatarData[](0));\n    }\n    uint256 to = (tokenCount - 1 > _to) ? _to : tokenCount - 1;\n    uint256[] memory ids = new uint256[](to - _from + 1);\n    AvatarData[] memory avatarsResult = new AvatarData[](to - _from + 1);\n\n    for (uint256 i = _from; i <= to; i++) {\n      uint256 tokenId = martianColonists.tokenByIndex(i);\n      ids[i - _from] = tokenId;\n      uint256 avatarXp = xp[tokenId];\n      string memory avatarName = martianColonists.names(tokenId);\n      address owner = martianColonists.ownerOf(tokenId);\n      avatarsResult[i - _from] = AvatarData(avatarName, avatarXp, owner);\n    }\n    return (ids, avatarsResult);\n  }\n\n  function setMaxTokenId(uint256 _maxTokenId) external onlyOwner {\n    require(_maxTokenId > maxTokenId, 'can only increase');\n    maxTokenId = _maxTokenId;\n  }\n\n  function ableToMint() public view returns (bool) {\n    return d.martianColonists().totalSupply() < maxTokenId;\n  }\n\n  function mint(address receiver) external onlyGameManager whenNotPaused {\n    require(ableToMint(), 'cannot mint');\n    d.martianColonists().mint(receiver);\n  }\n\n  function pause() external onlyGameManager {\n    _pause();\n  }\n\n  function unpause() external onlyGameManager {\n    _unpause();\n  }\n\n  function setName(uint256 tokenId, string memory _name) external {\n    IMartianColonists martianColonists = d.martianColonists();\n    require(martianColonists.ownerOf(tokenId) == msg.sender, 'not your token');\n    require(bytes(_name).length > 0, 'empty name');\n    require(bytes(_name).length <= 15, 'name too long');\n    require(bytes(martianColonists.names(tokenId)).length == 0, 'name is already set');\n    martianColonists.setName(tokenId, _name);\n  }\n\n  function setNameByGameManager(uint256 tokenId, string memory _name) external onlyGameManager {\n    IMartianColonists martianColonists = d.martianColonists();\n    require(bytes(_name).length <= 15, 'name too long');\n    require(\n      keccak256(abi.encodePacked(_name)) != keccak256(abi.encodePacked(martianColonists.names(tokenId))),\n      'same name'\n    );\n    martianColonists.setName(tokenId, _name);\n  }\n\n  function getNames(uint256[] calldata tokenIds) external view returns (string[] memory) {\n    IMartianColonists martianColonists = d.martianColonists();\n    string[] memory result = new string[](tokenIds.length);\n    for (uint256 i = 0; i < tokenIds.length; i++) {\n      result[i] = martianColonists.names(tokenIds[i]);\n    }\n    return result;\n  }\n\n  // gears\n\n  function getRandomizedGear(\n    IEnums.Rarity _lootboxRarity,\n    IEnums.Rarity _gearRarity,\n    uint256 nonce\n  ) public view returns (IGears.Gear memory gear) {\n    if (_lootboxRarity == IEnums.Rarity.RARE && _gearRarity == IEnums.Rarity.LEGENDARY) {\n      // exclude transports\n      uint256 modulo = randomNumber(initialLegendaryGears.length, nonce);\n      return initialLegendaryGears[modulo];\n    }\n\n    if (_gearRarity == IEnums.Rarity.COMMON) {\n      uint256 modulo = randomNumber(initialCommonGears.length, nonce);\n      return initialCommonGears[modulo];\n    }\n\n    if (_gearRarity == IEnums.Rarity.RARE) {\n      uint256 modulo = randomNumber(initialRareGears.length, nonce);\n      return initialRareGears[modulo];\n    }\n\n    if (_gearRarity == IEnums.Rarity.LEGENDARY) {\n      // choose from legendary and transports arrays\n\n      uint256 modulo = randomNumber(initialLegendaryGears.length + transportGears.length, nonce);\n      if (modulo < initialLegendaryGears.length) {\n        return initialLegendaryGears[modulo];\n      }\n      return transportGears[modulo - initialLegendaryGears.length];\n    }\n  }\n\n  function randomNumber(uint256 modulo, uint256 nonce) private view returns (uint256) {\n    return\n      (uint256(blockhash(block.number - 1)) + block.timestamp * nonce + uint256(uint160(msg.sender)) + nonce) % modulo;\n  }\n\n  function getRandomizedGearRarity(IEnums.Rarity _lootBoxRarity, uint256 nonce)\n    private\n    view\n    returns (IEnums.Rarity gearRarity)\n  {\n    uint256 randomOf100 = randomNumber(100, nonce);\n\n    if (_lootBoxRarity == IEnums.Rarity.COMMON) {\n      if (randomOf100 < 10) {\n        return IEnums.Rarity.RARE; // 10%\n      }\n      return IEnums.Rarity.COMMON; // 90%\n    }\n\n    if (_lootBoxRarity == IEnums.Rarity.RARE) {\n      if (randomOf100 > 85) {\n        return IEnums.Rarity.COMMON; // 15%\n      }\n\n      if (randomOf100 > 70) {\n        return IEnums.Rarity.LEGENDARY; // 15%\n      }\n\n      return IEnums.Rarity.RARE; // 70%\n    }\n\n    if (_lootBoxRarity == IEnums.Rarity.LEGENDARY) {\n      if (randomOf100 < 10) {\n        return IEnums.Rarity.RARE; // 10%\n      }\n      return IEnums.Rarity.LEGENDARY; // 90%\n    }\n  }\n\n  function calculateGear(IEnums.Rarity _lootBoxRarity) public view returns (IGears.Gear memory) {\n    IEnums.Rarity gearRarity = getRandomizedGearRarity(_lootBoxRarity, block.timestamp % 71);\n    IGears.Gear memory gear = getRandomizedGear(_lootBoxRarity, gearRarity, (block.timestamp % 71) + 1);\n    return gear;\n  }\n\n  function isUnique(\n    uint64 idToCheck,\n    uint64 id1,\n    uint64 id2,\n    uint64 id3\n  ) internal pure returns (bool) {\n    return idToCheck != id1 && idToCheck != id2 && idToCheck != id3;\n  }\n\n  function setLocks(\n    uint64 transportId,\n    uint64 gear1Id,\n    uint64 gear2Id,\n    uint64 gear3Id\n  ) external {\n    IGears gears = d.gears();\n    uint256 category;\n    uint256 specialTransportType;\n    // if user doesn't lock special transport, he can lock up to 2 gears. otherwise up to 3\n    if (transportId != 0) {\n      require(msg.sender == IOwnable(address(gears)).ownerOf(transportId), 'you are not transport owner');\n\n      uint256 gearType;\n      (, gearType, category, , , ) = gears.gears(transportId);\n      require(category == CATEGORY_TRANSPORT, 'transportId is not transport');\n\n      specialTransportType = gearType;\n    }\n\n    // can not lock gears of the same categories\n    uint256 categoryAccumulator = 0;\n\n    if (gear1Id != 0) {\n      require(msg.sender == IOwnable(address(gears)).ownerOf(gear1Id), 'you are not gear owner');\n      (, , category, , , ) = gears.gears(gear1Id);\n      require(category != CATEGORY_TRANSPORT, 'can not lock transport as gear');\n      categoryAccumulator = 1 << category;\n    }\n\n    if (gear2Id != 0) {\n      require(msg.sender == IOwnable(address(gears)).ownerOf(gear2Id), 'you are not gear owner');\n      (, , category, , , ) = gears.gears(gear2Id);\n      require(category != CATEGORY_TRANSPORT, 'can not lock transport as gear');\n      require(categoryAccumulator & (1 << category) == 0, \"you can't lock gears of the same category\");\n      categoryAccumulator = categoryAccumulator | (1 << category);\n    }\n\n    if (gear3Id != 0) {\n      require(msg.sender == IOwnable(address(gears)).ownerOf(gear3Id), 'you are not gear owner');\n      (, , category, , , ) = gears.gears(gear3Id);\n      require(category != CATEGORY_TRANSPORT, 'can not lock transport as gear');\n      require(categoryAccumulator & (1 << category) == 0, \"you can't lock gears of the same category\");\n      // if user doesn't lock special transport, he can lock up to 2 gears. otherwise up to 3\n      require(specialTransportType == THE_NEBUCHADNEZZAR, 'can not lock 3 gears without special transport');\n    }\n\n    // unlock prev locked transport and gear\n    GearLocks memory prevLockedGears = gearLocks[msg.sender];\n\n    if (prevLockedGears.set) {\n      if (prevLockedGears.transportId != 0 && prevLockedGears.transportId != transportId) {\n        gears.unlockGear(prevLockedGears.transportId);\n      }\n\n      if (isUnique(prevLockedGears.gear1Id, gear1Id, gear2Id, gear3Id)) {\n        gears.unlockGear(prevLockedGears.gear1Id);\n      }\n\n      if (isUnique(prevLockedGears.gear2Id, gear1Id, gear2Id, gear3Id)) {\n        gears.unlockGear(prevLockedGears.gear2Id);\n      }\n\n      if (isUnique(prevLockedGears.gear3Id, gear1Id, gear2Id, gear3Id)) {\n        gears.unlockGear(prevLockedGears.gear3Id);\n      }\n    }\n\n    // update state by rewrite\n    uint16 locks = prevLockedGears.locks;\n    if (locks == type(uint16).max) {\n      locks = 0;\n    } else {\n      locks++;\n    }\n\n    // lock current gears\n\n    if (transportId != 0 && transportId != prevLockedGears.transportId) {\n      gears.lockGear(transportId);\n    }\n\n    if (gear1Id != 0 && isUnique(gear1Id, prevLockedGears.gear1Id, prevLockedGears.gear2Id, prevLockedGears.gear3Id)) {\n      gears.lockGear(gear1Id);\n    }\n\n    if (gear2Id != 0 && isUnique(gear2Id, prevLockedGears.gear1Id, prevLockedGears.gear2Id, prevLockedGears.gear3Id)) {\n      gears.lockGear(gear2Id);\n    }\n\n    if (gear3Id != 0 && isUnique(gear3Id, prevLockedGears.gear1Id, prevLockedGears.gear2Id, prevLockedGears.gear3Id)) {\n      d.gears().lockGear(gear3Id);\n    }\n    gearLocks[msg.sender] = GearLocks(transportId, gear1Id, gear2Id, gear3Id, true, locks);\n  }\n\n  function allMyTokensPaginate(uint256 _from, uint256 _to) external view returns (uint256[] memory) {\n    IMartianColonists martianColonists = d.martianColonists();\n    uint256 tokenCount = martianColonists.balanceOf(msg.sender);\n    if (tokenCount <= _from || _from > _to || tokenCount == 0) {\n      return (new uint256[](0));\n    }\n\n    uint256 to = (tokenCount - 1 > _to) ? _to : tokenCount - 1;\n    uint256[] memory result = new uint256[](to - _from + 1);\n    for (uint256 i = _from; i <= to; i++) {\n      result[i - _from] = martianColonists.tokenOfOwnerByIndex(msg.sender, i);\n    }\n\n    return result;\n  }\n\n  function mintGear(address owner, IEnums.Rarity _lootBoxrarity) external onlyGameManager {\n    IGears.Gear memory gear = calculateGear(_lootBoxrarity);\n    d.gears().mint(owner, gear.rarity, gear.gearType, gear.category, gear.durability);\n  }\n\n  function withdrawToken(\n    address _tokenContract,\n    address _whereTo,\n    uint256 _amount\n  ) external onlyOwner {\n    IERC20 tokenContract = IERC20(_tokenContract);\n    tokenContract.transfer(_whereTo, _amount);\n  }\n\n  function getLootboxOpeningPrice()\n    external\n    view\n    returns (\n      uint256 common,\n      uint256 rare,\n      uint256 legendary\n    )\n  {\n    (bool valid, uint256 clnyInUsd) = d.oracle().clnyInUsd();\n\n    require(valid, 'oracle price of clny is not valid');\n\n    common = (COMMON_OPENING_PRICE_USD * clnyInUsd) / 100; // from cents to usd\n    rare = (RARE_OPENING_PRICE_USD * clnyInUsd) / 100;\n    legendary = (LEGENDARY_OPENING_PRICE_USD * clnyInUsd) / 100;\n  }\n\n  function getLockedGears(address user)\n    external\n    view\n    returns (\n      uint256[] memory,\n      IGears.Gear[] memory,\n      uint256 locksCount\n    )\n  {\n    GearLocks memory locks = gearLocks[user];\n\n    if (!locks.set) {\n      return (new uint256[](0), new IGears.Gear[](0), 0);\n    }\n\n    uint256[] memory ids = new uint256[](4);\n    IGears.Gear[] memory gearsResult = new IGears.Gear[](4);\n\n    ids[0] = locks.transportId;\n    ids[1] = locks.gear1Id;\n    ids[2] = locks.gear2Id;\n    ids[3] = locks.gear3Id;\n\n    (IEnums.Rarity rarity, uint256 gearType, uint256 category, uint256 durability, bool locked, bool set) = d\n      .gears()\n      .gears(locks.transportId);\n    gearsResult[0] = IGears.Gear(rarity, gearType, category, durability, locked, set);\n\n    (rarity, gearType, category, durability, locked, set) = d.gears().gears(locks.gear1Id);\n    gearsResult[1] = IGears.Gear(rarity, gearType, category, durability, locked, set);\n\n    (rarity, gearType, category, durability, locked, set) = d.gears().gears(locks.gear2Id);\n    gearsResult[2] = IGears.Gear(rarity, gearType, category, durability, locked, set);\n\n    (rarity, gearType, category, durability, locked, set) = d.gears().gears(locks.gear3Id);\n    gearsResult[3] = IGears.Gear(rarity, gearType, category, durability, locked, set);\n\n    return (ids, gearsResult, locks.locks);\n  }\n\n  function decrementCondition(uint16 condition, uint16 percents) internal pure returns (uint16) {\n    return condition >= percents ? condition - percents : 0;\n  }\n\n  function increaseTransportDamage(address transport, uint16 percents) external onlyGameManager {\n    TransportCondition storage conditionStruct = transportCondition[transport];\n\n    if (!conditionStruct.set) {\n      // 500 is initial 50% condition\n      transportCondition[transport] = TransportCondition(decrementCondition(500, percents), true);\n      return;\n    }\n\n    conditionStruct.condition = decrementCondition(conditionStruct.condition, percents);\n  }\n\n  function incrementCondition(uint16 condition, uint16 percents) internal pure returns (uint16) {\n    uint16 updatedCondition = condition + percents;\n    return (updatedCondition >= 1000) ? 1000 : updatedCondition;\n  }\n\n  function repairTransport(address transport, uint16 percents) external onlyGameManager {\n    TransportCondition storage conditionStruct = transportCondition[transport];\n\n    if (!conditionStruct.set) {\n      transportCondition[transport] = TransportCondition(incrementCondition(500, percents), true);\n      return;\n    }\n\n    conditionStruct.condition = incrementCondition(conditionStruct.condition, percents);\n  }\n\n  /**\n   * Transport condition getter\n   * Returns condition * 10\n   */\n  function getTransportCondition(address transport) external view returns (uint16) {\n    TransportCondition memory t = transportCondition[transport];\n    return t.set ? t.condition : 500;\n  }\n}\n",
  "sourcePath": "/Users/maxim/work/marscolony/contracts/contracts/CollectionManager.sol",
  "compiler": {
    "name": "solc",
    "version": "0.8.13+commit.abaa5c0e.Emscripten.clang"
  },
  "schemaVersion": "3.4.7",
  "updatedAt": "2022-10-27T12:34:20.555Z",
  "devdoc": {
    "kind": "dev",
    "methods": {
      "paused()": {
        "details": "Returns true if the contract is paused, and false otherwise."
      }
    },
    "version": 1
  },
  "userdoc": {
    "kind": "user",
    "methods": {
      "getTransportCondition(address)": {
        "notice": "Transport condition getter Returns condition * 10"
      }
    },
    "version": 1
  }
}