{
  "contractName": "CryochamberManager",
  "abi": [
    {
      "anonymous": false,
      "inputs": [
        {
          "indexed": false,
          "internalType": "address",
          "name": "account",
          "type": "address"
        }
      ],
      "name": "Paused",
      "type": "event"
    },
    {
      "anonymous": false,
      "inputs": [
        {
          "indexed": false,
          "internalType": "address",
          "name": "account",
          "type": "address"
        }
      ],
      "name": "Unpaused",
      "type": "event"
    },
    {
      "inputs": [],
      "name": "DAO",
      "outputs": [
        {
          "internalType": "address",
          "name": "",
          "type": "address"
        }
      ],
      "stateMutability": "view",
      "type": "function"
    },
    {
      "inputs": [],
      "name": "GameManager",
      "outputs": [
        {
          "internalType": "address",
          "name": "",
          "type": "address"
        }
      ],
      "stateMutability": "view",
      "type": "function"
    },
    {
      "inputs": [],
      "name": "avatarManager",
      "outputs": [
        {
          "internalType": "contract IAvatarManager",
          "name": "",
          "type": "address"
        }
      ],
      "stateMutability": "view",
      "type": "function"
    },
    {
      "inputs": [],
      "name": "avatars",
      "outputs": [
        {
          "internalType": "contract IMartianColonists",
          "name": "",
          "type": "address"
        }
      ],
      "stateMutability": "view",
      "type": "function"
    },
    {
      "inputs": [],
      "name": "cryoEnergyCost",
      "outputs": [
        {
          "internalType": "uint256",
          "name": "",
          "type": "uint256"
        }
      ],
      "stateMutability": "view",
      "type": "function"
    },
    {
      "inputs": [],
      "name": "cryoPeriodLength",
      "outputs": [
        {
          "internalType": "uint64",
          "name": "",
          "type": "uint64"
        }
      ],
      "stateMutability": "view",
      "type": "function"
    },
    {
      "inputs": [],
      "name": "cryochamberPrice",
      "outputs": [
        {
          "internalType": "uint256",
          "name": "",
          "type": "uint256"
        }
      ],
      "stateMutability": "view",
      "type": "function"
    },
    {
      "inputs": [
        {
          "internalType": "address",
          "name": "",
          "type": "address"
        }
      ],
      "name": "cryochambers",
      "outputs": [
        {
          "internalType": "uint256",
          "name": "energy",
          "type": "uint256"
        },
        {
          "internalType": "bool",
          "name": "isSet",
          "type": "bool"
        }
      ],
      "stateMutability": "view",
      "type": "function"
    },
    {
      "inputs": [],
      "name": "energyPrice",
      "outputs": [
        {
          "internalType": "uint256",
          "name": "",
          "type": "uint256"
        }
      ],
      "stateMutability": "view",
      "type": "function"
    },
    {
      "inputs": [],
      "name": "initialEnergy",
      "outputs": [
        {
          "internalType": "uint256",
          "name": "",
          "type": "uint256"
        }
      ],
      "stateMutability": "view",
      "type": "function"
    },
    {
      "inputs": [],
      "name": "paused",
      "outputs": [
        {
          "internalType": "bool",
          "name": "",
          "type": "bool"
        }
      ],
      "stateMutability": "view",
      "type": "function"
    },
    {
      "inputs": [
        {
          "internalType": "address",
          "name": "_GameManager",
          "type": "address"
        }
      ],
      "name": "setGameManager",
      "outputs": [],
      "stateMutability": "nonpayable",
      "type": "function"
    },
    {
      "inputs": [
        {
          "internalType": "address",
          "name": "_DAO",
          "type": "address"
        }
      ],
      "name": "transferDAO",
      "outputs": [],
      "stateMutability": "nonpayable",
      "type": "function"
    },
    {
      "inputs": [
        {
          "internalType": "address",
          "name": "_DAO",
          "type": "address"
        },
        {
          "internalType": "address",
          "name": "_collection",
          "type": "address"
        },
        {
          "internalType": "address",
          "name": "_avatarManager",
          "type": "address"
        }
      ],
      "name": "initialize",
      "outputs": [],
      "stateMutability": "nonpayable",
      "type": "function"
    },
    {
      "inputs": [
        {
          "internalType": "uint256",
          "name": "_price",
          "type": "uint256"
        }
      ],
      "name": "setCryochamberPrice",
      "outputs": [],
      "stateMutability": "nonpayable",
      "type": "function"
    },
    {
      "inputs": [
        {
          "internalType": "uint256",
          "name": "_cost",
          "type": "uint256"
        }
      ],
      "name": "setCryochamberCost",
      "outputs": [],
      "stateMutability": "nonpayable",
      "type": "function"
    },
    {
      "inputs": [
        {
          "internalType": "uint256",
          "name": "_price",
          "type": "uint256"
        }
      ],
      "name": "setEnergyPrice",
      "outputs": [],
      "stateMutability": "nonpayable",
      "type": "function"
    },
    {
      "inputs": [
        {
          "internalType": "uint256",
          "name": "_energy",
          "type": "uint256"
        }
      ],
      "name": "setInitialEnergy",
      "outputs": [],
      "stateMutability": "nonpayable",
      "type": "function"
    },
    {
      "inputs": [
        {
          "internalType": "uint64",
          "name": "_time",
          "type": "uint64"
        }
      ],
      "name": "setCryoPeriodLength",
      "outputs": [],
      "stateMutability": "nonpayable",
      "type": "function"
    },
    {
      "inputs": [
        {
          "internalType": "address",
          "name": "user",
          "type": "address"
        }
      ],
      "name": "purchaseCryochamber",
      "outputs": [],
      "stateMutability": "nonpayable",
      "type": "function"
    },
    {
      "inputs": [
        {
          "internalType": "address",
          "name": "user",
          "type": "address"
        },
        {
          "internalType": "uint256",
          "name": "_energyAmount",
          "type": "uint256"
        }
      ],
      "name": "purchaseCryochamberEnergy",
      "outputs": [],
      "stateMutability": "nonpayable",
      "type": "function"
    },
    {
      "inputs": [
        {
          "internalType": "uint256",
          "name": "avatarId",
          "type": "uint256"
        }
      ],
      "name": "isAvatarInCryoChamber",
      "outputs": [
        {
          "internalType": "bool",
          "name": "",
          "type": "bool"
        }
      ],
      "stateMutability": "view",
      "type": "function"
    },
    {
      "inputs": [
        {
          "internalType": "uint256[]",
          "name": "avatarIds",
          "type": "uint256[]"
        }
      ],
      "name": "isInCryoChamber",
      "outputs": [
        {
          "internalType": "bool[]",
          "name": "",
          "type": "bool[]"
        }
      ],
      "stateMutability": "view",
      "type": "function"
    },
    {
      "inputs": [
        {
          "internalType": "uint256[]",
          "name": "avatarIds",
          "type": "uint256[]"
        }
      ],
      "name": "putAvatarsInCryochamber",
      "outputs": [],
      "stateMutability": "nonpayable",
      "type": "function"
    },
    {
      "inputs": [
        {
          "internalType": "uint256",
          "name": "avatarId",
          "type": "uint256"
        }
      ],
      "name": "estimateXpAddition",
      "outputs": [
        {
          "internalType": "uint256",
          "name": "",
          "type": "uint256"
        }
      ],
      "stateMutability": "view",
      "type": "function"
    },
    {
      "inputs": [],
      "name": "pause",
      "outputs": [],
      "stateMutability": "nonpayable",
      "type": "function"
    },
    {
      "inputs": [],
      "name": "unpause",
      "outputs": [],
      "stateMutability": "nonpayable",
      "type": "function"
    },
    {
      "inputs": [
        {
          "internalType": "uint256",
          "name": "avatarId",
          "type": "uint256"
        }
      ],
      "name": "getAvatarCryo",
      "outputs": [
        {
          "components": [
            {
              "internalType": "uint64",
              "name": "endTime",
              "type": "uint64"
            },
            {
              "internalType": "uint256",
              "name": "reward",
              "type": "uint256"
            }
          ],
          "internalType": "struct ICryochamber.CryoTime",
          "name": "",
          "type": "tuple"
        }
      ],
      "stateMutability": "view",
      "type": "function"
    }
  ],
  "bytecode": "0x608060405234801561001057600080fd5b506117aa806100206000396000f3fe608060405234801561001057600080fd5b50600436106101c45760003560e01c806363309738116100f9578063c0c53b8b11610097578063d12138af11610071578063d12138af14610449578063d70b79511461045c578063ecc18f9914610465578063fb8a03141461047857600080fd5b8063c0c53b8b14610403578063c7af343d14610416578063d0b01cc51461043657600080fd5b806398fabd3a116100d357806398fabd3a1461038b578063b7127e411461039e578063ba5c30c8146103b1578063bac65854146103f057600080fd5b806363309738146103675780637a318866146103705780638456cb591461038357600080fd5b80631f45513f116101665780633db69ab5116101405780633db69ab51461031e5780633f4ba83a146103315780633fd0eae0146103395780635c975abb1461035c57600080fd5b80631f45513f146102ef5780632db0377014610302578063328cff361461030b57600080fd5b806310223597116101a257806310223597146102875780631045e3421461029a5780631562fc65146102b15780631da7e933146102c457600080fd5b806301bb99c1146101c957806305190732146101f95780630770ddfd14610272575b600080fd5b609f546101dc906001600160401b031681565b6040516001600160401b0390911681526020015b60405180910390f35b61024e610207366004611185565b604080518082019091526000808252602082015250600090815260a06020908152604091829020825180840190935280546001600160401b03168352600101549082015290565b6040805182516001600160401b0316815260209283015192810192909252016101f0565b61028561028036600461119e565b61048b565b005b610285610295366004611185565b61050b565b6102a3609c5481565b6040519081526020016101f0565b6102856102bf366004611212565b61055d565b6099546102d7906001600160a01b031681565b6040516001600160a01b0390911681526020016101f0565b6102856102fd366004611185565b6105cd565b6102a3609e5481565b609a546102d7906001600160a01b031681565b61028561032c366004611253565b61061f565b6102856106b8565b61034c610347366004611185565b6106ec565b60405190151581526020016101f0565b60675460ff1661034c565b6102a3609b5481565b61028561037e36600461127f565b610742565b61028561078e565b6001546102d7906001600160a01b031681565b6102856103ac36600461127f565b6107c0565b6103db6103bf36600461127f565b60a1602052600090815260409020805460019091015460ff1682565b604080519283529015156020830152016101f0565b6000546102d7906001600160a01b031681565b61028561041136600461129c565b61080c565b61042961042436600461119e565b610941565b6040516101f091906112e7565b6102a3610444366004611185565b610a0d565b610285610457366004611185565b610afa565b6102a3609d5481565b610285610473366004611185565b610b4c565b61028561048636600461127f565b610b9e565b33600081815260a1602052604090206001015460ff166104c65760405162461bcd60e51b81526004016104bd9061132d565b60405180910390fd5b60005b82811015610505576104f38484838181106104e6576104e6611373565b9050602002013533610c92565b806104fd8161139f565b9150506104c9565b50505050565b6001546001600160a01b031633146105355760405162461bcd60e51b81526004016104bd906113ba565b60675460ff16156105585760405162461bcd60e51b81526004016104bd906113dc565b609d55565b6001546001600160a01b031633146105875760405162461bcd60e51b81526004016104bd906113ba565b60675460ff16156105aa5760405162461bcd60e51b81526004016104bd906113dc565b609f805467ffffffffffffffff19166001600160401b0392909216919091179055565b6001546001600160a01b031633146105f75760405162461bcd60e51b81526004016104bd906113ba565b60675460ff161561061a5760405162461bcd60e51b81526004016104bd906113dc565b609e55565b6000546001600160a01b031633146106495760405162461bcd60e51b81526004016104bd90611406565b6001600160a01b038216600090815260a16020526040902060010154829060ff166106865760405162461bcd60e51b81526004016104bd9061132d565b6001600160a01b038316600090815260a16020526040812080548492906106ae908490611430565b9091555050505050565b6000546001600160a01b031633146106e25760405162461bcd60e51b81526004016104bd90611406565b6106ea610eff565b565b600081815260a060209081526040808320815180830190925280546001600160401b031680835260019091015492820192909252901580159061073b575080516001600160401b034281169116115b9392505050565b6001546001600160a01b0316331461076c5760405162461bcd60e51b81526004016104bd906113ba565b600180546001600160a01b0319166001600160a01b0392909216919091179055565b6000546001600160a01b031633146107b85760405162461bcd60e51b81526004016104bd90611406565b6106ea610f92565b6001546001600160a01b031633146107ea5760405162461bcd60e51b81526004016104bd906113ba565b600080546001600160a01b0319166001600160a01b0392909216919091179055565b603454610100900460ff166108275760345460ff161561082b565b303b155b61088e5760405162461bcd60e51b815260206004820152602e60248201527f496e697469616c697a61626c653a20636f6e747261637420697320616c72656160448201526d191e481a5b9a5d1a585b1a5e995960921b60648201526084016104bd565b603454610100900460ff161580156108b0576034805461ffff19166101011790555b6108b984610fea565b6108c1611000565b609980546001600160a01b038086166001600160a01b031992831617909255609a8054928516929091169190911790556801a055690d9db80000609b55674563918244f40000609c556005609d556001609e55609f805467ffffffffffffffff191662093a801790558015610505576034805461ff001916905550505050565b60608161095d5750604080516000815260208101909152610a07565b6000826001600160401b0381111561097757610977611448565b6040519080825280602002602001820160405280156109a0578160200160208202803683370190505b50905060005b83811015610a03576109cf8585838181106109c3576109c3611373565b905060200201356106ec565b8282815181106109e1576109e1611373565b91151560209283029190910190910152806109fb8161139f565b9150506109a6565b5090505b92915050565b604080516001808252818301909252600091829190602080830190803683370190505090508281600081518110610a4657610a46611373565b6020908102919091010152609a54604051633f8a302d60e21b81526000916001600160a01b03169063fe28c0b490610a8290859060040161145e565b600060405180830381865afa158015610a9f573d6000803e3d6000fd5b505050506040513d6000823e601f3d908101601f19168201604052610ac79190810190611496565b9050600081600081518110610ade57610ade611373565b60200260200101519050610af18161102f565b95945050505050565b6001546001600160a01b03163314610b245760405162461bcd60e51b81526004016104bd906113ba565b60675460ff1615610b475760405162461bcd60e51b81526004016104bd906113dc565b609b55565b6001546001600160a01b03163314610b765760405162461bcd60e51b81526004016104bd906113ba565b60675460ff1615610b995760405162461bcd60e51b81526004016104bd906113dc565b609c55565b6000546001600160a01b03163314610bc85760405162461bcd60e51b81526004016104bd90611406565b6001600160a01b038116600090815260a1602052604090206001015460ff1615610c475760405162461bcd60e51b815260206004820152602a60248201527f796f75206861766520616c726561647920707572636861736564207468652063604482015269393cb7b1b430b6b132b960b11b60648201526084016104bd565b604080518082018252609d548152600160208083018281526001600160a01b0395909516600090815260a1909152929092209051815591519101805460ff1916911515919091179055565b6099546040516331a9108f60e11b81526004810184905233916001600160a01b031690636352211e90602401602060405180830381865afa158015610cdb573d6000803e3d6000fd5b505050506040513d601f19601f82011682018060405250810190610cff9190611553565b6001600160a01b031614610d555760405162461bcd60e51b815260206004820152601b60248201527f596f7520617265206e6f7420616e20617661746172206f776e6572000000000060448201526064016104bd565b610d5e826106ec565b15610db95760405162461bcd60e51b815260206004820152602560248201527f546869732061766174617220697320696e206372796f6368616d62657220616c604482015264726561647960d81b60648201526084016104bd565b600082815260a06020908152604091829020825180840190935280546001600160401b03168084526001909101549183019190915215801590610e09575080516001600160401b03428116911611155b15610e7a57609a54602082015160405163b77c521560e01b81526004810186905260248101919091526001600160a01b039091169063b77c521590604401600060405180830381600087803b158015610e6157600080fd5b505af1158015610e75573d6000803e3d6000fd5b505050505b610e8682609e54611086565b60408051808201909152609f548190610ea8906001600160401b031642611570565b6001600160401b03168152602001610ebf85610a0d565b9052600093845260a0602090815260409094208151815467ffffffffffffffff19166001600160401b039091161781559301516001909301929092555050565b60675460ff16610f485760405162461bcd60e51b815260206004820152601460248201527314185d5cd8589b194e881b9bdd081c185d5cd95960621b60448201526064016104bd565b6067805460ff191690557f5db9ee0a495bf2e6ff9c91a7834c1ba4fdd244a5e8aa4e537bd38aeae4b073aa335b6040516001600160a01b03909116815260200160405180910390a1565b60675460ff1615610fb55760405162461bcd60e51b81526004016104bd906113dc565b6067805460ff191660011790557f62e78cea01bee320cd4e420270b5ea74000d11b0c9f74754ebdbfc544b05a258610f753390565b6001546001600160a01b03161561076c57600080fd5b603454610100900460ff166110275760405162461bcd60e51b81526004016104bd9061159b565b6106ea611129565b60006103e882116110435750610190919050565b600061104e8361115c565b905061105b6004826115e6565b6110669060026116ed565b6110719060646116fc565b61107c90600761171b565b61073b90846116fc565b6001600160a01b038216600090815260a16020526040902080548211156111155760405162461bcd60e51b815260206004820152603a60248201527f596f752068617665206e6f7420656e6f75676820656e6572677920696e20637260448201527f796f6368616d6265722c20706c6561736520627579206d6f726500000000000060648201526084016104bd565b818160000160008282546106ae919061173d565b603454610100900460ff166111505760405162461bcd60e51b81526004016104bd9061159b565b6067805460ff19169055565b6000805b8215610a0757611171600a8461171b565b92508061117d81611754565b915050611160565b60006020828403121561119757600080fd5b5035919050565b600080602083850312156111b157600080fd5b82356001600160401b03808211156111c857600080fd5b818501915085601f8301126111dc57600080fd5b8135818111156111eb57600080fd5b8660208260051b850101111561120057600080fd5b60209290920196919550909350505050565b60006020828403121561122457600080fd5b81356001600160401b038116811461073b57600080fd5b6001600160a01b038116811461125057600080fd5b50565b6000806040838503121561126657600080fd5b82356112718161123b565b946020939093013593505050565b60006020828403121561129157600080fd5b813561073b8161123b565b6000806000606084860312156112b157600080fd5b83356112bc8161123b565b925060208401356112cc8161123b565b915060408401356112dc8161123b565b809150509250925092565b6020808252825182820181905260009190848201906040850190845b81811015611321578351151583529284019291840191600101611303565b50909695505050505050565b60208082526026908201527f596f752068617665206e6f7420707572636861736564206372796f6368616d62604082015265195c881e595d60d21b606082015260800190565b634e487b7160e01b600052603260045260246000fd5b634e487b7160e01b600052601160045260246000fd5b60006000198214156113b3576113b3611389565b5060010190565b6020808252600890820152674f6e6c792044414f60c01b604082015260600190565b60208082526010908201526f14185d5cd8589b194e881c185d5cd95960821b604082015260600190565b60208082526010908201526f27b7363c9023b0b6b2a6b0b730b3b2b960811b604082015260600190565b6000821982111561144357611443611389565b500190565b634e487b7160e01b600052604160045260246000fd5b6020808252825182820181905260009190848201906040850190845b818110156113215783518352928401929184019160010161147a565b600060208083850312156114a957600080fd5b82516001600160401b03808211156114c057600080fd5b818501915085601f8301126114d457600080fd5b8151818111156114e6576114e6611448565b8060051b604051601f19603f8301168101818110858211171561150b5761150b611448565b60405291825284820192508381018501918883111561152957600080fd5b938501935b828510156115475784518452938501939285019261152e565b98975050505050505050565b60006020828403121561156557600080fd5b815161073b8161123b565b60006001600160401b0380831681851680830382111561159257611592611389565b01949350505050565b6020808252602b908201527f496e697469616c697a61626c653a20636f6e7472616374206973206e6f74206960408201526a6e697469616c697a696e6760a81b606082015260800190565b600060ff821660ff84168082101561160057611600611389565b90039392505050565b600181815b8085111561164457816000190482111561162a5761162a611389565b8085161561163757918102915b93841c939080029061160e565b509250929050565b60008261165b57506001610a07565b8161166857506000610a07565b816001811461167e5760028114611688576116a4565b6001915050610a07565b60ff84111561169957611699611389565b50506001821b610a07565b5060208310610133831016604e8410600b84101617156116c7575081810a610a07565b6116d18383611609565b80600019048211156116e5576116e5611389565b029392505050565b600061073b60ff84168361164c565b600081600019048311821515161561171657611716611389565b500290565b60008261173857634e487b7160e01b600052601260045260246000fd5b500490565b60008282101561174f5761174f611389565b500390565b600060ff821660ff81141561176b5761176b611389565b6001019291505056fea264697066735822122021a521b7712dd9533a6067050a9ca5aafd52d6cd1a2826f042bb9a173b41f08c64736f6c634300080b0033",
  "immutableReferences": {},
  "source": "// SPDX-License-Identifier: MIT\npragma solidity >=0.8.0 <0.9.0;\n\nimport '@openzeppelin/contracts-upgradeable/security/PausableUpgradeable.sol';\nimport './GameConnection.sol';\nimport './interfaces/IMartianColonists.sol';\nimport './interfaces/IAvatarManager.sol';\nimport './interfaces/ICryochamber.sol';\nimport '@openzeppelin/contracts/token/ERC20/IERC20.sol';\n\n\ncontract CryochamberManager is GameConnection, PausableUpgradeable, ICryochamber {\n  IMartianColonists public avatars;\n  IAvatarManager public avatarManager;\n\n  uint256 public override cryochamberPrice;\n  uint256 public override energyPrice;\n  uint256 public initialEnergy;\n  uint256 public cryoEnergyCost; // energy decrease amount when avatar goes in cryochamber\n  uint64 public cryoPeriodLength;\n\n  // uint256 cryochambersCounter; \n  \n  struct Cryochamber {\n    uint256 energy; \n    bool isSet;\n  }\n\n  mapping (uint256 => CryoTime) private cryos;  // avatarId => array of avatar's cryo periods\n  mapping (address => Cryochamber) public cryochambers;\n\n  uint256[49] private ______gap;\n\n  function initialize(address _DAO, address _collection, address _avatarManager) external initializer {\n    GameConnection.__GameConnection_init(_DAO);\n    PausableUpgradeable.__Pausable_init();\n    avatars = IMartianColonists(_collection);\n    avatarManager = IAvatarManager(_avatarManager);\n\n    cryochamberPrice = 30 * 10 ** 18;\n    energyPrice = 5 * 10 ** 18;\n    initialEnergy = 5;\n    cryoEnergyCost = 1;\n    cryoPeriodLength = 7 * 24 * 60 * 60; \n  }\n\n  function setCryochamberPrice(uint256 _price) external onlyDAO whenNotPaused {\n    cryochamberPrice = _price;\n  }\n\n  function setCryochamberCost(uint256 _cost) external onlyDAO whenNotPaused {\n    cryoEnergyCost = _cost;\n  }\n\n  function setEnergyPrice(uint256 _price) external onlyDAO whenNotPaused {\n    energyPrice = _price;\n  }\n\n  function setInitialEnergy(uint256 _energy) external onlyDAO whenNotPaused {\n    initialEnergy = _energy;\n  }\n\n  function setCryoPeriodLength(uint64 _time) external onlyDAO whenNotPaused {\n    cryoPeriodLength = _time;\n  }\n\n  function purchaseCryochamber(address user) external override onlyGameManager {\n    require(!cryochambers[user].isSet, \"you have already purchased the cryochamber\");\n\n    cryochambers[user] = Cryochamber(initialEnergy, true);\n  }\n\n  function purchaseCryochamberEnergy(address user, uint256 _energyAmount) external override onlyGameManager hasCryochamber(user) {\n    cryochambers[user].energy += _energyAmount;\n  }\n\n  function decreaseCryochamberEnergy(address user, uint256 _amount) private {\n    Cryochamber storage cryochamber = cryochambers[user];\n    require(cryochamber.energy >= _amount, \"You have not enough energy in cryochamber, please buy more\");\n    cryochamber.energy -= _amount;\n  }\n\n  function isAvatarInCryoChamber(uint256 avatarId) public override view returns (bool) {\n    CryoTime memory avatarCryo = cryos[avatarId];\n    return avatarCryo.endTime > 0 && avatarCryo.endTime > uint64(block.timestamp);\n  }\n\n   function isInCryoChamber(uint256[] calldata avatarIds) external view returns (bool[] memory) {\n    if (avatarIds.length == 0) {\n      return new bool[](0);\n    } else {\n      bool[] memory result = new bool[](avatarIds.length);\n      for (uint256 i = 0; i < avatarIds.length; i++) {\n        result[i] = isAvatarInCryoChamber(avatarIds[i]);\n      }\n      return result;\n    }\n  }\n\n\n  function putAvatarInCryochamber(uint256 avatarId, address user) private {\n    require(avatars.ownerOf(avatarId) == msg.sender, \"You are not an avatar owner\");\n    \n    require(!isAvatarInCryoChamber(avatarId), \"This avatar is in cryochamber already\");\n\n    // if last cryoperiod ended, add previous reward to xp\n\n    CryoTime memory avatarCryo = cryos[avatarId];\n    if (avatarCryo.endTime > 0 && avatarCryo.endTime <= uint64(block.timestamp)) {\n      avatarManager.addXPAfterCryo(avatarId, avatarCryo.reward);\n    }\n\n    decreaseCryochamberEnergy(user, cryoEnergyCost);\n    cryos[avatarId] = CryoTime(uint64(block.timestamp) + cryoPeriodLength, estimateXpAddition(avatarId));\n  }\n\n  function putAvatarsInCryochamber(uint256[] calldata avatarIds) external hasCryochamber(msg.sender) {\n    for (uint256 i = 0; i < avatarIds.length; i++) {\n      putAvatarInCryochamber(avatarIds[i], msg.sender);\n    }\n  }\n  \n  function numDigits(uint256 number) private pure returns (uint8) {\n    uint8 digits = 0;\n    while (number != 0) {\n        number /= 10;\n        digits++;\n    }\n    return digits;\n  }\n\n  function cryoXpAddition(uint256 currentXp) private pure returns (uint256) {\n    if (currentXp <= 1000) {\n      return uint256(400);\n    } else {\n      uint8 countOfDigits = numDigits(currentXp);\n      return currentXp * (7 / (2**(countOfDigits-4) * 100));\n    }\n  }\n\n  function estimateXpAddition(uint256 avatarId) public view returns (uint256) {\n    uint256[] memory avatarArg = new uint256[](1);\n    avatarArg[0] = avatarId;\n\n    uint256[] memory currentXps = avatarManager.getXP(avatarArg);\n    uint256 currentXp = currentXps[0];\n\n    return cryoXpAddition(currentXp);\n\n  }\n\n \n  function pause() external onlyGameManager {\n    _pause();\n  }\n\n  function unpause() external onlyGameManager {\n    _unpause();\n  }\n\n  modifier hasCryochamber(address user) {\n    require(cryochambers[user].isSet, 'You have not purchased cryochamber yet');\n    _;\n  }\n\n  function getAvatarCryo(uint256 avatarId) public override view returns (CryoTime memory) {\n    return cryos[avatarId];\n  }\n}\n",
  "sourcePath": "/Users/maxim/work/marscolony/contracts/contracts/CryochamberManager.sol",
  "compiler": {
    "name": "solc",
    "version": "0.8.11+commit.d7f03943.Emscripten.clang"
  },
  "schemaVersion": "3.4.7",
  "updatedAt": "2022-06-13T08:22:55.448Z",
  "devdoc": {
    "kind": "dev",
    "methods": {
      "paused()": {
        "details": "Returns true if the contract is paused, and false otherwise."
      }
    },
    "version": 1
  },
  "userdoc": {
    "kind": "user",
    "methods": {},
    "version": 1
  }
}