{
  "contractName": "GameManager",
  "abi": [
    {
      "anonymous": false,
      "inputs": [
        {
          "indexed": true,
          "internalType": "address",
          "name": "receiver",
          "type": "address"
        },
        {
          "indexed": true,
          "internalType": "uint256",
          "name": "tokenId",
          "type": "uint256"
        }
      ],
      "name": "Airdrop",
      "type": "event"
    },
    {
      "anonymous": false,
      "inputs": [
        {
          "indexed": false,
          "internalType": "uint256",
          "name": "tokenId",
          "type": "uint256"
        },
        {
          "indexed": true,
          "internalType": "address",
          "name": "owner",
          "type": "address"
        }
      ],
      "name": "BuildBaseStation",
      "type": "event"
    },
    {
      "anonymous": false,
      "inputs": [
        {
          "indexed": false,
          "internalType": "uint256",
          "name": "tokenId",
          "type": "uint256"
        },
        {
          "indexed": true,
          "internalType": "address",
          "name": "owner",
          "type": "address"
        },
        {
          "indexed": false,
          "internalType": "uint8",
          "name": "level",
          "type": "uint8"
        }
      ],
      "name": "BuildPowerProduction",
      "type": "event"
    },
    {
      "anonymous": false,
      "inputs": [
        {
          "indexed": false,
          "internalType": "uint256",
          "name": "tokenId",
          "type": "uint256"
        },
        {
          "indexed": true,
          "internalType": "address",
          "name": "owner",
          "type": "address"
        },
        {
          "indexed": false,
          "internalType": "uint8",
          "name": "level",
          "type": "uint8"
        }
      ],
      "name": "BuildRobotAssembly",
      "type": "event"
    },
    {
      "anonymous": false,
      "inputs": [
        {
          "indexed": false,
          "internalType": "uint256",
          "name": "tokenId",
          "type": "uint256"
        },
        {
          "indexed": true,
          "internalType": "address",
          "name": "owner",
          "type": "address"
        },
        {
          "indexed": false,
          "internalType": "uint8",
          "name": "level",
          "type": "uint8"
        }
      ],
      "name": "BuildTransport",
      "type": "event"
    },
    {
      "anonymous": false,
      "inputs": [
        {
          "indexed": true,
          "internalType": "uint256",
          "name": "landId",
          "type": "uint256"
        },
        {
          "indexed": true,
          "internalType": "uint256",
          "name": "avatarId",
          "type": "uint256"
        },
        {
          "indexed": true,
          "internalType": "uint256",
          "name": "rewardType",
          "type": "uint256"
        },
        {
          "indexed": false,
          "internalType": "uint256",
          "name": "rewardAmount",
          "type": "uint256"
        }
      ],
      "name": "MissionReward",
      "type": "event"
    },
    {
      "anonymous": false,
      "inputs": [
        {
          "indexed": false,
          "internalType": "address",
          "name": "account",
          "type": "address"
        }
      ],
      "name": "Paused",
      "type": "event"
    },
    {
      "anonymous": false,
      "inputs": [
        {
          "indexed": false,
          "internalType": "uint256",
          "name": "price",
          "type": "uint256"
        }
      ],
      "name": "SetPrice",
      "type": "event"
    },
    {
      "anonymous": false,
      "inputs": [
        {
          "indexed": false,
          "internalType": "address",
          "name": "account",
          "type": "address"
        }
      ],
      "name": "Unpaused",
      "type": "event"
    },
    {
      "inputs": [],
      "name": "CLNYAddress",
      "outputs": [
        {
          "internalType": "address",
          "name": "",
          "type": "address"
        }
      ],
      "stateMutability": "view",
      "type": "function"
    },
    {
      "inputs": [],
      "name": "DAO",
      "outputs": [
        {
          "internalType": "address",
          "name": "",
          "type": "address"
        }
      ],
      "stateMutability": "view",
      "type": "function"
    },
    {
      "inputs": [],
      "name": "MCAddress",
      "outputs": [
        {
          "internalType": "address",
          "name": "",
          "type": "address"
        }
      ],
      "stateMutability": "view",
      "type": "function"
    },
    {
      "inputs": [],
      "name": "avatarAddress",
      "outputs": [
        {
          "internalType": "address",
          "name": "",
          "type": "address"
        }
      ],
      "stateMutability": "view",
      "type": "function"
    },
    {
      "inputs": [],
      "name": "backendSigner",
      "outputs": [
        {
          "internalType": "address",
          "name": "",
          "type": "address"
        }
      ],
      "stateMutability": "view",
      "type": "function"
    },
    {
      "inputs": [
        {
          "internalType": "uint256",
          "name": "",
          "type": "uint256"
        }
      ],
      "name": "baseStationsPlacement",
      "outputs": [
        {
          "internalType": "uint32",
          "name": "x",
          "type": "uint32"
        },
        {
          "internalType": "uint32",
          "name": "y",
          "type": "uint32"
        },
        {
          "internalType": "uint32",
          "name": "rotate",
          "type": "uint32"
        }
      ],
      "stateMutability": "view",
      "type": "function"
    },
    {
      "inputs": [],
      "name": "liquidity",
      "outputs": [
        {
          "internalType": "address",
          "name": "",
          "type": "address"
        }
      ],
      "stateMutability": "view",
      "type": "function"
    },
    {
      "inputs": [],
      "name": "martianColonists",
      "outputs": [
        {
          "internalType": "contract IMartianColonists",
          "name": "",
          "type": "address"
        }
      ],
      "stateMutability": "view",
      "type": "function"
    },
    {
      "inputs": [],
      "name": "maxTokenId",
      "outputs": [
        {
          "internalType": "uint256",
          "name": "",
          "type": "uint256"
        }
      ],
      "stateMutability": "view",
      "type": "function"
    },
    {
      "inputs": [],
      "name": "missionManager",
      "outputs": [
        {
          "internalType": "address",
          "name": "",
          "type": "address"
        }
      ],
      "stateMutability": "view",
      "type": "function"
    },
    {
      "inputs": [],
      "name": "paused",
      "outputs": [
        {
          "internalType": "bool",
          "name": "",
          "type": "bool"
        }
      ],
      "stateMutability": "view",
      "type": "function"
    },
    {
      "inputs": [],
      "name": "pollAddress",
      "outputs": [
        {
          "internalType": "address",
          "name": "",
          "type": "address"
        }
      ],
      "stateMutability": "view",
      "type": "function"
    },
    {
      "inputs": [
        {
          "internalType": "uint256",
          "name": "",
          "type": "uint256"
        }
      ],
      "name": "powerProductionPlacement",
      "outputs": [
        {
          "internalType": "uint32",
          "name": "x",
          "type": "uint32"
        },
        {
          "internalType": "uint32",
          "name": "y",
          "type": "uint32"
        },
        {
          "internalType": "uint32",
          "name": "rotate",
          "type": "uint32"
        }
      ],
      "stateMutability": "view",
      "type": "function"
    },
    {
      "inputs": [],
      "name": "price",
      "outputs": [
        {
          "internalType": "uint256",
          "name": "",
          "type": "uint256"
        }
      ],
      "stateMutability": "view",
      "type": "function"
    },
    {
      "inputs": [
        {
          "internalType": "uint256",
          "name": "",
          "type": "uint256"
        }
      ],
      "name": "robotAssemblyPlacement",
      "outputs": [
        {
          "internalType": "uint32",
          "name": "x",
          "type": "uint32"
        },
        {
          "internalType": "uint32",
          "name": "y",
          "type": "uint32"
        },
        {
          "internalType": "uint32",
          "name": "rotate",
          "type": "uint32"
        }
      ],
      "stateMutability": "view",
      "type": "function"
    },
    {
      "inputs": [
        {
          "internalType": "uint256",
          "name": "",
          "type": "uint256"
        }
      ],
      "name": "transportPlacement",
      "outputs": [
        {
          "internalType": "uint32",
          "name": "x",
          "type": "uint32"
        },
        {
          "internalType": "uint32",
          "name": "y",
          "type": "uint32"
        },
        {
          "internalType": "uint32",
          "name": "rotate",
          "type": "uint32"
        }
      ],
      "stateMutability": "view",
      "type": "function"
    },
    {
      "inputs": [],
      "name": "treasury",
      "outputs": [
        {
          "internalType": "address",
          "name": "",
          "type": "address"
        }
      ],
      "stateMutability": "view",
      "type": "function"
    },
    {
      "inputs": [
        {
          "internalType": "address",
          "name": "_address",
          "type": "address"
        }
      ],
      "name": "setMissionManager",
      "outputs": [],
      "stateMutability": "nonpayable",
      "type": "function"
    },
    {
      "inputs": [
        {
          "internalType": "address",
          "name": "_address",
          "type": "address"
        }
      ],
      "name": "setBackendSigner",
      "outputs": [],
      "stateMutability": "nonpayable",
      "type": "function"
    },
    {
      "inputs": [
        {
          "internalType": "address",
          "name": "_address",
          "type": "address"
        }
      ],
      "name": "setMartianColonists",
      "outputs": [],
      "stateMutability": "nonpayable",
      "type": "function"
    },
    {
      "inputs": [
        {
          "internalType": "address",
          "name": "_avatarAddress",
          "type": "address"
        }
      ],
      "name": "setAvatarAddress",
      "outputs": [],
      "stateMutability": "nonpayable",
      "type": "function"
    },
    {
      "inputs": [
        {
          "internalType": "address",
          "name": "_address",
          "type": "address"
        }
      ],
      "name": "setPollAddress",
      "outputs": [],
      "stateMutability": "nonpayable",
      "type": "function"
    },
    {
      "inputs": [],
      "name": "getPollData",
      "outputs": [
        {
          "internalType": "string",
          "name": "",
          "type": "string"
        },
        {
          "internalType": "string",
          "name": "",
          "type": "string"
        },
        {
          "internalType": "string[]",
          "name": "",
          "type": "string[]"
        },
        {
          "internalType": "uint256[]",
          "name": "",
          "type": "uint256[]"
        },
        {
          "internalType": "bool",
          "name": "",
          "type": "bool"
        }
      ],
      "stateMutability": "view",
      "type": "function"
    },
    {
      "inputs": [
        {
          "internalType": "uint8",
          "name": "decision",
          "type": "uint8"
        }
      ],
      "name": "vote",
      "outputs": [],
      "stateMutability": "nonpayable",
      "type": "function"
    },
    {
      "inputs": [
        {
          "internalType": "string",
          "name": "message",
          "type": "string"
        },
        {
          "internalType": "uint8",
          "name": "v",
          "type": "uint8"
        },
        {
          "internalType": "bytes32",
          "name": "r",
          "type": "bytes32"
        },
        {
          "internalType": "bytes32",
          "name": "s",
          "type": "bytes32"
        }
      ],
      "name": "finishMission",
      "outputs": [],
      "stateMutability": "nonpayable",
      "type": "function"
    },
    {
      "inputs": [],
      "name": "getBurnedOnEnhancements",
      "outputs": [
        {
          "internalType": "uint256",
          "name": "",
          "type": "uint256"
        }
      ],
      "stateMutability": "view",
      "type": "function"
    },
    {
      "inputs": [
        {
          "internalType": "address",
          "name": "_DAO",
          "type": "address"
        },
        {
          "internalType": "address",
          "name": "_CLNYAddress",
          "type": "address"
        },
        {
          "internalType": "address",
          "name": "_MCAddress",
          "type": "address"
        },
        {
          "internalType": "address",
          "name": "_treasury",
          "type": "address"
        },
        {
          "internalType": "address",
          "name": "_liquidity",
          "type": "address"
        }
      ],
      "name": "initialize",
      "outputs": [],
      "stateMutability": "nonpayable",
      "type": "function"
    },
    {
      "inputs": [
        {
          "internalType": "address",
          "name": "_DAO",
          "type": "address"
        }
      ],
      "name": "transferDAO",
      "outputs": [],
      "stateMutability": "nonpayable",
      "type": "function"
    },
    {
      "inputs": [
        {
          "internalType": "uint256",
          "name": "tokenCount",
          "type": "uint256"
        }
      ],
      "name": "getFee",
      "outputs": [
        {
          "internalType": "uint256",
          "name": "",
          "type": "uint256"
        }
      ],
      "stateMutability": "view",
      "type": "function"
    },
    {
      "inputs": [
        {
          "internalType": "uint256",
          "name": "_price",
          "type": "uint256"
        }
      ],
      "name": "setPrice",
      "outputs": [],
      "stateMutability": "nonpayable",
      "type": "function"
    },
    {
      "inputs": [],
      "name": "mintAvatar",
      "outputs": [],
      "stateMutability": "nonpayable",
      "type": "function"
    },
    {
      "inputs": [
        {
          "internalType": "uint256[]",
          "name": "tokenIds",
          "type": "uint256[]"
        }
      ],
      "name": "claim",
      "outputs": [],
      "stateMutability": "payable",
      "type": "function"
    },
    {
      "inputs": [],
      "name": "pause",
      "outputs": [],
      "stateMutability": "nonpayable",
      "type": "function"
    },
    {
      "inputs": [],
      "name": "unpause",
      "outputs": [],
      "stateMutability": "nonpayable",
      "type": "function"
    },
    {
      "inputs": [
        {
          "internalType": "address",
          "name": "receiver",
          "type": "address"
        },
        {
          "internalType": "uint256",
          "name": "tokenId",
          "type": "uint256"
        }
      ],
      "name": "airdrop",
      "outputs": [],
      "stateMutability": "nonpayable",
      "type": "function"
    },
    {
      "inputs": [
        {
          "internalType": "uint256",
          "name": "tokenId",
          "type": "uint256"
        }
      ],
      "name": "getLastCheckout",
      "outputs": [
        {
          "internalType": "uint256",
          "name": "",
          "type": "uint256"
        }
      ],
      "stateMutability": "view",
      "type": "function"
    },
    {
      "inputs": [
        {
          "internalType": "uint256",
          "name": "tokenId",
          "type": "uint256"
        }
      ],
      "name": "getEarned",
      "outputs": [
        {
          "internalType": "uint256",
          "name": "",
          "type": "uint256"
        }
      ],
      "stateMutability": "view",
      "type": "function"
    },
    {
      "inputs": [
        {
          "internalType": "uint256[]",
          "name": "tokenIds",
          "type": "uint256[]"
        }
      ],
      "name": "getEarningData",
      "outputs": [
        {
          "internalType": "uint256",
          "name": "",
          "type": "uint256"
        },
        {
          "internalType": "uint256",
          "name": "",
          "type": "uint256"
        }
      ],
      "stateMutability": "view",
      "type": "function"
    },
    {
      "inputs": [
        {
          "internalType": "uint256",
          "name": "tokenId",
          "type": "uint256"
        }
      ],
      "name": "getEarningSpeed",
      "outputs": [
        {
          "internalType": "uint256",
          "name": "",
          "type": "uint256"
        }
      ],
      "stateMutability": "view",
      "type": "function"
    },
    {
      "inputs": [
        {
          "internalType": "uint256",
          "name": "tokenId",
          "type": "uint256"
        }
      ],
      "name": "buildBaseStation",
      "outputs": [],
      "stateMutability": "nonpayable",
      "type": "function"
    },
    {
      "inputs": [
        {
          "internalType": "uint256",
          "name": "tokenId",
          "type": "uint256"
        },
        {
          "internalType": "uint32",
          "name": "x",
          "type": "uint32"
        },
        {
          "internalType": "uint32",
          "name": "y",
          "type": "uint32"
        }
      ],
      "name": "buildAndPlaceBaseStation",
      "outputs": [],
      "stateMutability": "nonpayable",
      "type": "function"
    },
    {
      "inputs": [
        {
          "internalType": "uint256",
          "name": "tokenId",
          "type": "uint256"
        },
        {
          "internalType": "uint32",
          "name": "x",
          "type": "uint32"
        },
        {
          "internalType": "uint32",
          "name": "y",
          "type": "uint32"
        },
        {
          "internalType": "bool",
          "name": "free",
          "type": "bool"
        }
      ],
      "name": "placeBaseStation",
      "outputs": [],
      "stateMutability": "nonpayable",
      "type": "function"
    },
    {
      "inputs": [
        {
          "internalType": "uint256",
          "name": "tokenId",
          "type": "uint256"
        },
        {
          "internalType": "uint8",
          "name": "level",
          "type": "uint8"
        }
      ],
      "name": "buildTransport",
      "outputs": [],
      "stateMutability": "nonpayable",
      "type": "function"
    },
    {
      "inputs": [
        {
          "internalType": "uint256",
          "name": "tokenId",
          "type": "uint256"
        },
        {
          "internalType": "uint32",
          "name": "x",
          "type": "uint32"
        },
        {
          "internalType": "uint32",
          "name": "y",
          "type": "uint32"
        }
      ],
      "name": "buildAndPlaceTransport",
      "outputs": [],
      "stateMutability": "nonpayable",
      "type": "function"
    },
    {
      "inputs": [
        {
          "internalType": "uint256",
          "name": "tokenId",
          "type": "uint256"
        },
        {
          "internalType": "uint32",
          "name": "x",
          "type": "uint32"
        },
        {
          "internalType": "uint32",
          "name": "y",
          "type": "uint32"
        },
        {
          "internalType": "bool",
          "name": "free",
          "type": "bool"
        }
      ],
      "name": "placeTransport",
      "outputs": [],
      "stateMutability": "nonpayable",
      "type": "function"
    },
    {
      "inputs": [
        {
          "internalType": "uint256",
          "name": "tokenId",
          "type": "uint256"
        },
        {
          "internalType": "uint8",
          "name": "level",
          "type": "uint8"
        }
      ],
      "name": "buildRobotAssembly",
      "outputs": [],
      "stateMutability": "nonpayable",
      "type": "function"
    },
    {
      "inputs": [
        {
          "internalType": "uint256",
          "name": "tokenId",
          "type": "uint256"
        },
        {
          "internalType": "uint32",
          "name": "x",
          "type": "uint32"
        },
        {
          "internalType": "uint32",
          "name": "y",
          "type": "uint32"
        }
      ],
      "name": "buildAndPlaceRobotAssembly",
      "outputs": [],
      "stateMutability": "nonpayable",
      "type": "function"
    },
    {
      "inputs": [
        {
          "internalType": "uint256",
          "name": "tokenId",
          "type": "uint256"
        },
        {
          "internalType": "uint32",
          "name": "x",
          "type": "uint32"
        },
        {
          "internalType": "uint32",
          "name": "y",
          "type": "uint32"
        },
        {
          "internalType": "bool",
          "name": "free",
          "type": "bool"
        }
      ],
      "name": "placeRobotAssembly",
      "outputs": [],
      "stateMutability": "nonpayable",
      "type": "function"
    },
    {
      "inputs": [
        {
          "internalType": "uint256",
          "name": "tokenId",
          "type": "uint256"
        },
        {
          "internalType": "uint8",
          "name": "level",
          "type": "uint8"
        }
      ],
      "name": "buildPowerProduction",
      "outputs": [],
      "stateMutability": "nonpayable",
      "type": "function"
    },
    {
      "inputs": [
        {
          "internalType": "uint256",
          "name": "tokenId",
          "type": "uint256"
        },
        {
          "internalType": "uint32",
          "name": "x",
          "type": "uint32"
        },
        {
          "internalType": "uint32",
          "name": "y",
          "type": "uint32"
        }
      ],
      "name": "buildAndPlacePowerProduction",
      "outputs": [],
      "stateMutability": "nonpayable",
      "type": "function"
    },
    {
      "inputs": [
        {
          "internalType": "uint256",
          "name": "tokenId",
          "type": "uint256"
        },
        {
          "internalType": "uint32",
          "name": "x",
          "type": "uint32"
        },
        {
          "internalType": "uint32",
          "name": "y",
          "type": "uint32"
        },
        {
          "internalType": "bool",
          "name": "free",
          "type": "bool"
        }
      ],
      "name": "placePowerProduction",
      "outputs": [],
      "stateMutability": "nonpayable",
      "type": "function"
    },
    {
      "inputs": [
        {
          "internalType": "uint256",
          "name": "tokenId",
          "type": "uint256"
        }
      ],
      "name": "getEnhancements",
      "outputs": [
        {
          "internalType": "uint8",
          "name": "",
          "type": "uint8"
        },
        {
          "internalType": "uint8",
          "name": "",
          "type": "uint8"
        },
        {
          "internalType": "uint8",
          "name": "",
          "type": "uint8"
        },
        {
          "internalType": "uint8",
          "name": "",
          "type": "uint8"
        }
      ],
      "stateMutability": "view",
      "type": "function"
    },
    {
      "inputs": [
        {
          "internalType": "uint256[]",
          "name": "tokenIds",
          "type": "uint256[]"
        }
      ],
      "name": "getAttributesMany",
      "outputs": [
        {
          "components": [
            {
              "internalType": "uint256",
              "name": "speed",
              "type": "uint256"
            },
            {
              "internalType": "uint256",
              "name": "earned",
              "type": "uint256"
            },
            {
              "internalType": "uint8",
              "name": "baseStation",
              "type": "uint8"
            },
            {
              "internalType": "uint8",
              "name": "transport",
              "type": "uint8"
            },
            {
              "internalType": "uint8",
              "name": "robotAssembly",
              "type": "uint8"
            },
            {
              "internalType": "uint8",
              "name": "powerProduction",
              "type": "uint8"
            }
          ],
          "internalType": "struct GameManager.AttributeData[]",
          "name": "",
          "type": "tuple[]"
        }
      ],
      "stateMutability": "view",
      "type": "function"
    },
    {
      "inputs": [
        {
          "internalType": "uint256[]",
          "name": "tokenIds",
          "type": "uint256[]"
        }
      ],
      "name": "claimEarned",
      "outputs": [],
      "stateMutability": "nonpayable",
      "type": "function"
    },
    {
      "inputs": [
        {
          "internalType": "uint256",
          "name": "value",
          "type": "uint256"
        }
      ],
      "name": "withdrawValue",
      "outputs": [],
      "stateMutability": "nonpayable",
      "type": "function"
    },
    {
      "inputs": [
        {
          "internalType": "address",
          "name": "_tokenContract",
          "type": "address"
        },
        {
          "internalType": "address",
          "name": "_whereTo",
          "type": "address"
        },
        {
          "internalType": "uint256",
          "name": "_amount",
          "type": "uint256"
        }
      ],
      "name": "withdrawToken",
      "outputs": [],
      "stateMutability": "nonpayable",
      "type": "function"
    }
  ],
  "bytecode": "0x608060405234801561001057600080fd5b50614467806100206000396000f3fe60806040526004361061036b5760003560e01c80636e13b00a116101c65780639a3274c4116100f7578063cfc26d9911610095578063ec9dab2f1161006f578063ec9dab2f14610b1c578063efe0725814610b3c578063fcee45f414610b85578063fd5da72914610ba557600080fd5b8063cfc26d9914610abc578063e8f369a914610adc578063e938750414610afc57600080fd5b8063b3f98adc116100d1578063b3f98adc14610a3c578063bd09376f14610a5c578063c08de44e14610a7c578063cb6ff6f914610a9c57600080fd5b80639a3274c4146109e65780639b416e1c14610a06578063a035b1fe14610a2657600080fd5b806391b7f5ed11610164578063932070cd1161013e578063932070cd146109245780639452cff21461095d57806397644b9b1461097d57806398fabd3a146109c657600080fd5b806391b7f5ed146108ce57806391ba317a146108ee57806391cdd9f01461090457600080fd5b80638451938c116101a05780638451938c146108595780638456cb591461087957806388cb482a1461088e5780638ba4cc3c146108ae57600080fd5b80636e13b00a146107f95780637a3188661461081957806382d68ed31461083957600080fd5b806342aa65f4116102a05780635bde71ac1161023e57806361d027b31161021857806361d027b31461075d57806365d65e861461077d5780636818b4521461079d5780636ba4c138146107e657600080fd5b80635bde71ac146106945780635c975abb1461071a5780635f5491631461073d57600080fd5b80634c42cfcc1161027a5780634c42cfcc1461061c5780634d383176146106315780634d4a2c791461065157806358aad3e71461067457600080fd5b806342aa65f4146105b657806342ecc5b8146105d657806348bb06cc146105f657600080fd5b80632a2f4dfd1161030d57806336479343116102e7578063364793431461053457806336f95670146105545780633eb87111146105745780633f4ba83a146105a157600080fd5b80632a2f4dfd146104d45780632fc6ced1146104f457806333e3480f1461051457600080fd5b8063152631171161034957806315263117146103ec5780631a6865021461040c5780631b19de271461044457806323c32819146104b457600080fd5b806301e336671461037057806308cfe44b146103925780631459457a146103cc575b600080fd5b34801561037c57600080fd5b5061039061038b366004613a3b565b610bc5565b005b34801561039e57600080fd5b506103b26103ad366004613ae5565b610c75565b604080519283526020830191909152015b60405180910390f35b3480156103d857600080fd5b506103906103e7366004613b7a565b610d00565b3480156103f857600080fd5b50610390610407366004613c12565b610e2f565b34801561041857600080fd5b5060995461042c906001600160a01b031681565b6040516001600160a01b0390911681526020016103c3565b34801561045057600080fd5b5061048d61045f366004613c61565b60d26020526000908152604090205463ffffffff80821691600160201b8104821691600160401b9091041683565b6040805163ffffffff948516815292841660208401529216918101919091526060016103c3565b3480156104c057600080fd5b506103906104cf366004613c7a565b61102a565b3480156104e057600080fd5b506103906104ef366004613cb6565b611069565b34801561050057600080fd5b5061039061050f366004613c7a565b6110b5565b34801561052057600080fd5b5061039061052f366004613ce4565b6110ed565b34801561054057600080fd5b5061039061054f366004613cb6565b611275565b34801561056057600080fd5b5061039061056f366004613cb6565b6112c1565b34801561058057600080fd5b5061059461058f366004613d10565b61130d565b6040516103c39190613d84565b3480156105ad57600080fd5b5061039061146b565b3480156105c257600080fd5b506103906105d1366004613d10565b6115d7565b3480156105e257600080fd5b506103906105f1366004613cb6565b611997565b34801561060257600080fd5b5061060b6119e3565b6040516103c3959493929190613e99565b34801561062857600080fd5b50610390611c67565b34801561063d57600080fd5b50609e5461042c906001600160a01b031681565b34801561065d57600080fd5b50610666611d2f565b6040519081526020016103c3565b34801561068057600080fd5b5060a15461042c906001600160a01b031681565b3480156106a057600080fd5b506106ed6106af366004613c61565b600090815260d0602052604090206001015460ff600160401b8204811692600160481b8304821692600160501b8104831692600160581b9091041690565b6040805160ff958616815293851660208501529184169183019190915290911660608201526080016103c3565b34801561072657600080fd5b5060335460ff1660405190151581526020016103c3565b34801561074957600080fd5b50610390610758366004613c12565b611f5a565b34801561076957600080fd5b5060985461042c906001600160a01b031681565b34801561078957600080fd5b5060a25461042c906001600160a01b031681565b3480156107a957600080fd5b5061048d6107b8366004613c61565b60d46020526000908152604090205463ffffffff80821691600160201b8104821691600160401b9091041683565b6103906107f4366004613d10565b612150565b34801561080557600080fd5b50609d5461042c906001600160a01b031681565b34801561082557600080fd5b50610390610834366004613cb6565b612251565b34801561084557600080fd5b5060a05461042c906001600160a01b031681565b34801561086557600080fd5b50609b5461042c906001600160a01b031681565b34801561088557600080fd5b5061039061229d565b34801561089a57600080fd5b506103906108a9366004613c7a565b6123ef565b3480156108ba57600080fd5b506103906108c9366004613f43565b61242b565b3480156108da57600080fd5b506103906108e9366004613c61565b6124bc565b3480156108fa57600080fd5b50610666609c5481565b34801561091057600080fd5b5061039061091f366004613c61565b61258f565b34801561093057600080fd5b5061066661093f366004613c61565b600090815260d060205260409020600101546001600160401b031690565b34801561096957600080fd5b50610390610978366004613c12565b612695565b34801561098957600080fd5b5061048d610998366004613c61565b60d16020526000908152604090205463ffffffff80821691600160201b8104821691600160401b9091041683565b3480156109d257600080fd5b5060975461042c906001600160a01b031681565b3480156109f257600080fd5b50610390610a01366004613ce4565b612896565b348015610a1257600080fd5b50610390610a21366004613c12565b612a0f565b348015610a3257600080fd5b50610666609a5481565b348015610a4857600080fd5b50610390610a57366004613f6f565b612c05565b348015610a6857600080fd5b50610390610a77366004613c7a565b612c67565b348015610a8857600080fd5b50610390610a97366004613cb6565b612ca3565b348015610aa857600080fd5b50610390610ab7366004613ce4565b612cef565b348015610ac857600080fd5b50610390610ad7366004613c61565b612e68565b348015610ae857600080fd5b50610390610af7366004613f8a565b613000565b348015610b0857600080fd5b50610666610b17366004613c61565b61317c565b348015610b2857600080fd5b50609f5461042c906001600160a01b031681565b348015610b4857600080fd5b5061048d610b57366004613c61565b60d36020526000908152604090205463ffffffff80821691600160201b8104821691600160401b9091041683565b348015610b9157600080fd5b50610666610ba0366004613c61565b6131e9565b348015610bb157600080fd5b50610666610bc0366004613c61565b6131f9565b6097546001600160a01b03163314610bf85760405162461bcd60e51b8152600401610bef9061401c565b60405180910390fd5b60405163a9059cbb60e01b81526001600160a01b0383811660048301526024820183905284919082169063a9059cbb906044016020604051808303816000875af1158015610c4a573d6000803e3d6000fd5b505050506040513d601f19601f82011682018060405250810190610c6e919061403e565b5050505050565b60008060008060005b8551811015610cf557610ca9868281518110610c9c57610c9c61405b565b602002602001015161317c565b610cb39084614087565b9250610cd7868281518110610cca57610cca61405b565b60200260200101516131f9565b610ce19083614087565b915080610ced8161409f565b915050610c7e565b509094909350915050565b600054610100900460ff16610d1b5760005460ff1615610d1f565b303b155b610d825760405162461bcd60e51b815260206004820152602e60248201527f496e697469616c697a61626c653a20636f6e747261637420697320616c72656160448201526d191e481a5b9a5d1a585b1a5e995960921b6064820152608401610bef565b600054610100900460ff16158015610da4576000805461ffff19166101011790555b610dac613434565b609780546001600160a01b03199081166001600160a01b0389811691909117909255609b80548216888416179055609d80548216878416179055615208609c55680d8d726b7177a80000609a55609880548216868416179055609980549091169184169190911790558015610e27576000805461ff00191690555b505050505050565b609d546040516331a9108f60e11b815260048101869052859133916001600160a01b0390911690636352211e90602401602060405180830381865afa158015610e7c573d6000803e3d6000fd5b505050506040513d601f19601f82011682018060405250810190610ea091906140ba565b6001600160a01b031614610ec65760405162461bcd60e51b8152600401610bef906140d7565b60335460ff1615610ee95760405162461bcd60e51b8152600401610bef9061410e565b600085815260d06020526040902060010154600160501b900460ff16610f515760405162461bcd60e51b815260206004820181905260248201527f54686572652073686f756c64206265206120726f626f7420617373656d626c796044820152606401610bef565b600085815260d3602052604090205463ffffffff16151580610f8d5750600085815260d36020526040902054600160201b900463ffffffff1615155b15610ff2578115610fb05760405162461bcd60e51b8152600401610bef90614138565b600085815260d360205260409020805463ffffffff858116600160201b026001600160401b031990921690871617179055610fed60ff6002613465565b610c6e565b600085815260d360205260409020805463ffffffff858116600160201b026001600160401b0319909216908716171790555050505050565b600083815260d160205260409020805463ffffffff838116600160201b026001600160401b03199092169085161717905561106483612e68565b505050565b6097546001600160a01b031633146110935760405162461bcd60e51b8152600401610bef9061401c565b60a080546001600160a01b0319166001600160a01b0392909216919091179055565b600083815260d260205260409020805463ffffffff838116600160201b026001600160401b0319909216908516171790556110648360015b609d546040516331a9108f60e11b815260048101849052839133916001600160a01b0390911690636352211e90602401602060405180830381865afa15801561113a573d6000803e3d6000fd5b505050506040513d601f19601f8201168201806040525081019061115e91906140ba565b6001600160a01b0316146111845760405162461bcd60e51b8152600401610bef906140d7565b60335460ff16156111a75760405162461bcd60e51b8152600401610bef9061410e565b6111b260018361416f565b600084815260d06020526040902060010154600160481b900460ff9081169116146111ef5760405162461bcd60e51b8152600401610bef90614192565b6111f88361373d565b600083815260d0602052604090206001908101805469ff0000000000000000001916600160481b60ff861602179055611232908390613465565b6040805184815260ff8416602082015233917fbce74c3d6a81a6ea4b55a703751c4fbad439c2ce8997bc12bb2463cb3f6d987b91015b60405180910390a2505050565b6097546001600160a01b0316331461129f5760405162461bcd60e51b8152600401610bef9061401c565b609e80546001600160a01b0319166001600160a01b0392909216919091179055565b6097546001600160a01b031633146112eb5760405162461bcd60e51b8152600401610bef9061401c565b60a280546001600160a01b0319166001600160a01b0392909216919091179055565b60606000826001600160401b0381111561132957611329613a7c565b60405190808252806020026020018201604052801561138957816020015b6040805160c08101825260008082526020808301829052928201819052606082018190526080820181905260a082015282526000199092019101816113475790505b50905060005b838110156114635760008585838181106113ab576113ab61405b565b9050602002013590506040518060c001604052806113c8836131f9565b81526020016113d68361317c565b8152600083815260d0602081815260408084206001015460ff600160401b8204811684880152600160481b8204811692870192909252600160501b81048216606087015293879052919052600160581b9091041660809091015283518490849081106114445761144461405b565b602002602001018190525050808061145b9061409f565b91505061138f565b509392505050565b6097546001600160a01b031633146114955760405162461bcd60e51b8152600401610bef9061401c565b61149d613776565b609b60009054906101000a90046001600160a01b03166001600160a01b0316633f4ba83a6040518163ffffffff1660e01b8152600401600060405180830381600087803b1580156114ed57600080fd5b505af1158015611501573d6000803e3d6000fd5b50505050609d60009054906101000a90046001600160a01b03166001600160a01b0316633f4ba83a6040518163ffffffff1660e01b8152600401600060405180830381600087803b15801561155557600080fd5b505af1158015611569573d6000803e3d6000fd5b50505050609e60009054906101000a90046001600160a01b03166001600160a01b0316633f4ba83a6040518163ffffffff1660e01b8152600401600060405180830381600087803b1580156115bd57600080fd5b505af11580156115d1573d6000803e3d6000fd5b50505050565b60335460ff16156115fa5760405162461bcd60e51b8152600401610bef9061410e565b60d55460ff16156116405760405162461bcd60e51b815260206004820152601060248201526f1c99595b9d1c985b98de4819dd585c9960821b6044820152606401610bef565b60d5805460ff19166001179055806116885760405162461bcd60e51b815260206004820152600b60248201526a456d70747920617272617960a81b6044820152606401610bef565b60005b60ff811682111561198857609d546001600160a01b0316636352211e848460ff85168181106116bc576116bc61405b565b905060200201356040518263ffffffff1660e01b81526004016116e191815260200190565b602060405180830381865afa1580156116fe573d6000803e3d6000fd5b505050506040513d601f19601f8201168201806040525081019061172291906140ba565b6001600160a01b0316336001600160a01b03161461173f57600080fd5b600061176584848460ff168181106117595761175961405b565b9050602002013561317c565b9050600060d0600086868660ff168181106117825761178261405b565b905060200201358152602001908152602001600020600001819055504260d0600086868660ff168181106117b8576117b861405b565b60209081029290920135835250810191909152604090810160002060010180546001600160401b0319166001600160401b039390931692909217909155609b5490516340c10f1960e01b8152336004820152602481018390526001600160a01b03909116906340c10f1990604401600060405180830381600087803b15801561184057600080fd5b505af1158015611854573d6000803e3d6000fd5b5050609b546098546001600160a01b0391821693506340c10f19925016603161187e85601f6141c9565b61188891906141e8565b6040516001600160e01b031960e085901b1681526001600160a01b0390921660048301526024820152604401600060405180830381600087803b1580156118ce57600080fd5b505af11580156118e2573d6000803e3d6000fd5b5050609b546099546001600160a01b0391821693506340c10f19925016603161190c8560146141c9565b61191691906141e8565b6040516001600160e01b031960e085901b1681526001600160a01b0390921660048301526024820152604401600060405180830381600087803b15801561195c57600080fd5b505af1158015611970573d6000803e3d6000fd5b505050505080806119809061420a565b91505061168b565b505060d5805460ff1916905550565b6097546001600160a01b031633146119c15760405162461bcd60e51b8152600401610bef9061401c565b609f80546001600160a01b0319166001600160a01b0392909216919091179055565b609f546060908190819081906000906001600160a01b0316611a5f576040805160008082526020820190925290611a2a565b6060815260200190600190039081611a155790505b506040805160008082528183018352602080830182815284519182019094528181529298509196509194509092509050611c60565b6000806000609f60009054906101000a90046001600160a01b03166001600160a01b03166340308d3b6040518163ffffffff1660e01b8152600401600060405180830381865afa158015611ab7573d6000803e3d6000fd5b505050506040513d6000823e601f3d908101601f19168201604052611adf9190810190614295565b925092509250600081516001600160401b03811115611b0057611b00613a7c565b604051908082528060200260200182016040528015611b29578160200160208202803683370190505b50905060005b82518160ff161015611bdc57609f54604051632c295f7d60e11b815260ff831660048201526001600160a01b0390911690635852befa90602401602060405180830381865afa158015611b86573d6000803e3d6000fd5b505050506040513d601f19601f82011682018060405250810190611baa919061438c565b828260ff1681518110611bbf57611bbf61405b565b602090810291909101015280611bd48161420a565b915050611b2f565b50609f546040516356fd539760e11b815233600482015285918591859185916001600160a01b039091169063adfaa72e90602401602060405180830381865afa158015611c2d573d6000803e3d6000fd5b505050506040513d601f19601f82011682018060405250810190611c51919061403e565b98509850985098509850505050505b9091929394565b60d55460ff1615611cad5760405162461bcd60e51b815260206004820152601060248201526f1c99595b9d1c985b98de4819dd585c9960821b6044820152606401610bef565b60d5805460ff19166001179055611cc660fe6004613465565b609e546040516335313c2160e11b81523360048201526001600160a01b0390911690636a62784290602401600060405180830381600087803b158015611d0b57600080fd5b505af1158015611d1f573d6000803e3d6000fd5b505060d5805460ff191690555050565b60008060015b6152088111611f5457600081815260d06020908152604091829020825160c081018452815481526001909101546001600160401b0381169282019290925260ff600160401b83048116938201849052600160481b830481166060830152600160501b830481166080830152600160581b90920490911660a08201529015611dc457611dc183601e614087565b92505b8060a0015160ff1660011415611de657611ddf836078614087565b9250611e43565b8060a0015160ff1660021415611e0d57611e01836078614087565b611ddf9061010e614087565b8060a0015160ff1660031415611e4357611e28836078614087565b611e349061010e614087565b611e40906101e0614087565b92505b806060015160ff1660011415611e6557611e5e836078614087565b9250611ec2565b806060015160ff1660021415611e8c57611e80836078614087565b611e5e9061010e614087565b806060015160ff1660031415611ec257611ea7836078614087565b611eb39061010e614087565b611ebf906101e0614087565b92505b806080015160ff1660011415611ee457611edd836078614087565b9250611f41565b806080015160ff1660021415611f0b57611eff836078614087565b611edd9061010e614087565b806080015160ff1660031415611f4157611f26836078614087565b611f329061010e614087565b611f3e906101e0614087565b92505b5080611f4c8161409f565b915050611d35565b50919050565b609d546040516331a9108f60e11b815260048101869052859133916001600160a01b0390911690636352211e90602401602060405180830381865afa158015611fa7573d6000803e3d6000fd5b505050506040513d601f19601f82011682018060405250810190611fcb91906140ba565b6001600160a01b031614611ff15760405162461bcd60e51b8152600401610bef906140d7565b60335460ff16156120145760405162461bcd60e51b8152600401610bef9061410e565b600085815260d06020526040902060010154600160401b900460ff1661207c5760405162461bcd60e51b815260206004820152601e60248201527f54686572652073686f756c64206265206120626173652073746174696f6e00006044820152606401610bef565b600085815260d1602052604090205463ffffffff161515806120b85750600085815260d16020526040902054600160201b900463ffffffff1615155b156121185781156120db5760405162461bcd60e51b8152600401610bef90614138565b600085815260d160205260409020805463ffffffff858116600160201b026001600160401b031990921690871617179055610fed60ff6002613465565b600085815260d160205260409020805463ffffffff858116600160201b026001600160401b0319909216908716171790555050505050565b60335460ff16156121735760405162461bcd60e51b8152600401610bef9061410e565b806121c05760405162461bcd60e51b815260206004820152601860248201527f596f752063616e277420636c61696d203020746f6b656e7300000000000000006044820152606401610bef565b6121c9816131e9565b341461220c5760405162461bcd60e51b815260206004820152601260248201527157726f6e6720636c61696d696e672066656560701b6044820152606401610bef565b60005b60ff81168211156110645761223f3384848460ff168181106122335761223361405b565b90506020020135613809565b806122498161420a565b91505061220f565b6097546001600160a01b0316331461227b5760405162461bcd60e51b8152600401610bef9061401c565b609780546001600160a01b0319166001600160a01b0392909216919091179055565b6097546001600160a01b031633146122c75760405162461bcd60e51b8152600401610bef9061401c565b6122cf6138ed565b609b60009054906101000a90046001600160a01b03166001600160a01b0316638456cb596040518163ffffffff1660e01b8152600401600060405180830381600087803b15801561231f57600080fd5b505af1158015612333573d6000803e3d6000fd5b50505050609d60009054906101000a90046001600160a01b03166001600160a01b0316638456cb596040518163ffffffff1660e01b8152600401600060405180830381600087803b15801561238757600080fd5b505af115801561239b573d6000803e3d6000fd5b50505050609e60009054906101000a90046001600160a01b03166001600160a01b0316638456cb596040518163ffffffff1660e01b8152600401600060405180830381600087803b1580156115bd57600080fd5b600083815260d460205260409020805463ffffffff838116600160201b026001600160401b031990921690851617179055611064836001612cef565b60335460ff161561244e5760405162461bcd60e51b8152600401610bef9061410e565b6097546001600160a01b031633146124785760405162461bcd60e51b8152600401610bef9061401c565b6124828282613809565b60405181906001600160a01b038416907f8c32c568416fcf97be35ce5b27844cfddcd63a67a1a602c3595ba5dac38f303a90600090a35050565b6097546001600160a01b031633146124e65760405162461bcd60e51b8152600401610bef9061401c565b67016345785d8a00008110158015612508575069021e19e0c9bab24000008111155b6125545760405162461bcd60e51b815260206004820152601a60248201527f4e6577207072696365206973206f7574206f6620626f756e64730000000000006044820152606401610bef565b609a8190556040518181527f4f5539c0409dfc4cb06f64cbd31237e1fbfe443f531584bf4dd77ec7fc5ba7b19060200160405180910390a150565b6097546001600160a01b031633146125b95760405162461bcd60e51b8152600401610bef9061401c565b476125fc5760405162461bcd60e51b81526020600482015260136024820152724e6f7468696e6720746f20776974686472617760681b6044820152606401610bef565b6097546040516000916001600160a01b03169083908381818185875af1925050503d8060008114612649576040519150601f19603f3d011682016040523d82523d6000602084013e61264e565b606091505b50509050806126915760405162461bcd60e51b815260206004820152600f60248201526e15da5d1a191c985dc819985a5b1959608a1b6044820152606401610bef565b5050565b609d546040516331a9108f60e11b815260048101869052859133916001600160a01b0390911690636352211e90602401602060405180830381865afa1580156126e2573d6000803e3d6000fd5b505050506040513d601f19601f8201168201806040525081019061270691906140ba565b6001600160a01b03161461272c5760405162461bcd60e51b8152600401610bef906140d7565b60335460ff161561274f5760405162461bcd60e51b8152600401610bef9061410e565b600085815260d06020526040902060010154600160581b900460ff166127c25760405162461bcd60e51b815260206004820152602260248201527f54686572652073686f756c64206265206120706f7765722070726f647563746960448201526137b760f11b6064820152608401610bef565b600085815260d4602052604090205463ffffffff161515806127fe5750600085815260d46020526040902054600160201b900463ffffffff1615155b1561285e5781156128215760405162461bcd60e51b8152600401610bef90614138565b600085815260d460205260409020805463ffffffff858116600160201b026001600160401b031990921690871617179055610fed60ff6002613465565b600085815260d460205260409020805463ffffffff858116600160201b026001600160401b0319909216908716171790555050505050565b609d546040516331a9108f60e11b815260048101849052839133916001600160a01b0390911690636352211e90602401602060405180830381865afa1580156128e3573d6000803e3d6000fd5b505050506040513d601f19601f8201168201806040525081019061290791906140ba565b6001600160a01b03161461292d5760405162461bcd60e51b8152600401610bef906140d7565b60335460ff16156129505760405162461bcd60e51b8152600401610bef9061410e565b61295b60018361416f565b600084815260d06020526040902060010154600160501b900460ff9081169116146129985760405162461bcd60e51b8152600401610bef90614192565b6129a18361373d565b600083815260d0602052604090206001908101805460ff60501b1916600160501b60ff8616021790556129d5908390613465565b6040805184815260ff8416602082015233917f6f4c6fa65abfbdb878065cf56239c87467b1308866c1f27dad012e666a589b689101611268565b609d546040516331a9108f60e11b815260048101869052859133916001600160a01b0390911690636352211e90602401602060405180830381865afa158015612a5c573d6000803e3d6000fd5b505050506040513d601f19601f82011682018060405250810190612a8091906140ba565b6001600160a01b031614612aa65760405162461bcd60e51b8152600401610bef906140d7565b60335460ff1615612ac95760405162461bcd60e51b8152600401610bef9061410e565b600085815260d06020526040902060010154600160481b900460ff16612b315760405162461bcd60e51b815260206004820152601b60248201527f54686572652073686f756c642062652061207472616e73706f727400000000006044820152606401610bef565b600085815260d2602052604090205463ffffffff16151580612b6d5750600085815260d26020526040902054600160201b900463ffffffff1615155b15612bcd578115612b905760405162461bcd60e51b8152600401610bef90614138565b600085815260d260205260409020805463ffffffff858116600160201b026001600160401b031990921690871617179055610fed60ff6002613465565b600085815260d260205260409020805463ffffffff858116600160201b026001600160401b0319909216908716171790555050505050565b609f5460405163bceb514d60e01b815233600482015260ff831660248201526001600160a01b039091169063bceb514d90604401600060405180830381600087803b158015612c5357600080fd5b505af1158015610c6e573d6000803e3d6000fd5b600083815260d360205260409020805463ffffffff838116600160201b026001600160401b031990921690851617179055611064836001612896565b6097546001600160a01b03163314612ccd5760405162461bcd60e51b8152600401610bef9061401c565b60a180546001600160a01b0319166001600160a01b0392909216919091179055565b609d546040516331a9108f60e11b815260048101849052839133916001600160a01b0390911690636352211e90602401602060405180830381865afa158015612d3c573d6000803e3d6000fd5b505050506040513d601f19601f82011682018060405250810190612d6091906140ba565b6001600160a01b031614612d865760405162461bcd60e51b8152600401610bef906140d7565b60335460ff1615612da95760405162461bcd60e51b8152600401610bef9061410e565b612db460018361416f565b600084815260d06020526040902060010154600160581b900460ff908116911614612df15760405162461bcd60e51b8152600401610bef90614192565b612dfa8361373d565b600083815260d0602052604090206001908101805460ff60581b1916600160581b60ff861602179055612e2e908390613465565b6040805184815260ff8416602082015233917f9914b04dac571a45d7a7b33184088cbd4d62a2ed88e64602a6b8a6a93b3fb0a69101611268565b609d546040516331a9108f60e11b815260048101839052829133916001600160a01b0390911690636352211e90602401602060405180830381865afa158015612eb5573d6000803e3d6000fd5b505050506040513d601f19601f82011682018060405250810190612ed991906140ba565b6001600160a01b031614612eff5760405162461bcd60e51b8152600401610bef906140d7565b60335460ff1615612f225760405162461bcd60e51b8152600401610bef9061410e565b600082815260d06020526040902060010154600160401b900460ff1615612f8b5760405162461bcd60e51b815260206004820152601f60248201527f546865726520697320616c7265616479206120626173652073746174696f6e006044820152606401610bef565b612f948261373d565b600082815260d0602052604081206001908101805468ff00000000000000001916600160401b179055612fc79190613465565b60405182815233907ff9917faa5009c58ed8bd6a1c70b79e1fbefc8afe3e7142ba8b854ccb887fb2629060200160405180910390a25050565b6040516001600160f81b031960f885901b166020820152602181018390526041810182905260009060610160408051601f198184030181529181528151602092830120600081815260a390935291205490915060ff16156130a35760405162461bcd60e51b815260206004820152601760248201527f7369676e617475726520686173206265656e20757365640000000000000000006044820152606401610bef565b60006130f06130b660056010898b6143a5565b8080601f01602080910402602001604051908101604052809392919081815260200183838082843760009201919091525061394592505050565b905060006131056130b6600560108a8c6143a5565b9050600061311a6130b6600860158b8d6143a5565b9050600083837f22f35a74f6e108be17f687d3755e71fa1bc04004f81334b10681477c17cfa0008460405161315191815260200190565b60405180910390a4505050600090815260a360205260409020805460ff191660011790555050505050565b600081815260d060205260408120805460019091015462015180906001600160401b03166131aa90426143cf565b6131b3856131f9565b6131bd91906141c9565b6131cf90670de0b6b3a76400006141c9565b6131d991906141e8565b6131e39190614087565b92915050565b600081609a546131e391906141c9565b609d546040516331a9108f60e11b81526004810183905260009182916001600160a01b0390911690636352211e90602401602060405180830381865afa158015613247573d6000803e3d6000fd5b505050506040513d601f19601f8201168201806040525081019061326b91906140ba565b6001600160a01b0316141561327f57600080fd5b600082815260d060205260409020600190810154600160401b900460ff16156132b0576132ad816001614087565b90505b600083815260d06020526040902060010154600160481b900460ff16158015906132f75750600083815260d060205260409020600101546003600160481b90910460ff1611155b1561333057600083815260d0602052604090206001015461332290600160481b900460ff1682614087565b61332d906001614087565b90505b600083815260d06020526040902060010154600160501b900460ff16158015906133775750600083815260d060205260409020600101546003600160501b90910460ff1611155b156133b057600083815260d060205260409020600101546133a290600160501b900460ff1682614087565b6133ad906001614087565b90505b600083815260d06020526040902060010154600160581b900460ff16158015906133f75750600083815260d060205260409020600101546003600160581b90910460ff1611155b156131e357600083815260d0602052604090206001015461342290600160581b900460ff1682614087565b61342d906001614087565b9392505050565b600054610100900460ff1661345b5760405162461bcd60e51b8152600401610bef906143e6565b6134636139f0565b565b600060ff831661348557613482601e670de0b6b3a76400006141c9565b90505b8260ff16600114156134a7576134a46078670de0b6b3a76400006141c9565b90505b8260ff16600214156134ca576134c761010e670de0b6b3a76400006141c9565b90505b8260ff16600314156134ed576134ea6101e0670de0b6b3a76400006141c9565b90505b60ff838116141561350e5761350b6005670de0b6b3a76400006141c9565b90505b60ff831660fe141561368f5761352d601e670de0b6b3a76400006141c9565b609b549091506001600160a01b03166340c10f1973352c478cd91ba54615cc1edfba4a3e7ec9f60ee1606461356b601e670de0b6b3a76400006141c9565b6135769060026141c9565b61358091906141e8565b6040516001600160e01b031960e085901b1681526001600160a01b0390921660048301526024820152604401600060405180830381600087803b1580156135c657600080fd5b505af11580156135da573d6000803e3d6000fd5b5050609b546001600160a01b031691506340c10f199050732581a6c674d84dad92a81e8d3072c9561c21b935606461361b601e670de0b6b3a76400006141c9565b6136269060036141c9565b61363091906141e8565b6040516001600160e01b031960e085901b1681526001600160a01b0390921660048301526024820152604401600060405180830381600087803b15801561367657600080fd5b505af115801561368a573d6000803e3d6000fd5b505050505b600081116136cd5760405162461bcd60e51b815260206004820152600b60248201526a15dc9bdb99c81b195d995b60aa1b6044820152606401610bef565b609b54604051637a94c56560e11b815233600482015260248101839052604481018490526001600160a01b039091169063f5298aca90606401600060405180830381600087803b15801561372057600080fd5b505af1158015613734573d6000803e3d6000fd5b50505050505050565b6137468161317c565b600091825260d0602052604090912090815560010180546001600160401b031916426001600160401b0316179055565b60335460ff166137bf5760405162461bcd60e51b815260206004820152601460248201527314185d5cd8589b194e881b9bdd081c185d5cd95960621b6044820152606401610bef565b6033805460ff191690557f5db9ee0a495bf2e6ff9c91a7834c1ba4fdd244a5e8aa4e537bd38aeae4b073aa335b6040516001600160a01b03909116815260200160405180910390a1565b60008111801561381b5750609c548111155b6138605760405162461bcd60e51b8152602060048201526016602482015275546f6b656e206964206f7574206f6620626f756e647360501b6044820152606401610bef565b600081815260d060205260409081902060010180546001600160401b031916426001600160401b0316179055609d5490516340c10f1960e01b81526001600160a01b03848116600483015260248201849052909116906340c10f1990604401600060405180830381600087803b1580156138d957600080fd5b505af1158015610e27573d6000803e3d6000fd5b60335460ff16156139105760405162461bcd60e51b8152600401610bef9061410e565b6033805460ff191660011790557f62e78cea01bee320cd4e420270b5ea74000d11b0c9f74754ebdbfc544b05a2586137ec3390565b60008181805b82518110156114635760308382815181106139685761396861405b565b016020015160f81c108015906139985750603983828151811061398d5761398d61405b565b016020015160f81c11155b156139de5760308382815181106139b1576139b161405b565b01602001516139c3919060f81c61416f565b60ff166139d183600a6141c9565b6139db9190614087565b91505b806139e88161409f565b91505061394b565b600054610100900460ff16613a175760405162461bcd60e51b8152600401610bef906143e6565b6033805460ff19169055565b6001600160a01b0381168114613a3857600080fd5b50565b600080600060608486031215613a5057600080fd5b8335613a5b81613a23565b92506020840135613a6b81613a23565b929592945050506040919091013590565b634e487b7160e01b600052604160045260246000fd5b604051601f8201601f191681016001600160401b0381118282101715613aba57613aba613a7c565b604052919050565b60006001600160401b03821115613adb57613adb613a7c565b5060051b60200190565b60006020808385031215613af857600080fd5b82356001600160401b03811115613b0e57600080fd5b8301601f81018513613b1f57600080fd5b8035613b32613b2d82613ac2565b613a92565b81815260059190911b82018301908381019087831115613b5157600080fd5b928401925b82841015613b6f57833582529284019290840190613b56565b979650505050505050565b600080600080600060a08688031215613b9257600080fd5b8535613b9d81613a23565b94506020860135613bad81613a23565b93506040860135613bbd81613a23565b92506060860135613bcd81613a23565b91506080860135613bdd81613a23565b809150509295509295909350565b803563ffffffff81168114613bff57600080fd5b919050565b8015158114613a3857600080fd5b60008060008060808587031215613c2857600080fd5b84359350613c3860208601613beb565b9250613c4660408601613beb565b91506060850135613c5681613c04565b939692955090935050565b600060208284031215613c7357600080fd5b5035919050565b600080600060608486031215613c8f57600080fd5b83359250613c9f60208501613beb565b9150613cad60408501613beb565b90509250925092565b600060208284031215613cc857600080fd5b813561342d81613a23565b803560ff81168114613bff57600080fd5b60008060408385031215613cf757600080fd5b82359150613d0760208401613cd3565b90509250929050565b60008060208385031215613d2357600080fd5b82356001600160401b0380821115613d3a57600080fd5b818501915085601f830112613d4e57600080fd5b813581811115613d5d57600080fd5b8660208260051b8501011115613d7257600080fd5b60209290920196919550909350505050565b602080825282518282018190526000919060409081850190868401855b82811015613df95781518051855286810151878601528581015160ff9081168787015260608083015182169087015260808083015182169087015260a091820151169085015260c09093019290850190600101613da1565b5091979650505050505050565b60005b83811015613e21578181015183820152602001613e09565b838111156115d15750506000910152565b60008151808452613e4a816020860160208601613e06565b601f01601f19169290920160200192915050565b600081518084526020808501945080840160005b83811015613e8e57815187529582019590820190600101613e72565b509495945050505050565b60a081526000613eac60a0830188613e32565b602083820381850152613ebf8289613e32565b915083820360408501528187518084528284019150828160051b850101838a0160005b83811015613f1057601f19878403018552613efe838351613e32565b94860194925090850190600101613ee2565b50508681036060880152613f24818a613e5e565b95505050505050613f39608083018415159052565b9695505050505050565b60008060408385031215613f5657600080fd5b8235613f6181613a23565b946020939093013593505050565b600060208284031215613f8157600080fd5b61342d82613cd3565b600080600080600060808688031215613fa257600080fd5b85356001600160401b0380821115613fb957600080fd5b818801915088601f830112613fcd57600080fd5b813581811115613fdc57600080fd5b896020828501011115613fee57600080fd5b6020928301975095506140049188019050613cd3565b94979396509394604081013594506060013592915050565b6020808252600890820152674f6e6c792044414f60c01b604082015260600190565b60006020828403121561405057600080fd5b815161342d81613c04565b634e487b7160e01b600052603260045260246000fd5b634e487b7160e01b600052601160045260246000fd5b6000821982111561409a5761409a614071565b500190565b60006000198214156140b3576140b3614071565b5060010190565b6000602082840312156140cc57600080fd5b815161342d81613a23565b6020808252601a908201527f596f75206172656e27742074686520746f6b656e206f776e6572000000000000604082015260600190565b60208082526010908201526f14185d5cd8589b194e881c185d5cd95960821b604082015260600190565b6020808252601f908201527f596f752063616e20706c616365206f6e6c7920666f7220434c4e59206e6f7700604082015260600190565b600060ff821660ff84168082101561418957614189614071565b90039392505050565b60208082526017908201527f43616e20627579206f6e6c79206e657874206c6576656c000000000000000000604082015260600190565b60008160001904831182151516156141e3576141e3614071565b500290565b60008261420557634e487b7160e01b600052601260045260246000fd5b500490565b600060ff821660ff81141561422157614221614071565b60010192915050565b600082601f83011261423b57600080fd5b81516001600160401b0381111561425457614254613a7c565b614267601f8201601f1916602001613a92565b81815284602083860101111561427c57600080fd5b61428d826020830160208701613e06565b949350505050565b6000806000606084860312156142aa57600080fd5b83516001600160401b03808211156142c157600080fd5b6142cd8783880161422a565b94506020915081860151818111156142e457600080fd5b6142f08882890161422a565b94505060408601518181111561430557600080fd5b8601601f8101881361431657600080fd5b8051614324613b2d82613ac2565b81815260059190911b8201840190848101908a83111561434357600080fd5b8584015b8381101561437b5780518681111561435f5760008081fd5b61436d8d898389010161422a565b845250918601918601614347565b508096505050505050509250925092565b60006020828403121561439e57600080fd5b5051919050565b600080858511156143b557600080fd5b838611156143c257600080fd5b5050820193919092039150565b6000828210156143e1576143e1614071565b500390565b6020808252602b908201527f496e697469616c697a61626c653a20636f6e7472616374206973206e6f74206960408201526a6e697469616c697a696e6760a81b60608201526080019056fea26469706673582212206ff67264c5a88e77d602db58a1b821e29f27775437597d0ecca52e5619cebabd64736f6c634300080b0033",
  "immutableReferences": {},
  "source": "// SPDX-License-Identifier: MIT\npragma solidity >=0.8.0 <0.9.0;\n\nimport '@openzeppelin/contracts-upgradeable/security/PausableUpgradeable.sol';\nimport './interfaces/NFTMintableInterface.sol';\nimport './interfaces/PauseInterface.sol';\nimport './interfaces/ERC20MintBurnInterface.sol';\nimport '@openzeppelin/contracts/token/ERC20/IERC20.sol';\nimport './interfaces/IPoll.sol';\nimport './interfaces/IMartianColonists.sol';\n\n\n/**\n * Game logic; upgradable\n */\ncontract GameManager is PausableUpgradeable {\n  uint256[50] private ______gm_gap_0;\n\n  address public DAO; // owner\n\n  address public treasury;\n  address public liquidity;\n  uint256 public price;\n  address public CLNYAddress;\n  uint256 public maxTokenId;\n  address public MCAddress;\n  address public avatarAddress;\n  address public pollAddress;\n  address public missionManager;\n  IMartianColonists public martianColonists;\n  address public backendSigner;\n  mapping (bytes32 => bool) private usedSignatures;\n\n  uint256[44] private ______gm_gap_1;\n\n  struct LandData {\n    uint256 fixedEarnings; // already earned CLNY, but not withdrawn yet\n    uint64 lastCLNYCheckout; // (now - lastCLNYCheckout) * 'earning speed' + fixedEarnings = farmed so far\n    uint8 baseStation; // 0 or 1\n    uint8 transport; // 0 or 1, 2, 3 (levels)\n    uint8 robotAssembly; // 0 or 1, 2, 3 (levels)\n    uint8 powerProduction; // 0 or 1, 2, 3 (levels)\n  }\n\n  struct PlaceOnLand {\n    uint32 x;\n    uint32 y;\n    uint32 rotate; // for future versions\n  }\n\n  /**\n   * Data to output\n   */\n  struct AttributeData {\n    uint256 speed; // CLNY earning speed\n    uint256 earned;\n    uint8 baseStation; // 0 or 1\n    uint8 transport; // 0 or 1, 2, 3 (levels)\n    uint8 robotAssembly; // 0 or 1, 2, 3 (levels)\n    uint8 powerProduction; // 0 or 1, 2, 3 (levels)\n  }\n\n  mapping (uint256 => LandData) private tokenData;\n\n  mapping (uint256 => PlaceOnLand) public baseStationsPlacement;\n  mapping (uint256 => PlaceOnLand) public transportPlacement;\n  mapping (uint256 => PlaceOnLand) public robotAssemblyPlacement;\n  mapping (uint256 => PlaceOnLand) public powerProductionPlacement;\n\n  bool internal locked;\n\n  uint256[45] private ______gm_gap_2;\n\n  event Airdrop (address indexed receiver, uint256 indexed tokenId);\n  // f9917faa5009c58ed8bd6a1c70b79e1fbefc8afe3e7142ba8b854ccb887fb262\n  event BuildBaseStation (uint256 tokenId, address indexed owner);\n  // bce74c3d6a81a6ea4b55a703751c4fbad439c2ce8997bc12bb2463cb3f6d987b\n  event BuildTransport (uint256 tokenId, address indexed owner, uint8 level);\n  // 6f4c6fa65abfbdb878065cf56239c87467b1308866c1f27dad012e666a589b68\n  event BuildRobotAssembly (uint256 tokenId, address indexed owner, uint8 level);\n  // 9914b04dac571a45d7a7b33184088cbd4d62a2ed88e64602a6b8a6a93b3fb0a6\n  event BuildPowerProduction (uint256 tokenId, address indexed owner, uint8 level);\n  event SetPrice (uint256 price);\n  event MissionReward (uint256 indexed landId, uint256 indexed avatarId, uint256 indexed rewardType, uint256 rewardAmount);\n\n  modifier onlyDAO {\n    require(msg.sender == DAO, 'Only DAO');\n    _;\n  }\n\n  modifier onlyTokenOwner(uint256 tokenId) {\n    require(NFTMintableInterface(MCAddress).ownerOf(tokenId) == msg.sender, \"You aren't the token owner\");\n    _;\n  }\n\n  modifier nonReentrant {\n    require (!locked, 'reentrancy guard');\n    locked = true;\n    _;\n    locked = false;\n  }\n\n  function setMissionManager(address _address) external onlyDAO {\n    missionManager = _address;\n  }\n\n  function setBackendSigner(address _address) external onlyDAO {\n    backendSigner = _address;\n  }\n\n  function setMartianColonists(address _address) external onlyDAO {\n    martianColonists = IMartianColonists(_address);\n  }\n\n  function setAvatarAddress(address _avatarAddress) external onlyDAO {\n    avatarAddress = _avatarAddress;\n  }\n\n  function setPollAddress(address _address) external onlyDAO {\n    pollAddress = _address;\n  }\n\n  function getPollData() external view returns (string memory, string memory, string[] memory, uint256[] memory, bool) {\n    if (pollAddress == address(0)) {\n      return ('', '', new string[](0), new uint256[](0), false);\n    }\n    (string memory description, string memory caption, string[] memory items) = IPoll(pollAddress).getVoteTopic();\n    uint256[] memory results = new uint256[](items.length);\n    for (uint8 i = 0; i < items.length; i++) {\n      results[i] = IPoll(pollAddress).totalVotesFor(i);\n    }\n    return (description, caption, items, results, IPoll(pollAddress).canVote(msg.sender));\n  }\n\n  function vote(uint8 decision) external {\n    IPoll(pollAddress).vote(msg.sender, decision);\n  }\n\n  function stringToUint(string memory s) private pure returns (uint256) {\n    bytes memory b = bytes(s);\n    uint result = 0;\n    for (uint i = 0; i < b.length; i++) {\n      if (uint8(b[i]) >= 48 && uint8(b[i]) <= 57) {\n        result = result * 10 + (uint8(b[i]) - 48);\n      }\n    }\n    return result;\n  }\n\n  function finishMission(\n    string calldata message,\n    uint8 v,\n    bytes32 r,\n    bytes32 s\n  ) external {\n    // TODO (1) check signature and that `message` is signed by `backendSigner`\n    bytes32 signatureHashed = keccak256(abi.encodePacked(v, r, s));\n    require (!usedSignatures[signatureHashed], 'signature has been used');\n    // 0..15 - random\n    // 16..20 - avatar id\n    // 21..25 - land id\n    // 26..33 - xp reward like 00000020\n    // 34..41 and several 8-byte blocks - reserved\n    uint256 _avatar = stringToUint(string(message[16:5]));\n    uint256 _land = stringToUint(string(message[16:5]));\n    uint256 _xp = stringToUint(string(message[21:8]));\n    // TODO (2) check that `_land`, `_avatar` and `_xp` are converted right way\n    // TODO (3) add XP and increase level to the avatar\n\n    emit MissionReward(_land, _avatar, 0, _xp); // 0 - xp; one event for every reward type\n\n    usedSignatures[signatureHashed] = true;\n  }\n\n  /**\n  * temporary to count burned clny (setBurned)\n  */\n  function getBurnedOnEnhancements() external view returns (uint256) {\n    uint256 result = 0;\n    for (uint256 i = 1; i <= 21000; i++) {\n      LandData memory data = tokenData[i];\n      if (data.baseStation != 0) {\n        result = result + 30;\n      }\n\n      if (data.powerProduction == 1) {\n        result = result + 120;\n      } else if (data.powerProduction == 2) {\n        result = result + 120 + 270;\n      } else if (data.powerProduction == 3) {\n        result = result + 120 + 270 + 480;\n      }\n\n      if (data.transport == 1) {\n        result = result + 120;\n      } else if (data.transport == 2) {\n        result = result + 120 + 270;\n      } else if (data.transport == 3) {\n        result = result + 120 + 270 + 480;\n      }\n\n      if (data.robotAssembly == 1) {\n        result = result + 120;\n      } else if (data.robotAssembly == 2) {\n        result = result + 120 + 270;\n      } else if (data.robotAssembly == 3) {\n        result = result + 120 + 270 + 480;\n      }\n    }\n    return result;\n  }\n\n  function initialize(\n    address _DAO,\n    address _CLNYAddress,\n    address _MCAddress,\n    address _treasury,\n    address _liquidity\n  ) public initializer {\n    __Pausable_init();\n    DAO = _DAO;\n    CLNYAddress = _CLNYAddress;\n    MCAddress = _MCAddress;\n    maxTokenId = 21000;\n    price = 250 ether;\n    treasury = _treasury;\n    liquidity = _liquidity;\n  }\n\n  /**\n   * Transfers ownership\n   * 0x7a318866\n   */\n  function transferDAO(address _DAO) external onlyDAO {\n    DAO = _DAO;\n  }\n\n  /**\n   * Cost of minting for `tokenCount` tokens\n   */\n  function getFee(uint256 tokenCount) public view returns (uint256) {\n    return price * tokenCount;\n  }\n\n  /**\n   * Sets the cost of minting for 1 token\n   */\n  function setPrice(uint256 _price) external onlyDAO {\n    require(_price >= 0.1 ether && _price <= 10000 ether, 'New price is out of bounds');\n    price = _price;\n    emit SetPrice(_price);\n  }\n\n  function mintAvatar() external nonReentrant {\n    _deduct(MINT_AVATAR_LEVEL, REASON_MINT_AVATAR);\n    NFTMintableInterface(avatarAddress).mint(msg.sender);\n  }\n\n  function mintNFT(address _address, uint256 tokenId) private {\n    require (tokenId > 0 && tokenId <= maxTokenId, 'Token id out of bounds');\n    tokenData[tokenId].lastCLNYCheckout = uint64(block.timestamp);\n    NFTMintableInterface(MCAddress).mint(_address, tokenId);\n  }\n\n  /**\n   * Mints several tokens\n   * Pls check gas limits to get max possible count\n   */\n  function claim(uint256[] calldata tokenIds) external payable whenNotPaused {\n    require (tokenIds.length != 0, \"You can't claim 0 tokens\");\n    require (msg.value == getFee(tokenIds.length), 'Wrong claiming fee');\n    for (uint8 i = 0; i < tokenIds.length; i++) {\n      mintNFT(msg.sender, tokenIds[i]);\n    }\n  }\n\n  /**\n   * 0x8456cb59\n   */\n  function pause() external onlyDAO {\n    _pause();\n    PauseInterface(CLNYAddress).pause();\n    PauseInterface(MCAddress).pause();\n    PauseInterface(avatarAddress).pause();\n  }\n\n  /**\n   * 0x3f4ba83a\n   */\n  function unpause() external onlyDAO {\n    _unpause();\n    PauseInterface(CLNYAddress).unpause();\n    PauseInterface(MCAddress).unpause();\n    PauseInterface(avatarAddress).unpause();\n  }\n\n  function airdrop(address receiver, uint256 tokenId) external whenNotPaused onlyDAO {\n    mintNFT(receiver, tokenId);\n    emit Airdrop(receiver, tokenId);\n  }\n\n  uint8 constant BASE_STATION = 0;\n  /** these constants (for sure just `_deduct` function) can be changed while upgrading */\n  uint256 constant BASE_STATION_COST = 30;\n  uint256 constant AVATAR_MINT_COST = 30;\n  uint256 constant LEVEL_1_COST = 120;\n  uint256 constant LEVEL_2_COST = 270;\n  uint256 constant LEVEL_3_COST = 480;\n  uint8 constant MINT_AVATAR_LEVEL = 254;\n  uint8 constant PLACEMENT_LEVEL = 255;\n  uint256 constant PLACEMENT_COST = 5;\n  uint256 constant REASON_UPGRADE = 1;\n  uint256 constant REASON_PLACE = 2;\n  uint256 constant REASON_RENAME_AVATAR = 3;\n  uint256 constant REASON_MINT_AVATAR = 4;\n\n  /**\n   * Burn CLNY token for building enhancements\n   * Assume decimals() is always 18\n   */\n  function _deduct(uint8 level, uint256 reason) private {\n    uint256 amount = 0;\n    if (level == BASE_STATION) {\n      amount = BASE_STATION_COST * 10 ** 18;\n    }\n    if (level == 1) {\n      amount = LEVEL_1_COST * 10 ** 18;\n    }\n    if (level == 2) {\n      amount = LEVEL_2_COST * 10 ** 18;\n    }\n    if (level == 3) {\n      amount = LEVEL_3_COST * 10 ** 18;\n    }\n    if (level == PLACEMENT_LEVEL) {\n      amount = PLACEMENT_COST * 10 ** 18;\n    }\n    if (level == MINT_AVATAR_LEVEL) {\n      amount = AVATAR_MINT_COST * 10 ** 18;\n      // atrist and team minting royalties\n      ERC20MintBurnInterface(CLNYAddress).mint(0x352c478CD91BA54615Cc1eDFbA4A3E7EC9f60EE1, AVATAR_MINT_COST * 10 ** 18 * 2 / 100);\n      ERC20MintBurnInterface(CLNYAddress).mint(0x2581A6C674D84dAD92A81E8d3072C9561c21B935, AVATAR_MINT_COST * 10 ** 18 * 3 / 100);\n    }\n    require (amount > 0, 'Wrong level');\n    ERC20MintBurnInterface(CLNYAddress).burn(msg.sender, amount, reason);\n  }\n\n  function getLastCheckout(uint256 tokenId) public view returns (uint256) {\n    return tokenData[tokenId].lastCLNYCheckout;\n  }\n\n  function getEarned(uint256 tokenId) public view returns (uint256) {\n    return getEarningSpeed(tokenId)\n      * (block.timestamp - getLastCheckout(tokenId)) * 10 ** 18 / (24 * 60 * 60)\n      + tokenData[tokenId].fixedEarnings;\n  }\n\n  /**\n   * deprecated, use getAttributesMany\n   */\n  function getEarningData(uint256[] memory tokenIds) external view returns (uint256, uint256) {\n    uint256 result = 0;\n    uint256 speed = 0;\n    for (uint256 i = 0; i < tokenIds.length; i++) {\n      result = result + getEarned(tokenIds[i]);\n      speed = speed + getEarningSpeed(tokenIds[i]);\n    }\n    return (result, speed);\n  }\n\n  function getEarningSpeed(uint256 tokenId) public view returns (uint256) {\n    require (NFTMintableInterface(MCAddress).ownerOf(tokenId) != address(0)); // reverts itself\n    uint256 speed = 1; // bare land\n    if (tokenData[tokenId].baseStation > 0) {\n      speed = speed + 1; // base station gives +1\n    }\n    if (tokenData[tokenId].transport > 0 && tokenData[tokenId].transport <= 3) {\n      speed = speed + tokenData[tokenId].transport + 1; // others give from +2 to +4\n    }\n    if (tokenData[tokenId].robotAssembly > 0 && tokenData[tokenId].robotAssembly <= 3) {\n      speed = speed + tokenData[tokenId].robotAssembly + 1;\n    }\n    if (tokenData[tokenId].powerProduction > 0 && tokenData[tokenId].powerProduction <= 3) {\n      speed = speed + tokenData[tokenId].powerProduction + 1;\n    }\n    return speed;\n  }\n\n  function fixEarnings(uint256 tokenId) private {\n    tokenData[tokenId].fixedEarnings = getEarned(tokenId);\n    tokenData[tokenId].lastCLNYCheckout = uint64(block.timestamp);\n  }\n\n  /**\n   * Builds base station\n   * deprecated: new base stations should be placed with buildAndPlaceBaseStation\n   * 0xcfc26d99\n   */\n  function buildBaseStation(uint256 tokenId) public onlyTokenOwner(tokenId) whenNotPaused {\n    require(tokenData[tokenId].baseStation == 0, 'There is already a base station');\n    fixEarnings(tokenId);\n    tokenData[tokenId].baseStation = 1;\n    _deduct(BASE_STATION, REASON_UPGRADE);\n    emit BuildBaseStation(tokenId, msg.sender);\n  }\n\n  /**\n   * Builds and places base station\n   * 0x23c32819\n   */\n  function buildAndPlaceBaseStation(uint256 tokenId, uint32 x, uint32 y) external {\n    baseStationsPlacement[tokenId].x = x;\n    baseStationsPlacement[tokenId].y = y;\n    buildBaseStation(tokenId);\n  }\n\n  /**\n   * Places base station\n   * deprecated: new base stations should be placed with buildAndPlaceBaseStation\n   * 0x5f549163\n   */\n  function placeBaseStation(uint256 tokenId, uint32 x, uint32 y, bool free) external onlyTokenOwner(tokenId) whenNotPaused {\n    require(tokenData[tokenId].baseStation != 0, 'There should be a base station');\n    if (baseStationsPlacement[tokenId].x != 0 || baseStationsPlacement[tokenId].y != 0) {\n      require(!free, 'You can place only for CLNY now');\n      baseStationsPlacement[tokenId].x = x;\n      baseStationsPlacement[tokenId].y = y;\n      // already placed -> new placement is for 5 clny\n      // if users places back to 0, 0 it's ok not to deduct him 5 clny\n      _deduct(PLACEMENT_LEVEL, REASON_PLACE);\n    } else {\n      baseStationsPlacement[tokenId].x = x;\n      baseStationsPlacement[tokenId].y = y;\n    }\n  }\n\n  /**\n   * Builds transport\n   * `uint8 level` is very important - it prevents accidental spending ERC20 with double transactions\n   * 0x33e3480f\n   */\n  function buildTransport(uint256 tokenId, uint8 level) public onlyTokenOwner(tokenId) whenNotPaused {\n    require(tokenData[tokenId].transport == level - 1, 'Can buy only next level');\n    fixEarnings(tokenId);\n    tokenData[tokenId].transport = level;\n    _deduct(level, REASON_UPGRADE);\n    emit BuildTransport(tokenId, msg.sender, level);\n  }\n\n  /**\n   * Builds and places transport\n   * 0x2fc6ced1\n   */\n  function buildAndPlaceTransport(uint256 tokenId, uint32 x, uint32 y) external {\n    transportPlacement[tokenId].x = x;\n    transportPlacement[tokenId].y = y;\n    buildTransport(tokenId, 1);\n  }\n\n  /**\n   * Places transport\n   * deprecated: for migration only\n   * 0x9b416e1c\n   */\n  function placeTransport(uint256 tokenId, uint32 x, uint32 y, bool free) external onlyTokenOwner(tokenId) whenNotPaused {\n    require(tokenData[tokenId].transport != 0, 'There should be a transport');\n    if (transportPlacement[tokenId].x != 0 || transportPlacement[tokenId].y != 0) {\n      require(!free, 'You can place only for CLNY now');\n      transportPlacement[tokenId].x = x;\n      transportPlacement[tokenId].y = y;\n      // already placed -> new placement is for 5 clny\n      // if users places back to 0, 0 it's ok not to deduct him 5 clny\n      _deduct(PLACEMENT_LEVEL, REASON_PLACE);\n    } else {\n      transportPlacement[tokenId].x = x;\n      transportPlacement[tokenId].y = y;\n    }\n  }\n\n  /**\n   * Builds robot assembly\n   * `uint8 level` is very important - it prevents accidental spending ERC20 with double transactions\n   * 0x9a3274c4\n   */\n  function buildRobotAssembly(uint256 tokenId, uint8 level) public onlyTokenOwner(tokenId) whenNotPaused {\n    require(tokenData[tokenId].robotAssembly == level - 1, 'Can buy only next level');\n    fixEarnings(tokenId);\n    tokenData[tokenId].robotAssembly = level;\n    _deduct(level, REASON_UPGRADE);\n    emit BuildRobotAssembly(tokenId, msg.sender, level);\n  }\n\n  /**\n   * Builds and places robot assembly\n   * 0xbd09376f\n   */\n  function buildAndPlaceRobotAssembly(uint256 tokenId, uint32 x, uint32 y) external {\n    robotAssemblyPlacement[tokenId].x = x;\n    robotAssemblyPlacement[tokenId].y = y;\n    buildRobotAssembly(tokenId, 1);\n  }\n\n  /**\n   * Places Robot Assembly\n   * deprecated: for migration only\n   * 0x15263117\n   */\n  function placeRobotAssembly(uint256 tokenId, uint32 x, uint32 y, bool free) external onlyTokenOwner(tokenId) whenNotPaused {\n    require(tokenData[tokenId].robotAssembly != 0, 'There should be a robot assembly');\n    if (robotAssemblyPlacement[tokenId].x != 0 || robotAssemblyPlacement[tokenId].y != 0) {\n      require(!free, 'You can place only for CLNY now');\n      robotAssemblyPlacement[tokenId].x = x;\n      robotAssemblyPlacement[tokenId].y = y;\n      // already placed -> new placement is for 5 clny\n      // if users places back to 0, 0 it's ok not to deduct him 5 clny\n      _deduct(PLACEMENT_LEVEL, REASON_PLACE);\n    } else {\n      robotAssemblyPlacement[tokenId].x = x;\n      robotAssemblyPlacement[tokenId].y = y;\n    }\n  }\n\n  /**\n   * Builds power production\n   * `uint8 level` is very important - it prevents accidental spending ERC20 with double transactions\n   * 0xcb6ff6f9\n   */\n  function buildPowerProduction(uint256 tokenId, uint8 level) public onlyTokenOwner(tokenId) whenNotPaused {\n    require(tokenData[tokenId].powerProduction == level - 1, 'Can buy only next level');\n    fixEarnings(tokenId);\n    tokenData[tokenId].powerProduction = level;\n    _deduct(level, REASON_UPGRADE);\n    emit BuildPowerProduction(tokenId, msg.sender, level);\n  }\n\n  /**\n   * Builds and places power production\n   * 0x88cb482a\n   */\n  function buildAndPlacePowerProduction(uint256 tokenId, uint32 x, uint32 y) external {\n    powerProductionPlacement[tokenId].x = x;\n    powerProductionPlacement[tokenId].y = y;\n    buildPowerProduction(tokenId, 1);\n  }\n\n  /**\n   * Places Power Production\n   * deprecated: for migration only\n   * 0x9452cff2\n   */\n  function placePowerProduction(uint256 tokenId, uint32 x, uint32 y, bool free) external onlyTokenOwner(tokenId) whenNotPaused {\n    require(tokenData[tokenId].powerProduction != 0, 'There should be a power production');\n    if (powerProductionPlacement[tokenId].x != 0 || powerProductionPlacement[tokenId].y != 0) {\n      require(!free, 'You can place only for CLNY now');\n      powerProductionPlacement[tokenId].x = x;\n      powerProductionPlacement[tokenId].y = y;\n      // already placed -> new placement is for 5 clny\n      // if users places back to 0, 0 it's ok not to deduct him 5 clny\n      _deduct(PLACEMENT_LEVEL, REASON_PLACE);\n    } else {\n      powerProductionPlacement[tokenId].x = x;\n      powerProductionPlacement[tokenId].y = y;\n    }\n  }\n\n  /**\n   * deprecated, use getAttributesMany\n   */\n  function getEnhancements(uint256 tokenId) external view returns (uint8, uint8, uint8, uint8) {\n    return (\n      tokenData[tokenId].baseStation,\n      tokenData[tokenId].transport,\n      tokenData[tokenId].robotAssembly,\n      tokenData[tokenId].powerProduction\n    );\n  }\n\n  function getAttributesMany(uint256[] calldata tokenIds) external view returns (AttributeData[] memory) {\n    AttributeData[] memory result = new AttributeData[](tokenIds.length);\n    for (uint256 i = 0; i < tokenIds.length; i++) {\n      uint256 tokenId = tokenIds[i];\n      result[i] = AttributeData(\n        getEarningSpeed(tokenId),\n        getEarned(tokenId),\n        tokenData[tokenId].baseStation,\n        tokenData[tokenId].transport,\n        tokenData[tokenId].robotAssembly,\n        tokenData[tokenId].powerProduction\n      );\n    }\n    return result;\n  }\n\n  /**\n   * Claims CLNY from several tokens\n   * Pls check gas limits to get max possible count (> 100 for Harmony chain)\n   * 0x42aa65f4\n   */\n  function claimEarned(uint256[] calldata tokenIds) external whenNotPaused nonReentrant {\n    require (tokenIds.length != 0, 'Empty array');\n    for (uint8 i = 0; i < tokenIds.length; i++) {\n      require (msg.sender == NFTMintableInterface(MCAddress).ownerOf(tokenIds[i]));\n      uint256 earned = getEarned(tokenIds[i]);\n      tokenData[tokenIds[i]].fixedEarnings = 0;\n      tokenData[tokenIds[i]].lastCLNYCheckout = uint64(block.timestamp);\n      ERC20MintBurnInterface(CLNYAddress).mint(msg.sender, earned);\n      ERC20MintBurnInterface(CLNYAddress).mint(treasury, earned * 31 / 49);\n      ERC20MintBurnInterface(CLNYAddress).mint(liquidity, earned * 20 / 49);\n    }\n  }\n\n  /**\n   * 0x91cdd9f0\n   */\n  function withdrawValue(uint256 value) external onlyDAO {\n    require (address(this).balance != 0, 'Nothing to withdraw');\n    (bool success, ) = payable(DAO).call{ value: value }('');\n    require(success, 'Withdraw failed');\n  }\n\n  function withdrawToken(address _tokenContract, address _whereTo, uint256 _amount) external onlyDAO {\n    IERC20 tokenContract = IERC20(_tokenContract);\n    tokenContract.transfer(_whereTo, _amount);\n  }\n}\n",
  "sourcePath": "/Users/maxim/work/marscolony/contracts/contracts/GameManager.sol",
  "compiler": {
    "name": "solc",
    "version": "0.8.11+commit.d7f03943.Emscripten.clang"
  },
  "schemaVersion": "3.4.7",
  "updatedAt": "2022-04-30T07:06:00.650Z",
  "devdoc": {
    "kind": "dev",
    "methods": {
      "paused()": {
        "details": "Returns true if the contract is paused, and false otherwise."
      }
    },
    "version": 1
  },
  "userdoc": {
    "kind": "user",
    "methods": {
      "buildAndPlaceBaseStation(uint256,uint32,uint32)": {
        "notice": "Builds and places base station 0x23c32819"
      },
      "buildAndPlacePowerProduction(uint256,uint32,uint32)": {
        "notice": "Builds and places power production 0x88cb482a"
      },
      "buildAndPlaceRobotAssembly(uint256,uint32,uint32)": {
        "notice": "Builds and places robot assembly 0xbd09376f"
      },
      "buildAndPlaceTransport(uint256,uint32,uint32)": {
        "notice": "Builds and places transport 0x2fc6ced1"
      },
      "buildBaseStation(uint256)": {
        "notice": "Builds base station deprecated: new base stations should be placed with buildAndPlaceBaseStation 0xcfc26d99"
      },
      "buildPowerProduction(uint256,uint8)": {
        "notice": "Builds power production `uint8 level` is very important - it prevents accidental spending ERC20 with double transactions 0xcb6ff6f9"
      },
      "buildRobotAssembly(uint256,uint8)": {
        "notice": "Builds robot assembly `uint8 level` is very important - it prevents accidental spending ERC20 with double transactions 0x9a3274c4"
      },
      "buildTransport(uint256,uint8)": {
        "notice": "Builds transport `uint8 level` is very important - it prevents accidental spending ERC20 with double transactions 0x33e3480f"
      },
      "claim(uint256[])": {
        "notice": "Mints several tokens Pls check gas limits to get max possible count"
      },
      "claimEarned(uint256[])": {
        "notice": "Claims CLNY from several tokens Pls check gas limits to get max possible count (> 100 for Harmony chain) 0x42aa65f4"
      },
      "getBurnedOnEnhancements()": {
        "notice": "temporary to count burned clny (setBurned)"
      },
      "getEarningData(uint256[])": {
        "notice": "deprecated, use getAttributesMany"
      },
      "getEnhancements(uint256)": {
        "notice": "deprecated, use getAttributesMany"
      },
      "getFee(uint256)": {
        "notice": "Cost of minting for `tokenCount` tokens"
      },
      "pause()": {
        "notice": "0x8456cb59"
      },
      "placeBaseStation(uint256,uint32,uint32,bool)": {
        "notice": "Places base station deprecated: new base stations should be placed with buildAndPlaceBaseStation 0x5f549163"
      },
      "placePowerProduction(uint256,uint32,uint32,bool)": {
        "notice": "Places Power Production deprecated: for migration only 0x9452cff2"
      },
      "placeRobotAssembly(uint256,uint32,uint32,bool)": {
        "notice": "Places Robot Assembly deprecated: for migration only 0x15263117"
      },
      "placeTransport(uint256,uint32,uint32,bool)": {
        "notice": "Places transport deprecated: for migration only 0x9b416e1c"
      },
      "setPrice(uint256)": {
        "notice": "Sets the cost of minting for 1 token"
      },
      "transferDAO(address)": {
        "notice": "Transfers ownership 0x7a318866"
      },
      "unpause()": {
        "notice": "0x3f4ba83a"
      },
      "withdrawValue(uint256)": {
        "notice": "0x91cdd9f0"
      }
    },
    "notice": "Game logic; upgradable",
    "version": 1
  }
}