{
  "_format": "hh-sol-artifact-1",
  "contractName": "GameManagerShares",
  "sourceName": "contracts/GameManagerShares.sol",
  "abi": [
    {
      "anonymous": false,
      "inputs": [
        {
          "indexed": true,
          "internalType": "uint256",
          "name": "tokenId",
          "type": "uint256"
        },
        {
          "indexed": true,
          "internalType": "address",
          "name": "owner",
          "type": "address"
        },
        {
          "indexed": false,
          "internalType": "uint256",
          "name": "shares",
          "type": "uint256"
        },
        {
          "indexed": false,
          "internalType": "bool",
          "name": "active",
          "type": "bool"
        }
      ],
      "name": "AddShares",
      "type": "event"
    },
    {
      "anonymous": false,
      "inputs": [
        {
          "indexed": true,
          "internalType": "address",
          "name": "receiver",
          "type": "address"
        },
        {
          "indexed": true,
          "internalType": "uint256",
          "name": "tokenId",
          "type": "uint256"
        }
      ],
      "name": "Airdrop",
      "type": "event"
    },
    {
      "anonymous": false,
      "inputs": [
        {
          "indexed": false,
          "internalType": "uint256",
          "name": "tokenId",
          "type": "uint256"
        },
        {
          "indexed": true,
          "internalType": "address",
          "name": "owner",
          "type": "address"
        }
      ],
      "name": "BuildBaseStation",
      "type": "event"
    },
    {
      "anonymous": false,
      "inputs": [
        {
          "indexed": false,
          "internalType": "uint256",
          "name": "tokenId",
          "type": "uint256"
        },
        {
          "indexed": true,
          "internalType": "address",
          "name": "owner",
          "type": "address"
        },
        {
          "indexed": false,
          "internalType": "uint8",
          "name": "level",
          "type": "uint8"
        }
      ],
      "name": "BuildPowerProduction",
      "type": "event"
    },
    {
      "anonymous": false,
      "inputs": [
        {
          "indexed": false,
          "internalType": "uint256",
          "name": "tokenId",
          "type": "uint256"
        },
        {
          "indexed": true,
          "internalType": "address",
          "name": "owner",
          "type": "address"
        },
        {
          "indexed": false,
          "internalType": "uint8",
          "name": "level",
          "type": "uint8"
        }
      ],
      "name": "BuildRobotAssembly",
      "type": "event"
    },
    {
      "anonymous": false,
      "inputs": [
        {
          "indexed": false,
          "internalType": "uint256",
          "name": "tokenId",
          "type": "uint256"
        },
        {
          "indexed": true,
          "internalType": "address",
          "name": "owner",
          "type": "address"
        },
        {
          "indexed": false,
          "internalType": "uint8",
          "name": "level",
          "type": "uint8"
        }
      ],
      "name": "BuildTransport",
      "type": "event"
    },
    {
      "anonymous": false,
      "inputs": [
        {
          "indexed": false,
          "internalType": "uint8",
          "name": "version",
          "type": "uint8"
        }
      ],
      "name": "Initialized",
      "type": "event"
    },
    {
      "anonymous": false,
      "inputs": [
        {
          "indexed": true,
          "internalType": "uint256",
          "name": "landId",
          "type": "uint256"
        },
        {
          "indexed": true,
          "internalType": "uint256",
          "name": "avatarId",
          "type": "uint256"
        },
        {
          "indexed": true,
          "internalType": "uint256",
          "name": "rewardType",
          "type": "uint256"
        },
        {
          "indexed": false,
          "internalType": "uint256",
          "name": "rewardAmount",
          "type": "uint256"
        }
      ],
      "name": "MissionReward",
      "type": "event"
    },
    {
      "anonymous": false,
      "inputs": [
        {
          "indexed": false,
          "internalType": "address",
          "name": "account",
          "type": "address"
        }
      ],
      "name": "Paused",
      "type": "event"
    },
    {
      "anonymous": false,
      "inputs": [
        {
          "indexed": false,
          "internalType": "uint256",
          "name": "price",
          "type": "uint256"
        }
      ],
      "name": "SetPrice",
      "type": "event"
    },
    {
      "anonymous": false,
      "inputs": [
        {
          "indexed": false,
          "internalType": "address",
          "name": "account",
          "type": "address"
        }
      ],
      "name": "Unpaused",
      "type": "event"
    },
    {
      "inputs": [
        {
          "internalType": "address",
          "name": "receiver",
          "type": "address"
        },
        {
          "internalType": "uint256",
          "name": "tokenId",
          "type": "uint256"
        }
      ],
      "name": "airdrop",
      "outputs": [],
      "stateMutability": "nonpayable",
      "type": "function"
    },
    {
      "inputs": [
        {
          "internalType": "uint256",
          "name": "",
          "type": "uint256"
        }
      ],
      "name": "baseStationsPlacement",
      "outputs": [
        {
          "internalType": "uint32",
          "name": "x",
          "type": "uint32"
        },
        {
          "internalType": "uint32",
          "name": "y",
          "type": "uint32"
        },
        {
          "internalType": "uint32",
          "name": "rotate",
          "type": "uint32"
        }
      ],
      "stateMutability": "view",
      "type": "function"
    },
    {
      "inputs": [
        {
          "internalType": "uint256",
          "name": "tokenId",
          "type": "uint256"
        },
        {
          "internalType": "uint32",
          "name": "x",
          "type": "uint32"
        },
        {
          "internalType": "uint32",
          "name": "y",
          "type": "uint32"
        }
      ],
      "name": "buildAndPlaceBaseStation",
      "outputs": [],
      "stateMutability": "nonpayable",
      "type": "function"
    },
    {
      "inputs": [
        {
          "internalType": "uint256",
          "name": "tokenId",
          "type": "uint256"
        },
        {
          "internalType": "uint32",
          "name": "x",
          "type": "uint32"
        },
        {
          "internalType": "uint32",
          "name": "y",
          "type": "uint32"
        }
      ],
      "name": "buildAndPlacePowerProduction",
      "outputs": [],
      "stateMutability": "nonpayable",
      "type": "function"
    },
    {
      "inputs": [
        {
          "internalType": "uint256",
          "name": "tokenId",
          "type": "uint256"
        },
        {
          "internalType": "uint32",
          "name": "x",
          "type": "uint32"
        },
        {
          "internalType": "uint32",
          "name": "y",
          "type": "uint32"
        }
      ],
      "name": "buildAndPlaceRobotAssembly",
      "outputs": [],
      "stateMutability": "nonpayable",
      "type": "function"
    },
    {
      "inputs": [
        {
          "internalType": "uint256",
          "name": "tokenId",
          "type": "uint256"
        },
        {
          "internalType": "uint32",
          "name": "x",
          "type": "uint32"
        },
        {
          "internalType": "uint32",
          "name": "y",
          "type": "uint32"
        }
      ],
      "name": "buildAndPlaceTransport",
      "outputs": [],
      "stateMutability": "nonpayable",
      "type": "function"
    },
    {
      "inputs": [
        {
          "internalType": "uint256",
          "name": "tokenId",
          "type": "uint256"
        }
      ],
      "name": "buildBaseStation",
      "outputs": [],
      "stateMutability": "nonpayable",
      "type": "function"
    },
    {
      "inputs": [
        {
          "internalType": "uint256",
          "name": "tokenId",
          "type": "uint256"
        },
        {
          "internalType": "uint8",
          "name": "level",
          "type": "uint8"
        }
      ],
      "name": "buildPowerProduction",
      "outputs": [],
      "stateMutability": "nonpayable",
      "type": "function"
    },
    {
      "inputs": [
        {
          "internalType": "uint256",
          "name": "tokenId",
          "type": "uint256"
        },
        {
          "internalType": "uint8",
          "name": "level",
          "type": "uint8"
        }
      ],
      "name": "buildRobotAssembly",
      "outputs": [],
      "stateMutability": "nonpayable",
      "type": "function"
    },
    {
      "inputs": [
        {
          "internalType": "uint256",
          "name": "tokenId",
          "type": "uint256"
        },
        {
          "internalType": "uint8",
          "name": "level",
          "type": "uint8"
        }
      ],
      "name": "buildTransport",
      "outputs": [],
      "stateMutability": "nonpayable",
      "type": "function"
    },
    {
      "inputs": [
        {
          "internalType": "uint256[]",
          "name": "tokenIds",
          "type": "uint256[]"
        }
      ],
      "name": "claim",
      "outputs": [],
      "stateMutability": "payable",
      "type": "function"
    },
    {
      "inputs": [
        {
          "internalType": "uint256[]",
          "name": "tokenIds",
          "type": "uint256[]"
        },
        {
          "internalType": "address",
          "name": "referrer",
          "type": "address"
        }
      ],
      "name": "claim",
      "outputs": [],
      "stateMutability": "payable",
      "type": "function"
    },
    {
      "inputs": [
        {
          "internalType": "uint256[]",
          "name": "tokenIds",
          "type": "uint256[]"
        }
      ],
      "name": "claimEarned",
      "outputs": [],
      "stateMutability": "nonpayable",
      "type": "function"
    },
    {
      "inputs": [],
      "name": "clnyPerSecond",
      "outputs": [
        {
          "internalType": "uint256",
          "name": "",
          "type": "uint256"
        }
      ],
      "stateMutability": "view",
      "type": "function"
    },
    {
      "inputs": [],
      "name": "d",
      "outputs": [
        {
          "internalType": "contract IDependencies",
          "name": "",
          "type": "address"
        }
      ],
      "stateMutability": "view",
      "type": "function"
    },
    {
      "inputs": [
        {
          "internalType": "string",
          "name": "message",
          "type": "string"
        },
        {
          "internalType": "uint8",
          "name": "v",
          "type": "uint8"
        },
        {
          "internalType": "bytes32",
          "name": "r",
          "type": "bytes32"
        },
        {
          "internalType": "bytes32",
          "name": "s",
          "type": "bytes32"
        }
      ],
      "name": "finishMission",
      "outputs": [],
      "stateMutability": "nonpayable",
      "type": "function"
    },
    {
      "inputs": [
        {
          "internalType": "uint256[]",
          "name": "tokenIds",
          "type": "uint256[]"
        }
      ],
      "name": "getAttributesMany",
      "outputs": [
        {
          "components": [
            {
              "internalType": "uint256",
              "name": "speed",
              "type": "uint256"
            },
            {
              "internalType": "uint256",
              "name": "earned",
              "type": "uint256"
            },
            {
              "internalType": "uint8",
              "name": "baseStation",
              "type": "uint8"
            },
            {
              "internalType": "uint8",
              "name": "transport",
              "type": "uint8"
            },
            {
              "internalType": "uint8",
              "name": "robotAssembly",
              "type": "uint8"
            },
            {
              "internalType": "uint8",
              "name": "powerProduction",
              "type": "uint8"
            },
            {
              "internalType": "address",
              "name": "tokenOwner",
              "type": "address"
            }
          ],
          "internalType": "struct IGameManager.AttributeData[]",
          "name": "",
          "type": "tuple[]"
        }
      ],
      "stateMutability": "view",
      "type": "function"
    },
    {
      "inputs": [
        {
          "internalType": "uint256",
          "name": "landId",
          "type": "uint256"
        }
      ],
      "name": "getEarned",
      "outputs": [
        {
          "internalType": "uint256",
          "name": "",
          "type": "uint256"
        }
      ],
      "stateMutability": "view",
      "type": "function"
    },
    {
      "inputs": [
        {
          "internalType": "uint256[]",
          "name": "tokenIds",
          "type": "uint256[]"
        }
      ],
      "name": "getEarningData",
      "outputs": [
        {
          "internalType": "uint256",
          "name": "",
          "type": "uint256"
        },
        {
          "internalType": "uint256",
          "name": "",
          "type": "uint256"
        }
      ],
      "stateMutability": "view",
      "type": "function"
    },
    {
      "inputs": [
        {
          "internalType": "uint256",
          "name": "tokenId",
          "type": "uint256"
        }
      ],
      "name": "getEarningSpeed",
      "outputs": [
        {
          "internalType": "uint256",
          "name": "",
          "type": "uint256"
        }
      ],
      "stateMutability": "view",
      "type": "function"
    },
    {
      "inputs": [
        {
          "internalType": "uint256",
          "name": "tokenCount",
          "type": "uint256"
        },
        {
          "internalType": "address",
          "name": "referrer",
          "type": "address"
        }
      ],
      "name": "getFee",
      "outputs": [
        {
          "internalType": "uint256",
          "name": "",
          "type": "uint256"
        }
      ],
      "stateMutability": "view",
      "type": "function"
    },
    {
      "inputs": [
        {
          "internalType": "contract IDependencies",
          "name": "_d",
          "type": "address"
        }
      ],
      "name": "initialize",
      "outputs": [],
      "stateMutability": "nonpayable",
      "type": "function"
    },
    {
      "inputs": [
        {
          "internalType": "uint256",
          "name": "",
          "type": "uint256"
        }
      ],
      "name": "landInfo",
      "outputs": [
        {
          "internalType": "uint256",
          "name": "share",
          "type": "uint256"
        },
        {
          "internalType": "uint256",
          "name": "rewardDebt",
          "type": "uint256"
        }
      ],
      "stateMutability": "view",
      "type": "function"
    },
    {
      "inputs": [
        {
          "internalType": "uint256",
          "name": "",
          "type": "uint256"
        }
      ],
      "name": "landMissionEarnings",
      "outputs": [
        {
          "internalType": "uint256",
          "name": "",
          "type": "uint256"
        }
      ],
      "stateMutability": "view",
      "type": "function"
    },
    {
      "inputs": [],
      "name": "maxLandShares",
      "outputs": [
        {
          "internalType": "uint256",
          "name": "",
          "type": "uint256"
        }
      ],
      "stateMutability": "view",
      "type": "function"
    },
    {
      "inputs": [],
      "name": "mintAvatar",
      "outputs": [],
      "stateMutability": "nonpayable",
      "type": "function"
    },
    {
      "inputs": [],
      "name": "mintLootbox",
      "outputs": [],
      "stateMutability": "nonpayable",
      "type": "function"
    },
    {
      "inputs": [
        {
          "internalType": "uint256",
          "name": "tokenId",
          "type": "uint256"
        },
        {
          "internalType": "uint256",
          "name": "maxPrice",
          "type": "uint256"
        }
      ],
      "name": "openLootbox",
      "outputs": [],
      "stateMutability": "nonpayable",
      "type": "function"
    },
    {
      "inputs": [],
      "name": "paused",
      "outputs": [
        {
          "internalType": "bool",
          "name": "",
          "type": "bool"
        }
      ],
      "stateMutability": "view",
      "type": "function"
    },
    {
      "inputs": [
        {
          "internalType": "uint256",
          "name": "tokenId",
          "type": "uint256"
        },
        {
          "internalType": "uint32",
          "name": "x",
          "type": "uint32"
        },
        {
          "internalType": "uint32",
          "name": "y",
          "type": "uint32"
        },
        {
          "internalType": "bool",
          "name": "free",
          "type": "bool"
        }
      ],
      "name": "placeBaseStation",
      "outputs": [],
      "stateMutability": "nonpayable",
      "type": "function"
    },
    {
      "inputs": [
        {
          "internalType": "uint256",
          "name": "tokenId",
          "type": "uint256"
        },
        {
          "internalType": "uint32",
          "name": "x",
          "type": "uint32"
        },
        {
          "internalType": "uint32",
          "name": "y",
          "type": "uint32"
        },
        {
          "internalType": "bool",
          "name": "free",
          "type": "bool"
        }
      ],
      "name": "placePowerProduction",
      "outputs": [],
      "stateMutability": "nonpayable",
      "type": "function"
    },
    {
      "inputs": [
        {
          "internalType": "uint256",
          "name": "tokenId",
          "type": "uint256"
        },
        {
          "internalType": "uint32",
          "name": "x",
          "type": "uint32"
        },
        {
          "internalType": "uint32",
          "name": "y",
          "type": "uint32"
        },
        {
          "internalType": "bool",
          "name": "free",
          "type": "bool"
        }
      ],
      "name": "placeRobotAssembly",
      "outputs": [],
      "stateMutability": "nonpayable",
      "type": "function"
    },
    {
      "inputs": [
        {
          "internalType": "uint256",
          "name": "tokenId",
          "type": "uint256"
        },
        {
          "internalType": "uint32",
          "name": "x",
          "type": "uint32"
        },
        {
          "internalType": "uint32",
          "name": "y",
          "type": "uint32"
        },
        {
          "internalType": "bool",
          "name": "free",
          "type": "bool"
        }
      ],
      "name": "placeTransport",
      "outputs": [],
      "stateMutability": "nonpayable",
      "type": "function"
    },
    {
      "inputs": [
        {
          "internalType": "uint256",
          "name": "",
          "type": "uint256"
        }
      ],
      "name": "powerProductionPlacement",
      "outputs": [
        {
          "internalType": "uint32",
          "name": "x",
          "type": "uint32"
        },
        {
          "internalType": "uint32",
          "name": "y",
          "type": "uint32"
        },
        {
          "internalType": "uint32",
          "name": "rotate",
          "type": "uint32"
        }
      ],
      "stateMutability": "view",
      "type": "function"
    },
    {
      "inputs": [],
      "name": "price",
      "outputs": [
        {
          "internalType": "uint256",
          "name": "",
          "type": "uint256"
        }
      ],
      "stateMutability": "view",
      "type": "function"
    },
    {
      "inputs": [],
      "name": "purchaseCryochamber",
      "outputs": [],
      "stateMutability": "nonpayable",
      "type": "function"
    },
    {
      "inputs": [
        {
          "internalType": "uint256",
          "name": "amount",
          "type": "uint256"
        }
      ],
      "name": "purchaseCryochamberEnergy",
      "outputs": [],
      "stateMutability": "nonpayable",
      "type": "function"
    },
    {
      "inputs": [
        {
          "internalType": "address",
          "name": "",
          "type": "address"
        }
      ],
      "name": "referralsCount",
      "outputs": [
        {
          "internalType": "uint256",
          "name": "",
          "type": "uint256"
        }
      ],
      "stateMutability": "view",
      "type": "function"
    },
    {
      "inputs": [
        {
          "internalType": "address",
          "name": "",
          "type": "address"
        }
      ],
      "name": "referrerEarned",
      "outputs": [
        {
          "internalType": "uint256",
          "name": "",
          "type": "uint256"
        }
      ],
      "stateMutability": "view",
      "type": "function"
    },
    {
      "inputs": [
        {
          "internalType": "address",
          "name": "",
          "type": "address"
        }
      ],
      "name": "referrerSettings",
      "outputs": [
        {
          "internalType": "uint64",
          "name": "discount",
          "type": "uint64"
        },
        {
          "internalType": "uint64",
          "name": "reward",
          "type": "uint64"
        }
      ],
      "stateMutability": "view",
      "type": "function"
    },
    {
      "inputs": [
        {
          "internalType": "uint256",
          "name": "avatarId",
          "type": "uint256"
        },
        {
          "internalType": "string",
          "name": "_name",
          "type": "string"
        }
      ],
      "name": "renameAvatar",
      "outputs": [],
      "stateMutability": "nonpayable",
      "type": "function"
    },
    {
      "inputs": [
        {
          "internalType": "uint16",
          "name": "amount",
          "type": "uint16"
        }
      ],
      "name": "repairTransport",
      "outputs": [],
      "stateMutability": "nonpayable",
      "type": "function"
    },
    {
      "inputs": [
        {
          "internalType": "uint256",
          "name": "",
          "type": "uint256"
        }
      ],
      "name": "robotAssemblyPlacement",
      "outputs": [
        {
          "internalType": "uint32",
          "name": "x",
          "type": "uint32"
        },
        {
          "internalType": "uint32",
          "name": "y",
          "type": "uint32"
        },
        {
          "internalType": "uint32",
          "name": "rotate",
          "type": "uint32"
        }
      ],
      "stateMutability": "view",
      "type": "function"
    },
    {
      "inputs": [],
      "name": "saleData",
      "outputs": [
        {
          "internalType": "bool",
          "name": "allowed",
          "type": "bool"
        },
        {
          "internalType": "uint256",
          "name": "minted",
          "type": "uint256"
        },
        {
          "internalType": "uint256",
          "name": "limit",
          "type": "uint256"
        }
      ],
      "stateMutability": "view",
      "type": "function"
    },
    {
      "inputs": [
        {
          "internalType": "uint256",
          "name": "newSpeed",
          "type": "uint256"
        }
      ],
      "name": "setClnyPerSecond",
      "outputs": [],
      "stateMutability": "nonpayable",
      "type": "function"
    },
    {
      "inputs": [
        {
          "internalType": "contract IDependencies",
          "name": "addr",
          "type": "address"
        }
      ],
      "name": "setDependencies",
      "outputs": [],
      "stateMutability": "nonpayable",
      "type": "function"
    },
    {
      "inputs": [
        {
          "internalType": "uint256",
          "name": "_price",
          "type": "uint256"
        }
      ],
      "name": "setPrice",
      "outputs": [],
      "stateMutability": "nonpayable",
      "type": "function"
    },
    {
      "inputs": [
        {
          "internalType": "address",
          "name": "referrer",
          "type": "address"
        },
        {
          "internalType": "uint64",
          "name": "discount",
          "type": "uint64"
        },
        {
          "internalType": "uint64",
          "name": "reward",
          "type": "uint64"
        }
      ],
      "name": "setReferrerSettings",
      "outputs": [],
      "stateMutability": "nonpayable",
      "type": "function"
    },
    {
      "inputs": [],
      "name": "totalShare",
      "outputs": [
        {
          "internalType": "uint256",
          "name": "",
          "type": "uint256"
        }
      ],
      "stateMutability": "view",
      "type": "function"
    },
    {
      "inputs": [
        {
          "internalType": "uint256",
          "name": "",
          "type": "uint256"
        }
      ],
      "name": "transportPlacement",
      "outputs": [
        {
          "internalType": "uint32",
          "name": "x",
          "type": "uint32"
        },
        {
          "internalType": "uint32",
          "name": "y",
          "type": "uint32"
        },
        {
          "internalType": "uint32",
          "name": "rotate",
          "type": "uint32"
        }
      ],
      "stateMutability": "view",
      "type": "function"
    }
  ],
  "bytecode": "0x608060405234801561001057600080fd5b50615ce080620000216000396000f3fe6080604052600436106102c95760003560e01c80638ba4cc3c11610175578063cb6ff6f9116100dc578063e8f369a911610095578063f327b6481161006f578063f327b648146109f6578063f796b8a814610a0c578063fb61dfa914610a21578063fd5da72914610a3657600080fd5b8063e8f369a91461096d578063e93875041461098d578063efe07258146109ad57600080fd5b8063cb6ff6f9146108ad578063cc84195f146108cd578063cfc26d99146108ed578063d2de16291461090d578063d6540ac81461092d578063dfcf048d1461094d57600080fd5b80639a3274c41161012e5780639a3274c4146107e35780639b416e1c14610803578063a035b1fe14610823578063bd09376f14610839578063c3edcdd114610859578063c4d66de81461088d57600080fd5b80638ba4cc3c146107115780638c574b481461073157806391b7f5ed1461074457806391f3a6f2146107645780639452cff21461077a57806397644b9b1461079a57600080fd5b80633eb87111116102345780636b366c66116101ed5780637eb0e567116101c75780637eb0e567146106385780638389cb181461069957806388cb482a146106b95780638a054ac2146106d957600080fd5b80636b366c66146105d85780636ba4c1381461060557806370ff08771461061857600080fd5b80633eb87111146104ea57806342aa65f4146105175780634c42cfcc146105375780635c975abb1461054c5780635f5491631461056f5780636818b4521461058f57600080fd5b80631b19de27116102865780631b19de27146103cd57806323c328191461043d57806326af90301461045d5780632f4f65c11461047d5780632fc6ced1146104aa57806333e3480f146104ca57600080fd5b8063026c4207146102ce57806308cfe44b146102f75780630b6d18de1461032c578063112d41d21461035e57806312e6e1b61461038057806315263117146103ad575b600080fd5b3480156102da57600080fd5b506102e4607c5481565b6040519081526020015b60405180910390f35b34801561030357600080fd5b506103176103123660046151a7565b610a63565b604080519283526020830191909152016102ee565b34801561033857600080fd5b50610341610afb565b6040805193151584526020840192909252908201526060016102ee565b34801561036a57600080fd5b5061037e610379366004615264565b610be8565b005b34801561038c57600080fd5b506102e461039b366004615264565b60d76020526000908152604090205481565b3480156103b957600080fd5b5061037e6103c8366004615296565b610d93565b3480156103d957600080fd5b506104166103e8366004615264565b60d36020526000908152604090205463ffffffff80821691600160201b8104821691600160401b9091041683565b6040805163ffffffff948516815292841660208401529216918101919091526060016102ee565b34801561044957600080fd5b5061037e6104583660046152ea565b6110c8565b34801561046957600080fd5b5061037e61047836600461536e565b611108565b34801561048957600080fd5b506102e46104983660046153ce565b60a96020526000908152604090205481565b3480156104b657600080fd5b5061037e6104c53660046152ea565b61131b565b3480156104d657600080fd5b5061037e6104e5366004615403565b611354565b3480156104f657600080fd5b5061050a610505366004615473565b61157e565b6040516102ee91906154b4565b34801561052357600080fd5b5061037e610532366004615473565b6117d5565b34801561054357600080fd5b5061037e611b99565b34801561055857600080fd5b5060335460ff1660405190151581526020016102ee565b34801561057b57600080fd5b5061037e61058a366004615296565b611e2c565b34801561059b57600080fd5b506104166105aa366004615264565b60d56020526000908152604090205463ffffffff80821691600160201b8104821691600160401b9091041683565b3480156105e457600080fd5b506102e46105f33660046153ce565b60a86020526000908152604090205481565b61037e610613366004615473565b6120c4565b34801561062457600080fd5b5061037e61063336600461554b565b612106565b34801561064457600080fd5b506106796106533660046153ce565b60aa602052600090815260409020546001600160401b0380821691600160401b90041682565b604080516001600160401b039384168152929091166020830152016102ee565b3480156106a557600080fd5b5061037e6106b43660046153ce565b6125fd565b3480156106c557600080fd5b5061037e6106d43660046152ea565b6126b3565b3480156106e557600080fd5b506066546106f9906001600160a01b031681565b6040516001600160a01b0390911681526020016102ee565b34801561071d57600080fd5b5061037e61072c36600461556d565b6126f0565b61037e61073f366004615599565b612772565b34801561075057600080fd5b5061037e61075f366004615264565b6127d6565b34801561077057600080fd5b506102e460655481565b34801561078657600080fd5b5061037e610795366004615296565b612925565b3480156107a657600080fd5b506104166107b5366004615264565b60d26020526000908152604090205463ffffffff80821691600160201b8104821691600160401b9091041683565b3480156107ef57600080fd5b5061037e6107fe366004615403565b612bc8565b34801561080f57600080fd5b5061037e61081e366004615296565b612de3565b34801561082f57600080fd5b506102e4609a5481565b34801561084557600080fd5b5061037e6108543660046152ea565b61307b565b34801561086557600080fd5b50610317610874366004615264565b607d602052600090815260409020805460019091015482565b34801561089957600080fd5b5061037e6108a83660046153ce565b6130b8565b3480156108b957600080fd5b5061037e6108c8366004615403565b6131f8565b3480156108d957600080fd5b5061037e6108e8366004615264565b613406565b3480156108f957600080fd5b5061037e610908366004615264565b6134ba565b34801561091957600080fd5b5061037e610928366004615606565b613784565b34801561093957600080fd5b5061037e610948366004615642565b613894565b34801561095957600080fd5b506102e4610968366004615666565b613a58565b34801561097957600080fd5b5061037e610988366004615696565b613b21565b34801561099957600080fd5b506102e46109a8366004615264565b613cd6565b3480156109b957600080fd5b506104166109c8366004615264565b60d46020526000908152604090205463ffffffff80821691600160201b8104821691600160401b9091041683565b348015610a0257600080fd5b506102e4607b5481565b348015610a1857600080fd5b5061037e613dc7565b348015610a2d57600080fd5b5061037e614093565b348015610a4257600080fd5b506102e4610a51366004615264565b6000908152607d602052604090205490565b60008060008060005b8551811015610af057610a97868281518110610a8a57610a8a6156fb565b6020026020010151613cd6565b610aa19084615727565b9250610ad2868281518110610ab857610ab86156fb565b60200260200101516000908152607d602052604090205490565b610adc9083615727565b915080610ae88161573f565b915050610a6c565b509094909350915050565b600080600060019250606660009054906101000a90046001600160a01b03166001600160a01b031663cb7956b06040518163ffffffff1660e01b8152600401602060405180830381865afa158015610b57573d6000803e3d6000fd5b505050506040513d601f19601f82011682018060405250810190610b7b919061575a565b6001600160a01b03166318160ddd6040518163ffffffff1660e01b8152600401602060405180830381865afa158015610bb8573d6000803e3d6000fd5b505050506040513d601f19601f82011682018060405250810190610bdc9190615777565b9150609c549050909192565b60665460408051630f28dc4160e41b8152815160009384936001600160a01b039091169263f28dc41092600480830193928290030181865afa158015610c32573d6000803e3d6000fd5b505050506040513d601f19601f82011682018060405250810190610c569190615790565b604051633db69ab560e01b81523360048201526024810186905291935091506001600160a01b03831690633db69ab590604401600060405180830381600087803b158015610ca357600080fd5b505af1158015610cb7573d6000803e3d6000fd5b505050506000826001600160a01b0316631045e3426040518163ffffffff1660e01b8152600401602060405180830381865afa158015610cfb573d6000803e3d6000fd5b505050506040513d601f19601f82011682018060405250810190610d1f9190615777565b90506001600160a01b03821663f5298aca33610d3b87856157bf565b600b6040518463ffffffff1660e01b8152600401610d5b939291906157de565b600060405180830381600087803b158015610d7557600080fd5b505af1158015610d89573d6000803e3d6000fd5b5050505050505050565b83336001600160a01b0316606660009054906101000a90046001600160a01b03166001600160a01b031663cb7956b06040518163ffffffff1660e01b8152600401602060405180830381865afa158015610df1573d6000803e3d6000fd5b505050506040513d601f19601f82011682018060405250810190610e15919061575a565b6001600160a01b0316636352211e836040518263ffffffff1660e01b8152600401610e4291815260200190565b602060405180830381865afa158015610e5f573d6000803e3d6000fd5b505050506040513d601f19601f82011682018060405250810190610e83919061575a565b6001600160a01b031614610eb25760405162461bcd60e51b8152600401610ea9906157ff565b60405180910390fd5b610eba614230565b600085815260d16020526040902060010154600160501b900460ff16610f225760405162461bcd60e51b815260206004820181905260248201527f54686572652073686f756c64206265206120726f626f7420617373656d626c796044820152606401610ea9565b600085815260d4602052604090205463ffffffff16151580610f5e5750600085815260d46020526040902054600160201b900463ffffffff1615155b1561108e578115610f815760405162461bcd60e51b8152600401610ea990615836565b600085815260d46020908152604091829020805463ffffffff878116600160201b0267ffffffffffffffff1990921690891617179055606654825163464e0c3560e11b815292516001600160a01b0390911692638c9c186a9260048281019391928290030181865afa158015610ffb573d6000803e3d6000fd5b505050506040513d601f19601f8201168201806040525081019061101f919061575a565b6001600160a01b031663f5298aca33674563918244f4000060026040518463ffffffff1660e01b8152600401611057939291906157de565b600060405180830381600087803b15801561107157600080fd5b505af1158015611085573d6000803e3d6000fd5b505050506110c1565b600085815260d460205260409020805463ffffffff858116600160201b0267ffffffffffffffff19909216908716171790555b5050505050565b600083815260d260205260409020805463ffffffff838116600160201b0267ffffffffffffffff1990921690851617179055611103836134ba565b505050565b6000806000606660009054906101000a90046001600160a01b03166001600160a01b031663d75459186040518163ffffffff1660e01b8152600401606060405180830381865afa158015611160573d6000803e3d6000fd5b505050506040513d601f19601f82011682018060405250810190611184919061586d565b6040516331a9108f60e11b8152600481018a9052929550909350915033906001600160a01b03841690636352211e90602401602060405180830381865afa1580156111d3573d6000803e3d6000fd5b505050506040513d601f19601f820116820180604052508101906111f7919061575a565b6001600160a01b0316146112455760405162461bcd60e51b81526020600482015260156024820152742cb7ba9030b932903737ba103a34329037bbb732b960591b6044820152606401610ea9565b604051630be8168160e31b81526001600160a01b03841690635f40b40890611275908990899089906004016158d8565b600060405180830381600087803b15801561128f57600080fd5b505af11580156112a3573d6000803e3d6000fd5b5050604051637a94c56560e11b81526001600160a01b038416925063f5298aca91506112e190339068015af1d78b58c40000906003906004016157de565b600060405180830381600087803b1580156112fb57600080fd5b505af115801561130f573d6000803e3d6000fd5b50505050505050505050565b600083815260d360205260409020805463ffffffff838116600160201b0267ffffffffffffffff19909216908516171790556111038360015b81336001600160a01b0316606660009054906101000a90046001600160a01b03166001600160a01b031663cb7956b06040518163ffffffff1660e01b8152600401602060405180830381865afa1580156113b2573d6000803e3d6000fd5b505050506040513d601f19601f820116820180604052508101906113d6919061575a565b6001600160a01b0316636352211e836040518263ffffffff1660e01b815260040161140391815260200190565b602060405180830381865afa158015611420573d6000803e3d6000fd5b505050506040513d601f19601f82011682018060405250810190611444919061575a565b6001600160a01b03161461146a5760405162461bcd60e51b8152600401610ea9906157ff565b611472614230565b60038260ff1611156114965760405162461bcd60e51b8152600401610ea9906158fb565b6114a1600183615920565b600084815260d16020526040902060010154600160481b900460ff9081169116146114de5760405162461bcd60e51b8152600401610ea990615943565b611501838360ff166003146114f45760016114f7565b60025b60ff166000614278565b600083815260d1602052604090206001908101805469ff0000000000000000001916600160481b60ff86160217905561153b9083906144ca565b6040805184815260ff8416602082015233917fbce74c3d6a81a6ea4b55a703751c4fbad439c2ce8997bc12bb2463cb3f6d987b91015b60405180910390a2505050565b60606000826001600160401b0381111561159a5761159a615191565b60405190808252806020026020018201604052801561160157816020015b6040805160e08101825260008082526020808301829052928201819052606082018190526080820181905260a0820181905260c082015282526000199092019101816115b85790505b50905060005b838110156117cb576000858583818110611623576116236156fb565b9050602002013590506040518060e0016040528061164d836000908152607d602052604090205490565b815260200161165b83613cd6565b8152600083815260d1602081815260408084206001015460ff600160401b8204811684880152600160481b8204811683880152600160501b82048116606088015294889052928252600160581b90920490921660808401526066548151630cb7956b60e41b8152915160a0909401936001600160a01b039091169263cb7956b092600480820193918290030181865afa1580156116fc573d6000803e3d6000fd5b505050506040513d601f19601f82011682018060405250810190611720919061575a565b6001600160a01b0316636352211e846040518263ffffffff1660e01b815260040161174d91815260200190565b602060405180830381865afa15801561176a573d6000803e3d6000fd5b505050506040513d601f19601f8201168201806040525081019061178e919061575a565b6001600160a01b03168152508383815181106117ac576117ac6156fb565b60200260200101819052505080806117c39061573f565b915050611607565b5090505b92915050565b6117dd614230565b60d654156117fd5760405162461bcd60e51b8152600401610ea99061597a565b600160d6556362ab457042116118485760405162461bcd60e51b815260206004820152601060248201526f10d31396481b9bdd081cdd185c9d195960821b6044820152606401610ea9565b600080600080606660009054906101000a90046001600160a01b03166001600160a01b031663e893ff1d6040518163ffffffff1660e01b8152600401608060405180830381865afa1580156118a1573d6000803e3d6000fd5b505050506040513d601f19601f820116820180604052508101906118c591906159a4565b93509350935093506118d56145ba565b6000805b86811015611a3157826001600160a01b0316636352211e898984818110611902576119026156fb565b905060200201356040518263ffffffff1660e01b815260040161192791815260200190565b602060405180830381865afa158015611944573d6000803e3d6000fd5b505050506040513d601f19601f82011682018060405250810190611968919061575a565b6001600160a01b0316336001600160a01b03161461198557600080fd5b6000607d60008a8a8581811061199d5761199d6156fb565b90506020020135815260200190815260200160002090506000816001015464e8d4a51000607a5484600001546119d391906157bf565b6119dd91906159f8565b6119e79190615a1a565b905064e8d4a51000607a548360000154611a0191906157bf565b611a0b91906159f8565b6001830155611a1a8185615727565b935050508080611a299061573f565b9150506118d9565b50604051630ab714fb60e11b81526001600160a01b0384169063156e29f690611a6390339085906006906004016157de565b600060405180830381600087803b158015611a7d57600080fd5b505af1158015611a91573d6000803e3d6000fd5b50505050826001600160a01b031663156e29f686603184601f611ab491906157bf565b611abe91906159f8565b60076040518463ffffffff1660e01b8152600401611ade939291906157de565b600060405180830381600087803b158015611af857600080fd5b505af1158015611b0c573d6000803e3d6000fd5b50505050826001600160a01b031663156e29f6856031846014611b2f91906157bf565b611b3991906159f8565b60086040518463ffffffff1660e01b8152600401611b59939291906157de565b600060405180830381600087803b158015611b7357600080fd5b505af1158015611b87573d6000803e3d6000fd5b5050600060d655505050505050505050565b60d65415611bb95760405162461bcd60e51b8152600401610ea99061597a565b600160d655606654604080516399cb239160e01b8152815160009384936001600160a01b03909116926399cb239192600480830193928290030181865afa158015611c08573d6000803e3d6000fd5b505050506040513d601f19601f82011682018060405250810190611c2c9190615790565b90925090506001600160a01b03811663156e29f6732581a6c674d84dad92a81e8d3072c9561c21b9356064611c6b6804e1003b28d928000060036157bf565b611c7591906159f8565b60056040518463ffffffff1660e01b8152600401611c95939291906157de565b600060405180830381600087803b158015611caf57600080fd5b505af1158015611cc3573d6000803e3d6000fd5b50505050806001600160a01b031663156e29f673352c478cd91ba54615cc1edfba4a3e7ec9f60ee160646804e1003b28d92800006003611d0391906157bf565b611d0d91906159f8565b600d6040518463ffffffff1660e01b8152600401611d2d939291906157de565b600060405180830381600087803b158015611d4757600080fd5b505af1158015611d5b573d6000803e3d6000fd5b5050604051637a94c56560e11b81526001600160a01b038416925063f5298aca9150611d989033906804e1003b28d92800009060049081016157de565b600060405180830381600087803b158015611db257600080fd5b505af1158015611dc6573d6000803e3d6000fd5b50506040516335313c2160e11b81523360048201526001600160a01b0385169250636a6278429150602401600060405180830381600087803b158015611e0b57600080fd5b505af1158015611e1f573d6000803e3d6000fd5b5050600060d65550505050565b83336001600160a01b0316606660009054906101000a90046001600160a01b03166001600160a01b031663cb7956b06040518163ffffffff1660e01b8152600401602060405180830381865afa158015611e8a573d6000803e3d6000fd5b505050506040513d601f19601f82011682018060405250810190611eae919061575a565b6001600160a01b0316636352211e836040518263ffffffff1660e01b8152600401611edb91815260200190565b602060405180830381865afa158015611ef8573d6000803e3d6000fd5b505050506040513d601f19601f82011682018060405250810190611f1c919061575a565b6001600160a01b031614611f425760405162461bcd60e51b8152600401610ea9906157ff565b611f4a614230565b600085815260d16020526040902060010154600160401b900460ff16611fb25760405162461bcd60e51b815260206004820152601e60248201527f54686572652073686f756c64206265206120626173652073746174696f6e00006044820152606401610ea9565b600085815260d2602052604090205463ffffffff16151580611fee5750600085815260d26020526040902054600160201b900463ffffffff1615155b1561208b5781156120115760405162461bcd60e51b8152600401610ea990615836565b600085815260d26020908152604091829020805463ffffffff878116600160201b0267ffffffffffffffff1990921690891617179055606654825163464e0c3560e11b815292516001600160a01b0390911692638c9c186a9260048281019391928290030181865afa158015610ffb573d6000803e3d6000fd5b600085815260d260205260409020805463ffffffff858116600160201b0267ffffffffffffffff19909216908716171790555050505050565b60d654156120e45760405162461bcd60e51b8152600401610ea99061597a565b600160d6556120f1614230565b6120fd82826000614625565b5050600060d655565b61210e614230565b6000806000606660009054906101000a90046001600160a01b03166001600160a01b031663022e499c6040518163ffffffff1660e01b8152600401608060405180830381865afa158015612166573d6000803e3d6000fd5b505050506040513d601f19601f8201168201806040525081019061218a91906159a4565b6040516331a9108f60e11b8152600481018a9052939650909450925033916001600160a01b0385169150636352211e90602401602060405180830381865afa1580156121da573d6000803e3d6000fd5b505050506040513d601f19601f820116820180604052508101906121fe919061575a565b6001600160a01b0316146122545760405162461bcd60e51b815260206004820152601d60248201527f596f75206172656e27742074686973206c6f6f74626f78206f776e65720000006044820152606401610ea9565b6040516317b8e1cf60e01b8152600481018690526000906001600160a01b038416906317b8e1cf90602401602060405180830381865afa15801561229c573d6000803e3d6000fd5b505050506040513d601f19601f820116820180604052508101906122c09190615a31565b90506000806000866001600160a01b031663612d48686040518163ffffffff1660e01b8152600401606060405180830381865afa158015612305573d6000803e3d6000fd5b505050506040513d601f19601f820116820180604052508101906123299190615a52565b9194509250905082600185600281111561234557612345615a80565b141561234e5750815b600285600281111561236257612362615a80565b141561236b5750805b8881106123b05760405162461bcd60e51b81526020600482015260136024820152720dee0cadc40e0e4d2c6ca40e8dede40d0d2ced606b1b6044820152606401610ea9565b604051637a94c56560e11b81526001600160a01b0387169063f5298aca906123e19033908590600c906004016157de565b600060405180830381600087803b1580156123fb57600080fd5b505af115801561240f573d6000803e3d6000fd5b50505050856001600160a01b031663156e29f673352c478cd91ba54615cc1edfba4a3e7ec9f60ee1620186a084610bb861244991906157bf565b61245391906159f8565b600d6040518463ffffffff1660e01b8152600401612473939291906157de565b600060405180830381600087803b15801561248d57600080fd5b505af11580156124a1573d6000803e3d6000fd5b50505050856001600160a01b031663156e29f6736cda418ea9a6be44531a567f778d340615017d00620186a084610bb86124db91906157bf565b6124e591906159f8565b600d6040518463ffffffff1660e01b8152600401612505939291906157de565b600060405180830381600087803b15801561251f57600080fd5b505af1158015612533573d6000803e3d6000fd5b5050604051630852cd8d60e31b8152600481018d90526001600160a01b038a1692506342966c689150602401600060405180830381600087803b15801561257957600080fd5b505af115801561258d573d6000803e3d6000fd5b5050604051633b1828a760e11b81526001600160a01b038b169250637630514e91506125bf9033908990600401615a96565b600060405180830381600087803b1580156125d957600080fd5b505af11580156125ed573d6000803e3d6000fd5b5050505050505050505050505050565b6066546001600160a01b03161580612688575060665460408051638da5cb5b60e01b8152905133926001600160a01b031691638da5cb5b9160048083019260209291908290030181865afa158015612659573d6000803e3d6000fd5b505050506040513d601f19601f8201168201806040525081019061267d919061575a565b6001600160a01b0316145b61269157600080fd5b606680546001600160a01b0319166001600160a01b0392909216919091179055565b600083815260d560205260409020805463ffffffff838116600160201b0267ffffffffffffffff19909216908516171790556111038360016131f8565b73d4511e8d0233613383502e3da416ac26c768c57e331480612725575073d270c4804bca681a5c915b18ce86d0cd0e800cc733145b61272e57600080fd5b612738828261498f565b60405181906001600160a01b038416907f8c32c568416fcf97be35ce5b27844cfddcd63a67a1a602c3595ba5dac38f303a90600090a35050565b60d654156127925760405162461bcd60e51b8152600401610ea99061597a565b600160d65561279f614230565b6001600160a01b0381163314156127c1576127bc83836000614625565b6127cc565b6127cc838383614625565b5050600060d65550565b606660009054906101000a90046001600160a01b03166001600160a01b0316638da5cb5b6040518163ffffffff1660e01b8152600401602060405180830381865afa158015612829573d6000803e3d6000fd5b505050506040513d601f19601f8201168201806040525081019061284d919061575a565b6001600160a01b0316336001600160a01b03161461287d5760405162461bcd60e51b8152600401610ea990615ad1565b662386f26fc10000811015801561289e575069021e19e0c9bab24000008111155b6128ea5760405162461bcd60e51b815260206004820152601a60248201527f4e6577207072696365206973206f7574206f6620626f756e64730000000000006044820152606401610ea9565b609a8190556040518181527f4f5539c0409dfc4cb06f64cbd31237e1fbfe443f531584bf4dd77ec7fc5ba7b19060200160405180910390a150565b83336001600160a01b0316606660009054906101000a90046001600160a01b03166001600160a01b031663cb7956b06040518163ffffffff1660e01b8152600401602060405180830381865afa158015612983573d6000803e3d6000fd5b505050506040513d601f19601f820116820180604052508101906129a7919061575a565b6001600160a01b0316636352211e836040518263ffffffff1660e01b81526004016129d491815260200190565b602060405180830381865afa1580156129f1573d6000803e3d6000fd5b505050506040513d601f19601f82011682018060405250810190612a15919061575a565b6001600160a01b031614612a3b5760405162461bcd60e51b8152600401610ea9906157ff565b612a43614230565b600085815260d16020526040902060010154600160581b900460ff16612ab65760405162461bcd60e51b815260206004820152602260248201527f54686572652073686f756c64206265206120706f7765722070726f647563746960448201526137b760f11b6064820152608401610ea9565b600085815260d5602052604090205463ffffffff16151580612af25750600085815260d56020526040902054600160201b900463ffffffff1615155b15612b8f578115612b155760405162461bcd60e51b8152600401610ea990615836565b600085815260d56020908152604091829020805463ffffffff878116600160201b0267ffffffffffffffff1990921690891617179055606654825163464e0c3560e11b815292516001600160a01b0390911692638c9c186a9260048281019391928290030181865afa158015610ffb573d6000803e3d6000fd5b600085815260d560205260409020805463ffffffff858116600160201b0267ffffffffffffffff19909216908716171790555050505050565b81336001600160a01b0316606660009054906101000a90046001600160a01b03166001600160a01b031663cb7956b06040518163ffffffff1660e01b8152600401602060405180830381865afa158015612c26573d6000803e3d6000fd5b505050506040513d601f19601f82011682018060405250810190612c4a919061575a565b6001600160a01b0316636352211e836040518263ffffffff1660e01b8152600401612c7791815260200190565b602060405180830381865afa158015612c94573d6000803e3d6000fd5b505050506040513d601f19601f82011682018060405250810190612cb8919061575a565b6001600160a01b031614612cde5760405162461bcd60e51b8152600401610ea9906157ff565b612ce6614230565b60038260ff161115612d0a5760405162461bcd60e51b8152600401610ea9906158fb565b612d15600183615920565b600084815260d16020526040902060010154600160501b900460ff908116911614612d525760405162461bcd60e51b8152600401610ea990615943565b612d75838360ff16600314612d68576001612d6b565b60025b60ff166001614278565b600083815260d1602052604090206001908101805460ff60501b1916600160501b60ff861602179055612da99083906144ca565b6040805184815260ff8416602082015233917f6f4c6fa65abfbdb878065cf56239c87467b1308866c1f27dad012e666a589b689101611571565b83336001600160a01b0316606660009054906101000a90046001600160a01b03166001600160a01b031663cb7956b06040518163ffffffff1660e01b8152600401602060405180830381865afa158015612e41573d6000803e3d6000fd5b505050506040513d601f19601f82011682018060405250810190612e65919061575a565b6001600160a01b0316636352211e836040518263ffffffff1660e01b8152600401612e9291815260200190565b602060405180830381865afa158015612eaf573d6000803e3d6000fd5b505050506040513d601f19601f82011682018060405250810190612ed3919061575a565b6001600160a01b031614612ef95760405162461bcd60e51b8152600401610ea9906157ff565b612f01614230565b600085815260d16020526040902060010154600160481b900460ff16612f695760405162461bcd60e51b815260206004820152601b60248201527f54686572652073686f756c642062652061207472616e73706f727400000000006044820152606401610ea9565b600085815260d3602052604090205463ffffffff16151580612fa55750600085815260d36020526040902054600160201b900463ffffffff1615155b15613042578115612fc85760405162461bcd60e51b8152600401610ea990615836565b600085815260d36020908152604091829020805463ffffffff878116600160201b0267ffffffffffffffff1990921690891617179055606654825163464e0c3560e11b815292516001600160a01b0390911692638c9c186a9260048281019391928290030181865afa158015610ffb573d6000803e3d6000fd5b600085815260d360205260409020805463ffffffff858116600160201b0267ffffffffffffffff19909216908716171790555050505050565b600083815260d460205260409020805463ffffffff838116600160201b0267ffffffffffffffff1990921690851617179055611103836001612bc8565b600054610100900460ff16158080156130d85750600054600160ff909116105b806130f25750303b1580156130f2575060005460ff166001145b6131555760405162461bcd60e51b815260206004820152602e60248201527f496e697469616c697a61626c653a20636f6e747261637420697320616c72656160448201526d191e481a5b9a5d1a585b1a5e995960921b6064820152608401610ea9565b6000805460ff191660011790558015613178576000805461ff0019166101001790555b606680546001600160a01b0319166001600160a01b03841617905561319b614ad6565b615208609c55680d8d726b7177a80000609a5580156131f4576000805461ff0019169055604051600181527f7f26b83ff96e1f2b6a682f133852f6798a09c465da95921460cefb38474024989060200160405180910390a15b5050565b81336001600160a01b0316606660009054906101000a90046001600160a01b03166001600160a01b031663cb7956b06040518163ffffffff1660e01b8152600401602060405180830381865afa158015613256573d6000803e3d6000fd5b505050506040513d601f19601f8201168201806040525081019061327a919061575a565b6001600160a01b0316636352211e836040518263ffffffff1660e01b81526004016132a791815260200190565b602060405180830381865afa1580156132c4573d6000803e3d6000fd5b505050506040513d601f19601f820116820180604052508101906132e8919061575a565b6001600160a01b03161461330e5760405162461bcd60e51b8152600401610ea9906157ff565b613316614230565b60038260ff16111561333a5760405162461bcd60e51b8152600401610ea9906158fb565b613345600183615920565b600084815260d16020526040902060010154600160581b900460ff9081169116146133825760405162461bcd60e51b8152600401610ea990615943565b613398838360ff166003146114f45760016114f7565b600083815260d1602052604090206001908101805460ff60581b1916600160581b60ff8616021790556133cc9083906144ca565b6040805184815260ff8416602082015233917f9914b04dac571a45d7a7b33184088cbd4d62a2ed88e64602a6b8a6a93b3fb0a69101611571565b606660009054906101000a90046001600160a01b03166001600160a01b0316638da5cb5b6040518163ffffffff1660e01b8152600401602060405180830381865afa158015613459573d6000803e3d6000fd5b505050506040513d601f19601f8201168201806040525081019061347d919061575a565b6001600160a01b0316336001600160a01b0316146134ad5760405162461bcd60e51b8152600401610ea990615ad1565b6134b56145ba565b607b55565b80336001600160a01b0316606660009054906101000a90046001600160a01b03166001600160a01b031663cb7956b06040518163ffffffff1660e01b8152600401602060405180830381865afa158015613518573d6000803e3d6000fd5b505050506040513d601f19601f8201168201806040525081019061353c919061575a565b6001600160a01b0316636352211e836040518263ffffffff1660e01b815260040161356991815260200190565b602060405180830381865afa158015613586573d6000803e3d6000fd5b505050506040513d601f19601f820116820180604052508101906135aa919061575a565b6001600160a01b0316146135d05760405162461bcd60e51b8152600401610ea9906157ff565b6135d8614230565b600082815260d16020526040902060010154600160401b900460ff16156136415760405162461bcd60e51b815260206004820152601f60248201527f546865726520697320616c7265616479206120626173652073746174696f6e006044820152606401610ea9565b61364d82600180614278565b600082815260d16020908152604091829020600101805468ff00000000000000001916600160401b179055606654825163464e0c3560e11b815292516001600160a01b0390911692638c9c186a9260048083019391928290030181865afa1580156136bc573d6000803e3d6000fd5b505050506040513d601f19601f820116820180604052508101906136e0919061575a565b6001600160a01b031663f5298aca336801a055690d9db8000060016040518463ffffffff1660e01b8152600401613719939291906157de565b600060405180830381600087803b15801561373357600080fd5b505af1158015613747573d6000803e3d6000fd5b50506040518481523392507ff9917faa5009c58ed8bd6a1c70b79e1fbefc8afe3e7142ba8b854ccb887fb262915060200160405180910390a25050565b606660009054906101000a90046001600160a01b03166001600160a01b0316638da5cb5b6040518163ffffffff1660e01b8152600401602060405180830381865afa1580156137d7573d6000803e3d6000fd5b505050506040513d601f19601f820116820180604052508101906137fb919061575a565b6001600160a01b0316336001600160a01b03161461382b5760405162461bcd60e51b8152600401610ea990615ad1565b6040805180820182526001600160401b03938416815291831660208084019182526001600160a01b03909516600090815260aa90955293209051815493518316600160401b026fffffffffffffffffffffffffffffffff19909416921691909117919091179055565b600080606660009054906101000a90046001600160a01b03166001600160a01b031663d75459186040518163ffffffff1660e01b8152600401606060405180830381865afa1580156138ea573d6000803e3d6000fd5b505050506040513d601f19601f8201168201806040525081019061390e919061586d565b925050915060008361ffff166019141561392d57506714d1120d7b1600005b8361ffff16603214156139455750671bc16d674ec800005b8361ffff166064141561395d5750673782dace9d9000005b600081116139a35760405162461bcd60e51b81526020600482015260136024820152721ddc9bdb99c81c995c185a5c88185b5bdd5b9d606a1b6044820152606401610ea9565b604051637a94c56560e11b81526001600160a01b0383169063f5298aca906139d49033908590600e906004016157de565b600060405180830381600087803b1580156139ee57600080fd5b505af1158015613a02573d6000803e3d6000fd5b50505050826001600160a01b031663aa89fef03386600a613a239190615af5565b6040516001600160e01b031960e085901b1681526001600160a01b03909216600483015261ffff166024820152604401610d5b565b60006001600160a01b038216331415613a7057600091505b600083609a54613a8091906157bf565b90506001600160a01b038316613aac5733600090815260ab60205260409020546001600160a01b031692505b6001600160a01b038316613ac15790506117cf565b6001600160a01b038316600090815260aa60205260409020546001600160401b031680613aec5750600a5b60006064613b036001600160401b038416856157bf565b613b0d91906159f8565b613b179084615a1a565b9695505050505050565b73__$76b34642256c9229e038e6741754deb259$__630f94905a8686868686606660009054906101000a90046001600160a01b03166001600160a01b03166365d65e866040518163ffffffff1660e01b8152600401602060405180830381865afa158015613b93573d6000803e3d6000fd5b505050506040513d601f19601f82011682018060405250810190613bb7919061575a565b6040518763ffffffff1660e01b8152600401613bd896959493929190615b1f565b60006040518083038186803b158015613bf057600080fd5b505af4158015613c04573d6000803e3d6000fd5b50506040516001600160f81b031960f887901b166020820152602181018590526041810184905260009250606101905060408051601f198184030181529181528151602092830120600081815260a390935291205490915060ff1615613cac5760405162461bcd60e51b815260206004820152601760248201527f7369676e617475726520686173206265656e20757365640000000000000000006044820152606401610ea9565b613cb68686614b05565b600090815260a360205260409020805460ff191660011790555050505050565b60006362ab45706001600160401b03166079541015613cf757506000919050565b607954613d0657506000919050565b6000828152607d6020526040902054607a5460795442118015613d2a5750607c5415155b15613d79576000607b5460795442613d429190615a1a565b613d4c91906157bf565b607c54909150613d618264e8d4a510006157bf565b613d6b91906159f8565b613d759083615727565b9150505b6000848152607d602052604090206001015464e8d4a51000828415613d9e5784613da1565b60015b613dab91906157bf565b613db591906159f8565b613dbf9190615a1a565b949350505050565b60665460408051635d61017760e01b815290516000926001600160a01b031691635d6101779160048083019260209291908290030181865afa158015613e11573d6000803e3d6000fd5b505050506040513d601f19601f82011682018060405250810190613e35919061575a565b33600090815260ad6020526040902054909150600160801b90046001600160401b031615613f0c5733600090815260ad602052604090208054600160801b90046001600160401b0316906010613e8a83615b64565b91906101000a8154816001600160401b0302191690836001600160401b0316021790555050806001600160a01b031663691562a03360026040518363ffffffff1660e01b8152600401613ede929190615a96565b600060405180830381600087803b158015613ef857600080fd5b505af11580156110c1573d6000803e3d6000fd5b33600090815260ad6020526040902054600160401b90046001600160401b031615613fb25733600090815260ad602052604090208054600160401b90046001600160401b0316906008613f5e83615b64565b91906101000a8154816001600160401b0302191690836001600160401b0316021790555050806001600160a01b031663691562a03360016040518363ffffffff1660e01b8152600401613ede929190615a96565b33600090815260ad60205260409020546001600160401b0316156140485733600090815260ad6020526040812080546001600160401b031691613ff483615b64565b91906101000a8154816001600160401b0302191690836001600160401b0316021790555050806001600160a01b031663691562a03360006040518363ffffffff1660e01b8152600401613ede929190615a96565b60405162461bcd60e51b815260206004820152601760248201527f796f752063616e6e6f74206d696e74206c6f6f74626f780000000000000000006044820152606401610ea9565b50565b60665460408051630f28dc4160e41b8152815160009384936001600160a01b039091169263f28dc41092600480830193928290030181865afa1580156140dd573d6000803e3d6000fd5b505050506040513d601f19601f820116820180604052508101906141019190615790565b604051633ee280c560e21b815233600482015291935091506001600160a01b0383169063fb8a031490602401600060405180830381600087803b15801561414757600080fd5b505af115801561415b573d6000803e3d6000fd5b505050506000826001600160a01b031663633097386040518163ffffffff1660e01b81526004016020604051808303816000875af11580156141a1573d6000803e3d6000fd5b505050506040513d601f19601f820116820180604052508101906141c59190615777565b604051637a94c56560e11b81529091506001600160a01b0383169063f5298aca906141f99033908590600a906004016157de565b600060405180830381600087803b15801561421357600080fd5b505af1158015614227573d6000803e3d6000fd5b50505050505050565b60335460ff16156142765760405162461bcd60e51b815260206004820152601060248201526f14185d5cd8589b194e881c185d5cd95960821b6044820152606401610ea9565b565b6000838152607d60205260409020607a546079544211801561429b5750607c5415155b156142ea576000607b54607954426142b39190615a1a565b6142bd91906157bf565b607c549091506142d28264e8d4a510006157bf565b6142dc91906159f8565b6142e69083615727565b9150505b6000826001015464e8d4a5100083856000015461430791906157bf565b61431191906159f8565b61431b9190615a1a565b905084607c5461432b9190615727565b607c556143366145ba565b831561434c578254614349908690615727565b83555b8064e8d4a51000607a54856000015461436591906157bf565b61436f91906159f8565b6143799190615a1a565b60018401556065548354111561438f5782546065555b606660009054906101000a90046001600160a01b03166001600160a01b031663cb7956b06040518163ffffffff1660e01b8152600401602060405180830381865afa1580156143e2573d6000803e3d6000fd5b505050506040513d601f19601f82011682018060405250810190614406919061575a565b6001600160a01b0316636352211e876040518263ffffffff1660e01b815260040161443391815260200190565b602060405180830381865afa158015614450573d6000803e3d6000fd5b505050506040513d601f19601f82011682018060405250810190614474919061575a565b6001600160a01b0316867f4afdde245f9e56a82a82cb7890423a9b2f5298e5b2acfe32dac2e71cce56ce8d87876040516144ba9291909182521515602082015260400190565b60405180910390a3505050505050565b60008260ff16600114156144e45750680340aad21b3b7000005b8260ff16600214156144fc575068068155a43676e000005b8260ff16600314156145145750680d02ab486cedc000005b606660009054906101000a90046001600160a01b03166001600160a01b0316638c9c186a6040518163ffffffff1660e01b8152600401602060405180830381865afa158015614567573d6000803e3d6000fd5b505050506040513d601f19601f8201168201806040525081019061458b919061575a565b6001600160a01b031663f5298aca3383856040518463ffffffff1660e01b81526004016141f9939291906157de565b60795442116145c557565b607c546145d25742607955565b6000607b54607954426145e59190615a1a565b6145ef91906157bf565b607c549091506146048264e8d4a510006157bf565b61460e91906159f8565b607a5461461b9190615727565b607a555042607955565b61462d614230565b6001600160a01b038116156146a85733600081815260ab6020908152604080832080546001600160a01b0319166001600160a01b03871690811790915580845260a78352818420948452938252808320805460ff1916600117905592825260a8905290812080549161469e8361573f565b91905055506146e1565b33600090815260ab60205260409020546001600160a01b0316156146e1575033600090815260ab60205260409020546001600160a01b03165b60006146ed8383613a58565b90508034146147335760405162461bcd60e51b815260206004820152601260248201527157726f6e6720636c61696d696e672066656560701b6044820152606401610ea9565b61473b6145ba565b60005b8381101561477a576147683386868481811061475c5761475c6156fb565b9050602002013561498f565b806147728161573f565b91505061473e565b5060006001600160a01b03831661480757604051737162df6d2c1be22e61b19973fe4e7d086a2da6a4903490600081818185875af1925050503d80600081146147df576040519150601f19603f3d011682016040523d82523d6000602084013e6147e4565b606091505b505080915050806110c15760405162461bcd60e51b8152600401610ea990615b87565b6001600160a01b038316600090815260aa6020526040902054600160401b90046001600160401b031680614839575060145b600060646148506001600160401b038416346157bf565b61485a91906159f8565b905060006148688234615a1a565b604051909150737162df6d2c1be22e61b19973fe4e7d086a2da6a4908290600081818185875af1925050503d80600081146148bf576040519150601f19603f3d011682016040523d82523d6000602084013e6148c4565b606091505b505080945050836148e75760405162461bcd60e51b8152600401610ea990615b87565b6040516001600160a01b038716908390600081818185875af1925050503d8060008114614930576040519150601f19603f3d011682016040523d82523d6000602084013e614935565b606091505b505080945050836149585760405162461bcd60e51b8152600401610ea990615b87565b6001600160a01b038616600090815260a9602052604081208054849290614980908490615727565b90915550505050505050505050565b60665460408051630cb7956b60e41b815290516000926001600160a01b03169163cb7956b09160048083019260209291908290030181865afa1580156149d9573d6000803e3d6000fd5b505050506040513d601f19601f820116820180604052508101906149fd919061575a565b9050600082118015614a115750609c548211155b614a565760405162461bcd60e51b8152602060048201526016602482015275546f6b656e206964206f7574206f6620626f756e647360501b6044820152606401610ea9565b6000828152607d6020526040902060019055607a54614a7b9064e8d4a51000906159f8565b6000838152607d60205260409020600190810191909155607c54614a9e91615727565b607c556040516340c10f1960e01b81526001600160a01b038481166004830152602482018490528216906340c10f19906044016141f9565b600054610100900460ff16614afd5760405162461bcd60e51b8152600401610ea990615bb0565b61427661515e565b600080600080606660009054906101000a90046001600160a01b03166001600160a01b031663022e499c6040518163ffffffff1660e01b8152600401608060405180830381865afa158015614b5e573d6000803e3d6000fd5b505050506040513d601f19601f82011682018060405250810190614b8291906159a4565b9350935093509350600080600080600080600073__$76b34642256c9229e038e6741754deb259$__63ad93a4a38e8e6040518363ffffffff1660e01b8152600401614bce929190615bfb565b60e060405180830381865af4158015614beb573d6000803e3d6000fd5b505050506040513d601f19601f82011682018060405250810190614c0f9190615c0f565b6040516328a3750760e11b81526004810188905260248101869052969d50949b509299509097509550935091506001600160a01b038c1690635146ea0e90604401600060405180830381600087803b158015614c6a57600080fd5b505af1158015614c7e573d6000803e3d6000fd5b5050505060018410158015614c94575060038411155b15614de2576040516331a9108f60e11b8152600481018890526000906001600160a01b038c1690636352211e90602401602060405180830381865afa158015614ce1573d6000803e3d6000fd5b505050506040513d601f19601f82011682018060405250810190614d05919061575a565b9050896001600160a01b031663691562a08273__$76b34642256c9229e038e6741754deb259$__63073e2a1a896040518263ffffffff1660e01b8152600401614d5091815260200190565b602060405180830381865af4158015614d6d573d6000803e3d6000fd5b505050506040513d601f19601f82011682018060405250810190614d919190615a31565b6040518363ffffffff1660e01b8152600401614dae929190615a96565b600060405180830381600087803b158015614dc857600080fd5b505af1158015614ddc573d6000803e3d6000fd5b50505050505b8360171415614e355733600090815260ad6020526040812080546001600160401b031691614e0f83615c63565b91906101000a8154816001600160401b0302191690836001600160401b03160217905550505b8360181415614e915733600090815260ad602052604090208054600160401b90046001600160401b0316906008614e6b83615c63565b91906101000a8154816001600160401b0302191690836001600160401b03160217905550505b8360191415614eed5733600090815260ad602052604090208054600160801b90046001600160401b0316906010614ec783615c63565b91906101000a8154816001600160401b0302191690836001600160401b03160217905550505b60006064614f0384670de0b6b3a76400006157bf565b614f0d91906159f8565b90508060d760008981526020019081526020016000206000828254614f329190615727565b90915550600090506064614f4e86670de0b6b3a76400006157bf565b614f5891906159f8565b9050896001600160a01b031663156e29f68d6001600160a01b0316636352211e8c6040518263ffffffff1660e01b8152600401614f9791815260200190565b602060405180830381865afa158015614fb4573d6000803e3d6000fd5b505050506040513d601f19601f82011682018060405250810190614fd8919061575a565b8360096040518463ffffffff1660e01b8152600401614ff9939291906157de565b600060405180830381600087803b15801561501357600080fd5b505af1158015615027573d6000803e3d6000fd5b50505050826002141561509557604051631c71cfcd60e01b8152336004820152601960248201526001600160a01b038e1690631c71cfcd90604401600060405180830381600087803b15801561507c57600080fd5b505af1158015615090573d6000803e3d6000fd5b505050505b60008989600080516020615c8b8339815191528a6040516150b891815260200190565b60405180910390a46150cd86620186a0615727565b8989600080516020615c8b83398151915260016040516150ef91815260200190565b60405180910390a460018989600080516020615c8b8339815191528460405161511a91815260200190565b60405180910390a460028989600080516020615c8b8339815191528560405161514591815260200190565b60405180910390a4505050505050505050505050505050565b600054610100900460ff166151855760405162461bcd60e51b8152600401610ea990615bb0565b6033805460ff19169055565b634e487b7160e01b600052604160045260246000fd5b600060208083850312156151ba57600080fd5b82356001600160401b03808211156151d157600080fd5b818501915085601f8301126151e557600080fd5b8135818111156151f7576151f7615191565b8060051b604051601f19603f8301168101818110858211171561521c5761521c615191565b60405291825284820192508381018501918883111561523a57600080fd5b938501935b828510156152585784358452938501939285019261523f565b98975050505050505050565b60006020828403121561527657600080fd5b5035919050565b803563ffffffff8116811461529157600080fd5b919050565b600080600080608085870312156152ac57600080fd5b843593506152bc6020860161527d565b92506152ca6040860161527d565b9150606085013580151581146152df57600080fd5b939692955090935050565b6000806000606084860312156152ff57600080fd5b8335925061530f6020850161527d565b915061531d6040850161527d565b90509250925092565b60008083601f84011261533857600080fd5b5081356001600160401b0381111561534f57600080fd5b60208301915083602082850101111561536757600080fd5b9250929050565b60008060006040848603121561538357600080fd5b8335925060208401356001600160401b038111156153a057600080fd5b6153ac86828701615326565b9497909650939450505050565b6001600160a01b038116811461409057600080fd5b6000602082840312156153e057600080fd5b81356153eb816153b9565b9392505050565b803560ff8116811461529157600080fd5b6000806040838503121561541657600080fd5b82359150615426602084016153f2565b90509250929050565b60008083601f84011261544157600080fd5b5081356001600160401b0381111561545857600080fd5b6020830191508360208260051b850101111561536757600080fd5b6000806020838503121561548657600080fd5b82356001600160401b0381111561549c57600080fd5b6154a88582860161542f565b90969095509350505050565b602080825282518282018190526000919060409081850190868401855b8281101561553e5781518051855286810151878601528581015160ff9081168787015260608083015182169087015260808083015182169087015260a0808301519091169086015260c0908101516001600160a01b03169085015260e090930192908501906001016154d1565b5091979650505050505050565b6000806040838503121561555e57600080fd5b50508035926020909101359150565b6000806040838503121561558057600080fd5b823561558b816153b9565b946020939093013593505050565b6000806000604084860312156155ae57600080fd5b83356001600160401b038111156155c457600080fd5b6155d08682870161542f565b90945092505060208401356155e4816153b9565b809150509250925092565b80356001600160401b038116811461529157600080fd5b60008060006060848603121561561b57600080fd5b8335615626816153b9565b9250615634602085016155ef565b915061531d604085016155ef565b60006020828403121561565457600080fd5b813561ffff811681146153eb57600080fd5b6000806040838503121561567957600080fd5b82359150602083013561568b816153b9565b809150509250929050565b6000806000806000608086880312156156ae57600080fd5b85356001600160401b038111156156c457600080fd5b6156d088828901615326565b90965094506156e39050602087016153f2565b94979396509394604081013594506060013592915050565b634e487b7160e01b600052603260045260246000fd5b634e487b7160e01b600052601160045260246000fd5b6000821982111561573a5761573a615711565b500190565b600060001982141561575357615753615711565b5060010190565b60006020828403121561576c57600080fd5b81516153eb816153b9565b60006020828403121561578957600080fd5b5051919050565b600080604083850312156157a357600080fd5b82516157ae816153b9565b602084015190925061568b816153b9565b60008160001904831182151516156157d9576157d9615711565b500290565b6001600160a01b039390931683526020830191909152604082015260600190565b6020808252601a908201527f596f75206172656e27742074686520746f6b656e206f776e6572000000000000604082015260600190565b6020808252601f908201527f596f752063616e20706c616365206f6e6c7920666f7220434c4e59206e6f7700604082015260600190565b60008060006060848603121561588257600080fd5b835161588d816153b9565b602085015190935061589e816153b9565b60408501519092506155e4816153b9565b81835281816020850137506000828201602090810191909152601f909101601f19169091010190565b8381526040602082015260006158f26040830184866158af565b95945050505050565b6020808252600b908201526a1ddc9bdb99c81b195d995b60aa1b604082015260600190565b600060ff821660ff84168082101561593a5761593a615711565b90039392505050565b60208082526017908201527f43616e20627579206f6e6c79206e657874206c6576656c000000000000000000604082015260600190565b60208082526010908201526f1c99595b9d1c985b98de4819dd585c9960821b604082015260600190565b600080600080608085870312156159ba57600080fd5b84516159c5816153b9565b60208601519094506159d6816153b9565b60408601519093506159e7816153b9565b60608601519092506152df816153b9565b600082615a1557634e487b7160e01b600052601260045260246000fd5b500490565b600082821015615a2c57615a2c615711565b500390565b600060208284031215615a4357600080fd5b8151600381106153eb57600080fd5b600080600060608486031215615a6757600080fd5b8351925060208401519150604084015190509250925092565b634e487b7160e01b600052602160045260246000fd5b6001600160a01b03831681526040810160038310615ac457634e487b7160e01b600052602160045260246000fd5b8260208301529392505050565b6020808252600a908201526927b7363c9037bbb732b960b11b604082015260600190565b600061ffff80831681851681830481118215151615615b1657615b16615711565b02949350505050565b60a081526000615b3360a08301888a6158af565b60ff96909616602083015250604081019390935260608301919091526001600160a01b031660809091015292915050565b60006001600160401b03821680615b7d57615b7d615711565b6000190192915050565b6020808252600f908201526e151c985b9cd9995c8819985a5b1959608a1b604082015260600190565b6020808252602b908201527f496e697469616c697a61626c653a20636f6e7472616374206973206e6f74206960408201526a6e697469616c697a696e6760a81b606082015260800190565b602081526000613dbf6020830184866158af565b600080600080600080600060e0888a031215615c2a57600080fd5b5050855160208701516040880151606089015160808a015160a08b015160c0909b0151949c939b50919990985090965094509092509050565b60006001600160401b0380831681811415615c8057615c80615711565b600101939250505056fe22f35a74f6e108be17f687d3755e71fa1bc04004f81334b10681477c17cfa000a2646970667358221220991da04f9833f1d38a96194b89e807228660e968835fa86bd8d47b4f63ee642c64736f6c634300080c0033",
  "linkReferences": {
    "contracts/libraries/MissionLibrary.sol": {
      "MissionLibrary": [
        {
          "length": 20,
          "start": 15172
        },
        {
          "length": 20,
          "start": 19384
        },
        {
          "length": 20,
          "start": 19770
        }
      ]
    }
  },
  "deployedLinkReferences": {
    "contracts/libraries/MissionLibrary.sol": {
      "MissionLibrary": [
        {
          "length": 20,
          "start": 15139
        },
        {
          "length": 20,
          "start": 19351
        },
        {
          "length": 20,
          "start": 19737
        }
      ]
    }
  }
}