{
  "contractName": "Gears",
  "abi": [
    {
      "inputs": [
        {
          "internalType": "string",
          "name": "_nftBaseURI",
          "type": "string"
        }
      ],
      "stateMutability": "nonpayable",
      "type": "constructor"
    },
    {
      "anonymous": false,
      "inputs": [
        {
          "indexed": true,
          "internalType": "address",
          "name": "owner",
          "type": "address"
        },
        {
          "indexed": true,
          "internalType": "address",
          "name": "approved",
          "type": "address"
        },
        {
          "indexed": true,
          "internalType": "uint256",
          "name": "tokenId",
          "type": "uint256"
        }
      ],
      "name": "Approval",
      "type": "event"
    },
    {
      "anonymous": false,
      "inputs": [
        {
          "indexed": true,
          "internalType": "address",
          "name": "owner",
          "type": "address"
        },
        {
          "indexed": true,
          "internalType": "address",
          "name": "operator",
          "type": "address"
        },
        {
          "indexed": false,
          "internalType": "bool",
          "name": "approved",
          "type": "bool"
        }
      ],
      "name": "ApprovalForAll",
      "type": "event"
    },
    {
      "anonymous": false,
      "inputs": [
        {
          "indexed": true,
          "internalType": "address",
          "name": "previousOwner",
          "type": "address"
        },
        {
          "indexed": true,
          "internalType": "address",
          "name": "newOwner",
          "type": "address"
        }
      ],
      "name": "OwnershipTransferred",
      "type": "event"
    },
    {
      "anonymous": false,
      "inputs": [
        {
          "indexed": true,
          "internalType": "address",
          "name": "from",
          "type": "address"
        },
        {
          "indexed": true,
          "internalType": "address",
          "name": "to",
          "type": "address"
        },
        {
          "indexed": true,
          "internalType": "uint256",
          "name": "tokenId",
          "type": "uint256"
        }
      ],
      "name": "Transfer",
      "type": "event"
    },
    {
      "inputs": [
        {
          "internalType": "address",
          "name": "to",
          "type": "address"
        },
        {
          "internalType": "uint256",
          "name": "tokenId",
          "type": "uint256"
        }
      ],
      "name": "approve",
      "outputs": [],
      "stateMutability": "nonpayable",
      "type": "function"
    },
    {
      "inputs": [
        {
          "internalType": "address",
          "name": "owner",
          "type": "address"
        }
      ],
      "name": "balanceOf",
      "outputs": [
        {
          "internalType": "uint256",
          "name": "",
          "type": "uint256"
        }
      ],
      "stateMutability": "view",
      "type": "function",
      "constant": true
    },
    {
      "inputs": [],
      "name": "collectionManager",
      "outputs": [
        {
          "internalType": "address",
          "name": "",
          "type": "address"
        }
      ],
      "stateMutability": "view",
      "type": "function",
      "constant": true
    },
    {
      "inputs": [
        {
          "internalType": "uint256",
          "name": "",
          "type": "uint256"
        }
      ],
      "name": "gears",
      "outputs": [
        {
          "internalType": "enum IEnums.Rarity",
          "name": "rarity",
          "type": "uint8"
        },
        {
          "internalType": "uint256",
          "name": "gearType",
          "type": "uint256"
        },
        {
          "internalType": "uint256",
          "name": "category",
          "type": "uint256"
        },
        {
          "internalType": "uint256",
          "name": "durability",
          "type": "uint256"
        },
        {
          "internalType": "bool",
          "name": "locked",
          "type": "bool"
        },
        {
          "internalType": "bool",
          "name": "set",
          "type": "bool"
        }
      ],
      "stateMutability": "view",
      "type": "function",
      "constant": true
    },
    {
      "inputs": [
        {
          "internalType": "uint256",
          "name": "tokenId",
          "type": "uint256"
        }
      ],
      "name": "getApproved",
      "outputs": [
        {
          "internalType": "address",
          "name": "",
          "type": "address"
        }
      ],
      "stateMutability": "view",
      "type": "function",
      "constant": true
    },
    {
      "inputs": [
        {
          "internalType": "address",
          "name": "owner",
          "type": "address"
        },
        {
          "internalType": "address",
          "name": "operator",
          "type": "address"
        }
      ],
      "name": "isApprovedForAll",
      "outputs": [
        {
          "internalType": "bool",
          "name": "",
          "type": "bool"
        }
      ],
      "stateMutability": "view",
      "type": "function",
      "constant": true
    },
    {
      "inputs": [
        {
          "internalType": "address",
          "name": "",
          "type": "address"
        }
      ],
      "name": "lastTokenMinted",
      "outputs": [
        {
          "internalType": "uint256",
          "name": "",
          "type": "uint256"
        }
      ],
      "stateMutability": "view",
      "type": "function",
      "constant": true
    },
    {
      "inputs": [],
      "name": "name",
      "outputs": [
        {
          "internalType": "string",
          "name": "",
          "type": "string"
        }
      ],
      "stateMutability": "view",
      "type": "function",
      "constant": true
    },
    {
      "inputs": [],
      "name": "nextIdToMint",
      "outputs": [
        {
          "internalType": "uint256",
          "name": "",
          "type": "uint256"
        }
      ],
      "stateMutability": "view",
      "type": "function",
      "constant": true
    },
    {
      "inputs": [],
      "name": "owner",
      "outputs": [
        {
          "internalType": "address",
          "name": "",
          "type": "address"
        }
      ],
      "stateMutability": "view",
      "type": "function",
      "constant": true
    },
    {
      "inputs": [
        {
          "internalType": "uint256",
          "name": "tokenId",
          "type": "uint256"
        }
      ],
      "name": "ownerOf",
      "outputs": [
        {
          "internalType": "address",
          "name": "",
          "type": "address"
        }
      ],
      "stateMutability": "view",
      "type": "function",
      "constant": true
    },
    {
      "inputs": [],
      "name": "renounceOwnership",
      "outputs": [],
      "stateMutability": "nonpayable",
      "type": "function"
    },
    {
      "inputs": [
        {
          "internalType": "address",
          "name": "from",
          "type": "address"
        },
        {
          "internalType": "address",
          "name": "to",
          "type": "address"
        },
        {
          "internalType": "uint256",
          "name": "tokenId",
          "type": "uint256"
        }
      ],
      "name": "safeTransferFrom",
      "outputs": [],
      "stateMutability": "nonpayable",
      "type": "function"
    },
    {
      "inputs": [
        {
          "internalType": "address",
          "name": "from",
          "type": "address"
        },
        {
          "internalType": "address",
          "name": "to",
          "type": "address"
        },
        {
          "internalType": "uint256",
          "name": "tokenId",
          "type": "uint256"
        },
        {
          "internalType": "bytes",
          "name": "_data",
          "type": "bytes"
        }
      ],
      "name": "safeTransferFrom",
      "outputs": [],
      "stateMutability": "nonpayable",
      "type": "function"
    },
    {
      "inputs": [
        {
          "internalType": "address",
          "name": "operator",
          "type": "address"
        },
        {
          "internalType": "bool",
          "name": "approved",
          "type": "bool"
        }
      ],
      "name": "setApprovalForAll",
      "outputs": [],
      "stateMutability": "nonpayable",
      "type": "function"
    },
    {
      "inputs": [
        {
          "internalType": "bytes4",
          "name": "interfaceId",
          "type": "bytes4"
        }
      ],
      "name": "supportsInterface",
      "outputs": [
        {
          "internalType": "bool",
          "name": "",
          "type": "bool"
        }
      ],
      "stateMutability": "view",
      "type": "function",
      "constant": true
    },
    {
      "inputs": [],
      "name": "symbol",
      "outputs": [
        {
          "internalType": "string",
          "name": "",
          "type": "string"
        }
      ],
      "stateMutability": "view",
      "type": "function",
      "constant": true
    },
    {
      "inputs": [
        {
          "internalType": "uint256",
          "name": "index",
          "type": "uint256"
        }
      ],
      "name": "tokenByIndex",
      "outputs": [
        {
          "internalType": "uint256",
          "name": "",
          "type": "uint256"
        }
      ],
      "stateMutability": "view",
      "type": "function",
      "constant": true
    },
    {
      "inputs": [
        {
          "internalType": "address",
          "name": "owner",
          "type": "address"
        },
        {
          "internalType": "uint256",
          "name": "index",
          "type": "uint256"
        }
      ],
      "name": "tokenOfOwnerByIndex",
      "outputs": [
        {
          "internalType": "uint256",
          "name": "",
          "type": "uint256"
        }
      ],
      "stateMutability": "view",
      "type": "function",
      "constant": true
    },
    {
      "inputs": [],
      "name": "totalSupply",
      "outputs": [
        {
          "internalType": "uint256",
          "name": "",
          "type": "uint256"
        }
      ],
      "stateMutability": "view",
      "type": "function",
      "constant": true
    },
    {
      "inputs": [
        {
          "internalType": "address",
          "name": "from",
          "type": "address"
        },
        {
          "internalType": "address",
          "name": "to",
          "type": "address"
        },
        {
          "internalType": "uint256",
          "name": "tokenId",
          "type": "uint256"
        }
      ],
      "name": "transferFrom",
      "outputs": [],
      "stateMutability": "nonpayable",
      "type": "function"
    },
    {
      "inputs": [
        {
          "internalType": "address",
          "name": "newOwner",
          "type": "address"
        }
      ],
      "name": "transferOwnership",
      "outputs": [],
      "stateMutability": "nonpayable",
      "type": "function"
    },
    {
      "inputs": [
        {
          "internalType": "address",
          "name": "_collectionManager",
          "type": "address"
        }
      ],
      "name": "setCollectionManager",
      "outputs": [],
      "stateMutability": "nonpayable",
      "type": "function"
    },
    {
      "inputs": [
        {
          "internalType": "string",
          "name": "newURI",
          "type": "string"
        }
      ],
      "name": "setBaseURI",
      "outputs": [],
      "stateMutability": "nonpayable",
      "type": "function"
    },
    {
      "inputs": [
        {
          "internalType": "uint256",
          "name": "tokenId",
          "type": "uint256"
        }
      ],
      "name": "tokenURI",
      "outputs": [
        {
          "internalType": "string",
          "name": "",
          "type": "string"
        }
      ],
      "stateMutability": "view",
      "type": "function",
      "constant": true
    },
    {
      "inputs": [],
      "name": "lastOwnedTokenURI",
      "outputs": [
        {
          "internalType": "string",
          "name": "",
          "type": "string"
        }
      ],
      "stateMutability": "view",
      "type": "function",
      "constant": true
    },
    {
      "inputs": [
        {
          "internalType": "address",
          "name": "receiver",
          "type": "address"
        },
        {
          "internalType": "enum IEnums.Rarity",
          "name": "rarity",
          "type": "uint8"
        },
        {
          "internalType": "uint256",
          "name": "gearType",
          "type": "uint256"
        },
        {
          "internalType": "uint256",
          "name": "category",
          "type": "uint256"
        },
        {
          "internalType": "uint256",
          "name": "durability",
          "type": "uint256"
        }
      ],
      "name": "mint",
      "outputs": [],
      "stateMutability": "nonpayable",
      "type": "function"
    },
    {
      "inputs": [
        {
          "internalType": "uint256",
          "name": "tokenId",
          "type": "uint256"
        }
      ],
      "name": "burn",
      "outputs": [],
      "stateMutability": "nonpayable",
      "type": "function"
    },
    {
      "inputs": [
        {
          "internalType": "uint256",
          "name": "_from",
          "type": "uint256"
        },
        {
          "internalType": "uint256",
          "name": "_to",
          "type": "uint256"
        }
      ],
      "name": "allMyTokensPaginate",
      "outputs": [
        {
          "internalType": "uint256[]",
          "name": "",
          "type": "uint256[]"
        },
        {
          "components": [
            {
              "internalType": "enum IEnums.Rarity",
              "name": "rarity",
              "type": "uint8"
            },
            {
              "internalType": "uint256",
              "name": "gearType",
              "type": "uint256"
            },
            {
              "internalType": "uint256",
              "name": "category",
              "type": "uint256"
            },
            {
              "internalType": "uint256",
              "name": "durability",
              "type": "uint256"
            },
            {
              "internalType": "bool",
              "name": "locked",
              "type": "bool"
            },
            {
              "internalType": "bool",
              "name": "set",
              "type": "bool"
            }
          ],
          "internalType": "struct IGears.Gear[]",
          "name": "",
          "type": "tuple[]"
        }
      ],
      "stateMutability": "view",
      "type": "function",
      "constant": true
    },
    {
      "inputs": [
        {
          "internalType": "uint256",
          "name": "_from",
          "type": "uint256"
        },
        {
          "internalType": "uint256",
          "name": "_to",
          "type": "uint256"
        }
      ],
      "name": "allTokensPaginate",
      "outputs": [
        {
          "internalType": "uint256[]",
          "name": "",
          "type": "uint256[]"
        },
        {
          "components": [
            {
              "internalType": "enum IEnums.Rarity",
              "name": "rarity",
              "type": "uint8"
            },
            {
              "internalType": "uint256",
              "name": "gearType",
              "type": "uint256"
            },
            {
              "internalType": "uint256",
              "name": "category",
              "type": "uint256"
            },
            {
              "internalType": "uint256",
              "name": "durability",
              "type": "uint256"
            },
            {
              "internalType": "bool",
              "name": "locked",
              "type": "bool"
            },
            {
              "internalType": "bool",
              "name": "set",
              "type": "bool"
            }
          ],
          "internalType": "struct IGears.Gear[]",
          "name": "",
          "type": "tuple[]"
        }
      ],
      "stateMutability": "view",
      "type": "function",
      "constant": true
    },
    {
      "inputs": [
        {
          "internalType": "uint256",
          "name": "tokenId",
          "type": "uint256"
        }
      ],
      "name": "lockGear",
      "outputs": [],
      "stateMutability": "nonpayable",
      "type": "function"
    },
    {
      "inputs": [
        {
          "internalType": "uint256",
          "name": "tokenId",
          "type": "uint256"
        }
      ],
      "name": "unlockGear",
      "outputs": [],
      "stateMutability": "nonpayable",
      "type": "function"
    },
    {
      "inputs": [
        {
          "internalType": "uint256",
          "name": "tokenId",
          "type": "uint256"
        },
        {
          "internalType": "uint32",
          "name": "amount",
          "type": "uint32"
        }
      ],
      "name": "decreaseDurability",
      "outputs": [],
      "stateMutability": "nonpayable",
      "type": "function"
    },
    {
      "inputs": [
        {
          "internalType": "address",
          "name": "_tokenContract",
          "type": "address"
        },
        {
          "internalType": "address",
          "name": "_whereTo",
          "type": "address"
        },
        {
          "internalType": "uint256",
          "name": "_amount",
          "type": "uint256"
        }
      ],
      "name": "withdrawToken",
      "outputs": [],
      "stateMutability": "nonpayable",
      "type": "function"
    }
  ],
  "bytecode": "0x60806040526001600f553480156200001657600080fd5b5060405162002d4d38038062002d4d8339810160408190526200003991620001e4565b6040805180820182526005815264476561727360d81b60208083019182528351808501909452600484526323b2b0b960e11b908401528151919291620000829160009162000128565b5080516200009890600190602084019062000128565b505050620000b5620000af620000d260201b60201c565b620000d6565b8051620000ca90600b90602084019062000128565b5050620002fc565b3390565b600a80546001600160a01b038381166001600160a01b0319831681179093556040519116919082907f8be0079c531659141344cd1fd0a4f28419497f9722a3daafe3b4186f6b6457e090600090a35050565b8280546200013690620002c0565b90600052602060002090601f0160209004810192826200015a5760008555620001a5565b82601f106200017557805160ff1916838001178555620001a5565b82800160010185558215620001a5579182015b82811115620001a557825182559160200191906001019062000188565b50620001b3929150620001b7565b5090565b5b80821115620001b35760008155600101620001b8565b634e487b7160e01b600052604160045260246000fd5b60006020808385031215620001f857600080fd5b82516001600160401b03808211156200021057600080fd5b818501915085601f8301126200022557600080fd5b8151818111156200023a576200023a620001ce565b604051601f8201601f19908116603f01168101908382118183101715620002655762000265620001ce565b8160405282815288868487010111156200027e57600080fd5b600093505b82841015620002a2578484018601518185018701529285019262000283565b82841115620002b45760008684830101525b98975050505050505050565b600181811c90821680620002d557607f821691505b602082108103620002f657634e487b7160e01b600052602260045260246000fd5b50919050565b612a41806200030c6000396000f3fe608060405234801561001057600080fd5b50600436106102065760003560e01c80636352211e1161011a57806395d89b41116100ad578063b88d4fde1161007c578063b88d4fde146104a5578063c87b56dd146104b8578063caca3479146104cb578063e985e9c5146104d3578063f2fde38b1461050f57600080fd5b806395d89b411461046e5780639fdf846914610476578063a22cb46514610489578063a568edea1461049c57600080fd5b806381aa90c4116100e957806381aa90c4146103cc5780638cabaaee146103ed5780638da5cb5b146104005780638e4822741461041157600080fd5b80636352211e1461038b57806370a082311461039e578063715018a6146103b157806376fdcb26146103b957600080fd5b80632a5c5fcc1161019d5780634eeb9fb21161016c5780634eeb9fb21461031f5780634f6ccce71461033257806355f804b3146103455780635835e37d146103585780635897fc6c1461037857600080fd5b80632a5c5fcc146102d35780632f745c59146102e657806342842e0e146102f957806342966c681461030c57600080fd5b8063095ea7b3116101d9578063095ea7b31461028857806318160ddd1461029b578063236f0b20146102ad57806323b872dd146102c057600080fd5b806301e336671461020b57806301ffc9a71461022057806306fdde0314610248578063081812fc1461025d575b600080fd5b61021e610219366004612284565b610522565b005b61023361022e3660046122d6565b6105d2565b60405190151581526020015b60405180910390f35b6102506105fd565b60405161023f919061234b565b61027061026b36600461235e565b61068f565b6040516001600160a01b03909116815260200161023f565b61021e610296366004612377565b610724565b6008545b60405190815260200161023f565b61021e6102bb3660046123a1565b610839565b61021e6102ce366004612284565b6109d1565b61021e6102e13660046123f4565b610a02565b61029f6102f4366004612377565b610a4e565b61021e610307366004612284565b610ae4565b61021e61031a36600461235e565b610aff565b61021e61032d36600461235e565b610b4f565b61029f61034036600461235e565b610b94565b61021e61035336600461249b565b610c27565b61029f6103663660046123f4565b600e6020526000908152604090205481565b61021e6103863660046124e4565b610c68565b61027061039936600461235e565b610d03565b61029f6103ac3660046123f4565b610d7a565b61021e610e01565b61021e6103c736600461235e565b610e37565b6103df6103da36600461251d565b610e7f565b60405161023f929190612577565b6103df6103fb36600461251d565b611114565b600a546001600160a01b0316610270565b61045c61041f36600461235e565b600d602052600090815260409020805460018201546002830154600384015460049094015460ff9384169492939192918181169161010090041686565b60405161023f96959493929190612631565b610250611374565b600c54610270906001600160a01b031681565b61021e610497366004612679565b611383565b61029f600f5481565b61021e6104b33660046126a5565b61138e565b6102506104c636600461235e565b6113c6565b6102506114a1565b6102336104e1366004612721565b6001600160a01b03918216600090815260056020908152604080832093909416825291909152205460ff1690565b61021e61051d3660046123f4565b61151f565b600a546001600160a01b031633146105555760405162461bcd60e51b815260040161054c90612754565b60405180910390fd5b60405163a9059cbb60e01b81526001600160a01b0383811660048301526024820183905284919082169063a9059cbb906044016020604051808303816000875af11580156105a7573d6000803e3d6000fd5b505050506040513d601f19601f820116820180604052508101906105cb9190612789565b5050505050565b60006001600160e01b0319821663780e9d6360e01b14806105f757506105f7826115b7565b92915050565b60606000805461060c906127a6565b80601f0160208091040260200160405190810160405280929190818152602001828054610638906127a6565b80156106855780601f1061065a57610100808354040283529160200191610685565b820191906000526020600020905b81548152906001019060200180831161066857829003601f168201915b5050505050905090565b6000818152600260205260408120546001600160a01b03166107085760405162461bcd60e51b815260206004820152602c60248201527f4552433732313a20617070726f76656420717565727920666f72206e6f6e657860448201526b34b9ba32b73a103a37b5b2b760a11b606482015260840161054c565b506000908152600460205260409020546001600160a01b031690565b600061072f82610d03565b9050806001600160a01b0316836001600160a01b03160361079c5760405162461bcd60e51b815260206004820152602160248201527f4552433732313a20617070726f76616c20746f2063757272656e74206f776e656044820152603960f91b606482015260840161054c565b336001600160a01b03821614806107b857506107b881336104e1565b61082a5760405162461bcd60e51b815260206004820152603860248201527f4552433732313a20617070726f76652063616c6c6572206973206e6f74206f7760448201527f6e6572206e6f7220617070726f76656420666f7220616c6c0000000000000000606482015260840161054c565b6108348383611607565b505050565b600c546001600160a01b031633146108635760405162461bcd60e51b815260040161054c906127e0565b60105460ff161561089f5760405162461bcd60e51b81526020600482015260066024820152651b1bd8dad95960d21b604482015260640161054c565b6010805460ff191660011790556040805160c08101909152600090808660028111156108cd576108cd61253f565b81526020808201879052604080830187905260608301869052600060808401819052600160a0909401849052600f548152600d909252902082518154939450849391929091839160ff199091169083600281111561092d5761092d61253f565b021790555060208201516001820155604082015160028201556060820151600382015560808201516004909101805460a09093015115156101000261ff00199215159290921661ffff1990931692909217179055600f5461098f908790611675565b600f80546001600160a01b0388166000908152600e602052604081208290559091906109ba8361282d565b90915550506010805460ff19169055505050505050565b6109db338261168f565b6109f75760405162461bcd60e51b815260040161054c90612846565b610834838383611786565b600a546001600160a01b03163314610a2c5760405162461bcd60e51b815260040161054c90612754565b600c80546001600160a01b0319166001600160a01b0392909216919091179055565b6000610a5983610d7a565b8210610abb5760405162461bcd60e51b815260206004820152602b60248201527f455243373231456e756d657261626c653a206f776e657220696e646578206f7560448201526a74206f6620626f756e647360a81b606482015260840161054c565b506001600160a01b03919091166000908152600660209081526040808320938352929052205490565b6108348383836040518060200160405280600081525061138e565b600c546001600160a01b03163314610b295760405162461bcd60e51b815260040161054c906127e0565b6000818152600d60205260409020600401805461ffff19169055610b4c8161192d565b50565b600c546001600160a01b03163314610b795760405162461bcd60e51b815260040161054c906127e0565b6000908152600d60205260409020600401805460ff19169055565b6000610b9f60085490565b8210610c025760405162461bcd60e51b815260206004820152602c60248201527f455243373231456e756d657261626c653a20676c6f62616c20696e646578206f60448201526b7574206f6620626f756e647360a01b606482015260840161054c565b60088281548110610c1557610c15612897565b90600052602060002001549050919050565b600a546001600160a01b03163314610c515760405162461bcd60e51b815260040161054c90612754565b8051610c6490600b906020840190612194565b5050565b600c546001600160a01b03163314610c925760405162461bcd60e51b815260040161054c906127e0565b6000828152600d602052604090206003015463ffffffff821610610cd3576000828152600d60205260409020600401805461ffff19169055610cd38261192d565b6000828152600d60205260408120600301805463ffffffff84169290610cfa9084906128ad565b90915550505050565b6000818152600260205260408120546001600160a01b0316806105f75760405162461bcd60e51b815260206004820152602960248201527f4552433732313a206f776e657220717565727920666f72206e6f6e657869737460448201526832b73a103a37b5b2b760b91b606482015260840161054c565b60006001600160a01b038216610de55760405162461bcd60e51b815260206004820152602a60248201527f4552433732313a2062616c616e636520717565727920666f7220746865207a65604482015269726f206164647265737360b01b606482015260840161054c565b506001600160a01b031660009081526003602052604090205490565b600a546001600160a01b03163314610e2b5760405162461bcd60e51b815260040161054c90612754565b610e3560006119d4565b565b600c546001600160a01b03163314610e615760405162461bcd60e51b815260040161054c906127e0565b6000908152600d60205260409020600401805460ff19166001179055565b6060806000610e8d33610d7a565b90508481111580610e9d57508385115b80610ea6575080155b15610eef5760408051600080825260208201818152828401909352909190610ee4565b610ed1612218565b815260200190600190039081610ec95790505b50925092505061110d565b600084610efd6001846128ad565b11610f1257610f0d6001836128ad565b610f14565b845b90506000610f2287836128ad565b610f2d9060016128c4565b67ffffffffffffffff811115610f4557610f4561240f565b604051908082528060200260200182016040528015610f6e578160200160208202803683370190505b5090506000610f7d88846128ad565b610f889060016128c4565b67ffffffffffffffff811115610fa057610fa061240f565b604051908082528060200260200182016040528015610fd957816020015b610fc6612218565b815260200190600190039081610fbe5790505b509050875b83811161110457610fef3382610a4e565b83610ffa8b846128ad565b8151811061100a5761100a612897565b6020908102919091010152600d6000846110248c856128ad565b8151811061103457611034612897565b602002602001015181526020019081526020016000206040518060c00160405290816000820160009054906101000a900460ff1660028111156110795761107961253f565b600281111561108a5761108a61253f565b815260018201546020820152600282015460408201526003820154606082015260049091015460ff8082161515608084015261010090910416151560a090910152826110d68b846128ad565b815181106110e6576110e6612897565b602002602001018190525080806110fc9061282d565b915050610fde565b50909450925050505b9250929050565b606080600061112260085490565b9050848111158061113257508385115b8061113b575080155b156111835760408051600080825260208201818152828401909352909190610ee4565b611166612218565b81526020019060019003908161115e57905050925092505061110d565b6000846111916001846128ad565b116111a6576111a16001836128ad565b6111a8565b845b905060006111b687836128ad565b6111c19060016128c4565b67ffffffffffffffff8111156111d9576111d961240f565b604051908082528060200260200182016040528015611202578160200160208202803683370190505b509050600061121188846128ad565b61121c9060016128c4565b67ffffffffffffffff8111156112345761123461240f565b60405190808252806020026020018201604052801561126d57816020015b61125a612218565b8152602001906001900390816112525790505b509050875b8381116111045761128281610b94565b8361128d8b846128ad565b8151811061129d5761129d612897565b602002602001018181525050600d60006112b683610b94565b815260208101919091526040908101600020815160c081019092528054829060ff1660028111156112e9576112e961253f565b60028111156112fa576112fa61253f565b815260018201546020820152600282015460408201526003820154606082015260049091015460ff8082161515608084015261010090910416151560a090910152826113468b846128ad565b8151811061135657611356612897565b6020026020010181905250808061136c9061282d565b915050611272565b60606001805461060c906127a6565b610c64338383611a26565b611398338361168f565b6113b45760405162461bcd60e51b815260040161054c90612846565b6113c084848484611af4565b50505050565b6000818152600260205260409020546060906001600160a01b03166114455760405162461bcd60e51b815260206004820152602f60248201527f4552433732314d657461646174613a2055524920717565727920666f72206e6f60448201526e3732bc34b9ba32b73a103a37b5b2b760891b606482015260840161054c565b600061144f611b27565b9050600081511161146f576040518060200160405280600081525061149a565b8061147984611b36565b60405160200161148a9291906128dc565b6040516020818303038152906040525b9392505050565b336000908152600e6020526040812054606091036115015760405162461bcd60e51b815260206004820152601c60248201527f55736572206861736e2774206d696e74656420616e7920746f6b656e00000000604482015260640161054c565b336000908152600e602052604090205461151a906113c6565b905090565b600a546001600160a01b031633146115495760405162461bcd60e51b815260040161054c90612754565b6001600160a01b0381166115ae5760405162461bcd60e51b815260206004820152602660248201527f4f776e61626c653a206e6577206f776e657220697320746865207a65726f206160448201526564647265737360d01b606482015260840161054c565b610b4c816119d4565b60006001600160e01b031982166380ac58cd60e01b14806115e857506001600160e01b03198216635b5e139f60e01b145b806105f757506301ffc9a760e01b6001600160e01b03198316146105f7565b600081815260046020526040902080546001600160a01b0319166001600160a01b038416908117909155819061163c82610d03565b6001600160a01b03167f8c5be1e5ebec7d5bd14f71427d1e84f3dd0314c0f7b2291e5b200ac8c7c3b92560405160405180910390a45050565b610c64828260405180602001604052806000815250611c37565b6000818152600260205260408120546001600160a01b03166117085760405162461bcd60e51b815260206004820152602c60248201527f4552433732313a206f70657261746f7220717565727920666f72206e6f6e657860448201526b34b9ba32b73a103a37b5b2b760a11b606482015260840161054c565b600061171383610d03565b9050806001600160a01b0316846001600160a01b0316148061175a57506001600160a01b0380821660009081526005602090815260408083209388168352929052205460ff165b8061177e5750836001600160a01b03166117738461068f565b6001600160a01b0316145b949350505050565b826001600160a01b031661179982610d03565b6001600160a01b0316146117fd5760405162461bcd60e51b815260206004820152602560248201527f4552433732313a207472616e736665722066726f6d20696e636f72726563742060448201526437bbb732b960d91b606482015260840161054c565b6001600160a01b03821661185f5760405162461bcd60e51b8152602060048201526024808201527f4552433732313a207472616e7366657220746f20746865207a65726f206164646044820152637265737360e01b606482015260840161054c565b61186a838383611c6a565b611875600082611607565b6001600160a01b038316600090815260036020526040812080546001929061189e9084906128ad565b90915550506001600160a01b03821660009081526003602052604081208054600192906118cc9084906128c4565b909155505060008181526002602052604080822080546001600160a01b0319166001600160a01b0386811691821790925591518493918716917fddf252ad1be2c89b69c2b068fc378daa952ba7f163c4a11628f55a4df523b3ef91a4505050565b600061193882610d03565b905061194681600084611c6a565b611951600083611607565b6001600160a01b038116600090815260036020526040812080546001929061197a9084906128ad565b909155505060008281526002602052604080822080546001600160a01b0319169055518391906001600160a01b038416907fddf252ad1be2c89b69c2b068fc378daa952ba7f163c4a11628f55a4df523b3ef908390a45050565b600a80546001600160a01b038381166001600160a01b0319831681179093556040519116919082907f8be0079c531659141344cd1fd0a4f28419497f9722a3daafe3b4186f6b6457e090600090a35050565b816001600160a01b0316836001600160a01b031603611a875760405162461bcd60e51b815260206004820152601960248201527f4552433732313a20617070726f766520746f2063616c6c657200000000000000604482015260640161054c565b6001600160a01b03838116600081815260056020908152604080832094871680845294825291829020805460ff191686151590811790915591519182527f17307eab39ab6107e8899845ad3d59bd9653f200f220920489ca2b5937696c31910160405180910390a3505050565b611aff848484611786565b611b0b84848484611cfd565b6113c05760405162461bcd60e51b815260040161054c9061290b565b6060600b805461060c906127a6565b606081600003611b5d5750506040805180820190915260018152600360fc1b602082015290565b8160005b8115611b875780611b718161282d565b9150611b809050600a83612973565b9150611b61565b60008167ffffffffffffffff811115611ba257611ba261240f565b6040519080825280601f01601f191660200182016040528015611bcc576020820181803683370190505b5090505b841561177e57611be16001836128ad565b9150611bee600a86612987565b611bf99060306128c4565b60f81b818381518110611c0e57611c0e612897565b60200101906001600160f81b031916908160001a905350611c30600a86612973565b9450611bd0565b611c418383611dfe565b611c4e6000848484611cfd565b6108345760405162461bcd60e51b815260040161054c9061290b565b611c75838383611f4c565b6000818152600d602052604090206004015460ff16156108345760405162461bcd60e51b815260206004820152603760248201527f546869732067656172206973206c6f636b6564206279206f776e657220616e6460448201527f2063616e206e6f74206265207472616e73666572726564000000000000000000606482015260840161054c565b60006001600160a01b0384163b15611df357604051630a85bd0160e11b81526001600160a01b0385169063150b7a0290611d4190339089908890889060040161299b565b6020604051808303816000875af1925050508015611d7c575060408051601f3d908101601f19168201909252611d79918101906129d8565b60015b611dd9573d808015611daa576040519150601f19603f3d011682016040523d82523d6000602084013e611daf565b606091505b508051600003611dd15760405162461bcd60e51b815260040161054c9061290b565b805181602001fd5b6001600160e01b031916630a85bd0160e11b14905061177e565b506001949350505050565b6001600160a01b038216611e545760405162461bcd60e51b815260206004820181905260248201527f4552433732313a206d696e7420746f20746865207a65726f2061646472657373604482015260640161054c565b6000818152600260205260409020546001600160a01b031615611eb95760405162461bcd60e51b815260206004820152601c60248201527f4552433732313a20746f6b656e20616c7265616479206d696e74656400000000604482015260640161054c565b611ec560008383611c6a565b6001600160a01b0382166000908152600360205260408120805460019290611eee9084906128c4565b909155505060008181526002602052604080822080546001600160a01b0319166001600160a01b03861690811790915590518392907fddf252ad1be2c89b69c2b068fc378daa952ba7f163c4a11628f55a4df523b3ef908290a45050565b6001600160a01b038316611fa757611fa281600880546000838152600960205260408120829055600182018355919091527ff3f7a9fe364faab93b216da50a3214154f22a0a2b415b23a84c8169e8b636ee30155565b611fca565b816001600160a01b0316836001600160a01b031614611fca57611fca8382612004565b6001600160a01b038216611fe157610834816120a1565b826001600160a01b0316826001600160a01b031614610834576108348282612150565b6000600161201184610d7a565b61201b91906128ad565b60008381526007602052604090205490915080821461206e576001600160a01b03841660009081526006602090815260408083208584528252808320548484528184208190558352600790915290208190555b5060009182526007602090815260408084208490556001600160a01b039094168352600681528383209183525290812055565b6008546000906120b3906001906128ad565b600083815260096020526040812054600880549394509092849081106120db576120db612897565b9060005260206000200154905080600883815481106120fc576120fc612897565b6000918252602080832090910192909255828152600990915260408082208490558582528120556008805480612134576121346129f5565b6001900381819060005260206000200160009055905550505050565b600061215b83610d7a565b6001600160a01b039093166000908152600660209081526040808320868452825280832085905593825260079052919091209190915550565b8280546121a0906127a6565b90600052602060002090601f0160209004810192826121c25760008555612208565b82601f106121db57805160ff1916838001178555612208565b82800160010185558215612208579182015b828111156122085782518255916020019190600101906121ed565b50612214929150612253565b5090565b6040805160c0810190915280600081526020016000815260200160008152602001600081526020016000151581526020016000151581525090565b5b808211156122145760008155600101612254565b80356001600160a01b038116811461227f57600080fd5b919050565b60008060006060848603121561229957600080fd5b6122a284612268565b92506122b060208501612268565b9150604084013590509250925092565b6001600160e01b031981168114610b4c57600080fd5b6000602082840312156122e857600080fd5b813561149a816122c0565b60005b8381101561230e5781810151838201526020016122f6565b838111156113c05750506000910152565b600081518084526123378160208601602086016122f3565b601f01601f19169290920160200192915050565b60208152600061149a602083018461231f565b60006020828403121561237057600080fd5b5035919050565b6000806040838503121561238a57600080fd5b61239383612268565b946020939093013593505050565b600080600080600060a086880312156123b957600080fd5b6123c286612268565b94506020860135600381106123d657600080fd5b94979496505050506040830135926060810135926080909101359150565b60006020828403121561240657600080fd5b61149a82612268565b634e487b7160e01b600052604160045260246000fd5b600067ffffffffffffffff808411156124405761244061240f565b604051601f8501601f19908116603f011681019082821181831017156124685761246861240f565b8160405280935085815286868601111561248157600080fd5b858560208301376000602087830101525050509392505050565b6000602082840312156124ad57600080fd5b813567ffffffffffffffff8111156124c457600080fd5b8201601f810184136124d557600080fd5b61177e84823560208401612425565b600080604083850312156124f757600080fd5b82359150602083013563ffffffff8116811461251257600080fd5b809150509250929050565b6000806040838503121561253057600080fd5b50508035926020909101359150565b634e487b7160e01b600052602160045260246000fd5b6003811061257357634e487b7160e01b600052602160045260246000fd5b9052565b6040808252835182820181905260009190606090818501906020808901865b838110156125b257815185529382019390820190600101612596565b5050868303818801528751808452888201938201925060005b818110156126225784516125e0858251612555565b80840151858501528781015188860152868101518786015260808082015115159086015260a0908101511515908501529382019360c0909301926001016125cb565b50919998505050505050505050565b60c0810161263f8289612555565b60208201969096526040810194909452606084019290925215156080830152151560a090910152919050565b8015158114610b4c57600080fd5b6000806040838503121561268c57600080fd5b61269583612268565b915060208301356125128161266b565b600080600080608085870312156126bb57600080fd5b6126c485612268565b93506126d260208601612268565b925060408501359150606085013567ffffffffffffffff8111156126f557600080fd5b8501601f8101871361270657600080fd5b61271587823560208401612425565b91505092959194509250565b6000806040838503121561273457600080fd5b61273d83612268565b915061274b60208401612268565b90509250929050565b6020808252818101527f4f776e61626c653a2063616c6c6572206973206e6f7420746865206f776e6572604082015260600190565b60006020828403121561279b57600080fd5b815161149a8161266b565b600181811c908216806127ba57607f821691505b6020821081036127da57634e487b7160e01b600052602260045260246000fd5b50919050565b60208082526017908201527f6f6e6c7920636f6c6c656374696f6e206d616e61676572000000000000000000604082015260600190565b634e487b7160e01b600052601160045260246000fd5b60006001820161283f5761283f612817565b5060010190565b60208082526031908201527f4552433732313a207472616e736665722063616c6c6572206973206e6f74206f6040820152701ddb995c881b9bdc88185c1c1c9bdd9959607a1b606082015260800190565b634e487b7160e01b600052603260045260246000fd5b6000828210156128bf576128bf612817565b500390565b600082198211156128d7576128d7612817565b500190565b600083516128ee8184602088016122f3565b8351908301906129028183602088016122f3565b01949350505050565b60208082526032908201527f4552433732313a207472616e7366657220746f206e6f6e20455243373231526560408201527131b2b4bb32b91034b6b83632b6b2b73a32b960711b606082015260800190565b634e487b7160e01b600052601260045260246000fd5b6000826129825761298261295d565b500490565b6000826129965761299661295d565b500690565b6001600160a01b03858116825284166020820152604081018390526080606082018190526000906129ce9083018461231f565b9695505050505050565b6000602082840312156129ea57600080fd5b815161149a816122c0565b634e487b7160e01b600052603160045260246000fdfea2646970667358221220ca5641c85f6f5462ec89e0367fde8c9425dc92fc07554106e014bebe82df90a764736f6c634300080d0033",
  "immutableReferences": {},
  "source": "// SPDX-License-Identifier: MIT\npragma solidity >=0.8.0 <0.9.0;\n\nimport '@openzeppelin/contracts/token/ERC721/extensions/ERC721Enumerable.sol';\nimport '@openzeppelin/contracts/access/Ownable.sol';\nimport '@openzeppelin/contracts/token/ERC20/IERC20.sol';\nimport \"@openzeppelin/contracts/utils/Strings.sol\";\nimport './interfaces/IGears.sol';\n\ncontract Gears is ERC721Enumerable, IGears, Ownable {\n  using Strings for uint256;\n\n  string private nftBaseURI;\n  address public collectionManager;\n  mapping (uint256 => Gear) public gears;\n  mapping (address => uint256) public lastTokenMinted;\n  uint256 public nextIdToMint = 1;\n  bool lock;\n\n\n  modifier onlyCollectionManager {\n    require(msg.sender == collectionManager, 'only collection manager');\n    _;\n  }\n\n  modifier onlyTokenOwnerOrCollectionManager(uint256 tokenId) {\n    require(msg.sender == ownerOf(tokenId) || msg.sender == collectionManager, 'only token owner or collection manager');\n    _;\n  }\n\n  constructor (string memory _nftBaseURI) ERC721('Gears', 'Gear') {\n    nftBaseURI = _nftBaseURI;\n  }\n\n  function setCollectionManager(address _collectionManager) external onlyOwner {\n    collectionManager = _collectionManager;\n  }\n\n  function _baseURI() internal view virtual override returns (string memory) {\n    return nftBaseURI;\n  }\n\n  function setBaseURI(string memory newURI) external override onlyOwner {\n    nftBaseURI = newURI;\n  }\n\n  function getRarityUrlPath(IEnums.Rarity rarity) private pure returns (string memory) {\n    if (rarity == IEnums.Rarity.COMMON) return \"0\";\n    if (rarity == IEnums.Rarity.RARE) return \"1\";\n    return \"2\";\n  }\n\n  function tokenURI(uint256 tokenId) public view virtual override returns (string memory) {\n    require(_exists(tokenId), \"ERC721Metadata: URI query for nonexistent token\");\n\n    string memory baseURI = _baseURI();\n    return bytes(baseURI).length > 0 ? string(abi.encodePacked(\n      baseURI, \n      tokenId.toString()\n      )) : \"\";\n  }\n\n  function lastOwnedTokenURI() external view returns (string memory) {\n    require (lastTokenMinted[msg.sender] != 0, \"User hasn't minted any token\");\n    return tokenURI(lastTokenMinted[msg.sender]);\n  }\n\n\n  function mint(address receiver, IEnums.Rarity rarity, uint256 gearType, uint256 category, uint256 durability) external onlyCollectionManager {\n    require(!lock, 'locked');\n    lock = true;\n    Gear memory _gear = Gear(rarity, gearType, category, durability, false, true);\n    gears[nextIdToMint] = _gear;\n    _safeMint(receiver, nextIdToMint);\n    lastTokenMinted[receiver] = nextIdToMint;\n    nextIdToMint++;\n    lock = false;\n  }\n\n  function burn(uint256 tokenId) external onlyCollectionManager {\n    gears[tokenId].locked = false;\n    gears[tokenId].set = false;\n    _burn(tokenId);\n  }\n\n\n  function allMyTokensPaginate(uint256 _from, uint256 _to) external view returns(uint256[] memory, Gear[] memory) {\n    uint256 tokenCount = balanceOf(msg.sender);\n    if (tokenCount <= _from || _from > _to || tokenCount == 0) {\n      return (new uint256[](0), new Gear[](0));\n    }\n    uint256 to = (tokenCount - 1 > _to) ? _to : tokenCount - 1;\n    uint256[] memory result = new uint256[](to - _from + 1);\n    Gear[] memory resultGears = new Gear[](to - _from + 1);\n    for (uint256 i = _from; i <= to; i++) {\n      result[i - _from] = tokenOfOwnerByIndex(msg.sender, i);\n      resultGears[i - _from] = gears[result[i - _from]];\n    }\n    return (result, resultGears);\n  }\n\n  function allTokensPaginate(uint256 _from, uint256 _to) external view returns(uint256[] memory, Gear[] memory) {\n    uint256 tokenCount = ERC721Enumerable.totalSupply();\n    if (tokenCount <= _from || _from > _to || tokenCount == 0) {\n      return (new uint256[](0), new Gear[](0));\n    }\n    uint256 to = (tokenCount - 1 > _to) ? _to : tokenCount - 1;\n    uint256[] memory ids = new uint256[](to - _from + 1);\n    Gear[] memory gearsResult = new Gear[](to - _from + 1);\n    for (uint256 i = _from; i <= to; i++) {\n      ids[i - _from] = tokenByIndex(i);\n      gearsResult[i - _from] = gears[tokenByIndex(i)];\n    }\n    return (ids, gearsResult);\n  }\n\n \n  function lockGear(uint256 tokenId) external onlyCollectionManager {\n    gears[tokenId].locked = true;\n  }\n\n  function unlockGear(uint256 tokenId) external onlyCollectionManager {\n    gears[tokenId].locked = false;\n  }\n\n  function decreaseDurability(uint256 tokenId, uint32 amount) external onlyCollectionManager {\n    if (gears[tokenId].durability <= amount) {\n      gears[tokenId].locked = false;\n      gears[tokenId].set = false;\n       _burn(tokenId);\n    }\n\n    gears[tokenId].durability -= amount;\n  }\n\n  function _beforeTokenTransfer(address from, address to, uint256 tokenId) internal override {\n    super._beforeTokenTransfer(from, to, tokenId);\n\n    require(!gears[tokenId].locked, \"This gear is locked by owner and can not be transferred\");\n  }\n\n  function withdrawToken(address _tokenContract, address _whereTo, uint256 _amount) external onlyOwner {\n    IERC20 tokenContract = IERC20(_tokenContract);\n    tokenContract.transfer(_whereTo, _amount);\n  }\n\n}\n",
  "sourcePath": "/Users/maxim/work/marscolony/contracts/contracts/Gears.sol",
  "compiler": {
    "name": "solc",
    "version": "0.8.13+commit.abaa5c0e.Emscripten.clang"
  },
  "schemaVersion": "3.4.7",
  "updatedAt": "2022-09-14T07:13:35.853Z",
  "networkType": "ethereum",
  "devdoc": {
    "kind": "dev",
    "methods": {
      "approve(address,uint256)": {
        "details": "See {IERC721-approve}."
      },
      "balanceOf(address)": {
        "details": "See {IERC721-balanceOf}."
      },
      "getApproved(uint256)": {
        "details": "See {IERC721-getApproved}."
      },
      "isApprovedForAll(address,address)": {
        "details": "See {IERC721-isApprovedForAll}."
      },
      "name()": {
        "details": "See {IERC721Metadata-name}."
      },
      "owner()": {
        "details": "Returns the address of the current owner."
      },
      "ownerOf(uint256)": {
        "details": "See {IERC721-ownerOf}."
      },
      "renounceOwnership()": {
        "details": "Leaves the contract without owner. It will not be possible to call `onlyOwner` functions anymore. Can only be called by the current owner. NOTE: Renouncing ownership will leave the contract without an owner, thereby removing any functionality that is only available to the owner."
      },
      "safeTransferFrom(address,address,uint256)": {
        "details": "See {IERC721-safeTransferFrom}."
      },
      "safeTransferFrom(address,address,uint256,bytes)": {
        "details": "See {IERC721-safeTransferFrom}."
      },
      "setApprovalForAll(address,bool)": {
        "details": "See {IERC721-setApprovalForAll}."
      },
      "supportsInterface(bytes4)": {
        "details": "See {IERC165-supportsInterface}."
      },
      "symbol()": {
        "details": "See {IERC721Metadata-symbol}."
      },
      "tokenByIndex(uint256)": {
        "details": "See {IERC721Enumerable-tokenByIndex}."
      },
      "tokenOfOwnerByIndex(address,uint256)": {
        "details": "See {IERC721Enumerable-tokenOfOwnerByIndex}."
      },
      "tokenURI(uint256)": {
        "details": "See {IERC721Metadata-tokenURI}."
      },
      "totalSupply()": {
        "details": "See {IERC721Enumerable-totalSupply}."
      },
      "transferFrom(address,address,uint256)": {
        "details": "See {IERC721-transferFrom}."
      },
      "transferOwnership(address)": {
        "details": "Transfers ownership of the contract to a new account (`newOwner`). Can only be called by the current owner."
      }
    },
    "version": 1
  },
  "userdoc": {
    "kind": "user",
    "methods": {},
    "version": 1
  }
}