{
  "contractName": "MartianColonists",
  "abi": [
    {
      "inputs": [
        {
          "internalType": "string",
          "name": "_nftBaseURI",
          "type": "string"
        }
      ],
      "stateMutability": "nonpayable",
      "type": "constructor"
    },
    {
      "anonymous": false,
      "inputs": [
        {
          "indexed": true,
          "internalType": "address",
          "name": "owner",
          "type": "address"
        },
        {
          "indexed": true,
          "internalType": "address",
          "name": "approved",
          "type": "address"
        },
        {
          "indexed": true,
          "internalType": "uint256",
          "name": "tokenId",
          "type": "uint256"
        }
      ],
      "name": "Approval",
      "type": "event"
    },
    {
      "anonymous": false,
      "inputs": [
        {
          "indexed": true,
          "internalType": "address",
          "name": "owner",
          "type": "address"
        },
        {
          "indexed": true,
          "internalType": "address",
          "name": "operator",
          "type": "address"
        },
        {
          "indexed": false,
          "internalType": "bool",
          "name": "approved",
          "type": "bool"
        }
      ],
      "name": "ApprovalForAll",
      "type": "event"
    },
    {
      "anonymous": false,
      "inputs": [
        {
          "indexed": true,
          "internalType": "address",
          "name": "previousOwner",
          "type": "address"
        },
        {
          "indexed": true,
          "internalType": "address",
          "name": "newOwner",
          "type": "address"
        }
      ],
      "name": "OwnershipTransferred",
      "type": "event"
    },
    {
      "anonymous": false,
      "inputs": [
        {
          "indexed": true,
          "internalType": "address",
          "name": "from",
          "type": "address"
        },
        {
          "indexed": true,
          "internalType": "address",
          "name": "to",
          "type": "address"
        },
        {
          "indexed": true,
          "internalType": "uint256",
          "name": "tokenId",
          "type": "uint256"
        }
      ],
      "name": "Transfer",
      "type": "event"
    },
    {
      "inputs": [
        {
          "internalType": "address",
          "name": "to",
          "type": "address"
        },
        {
          "internalType": "uint256",
          "name": "tokenId",
          "type": "uint256"
        }
      ],
      "name": "approve",
      "outputs": [],
      "stateMutability": "nonpayable",
      "type": "function"
    },
    {
      "inputs": [],
      "name": "avatarManager",
      "outputs": [
        {
          "internalType": "address",
          "name": "",
          "type": "address"
        }
      ],
      "stateMutability": "view",
      "type": "function",
      "constant": true
    },
    {
      "inputs": [
        {
          "internalType": "address",
          "name": "owner",
          "type": "address"
        }
      ],
      "name": "balanceOf",
      "outputs": [
        {
          "internalType": "uint256",
          "name": "",
          "type": "uint256"
        }
      ],
      "stateMutability": "view",
      "type": "function",
      "constant": true
    },
    {
      "inputs": [
        {
          "internalType": "uint256",
          "name": "tokenId",
          "type": "uint256"
        }
      ],
      "name": "getApproved",
      "outputs": [
        {
          "internalType": "address",
          "name": "",
          "type": "address"
        }
      ],
      "stateMutability": "view",
      "type": "function",
      "constant": true
    },
    {
      "inputs": [
        {
          "internalType": "address",
          "name": "owner",
          "type": "address"
        },
        {
          "internalType": "address",
          "name": "operator",
          "type": "address"
        }
      ],
      "name": "isApprovedForAll",
      "outputs": [
        {
          "internalType": "bool",
          "name": "",
          "type": "bool"
        }
      ],
      "stateMutability": "view",
      "type": "function",
      "constant": true
    },
    {
      "inputs": [],
      "name": "name",
      "outputs": [
        {
          "internalType": "string",
          "name": "",
          "type": "string"
        }
      ],
      "stateMutability": "view",
      "type": "function",
      "constant": true
    },
    {
      "inputs": [
        {
          "internalType": "uint256",
          "name": "",
          "type": "uint256"
        }
      ],
      "name": "names",
      "outputs": [
        {
          "internalType": "string",
          "name": "",
          "type": "string"
        }
      ],
      "stateMutability": "view",
      "type": "function",
      "constant": true
    },
    {
      "inputs": [],
      "name": "owner",
      "outputs": [
        {
          "internalType": "address",
          "name": "",
          "type": "address"
        }
      ],
      "stateMutability": "view",
      "type": "function",
      "constant": true
    },
    {
      "inputs": [
        {
          "internalType": "uint256",
          "name": "tokenId",
          "type": "uint256"
        }
      ],
      "name": "ownerOf",
      "outputs": [
        {
          "internalType": "address",
          "name": "",
          "type": "address"
        }
      ],
      "stateMutability": "view",
      "type": "function",
      "constant": true
    },
    {
      "inputs": [],
      "name": "renounceOwnership",
      "outputs": [],
      "stateMutability": "nonpayable",
      "type": "function"
    },
    {
      "inputs": [
        {
          "internalType": "address",
          "name": "from",
          "type": "address"
        },
        {
          "internalType": "address",
          "name": "to",
          "type": "address"
        },
        {
          "internalType": "uint256",
          "name": "tokenId",
          "type": "uint256"
        }
      ],
      "name": "safeTransferFrom",
      "outputs": [],
      "stateMutability": "nonpayable",
      "type": "function"
    },
    {
      "inputs": [
        {
          "internalType": "address",
          "name": "from",
          "type": "address"
        },
        {
          "internalType": "address",
          "name": "to",
          "type": "address"
        },
        {
          "internalType": "uint256",
          "name": "tokenId",
          "type": "uint256"
        },
        {
          "internalType": "bytes",
          "name": "_data",
          "type": "bytes"
        }
      ],
      "name": "safeTransferFrom",
      "outputs": [],
      "stateMutability": "nonpayable",
      "type": "function"
    },
    {
      "inputs": [
        {
          "internalType": "address",
          "name": "operator",
          "type": "address"
        },
        {
          "internalType": "bool",
          "name": "approved",
          "type": "bool"
        }
      ],
      "name": "setApprovalForAll",
      "outputs": [],
      "stateMutability": "nonpayable",
      "type": "function"
    },
    {
      "inputs": [
        {
          "internalType": "bytes4",
          "name": "interfaceId",
          "type": "bytes4"
        }
      ],
      "name": "supportsInterface",
      "outputs": [
        {
          "internalType": "bool",
          "name": "",
          "type": "bool"
        }
      ],
      "stateMutability": "view",
      "type": "function",
      "constant": true
    },
    {
      "inputs": [],
      "name": "symbol",
      "outputs": [
        {
          "internalType": "string",
          "name": "",
          "type": "string"
        }
      ],
      "stateMutability": "view",
      "type": "function",
      "constant": true
    },
    {
      "inputs": [
        {
          "internalType": "uint256",
          "name": "index",
          "type": "uint256"
        }
      ],
      "name": "tokenByIndex",
      "outputs": [
        {
          "internalType": "uint256",
          "name": "",
          "type": "uint256"
        }
      ],
      "stateMutability": "view",
      "type": "function",
      "constant": true
    },
    {
      "inputs": [
        {
          "internalType": "address",
          "name": "owner",
          "type": "address"
        },
        {
          "internalType": "uint256",
          "name": "index",
          "type": "uint256"
        }
      ],
      "name": "tokenOfOwnerByIndex",
      "outputs": [
        {
          "internalType": "uint256",
          "name": "",
          "type": "uint256"
        }
      ],
      "stateMutability": "view",
      "type": "function",
      "constant": true
    },
    {
      "inputs": [
        {
          "internalType": "uint256",
          "name": "tokenId",
          "type": "uint256"
        }
      ],
      "name": "tokenURI",
      "outputs": [
        {
          "internalType": "string",
          "name": "",
          "type": "string"
        }
      ],
      "stateMutability": "view",
      "type": "function",
      "constant": true
    },
    {
      "inputs": [],
      "name": "totalSupply",
      "outputs": [
        {
          "internalType": "uint256",
          "name": "",
          "type": "uint256"
        }
      ],
      "stateMutability": "view",
      "type": "function",
      "constant": true
    },
    {
      "inputs": [
        {
          "internalType": "address",
          "name": "from",
          "type": "address"
        },
        {
          "internalType": "address",
          "name": "to",
          "type": "address"
        },
        {
          "internalType": "uint256",
          "name": "tokenId",
          "type": "uint256"
        }
      ],
      "name": "transferFrom",
      "outputs": [],
      "stateMutability": "nonpayable",
      "type": "function"
    },
    {
      "inputs": [
        {
          "internalType": "address",
          "name": "newOwner",
          "type": "address"
        }
      ],
      "name": "transferOwnership",
      "outputs": [],
      "stateMutability": "nonpayable",
      "type": "function"
    },
    {
      "inputs": [
        {
          "internalType": "address",
          "name": "_avatarManager",
          "type": "address"
        }
      ],
      "name": "setAvatarManager",
      "outputs": [],
      "stateMutability": "nonpayable",
      "type": "function"
    },
    {
      "inputs": [
        {
          "internalType": "string",
          "name": "newURI",
          "type": "string"
        }
      ],
      "name": "setBaseURI",
      "outputs": [],
      "stateMutability": "nonpayable",
      "type": "function"
    },
    {
      "inputs": [
        {
          "internalType": "address",
          "name": "receiver",
          "type": "address"
        }
      ],
      "name": "mint",
      "outputs": [],
      "stateMutability": "nonpayable",
      "type": "function"
    },
    {
      "inputs": [
        {
          "internalType": "uint256",
          "name": "tokenId",
          "type": "uint256"
        },
        {
          "internalType": "string",
          "name": "_name",
          "type": "string"
        }
      ],
      "name": "setName",
      "outputs": [],
      "stateMutability": "nonpayable",
      "type": "function"
    },
    {
      "inputs": [
        {
          "internalType": "address",
          "name": "_tokenContract",
          "type": "address"
        },
        {
          "internalType": "address",
          "name": "_whereTo",
          "type": "address"
        },
        {
          "internalType": "uint256",
          "name": "_amount",
          "type": "uint256"
        }
      ],
      "name": "withdrawToken",
      "outputs": [],
      "stateMutability": "nonpayable",
      "type": "function"
    }
  ],
  "bytecode": "0x60806040523480156200001157600080fd5b5060405162002217380380620022178339810160408190526200003491620001ea565b60408051808201825260118152704d61727469616e20436f6c6f6e6973747360781b6020808301918252835180850190945260038452621350d360ea1b90840152815191929162000088916000916200012e565b5080516200009e9060019060208401906200012e565b505050620000bb620000b5620000d860201b60201c565b620000dc565b8051620000d090600b9060208401906200012e565b505062000303565b3390565b600a80546001600160a01b038381166001600160a01b0319831681179093556040519116919082907f8be0079c531659141344cd1fd0a4f28419497f9722a3daafe3b4186f6b6457e090600090a35050565b8280546200013c90620002c6565b90600052602060002090601f016020900481019282620001605760008555620001ab565b82601f106200017b57805160ff1916838001178555620001ab565b82800160010185558215620001ab579182015b82811115620001ab5782518255916020019190600101906200018e565b50620001b9929150620001bd565b5090565b5b80821115620001b95760008155600101620001be565b634e487b7160e01b600052604160045260246000fd5b60006020808385031215620001fe57600080fd5b82516001600160401b03808211156200021657600080fd5b818501915085601f8301126200022b57600080fd5b815181811115620002405762000240620001d4565b604051601f8201601f19908116603f011681019083821181831017156200026b576200026b620001d4565b8160405282815288868487010111156200028457600080fd5b600093505b82841015620002a8578484018601518185018701529285019262000289565b82841115620002ba5760008684830101525b98975050505050505050565b600181811c90821680620002db57607f821691505b60208210811415620002fd57634e487b7160e01b600052602260045260246000fd5b50919050565b611f0480620003136000396000f3fe608060405234801561001057600080fd5b506004361061018e5760003560e01c80636352211e116100de57806395d89b4111610097578063c87b56dd11610071578063c87b56dd1461034d578063e985e9c514610360578063f2fde38b1461039c578063fe55932a146103af57600080fd5b806395d89b411461031f578063a22cb46514610327578063b88d4fde1461033a57600080fd5b80636352211e146102ba5780636a627842146102cd57806370a08231146102e0578063715018a6146102f35780637d8da79c146102fb5780638da5cb5b1461030e57600080fd5b806323b872dd1161014b57806342842e0e1161012557806342842e0e1461026e5780634622ab03146102815780634f6ccce71461029457806355f804b3146102a757600080fd5b806323b872dd146102355780632f745c5914610248578063328cff361461025b57600080fd5b806301e336671461019357806301ffc9a7146101a857806306fdde03146101d0578063081812fc146101e5578063095ea7b31461021057806318160ddd14610223575b600080fd5b6101a66101a13660046118f7565b6103c2565b005b6101bb6101b6366004611949565b610472565b60405190151581526020015b60405180910390f35b6101d861049d565b6040516101c791906119be565b6101f86101f33660046119d1565b61052f565b6040516001600160a01b0390911681526020016101c7565b6101a661021e3660046119ea565b6105c4565b6008545b6040519081526020016101c7565b6101a66102433660046118f7565b6106da565b6102276102563660046119ea565b61070b565b600c546101f8906001600160a01b031681565b6101a661027c3660046118f7565b6107a1565b6101d861028f3660046119d1565b6107bc565b6102276102a23660046119d1565b610856565b6101a66102b5366004611ac0565b6108e9565b6101f86102c83660046119d1565b61092a565b6101a66102db366004611af5565b6109a1565b6102276102ee366004611af5565b610a64565b6101a6610aeb565b6101a6610309366004611af5565b610b21565b600a546001600160a01b03166101f8565b6101d8610b6d565b6101a6610335366004611b1e565b610b7c565b6101a6610348366004611b55565b610b87565b6101d861035b3660046119d1565b610bbf565b6101bb61036e366004611bd1565b6001600160a01b03918216600090815260056020908152604080832093909416825291909152205460ff1690565b6101a66103aa366004611af5565b610c9a565b6101a66103bd366004611c04565b610d35565b600a546001600160a01b031633146103f55760405162461bcd60e51b81526004016103ec90611c4b565b60405180910390fd5b60405163a9059cbb60e01b81526001600160a01b0383811660048301526024820183905284919082169063a9059cbb906044016020604051808303816000875af1158015610447573d6000803e3d6000fd5b505050506040513d601f19601f8201168201806040525081019061046b9190611c80565b5050505050565b60006001600160e01b0319821663780e9d6360e01b1480610497575061049782610da4565b92915050565b6060600080546104ac90611c9d565b80601f01602080910402602001604051908101604052809291908181526020018280546104d890611c9d565b80156105255780601f106104fa57610100808354040283529160200191610525565b820191906000526020600020905b81548152906001019060200180831161050857829003601f168201915b5050505050905090565b6000818152600260205260408120546001600160a01b03166105a85760405162461bcd60e51b815260206004820152602c60248201527f4552433732313a20617070726f76656420717565727920666f72206e6f6e657860448201526b34b9ba32b73a103a37b5b2b760a11b60648201526084016103ec565b506000908152600460205260409020546001600160a01b031690565b60006105cf8261092a565b9050806001600160a01b0316836001600160a01b0316141561063d5760405162461bcd60e51b815260206004820152602160248201527f4552433732313a20617070726f76616c20746f2063757272656e74206f776e656044820152603960f91b60648201526084016103ec565b336001600160a01b03821614806106595750610659813361036e565b6106cb5760405162461bcd60e51b815260206004820152603860248201527f4552433732313a20617070726f76652063616c6c6572206973206e6f74206f7760448201527f6e6572206e6f7220617070726f76656420666f7220616c6c000000000000000060648201526084016103ec565b6106d58383610df4565b505050565b6106e43382610e62565b6107005760405162461bcd60e51b81526004016103ec90611cd8565b6106d5838383610f59565b600061071683610a64565b82106107785760405162461bcd60e51b815260206004820152602b60248201527f455243373231456e756d657261626c653a206f776e657220696e646578206f7560448201526a74206f6620626f756e647360a81b60648201526084016103ec565b506001600160a01b03919091166000908152600660209081526040808320938352929052205490565b6106d583838360405180602001604052806000815250610b87565b600d60205260009081526040902080546107d590611c9d565b80601f016020809104026020016040519081016040528092919081815260200182805461080190611c9d565b801561084e5780601f106108235761010080835404028352916020019161084e565b820191906000526020600020905b81548152906001019060200180831161083157829003601f168201915b505050505081565b600061086160085490565b82106108c45760405162461bcd60e51b815260206004820152602c60248201527f455243373231456e756d657261626c653a20676c6f62616c20696e646578206f60448201526b7574206f6620626f756e647360a01b60648201526084016103ec565b600882815481106108d7576108d7611d29565b90600052602060002001549050919050565b600a546001600160a01b031633146109135760405162461bcd60e51b81526004016103ec90611c4b565b805161092690600b906020840190611842565b5050565b6000818152600260205260408120546001600160a01b0316806104975760405162461bcd60e51b815260206004820152602960248201527f4552433732313a206f776e657220717565727920666f72206e6f6e657869737460448201526832b73a103a37b5b2b760b91b60648201526084016103ec565b600c546001600160a01b031633146109f15760405162461bcd60e51b815260206004820152601360248201527237b7363c9030bb30ba30b91036b0b730b3b2b960691b60448201526064016103ec565b600e5460ff1615610a2d5760405162461bcd60e51b81526020600482015260066024820152651b1bd8dad95960d21b60448201526064016103ec565b600e805460ff19166001179055610a5781610a4760085490565b610a52906001611d55565b611100565b50600e805460ff19169055565b60006001600160a01b038216610acf5760405162461bcd60e51b815260206004820152602a60248201527f4552433732313a2062616c616e636520717565727920666f7220746865207a65604482015269726f206164647265737360b01b60648201526084016103ec565b506001600160a01b031660009081526003602052604090205490565b600a546001600160a01b03163314610b155760405162461bcd60e51b81526004016103ec90611c4b565b610b1f600061111a565b565b600a546001600160a01b03163314610b4b5760405162461bcd60e51b81526004016103ec90611c4b565b600c80546001600160a01b0319166001600160a01b0392909216919091179055565b6060600180546104ac90611c9d565b61092633838361116c565b610b913383610e62565b610bad5760405162461bcd60e51b81526004016103ec90611cd8565b610bb98484848461123b565b50505050565b6000818152600260205260409020546060906001600160a01b0316610c3e5760405162461bcd60e51b815260206004820152602f60248201527f4552433732314d657461646174613a2055524920717565727920666f72206e6f60448201526e3732bc34b9ba32b73a103a37b5b2b760891b60648201526084016103ec565b6000610c4861126e565b90506000815111610c685760405180602001604052806000815250610c93565b80610c728461127d565b604051602001610c83929190611d6d565b6040516020818303038152906040525b9392505050565b600a546001600160a01b03163314610cc45760405162461bcd60e51b81526004016103ec90611c4b565b6001600160a01b038116610d295760405162461bcd60e51b815260206004820152602660248201527f4f776e61626c653a206e6577206f776e657220697320746865207a65726f206160448201526564647265737360d01b60648201526084016103ec565b610d328161111a565b50565b600c546001600160a01b03163314610d855760405162461bcd60e51b815260206004820152601360248201527237b7363c9030bb30ba30b91036b0b730b3b2b960691b60448201526064016103ec565b6000828152600d6020908152604090912082516106d592840190611842565b60006001600160e01b031982166380ac58cd60e01b1480610dd557506001600160e01b03198216635b5e139f60e01b145b8061049757506301ffc9a760e01b6001600160e01b0319831614610497565b600081815260046020526040902080546001600160a01b0319166001600160a01b0384169081179091558190610e298261092a565b6001600160a01b03167f8c5be1e5ebec7d5bd14f71427d1e84f3dd0314c0f7b2291e5b200ac8c7c3b92560405160405180910390a45050565b6000818152600260205260408120546001600160a01b0316610edb5760405162461bcd60e51b815260206004820152602c60248201527f4552433732313a206f70657261746f7220717565727920666f72206e6f6e657860448201526b34b9ba32b73a103a37b5b2b760a11b60648201526084016103ec565b6000610ee68361092a565b9050806001600160a01b0316846001600160a01b03161480610f215750836001600160a01b0316610f168461052f565b6001600160a01b0316145b80610f5157506001600160a01b0380821660009081526005602090815260408083209388168352929052205460ff165b949350505050565b826001600160a01b0316610f6c8261092a565b6001600160a01b031614610fd05760405162461bcd60e51b815260206004820152602560248201527f4552433732313a207472616e736665722066726f6d20696e636f72726563742060448201526437bbb732b960d91b60648201526084016103ec565b6001600160a01b0382166110325760405162461bcd60e51b8152602060048201526024808201527f4552433732313a207472616e7366657220746f20746865207a65726f206164646044820152637265737360e01b60648201526084016103ec565b61103d83838361137b565b611048600082610df4565b6001600160a01b0383166000908152600360205260408120805460019290611071908490611d9c565b90915550506001600160a01b038216600090815260036020526040812080546001929061109f908490611d55565b909155505060008181526002602052604080822080546001600160a01b0319166001600160a01b0386811691821790925591518493918716917fddf252ad1be2c89b69c2b068fc378daa952ba7f163c4a11628f55a4df523b3ef91a4505050565b610926828260405180602001604052806000815250611433565b600a80546001600160a01b038381166001600160a01b0319831681179093556040519116919082907f8be0079c531659141344cd1fd0a4f28419497f9722a3daafe3b4186f6b6457e090600090a35050565b816001600160a01b0316836001600160a01b031614156111ce5760405162461bcd60e51b815260206004820152601960248201527f4552433732313a20617070726f766520746f2063616c6c65720000000000000060448201526064016103ec565b6001600160a01b03838116600081815260056020908152604080832094871680845294825291829020805460ff191686151590811790915591519182527f17307eab39ab6107e8899845ad3d59bd9653f200f220920489ca2b5937696c31910160405180910390a3505050565b611246848484610f59565b61125284848484611466565b610bb95760405162461bcd60e51b81526004016103ec90611db3565b6060600b80546104ac90611c9d565b6060816112a15750506040805180820190915260018152600360fc1b602082015290565b8160005b81156112cb57806112b581611e05565b91506112c49050600a83611e36565b91506112a5565b60008167ffffffffffffffff8111156112e6576112e6611a14565b6040519080825280601f01601f191660200182016040528015611310576020820181803683370190505b5090505b8415610f5157611325600183611d9c565b9150611332600a86611e4a565b61133d906030611d55565b60f81b81838151811061135257611352611d29565b60200101906001600160f81b031916908160001a905350611374600a86611e36565b9450611314565b6001600160a01b0383166113d6576113d181600880546000838152600960205260408120829055600182018355919091527ff3f7a9fe364faab93b216da50a3214154f22a0a2b415b23a84c8169e8b636ee30155565b6113f9565b816001600160a01b0316836001600160a01b0316146113f9576113f98382611564565b6001600160a01b038216611410576106d581611601565b826001600160a01b0316826001600160a01b0316146106d5576106d582826116b0565b61143d83836116f4565b61144a6000848484611466565b6106d55760405162461bcd60e51b81526004016103ec90611db3565b60006001600160a01b0384163b1561155957604051630a85bd0160e11b81526001600160a01b0385169063150b7a02906114aa903390899088908890600401611e5e565b6020604051808303816000875af19250505080156114e5575060408051601f3d908101601f191682019092526114e291810190611e9b565b60015b61153f573d808015611513576040519150601f19603f3d011682016040523d82523d6000602084013e611518565b606091505b5080516115375760405162461bcd60e51b81526004016103ec90611db3565b805181602001fd5b6001600160e01b031916630a85bd0160e11b149050610f51565b506001949350505050565b6000600161157184610a64565b61157b9190611d9c565b6000838152600760205260409020549091508082146115ce576001600160a01b03841660009081526006602090815260408083208584528252808320548484528184208190558352600790915290208190555b5060009182526007602090815260408084208490556001600160a01b039094168352600681528383209183525290812055565b60085460009061161390600190611d9c565b6000838152600960205260408120546008805493945090928490811061163b5761163b611d29565b90600052602060002001549050806008838154811061165c5761165c611d29565b600091825260208083209091019290925582815260099091526040808220849055858252812055600880548061169457611694611eb8565b6001900381819060005260206000200160009055905550505050565b60006116bb83610a64565b6001600160a01b039093166000908152600660209081526040808320868452825280832085905593825260079052919091209190915550565b6001600160a01b03821661174a5760405162461bcd60e51b815260206004820181905260248201527f4552433732313a206d696e7420746f20746865207a65726f206164647265737360448201526064016103ec565b6000818152600260205260409020546001600160a01b0316156117af5760405162461bcd60e51b815260206004820152601c60248201527f4552433732313a20746f6b656e20616c7265616479206d696e7465640000000060448201526064016103ec565b6117bb6000838361137b565b6001600160a01b03821660009081526003602052604081208054600192906117e4908490611d55565b909155505060008181526002602052604080822080546001600160a01b0319166001600160a01b03861690811790915590518392907fddf252ad1be2c89b69c2b068fc378daa952ba7f163c4a11628f55a4df523b3ef908290a45050565b82805461184e90611c9d565b90600052602060002090601f01602090048101928261187057600085556118b6565b82601f1061188957805160ff19168380011785556118b6565b828001600101855582156118b6579182015b828111156118b657825182559160200191906001019061189b565b506118c29291506118c6565b5090565b5b808211156118c257600081556001016118c7565b80356001600160a01b03811681146118f257600080fd5b919050565b60008060006060848603121561190c57600080fd5b611915846118db565b9250611923602085016118db565b9150604084013590509250925092565b6001600160e01b031981168114610d3257600080fd5b60006020828403121561195b57600080fd5b8135610c9381611933565b60005b83811015611981578181015183820152602001611969565b83811115610bb95750506000910152565b600081518084526119aa816020860160208601611966565b601f01601f19169290920160200192915050565b602081526000610c936020830184611992565b6000602082840312156119e357600080fd5b5035919050565b600080604083850312156119fd57600080fd5b611a06836118db565b946020939093013593505050565b634e487b7160e01b600052604160045260246000fd5b600067ffffffffffffffff80841115611a4557611a45611a14565b604051601f8501601f19908116603f01168101908282118183101715611a6d57611a6d611a14565b81604052809350858152868686011115611a8657600080fd5b858560208301376000602087830101525050509392505050565b600082601f830112611ab157600080fd5b610c9383833560208501611a2a565b600060208284031215611ad257600080fd5b813567ffffffffffffffff811115611ae957600080fd5b610f5184828501611aa0565b600060208284031215611b0757600080fd5b610c93826118db565b8015158114610d3257600080fd5b60008060408385031215611b3157600080fd5b611b3a836118db565b91506020830135611b4a81611b10565b809150509250929050565b60008060008060808587031215611b6b57600080fd5b611b74856118db565b9350611b82602086016118db565b925060408501359150606085013567ffffffffffffffff811115611ba557600080fd5b8501601f81018713611bb657600080fd5b611bc587823560208401611a2a565b91505092959194509250565b60008060408385031215611be457600080fd5b611bed836118db565b9150611bfb602084016118db565b90509250929050565b60008060408385031215611c1757600080fd5b82359150602083013567ffffffffffffffff811115611c3557600080fd5b611c4185828601611aa0565b9150509250929050565b6020808252818101527f4f776e61626c653a2063616c6c6572206973206e6f7420746865206f776e6572604082015260600190565b600060208284031215611c9257600080fd5b8151610c9381611b10565b600181811c90821680611cb157607f821691505b60208210811415611cd257634e487b7160e01b600052602260045260246000fd5b50919050565b60208082526031908201527f4552433732313a207472616e736665722063616c6c6572206973206e6f74206f6040820152701ddb995c881b9bdc88185c1c1c9bdd9959607a1b606082015260800190565b634e487b7160e01b600052603260045260246000fd5b634e487b7160e01b600052601160045260246000fd5b60008219821115611d6857611d68611d3f565b500190565b60008351611d7f818460208801611966565b835190830190611d93818360208801611966565b01949350505050565b600082821015611dae57611dae611d3f565b500390565b60208082526032908201527f4552433732313a207472616e7366657220746f206e6f6e20455243373231526560408201527131b2b4bb32b91034b6b83632b6b2b73a32b960711b606082015260800190565b6000600019821415611e1957611e19611d3f565b5060010190565b634e487b7160e01b600052601260045260246000fd5b600082611e4557611e45611e20565b500490565b600082611e5957611e59611e20565b500690565b6001600160a01b0385811682528416602082015260408101839052608060608201819052600090611e9190830184611992565b9695505050505050565b600060208284031215611ead57600080fd5b8151610c9381611933565b634e487b7160e01b600052603160045260246000fdfea2646970667358221220eb65be579b52d0f14d96f45c879962ba034b82c916d952427f9f2ed77a3e5bf664736f6c634300080b0033",
  "immutableReferences": {},
  "source": "// SPDX-License-Identifier: MIT\npragma solidity >=0.8.0 <0.9.0;\n\nimport '@openzeppelin/contracts/token/ERC721/extensions/ERC721Enumerable.sol';\nimport '@openzeppelin/contracts/access/Ownable.sol';\nimport '@openzeppelin/contracts/token/ERC20/IERC20.sol';\n\n\ncontract MartianColonists is ERC721Enumerable, Ownable {\n  string private nftBaseURI;\n  address public avatarManager;\n  mapping (uint256 => string) public names;\n  bool lock;\n\n  modifier onlyAvatarManager {\n    require(msg.sender == avatarManager, 'only avatar manager');\n    _;\n  }\n\n  constructor (string memory _nftBaseURI) ERC721('Martian Colonists', 'MCL') {\n    nftBaseURI = _nftBaseURI;\n  }\n\n  function setAvatarManager(address _avatarManager) external onlyOwner {\n    avatarManager = _avatarManager;\n  }\n\n  function _baseURI() internal view virtual override returns (string memory) {\n    return nftBaseURI;\n  }\n\n  function setBaseURI(string memory newURI) external onlyOwner {\n    nftBaseURI = newURI;\n  }\n\n  function mint(address receiver) external onlyAvatarManager {\n    require(!lock, 'locked');\n    lock = true;\n    _safeMint(receiver, ERC721Enumerable.totalSupply() + 1); // +1 because we emit 0 and start with 1\n    lock = false;\n  }\n\n  function setName(uint256 tokenId, string memory _name) external onlyAvatarManager {\n    names[tokenId] = _name;\n  }\n\n  function withdrawToken(address _tokenContract, address _whereTo, uint256 _amount) external onlyOwner {\n    IERC20 tokenContract = IERC20(_tokenContract);\n    tokenContract.transfer(_whereTo, _amount);\n  }\n}\n",
  "sourcePath": "/Users/maxim/work/marscolony/contracts/contracts/MartianColonists.sol",
  "compiler": {
    "name": "solc",
    "version": "0.8.11+commit.d7f03943.Emscripten.clang"
  },
  "schemaVersion": "3.4.7",
  "updatedAt": "2022-05-01T09:47:55.288Z",
  "networkType": "ethereum",
  "devdoc": {
    "kind": "dev",
    "methods": {
      "approve(address,uint256)": {
        "details": "See {IERC721-approve}."
      },
      "balanceOf(address)": {
        "details": "See {IERC721-balanceOf}."
      },
      "getApproved(uint256)": {
        "details": "See {IERC721-getApproved}."
      },
      "isApprovedForAll(address,address)": {
        "details": "See {IERC721-isApprovedForAll}."
      },
      "name()": {
        "details": "See {IERC721Metadata-name}."
      },
      "owner()": {
        "details": "Returns the address of the current owner."
      },
      "ownerOf(uint256)": {
        "details": "See {IERC721-ownerOf}."
      },
      "renounceOwnership()": {
        "details": "Leaves the contract without owner. It will not be possible to call `onlyOwner` functions anymore. Can only be called by the current owner. NOTE: Renouncing ownership will leave the contract without an owner, thereby removing any functionality that is only available to the owner."
      },
      "safeTransferFrom(address,address,uint256)": {
        "details": "See {IERC721-safeTransferFrom}."
      },
      "safeTransferFrom(address,address,uint256,bytes)": {
        "details": "See {IERC721-safeTransferFrom}."
      },
      "setApprovalForAll(address,bool)": {
        "details": "See {IERC721-setApprovalForAll}."
      },
      "supportsInterface(bytes4)": {
        "details": "See {IERC165-supportsInterface}."
      },
      "symbol()": {
        "details": "See {IERC721Metadata-symbol}."
      },
      "tokenByIndex(uint256)": {
        "details": "See {IERC721Enumerable-tokenByIndex}."
      },
      "tokenOfOwnerByIndex(address,uint256)": {
        "details": "See {IERC721Enumerable-tokenOfOwnerByIndex}."
      },
      "tokenURI(uint256)": {
        "details": "See {IERC721Metadata-tokenURI}."
      },
      "totalSupply()": {
        "details": "See {IERC721Enumerable-totalSupply}."
      },
      "transferFrom(address,address,uint256)": {
        "details": "See {IERC721-transferFrom}."
      },
      "transferOwnership(address)": {
        "details": "Transfers ownership of the contract to a new account (`newOwner`). Can only be called by the current owner."
      }
    },
    "version": 1
  },
  "userdoc": {
    "kind": "user",
    "methods": {},
    "version": 1
  }
}