{
  "contractName": "MC",
  "abi": [
    {
      "anonymous": false,
      "inputs": [
        {
          "indexed": true,
          "internalType": "address",
          "name": "owner",
          "type": "address"
        },
        {
          "indexed": true,
          "internalType": "address",
          "name": "approved",
          "type": "address"
        },
        {
          "indexed": true,
          "internalType": "uint256",
          "name": "tokenId",
          "type": "uint256"
        }
      ],
      "name": "Approval",
      "type": "event"
    },
    {
      "anonymous": false,
      "inputs": [
        {
          "indexed": true,
          "internalType": "address",
          "name": "owner",
          "type": "address"
        },
        {
          "indexed": true,
          "internalType": "address",
          "name": "operator",
          "type": "address"
        },
        {
          "indexed": false,
          "internalType": "bool",
          "name": "approved",
          "type": "bool"
        }
      ],
      "name": "ApprovalForAll",
      "type": "event"
    },
    {
      "anonymous": false,
      "inputs": [
        {
          "indexed": false,
          "internalType": "address",
          "name": "account",
          "type": "address"
        }
      ],
      "name": "Paused",
      "type": "event"
    },
    {
      "anonymous": false,
      "inputs": [
        {
          "indexed": true,
          "internalType": "address",
          "name": "from",
          "type": "address"
        },
        {
          "indexed": true,
          "internalType": "address",
          "name": "to",
          "type": "address"
        },
        {
          "indexed": true,
          "internalType": "uint256",
          "name": "tokenId",
          "type": "uint256"
        }
      ],
      "name": "Transfer",
      "type": "event"
    },
    {
      "anonymous": false,
      "inputs": [
        {
          "indexed": false,
          "internalType": "address",
          "name": "account",
          "type": "address"
        }
      ],
      "name": "Unpaused",
      "type": "event"
    },
    {
      "inputs": [],
      "name": "DAO",
      "outputs": [
        {
          "internalType": "address",
          "name": "",
          "type": "address"
        }
      ],
      "stateMutability": "view",
      "type": "function"
    },
    {
      "inputs": [],
      "name": "GameManager",
      "outputs": [
        {
          "internalType": "address",
          "name": "",
          "type": "address"
        }
      ],
      "stateMutability": "view",
      "type": "function"
    },
    {
      "inputs": [
        {
          "internalType": "address",
          "name": "to",
          "type": "address"
        },
        {
          "internalType": "uint256",
          "name": "tokenId",
          "type": "uint256"
        }
      ],
      "name": "approve",
      "outputs": [],
      "stateMutability": "nonpayable",
      "type": "function"
    },
    {
      "inputs": [
        {
          "internalType": "address",
          "name": "owner",
          "type": "address"
        }
      ],
      "name": "balanceOf",
      "outputs": [
        {
          "internalType": "uint256",
          "name": "",
          "type": "uint256"
        }
      ],
      "stateMutability": "view",
      "type": "function"
    },
    {
      "inputs": [
        {
          "internalType": "uint256",
          "name": "tokenId",
          "type": "uint256"
        }
      ],
      "name": "getApproved",
      "outputs": [
        {
          "internalType": "address",
          "name": "",
          "type": "address"
        }
      ],
      "stateMutability": "view",
      "type": "function"
    },
    {
      "inputs": [
        {
          "internalType": "address",
          "name": "owner",
          "type": "address"
        },
        {
          "internalType": "address",
          "name": "operator",
          "type": "address"
        }
      ],
      "name": "isApprovedForAll",
      "outputs": [
        {
          "internalType": "bool",
          "name": "",
          "type": "bool"
        }
      ],
      "stateMutability": "view",
      "type": "function"
    },
    {
      "inputs": [],
      "name": "name",
      "outputs": [
        {
          "internalType": "string",
          "name": "",
          "type": "string"
        }
      ],
      "stateMutability": "view",
      "type": "function"
    },
    {
      "inputs": [
        {
          "internalType": "uint256",
          "name": "",
          "type": "uint256"
        }
      ],
      "name": "names",
      "outputs": [
        {
          "internalType": "string",
          "name": "",
          "type": "string"
        }
      ],
      "stateMutability": "view",
      "type": "function"
    },
    {
      "inputs": [
        {
          "internalType": "uint256",
          "name": "tokenId",
          "type": "uint256"
        }
      ],
      "name": "ownerOf",
      "outputs": [
        {
          "internalType": "address",
          "name": "",
          "type": "address"
        }
      ],
      "stateMutability": "view",
      "type": "function"
    },
    {
      "inputs": [],
      "name": "paused",
      "outputs": [
        {
          "internalType": "bool",
          "name": "",
          "type": "bool"
        }
      ],
      "stateMutability": "view",
      "type": "function"
    },
    {
      "inputs": [
        {
          "internalType": "address",
          "name": "from",
          "type": "address"
        },
        {
          "internalType": "address",
          "name": "to",
          "type": "address"
        },
        {
          "internalType": "uint256",
          "name": "tokenId",
          "type": "uint256"
        }
      ],
      "name": "safeTransferFrom",
      "outputs": [],
      "stateMutability": "nonpayable",
      "type": "function"
    },
    {
      "inputs": [
        {
          "internalType": "address",
          "name": "from",
          "type": "address"
        },
        {
          "internalType": "address",
          "name": "to",
          "type": "address"
        },
        {
          "internalType": "uint256",
          "name": "tokenId",
          "type": "uint256"
        },
        {
          "internalType": "bytes",
          "name": "_data",
          "type": "bytes"
        }
      ],
      "name": "safeTransferFrom",
      "outputs": [],
      "stateMutability": "nonpayable",
      "type": "function"
    },
    {
      "inputs": [
        {
          "internalType": "address",
          "name": "operator",
          "type": "address"
        },
        {
          "internalType": "bool",
          "name": "approved",
          "type": "bool"
        }
      ],
      "name": "setApprovalForAll",
      "outputs": [],
      "stateMutability": "nonpayable",
      "type": "function"
    },
    {
      "inputs": [
        {
          "internalType": "address",
          "name": "_GameManager",
          "type": "address"
        }
      ],
      "name": "setGameManager",
      "outputs": [],
      "stateMutability": "nonpayable",
      "type": "function"
    },
    {
      "inputs": [
        {
          "internalType": "bytes4",
          "name": "interfaceId",
          "type": "bytes4"
        }
      ],
      "name": "supportsInterface",
      "outputs": [
        {
          "internalType": "bool",
          "name": "",
          "type": "bool"
        }
      ],
      "stateMutability": "view",
      "type": "function"
    },
    {
      "inputs": [],
      "name": "symbol",
      "outputs": [
        {
          "internalType": "string",
          "name": "",
          "type": "string"
        }
      ],
      "stateMutability": "view",
      "type": "function"
    },
    {
      "inputs": [
        {
          "internalType": "uint256",
          "name": "index",
          "type": "uint256"
        }
      ],
      "name": "tokenByIndex",
      "outputs": [
        {
          "internalType": "uint256",
          "name": "",
          "type": "uint256"
        }
      ],
      "stateMutability": "view",
      "type": "function"
    },
    {
      "inputs": [
        {
          "internalType": "address",
          "name": "owner",
          "type": "address"
        },
        {
          "internalType": "uint256",
          "name": "index",
          "type": "uint256"
        }
      ],
      "name": "tokenOfOwnerByIndex",
      "outputs": [
        {
          "internalType": "uint256",
          "name": "",
          "type": "uint256"
        }
      ],
      "stateMutability": "view",
      "type": "function"
    },
    {
      "inputs": [
        {
          "internalType": "uint256",
          "name": "tokenId",
          "type": "uint256"
        }
      ],
      "name": "tokenURI",
      "outputs": [
        {
          "internalType": "string",
          "name": "",
          "type": "string"
        }
      ],
      "stateMutability": "view",
      "type": "function"
    },
    {
      "inputs": [],
      "name": "totalSupply",
      "outputs": [
        {
          "internalType": "uint256",
          "name": "",
          "type": "uint256"
        }
      ],
      "stateMutability": "view",
      "type": "function"
    },
    {
      "inputs": [
        {
          "internalType": "address",
          "name": "_DAO",
          "type": "address"
        }
      ],
      "name": "transferDAO",
      "outputs": [],
      "stateMutability": "nonpayable",
      "type": "function"
    },
    {
      "inputs": [
        {
          "internalType": "address",
          "name": "from",
          "type": "address"
        },
        {
          "internalType": "address",
          "name": "to",
          "type": "address"
        },
        {
          "internalType": "uint256",
          "name": "tokenId",
          "type": "uint256"
        }
      ],
      "name": "transferFrom",
      "outputs": [],
      "stateMutability": "nonpayable",
      "type": "function"
    },
    {
      "inputs": [
        {
          "internalType": "address",
          "name": "_DAO",
          "type": "address"
        },
        {
          "internalType": "string",
          "name": "_nftBaseURI",
          "type": "string"
        }
      ],
      "name": "initialize",
      "outputs": [],
      "stateMutability": "nonpayable",
      "type": "function"
    },
    {
      "inputs": [
        {
          "internalType": "string",
          "name": "newURI",
          "type": "string"
        }
      ],
      "name": "setBaseURI",
      "outputs": [],
      "stateMutability": "nonpayable",
      "type": "function"
    },
    {
      "inputs": [
        {
          "internalType": "address",
          "name": "receiver",
          "type": "address"
        },
        {
          "internalType": "uint256",
          "name": "tokenId",
          "type": "uint256"
        }
      ],
      "name": "mint",
      "outputs": [],
      "stateMutability": "nonpayable",
      "type": "function"
    },
    {
      "inputs": [],
      "name": "pause",
      "outputs": [],
      "stateMutability": "nonpayable",
      "type": "function"
    },
    {
      "inputs": [],
      "name": "unpause",
      "outputs": [],
      "stateMutability": "nonpayable",
      "type": "function"
    },
    {
      "inputs": [],
      "name": "allMyTokens",
      "outputs": [
        {
          "internalType": "uint256[]",
          "name": "",
          "type": "uint256[]"
        }
      ],
      "stateMutability": "view",
      "type": "function"
    },
    {
      "inputs": [
        {
          "internalType": "uint256",
          "name": "_from",
          "type": "uint256"
        },
        {
          "internalType": "uint256",
          "name": "_to",
          "type": "uint256"
        }
      ],
      "name": "allTokensPaginate",
      "outputs": [
        {
          "internalType": "uint256[]",
          "name": "",
          "type": "uint256[]"
        }
      ],
      "stateMutability": "view",
      "type": "function"
    },
    {
      "inputs": [
        {
          "internalType": "uint256",
          "name": "tokenId",
          "type": "uint256"
        },
        {
          "internalType": "string",
          "name": "_name",
          "type": "string"
        }
      ],
      "name": "setName",
      "outputs": [],
      "stateMutability": "nonpayable",
      "type": "function"
    },
    {
      "inputs": [
        {
          "internalType": "uint256",
          "name": "tokenId",
          "type": "uint256"
        }
      ],
      "name": "getName",
      "outputs": [
        {
          "internalType": "string",
          "name": "",
          "type": "string"
        }
      ],
      "stateMutability": "view",
      "type": "function"
    },
    {
      "inputs": [
        {
          "internalType": "address",
          "name": "_tokenContract",
          "type": "address"
        },
        {
          "internalType": "address",
          "name": "_whereTo",
          "type": "address"
        },
        {
          "internalType": "uint256",
          "name": "_amount",
          "type": "uint256"
        }
      ],
      "name": "withdrawToken",
      "outputs": [],
      "stateMutability": "nonpayable",
      "type": "function"
    }
  ],
  "bytecode": "0x608060405234801561001057600080fd5b50612641806100206000396000f3fe608060405234801561001057600080fd5b50600436106101f05760003560e01c80636b8ff5741161010f578063a8ee0689116100a2578063c87b56dd11610071578063c87b56dd14610412578063e985e9c514610425578063f399e22e14610461578063fe55932a1461047457600080fd5b8063a8ee0689146103d1578063b7127e41146103d9578063b88d4fde146103ec578063bac65854146103ff57600080fd5b80638cabaaee116100de5780638cabaaee1461038357806395d89b41146103a357806398fabd3a146103ab578063a22cb465146103be57600080fd5b80636b8ff5741461034257806370a08231146103555780637a318866146103685780638456cb591461037b57600080fd5b80633f4ba83a116101875780634f6ccce7116101565780634f6ccce7146102fe57806355f804b3146103115780635c975abb146103245780636352211e1461032f57600080fd5b80633f4ba83a146102bd57806340c10f19146102c557806342842e0e146102d85780634622ab03146102eb57600080fd5b8063095ea7b3116101c3578063095ea7b31461027257806318160ddd1461028557806323b872dd146102975780632f745c59146102aa57600080fd5b806301e33667146101f557806301ffc9a71461020a57806306fdde0314610232578063081812fc14610247575b600080fd5b610208610203366004611f07565b610487565b005b61021d610218366004611f5c565b610537565b60405190151581526020015b60405180910390f35b61023a610562565b6040516102299190611fd1565b61025a610255366004611fe4565b6105f4565b6040516001600160a01b039091168152602001610229565b610208610280366004611ffd565b610689565b6099545b604051908152602001610229565b6102086102a5366004611f07565b61079f565b6102896102b8366004611ffd565b6107d0565b610208610866565b6102086102d3366004611ffd565b61089a565b6102086102e6366004611f07565b61094b565b61023a6102f9366004611fe4565b610966565b61028961030c366004611fe4565b610a01565b61020861031f3660046120d3565b610a94565b60fd5460ff1661021d565b61025a61033d366004611fe4565b610af9565b61023a610350366004611fe4565b610b70565b610289610363366004612108565b610c13565b610208610376366004612108565b610c9a565b610208610ce6565b610396610391366004612123565b610d18565b6040516102299190612145565b61023a610e2f565b60ca5461025a906001600160a01b031681565b6102086103cc366004612197565b610e3e565b610396610e49565b6102086103e7366004612108565b610f07565b6102086103fa3660046121ce565b610f53565b60c95461025a906001600160a01b031681565b61023a610420366004611fe4565b610f8b565b61021d61043336600461224a565b6001600160a01b039182166000908152606a6020908152604080832093909416825291909152205460ff1690565b61020861046f36600461227d565b611066565b6102086104823660046122cb565b611194565b60ca546001600160a01b031633146104ba5760405162461bcd60e51b81526004016104b1906122fc565b60405180910390fd5b60405163a9059cbb60e01b81526001600160a01b0383811660048301526024820183905284919082169063a9059cbb906044016020604051808303816000875af115801561050c573d6000803e3d6000fd5b505050506040513d601f19601f82011682018060405250810190610530919061231e565b5050505050565b60006001600160e01b0319821663780e9d6360e01b148061055c575061055c82611205565b92915050565b6060606580546105719061233b565b80601f016020809104026020016040519081016040528092919081815260200182805461059d9061233b565b80156105ea5780601f106105bf576101008083540402835291602001916105ea565b820191906000526020600020905b8154815290600101906020018083116105cd57829003601f168201915b5050505050905090565b6000818152606760205260408120546001600160a01b031661066d5760405162461bcd60e51b815260206004820152602c60248201527f4552433732313a20617070726f76656420717565727920666f72206e6f6e657860448201526b34b9ba32b73a103a37b5b2b760a11b60648201526084016104b1565b506000908152606960205260409020546001600160a01b031690565b600061069482610af9565b9050806001600160a01b0316836001600160a01b031614156107025760405162461bcd60e51b815260206004820152602160248201527f4552433732313a20617070726f76616c20746f2063757272656e74206f776e656044820152603960f91b60648201526084016104b1565b336001600160a01b038216148061071e575061071e8133610433565b6107905760405162461bcd60e51b815260206004820152603860248201527f4552433732313a20617070726f76652063616c6c6572206973206e6f74206f7760448201527f6e6572206e6f7220617070726f76656420666f7220616c6c000000000000000060648201526084016104b1565b61079a8383611255565b505050565b6107a933826112c3565b6107c55760405162461bcd60e51b81526004016104b190612376565b61079a8383836113ba565b60006107db83610c13565b821061083d5760405162461bcd60e51b815260206004820152602b60248201527f455243373231456e756d657261626c653a206f776e657220696e646578206f7560448201526a74206f6620626f756e647360a81b60648201526084016104b1565b506001600160a01b03919091166000908152609760209081526040808320938352929052205490565b60c9546001600160a01b031633146108905760405162461bcd60e51b81526004016104b1906123c7565b610898611561565b565b60c9546001600160a01b031633146108c45760405162461bcd60e51b81526004016104b1906123c7565b60fd5460ff16156108e75760405162461bcd60e51b81526004016104b1906123f1565b6101315460ff16156109245760405162461bcd60e51b81526020600482015260066024820152651b1bd8dad95960d21b60448201526064016104b1565b610131805460ff1916600117905561093c82826115f4565b5050610131805460ff19169055565b61079a83838360405180602001604052806000815250610f53565b61013060205260009081526040902080546109809061233b565b80601f01602080910402602001604051908101604052809291908181526020018280546109ac9061233b565b80156109f95780601f106109ce576101008083540402835291602001916109f9565b820191906000526020600020905b8154815290600101906020018083116109dc57829003601f168201915b505050505081565b6000610a0c60995490565b8210610a6f5760405162461bcd60e51b815260206004820152602c60248201527f455243373231456e756d657261626c653a20676c6f62616c20696e646578206f60448201526b7574206f6620626f756e647360a01b60648201526084016104b1565b60998281548110610a8257610a8261241b565b90600052602060002001549050919050565b60ca546001600160a01b03163314610abe5760405162461bcd60e51b81526004016104b1906122fc565b60fd5460ff1615610ae15760405162461bcd60e51b81526004016104b1906123f1565b8051610af59061012f906020840190611e5b565b5050565b6000818152606760205260408120546001600160a01b03168061055c5760405162461bcd60e51b815260206004820152602960248201527f4552433732313a206f776e657220717565727920666f72206e6f6e657869737460448201526832b73a103a37b5b2b760b91b60648201526084016104b1565b600081815261013060205260409020805460609190610b8e9061233b565b80601f0160208091040260200160405190810160405280929190818152602001828054610bba9061233b565b8015610c075780601f10610bdc57610100808354040283529160200191610c07565b820191906000526020600020905b815481529060010190602001808311610bea57829003601f168201915b50505050509050919050565b60006001600160a01b038216610c7e5760405162461bcd60e51b815260206004820152602a60248201527f4552433732313a2062616c616e636520717565727920666f7220746865207a65604482015269726f206164647265737360b01b60648201526084016104b1565b506001600160a01b031660009081526068602052604090205490565b60ca546001600160a01b03163314610cc45760405162461bcd60e51b81526004016104b1906122fc565b60ca80546001600160a01b0319166001600160a01b0392909216919091179055565b60c9546001600160a01b03163314610d105760405162461bcd60e51b81526004016104b1906123c7565b61089861160e565b60606000610d2560995490565b90508381111580610d3557508284115b80610d3e575080155b15610d5957505060408051600081526020810190915261055c565b600083610d67600184612447565b11610d7c57610d77600183612447565b610d7e565b835b90506000610d8c8683612447565b610d9790600161245e565b67ffffffffffffffff811115610daf57610daf612027565b604051908082528060200260200182016040528015610dd8578160200160208202803683370190505b509050855b828111610e2557610ded81610a01565b82610df88984612447565b81518110610e0857610e0861241b565b602090810291909101015280610e1d81612476565b915050610ddd565b5095945050505050565b6060606680546105719061233b565b610af5338383611666565b60606000610e5633610c13565b905080610e7157505060408051600081526020810190915290565b60008167ffffffffffffffff811115610e8c57610e8c612027565b604051908082528060200260200182016040528015610eb5578160200160208202803683370190505b50905060005b82811015610efc57610ecd33826107d0565b828281518110610edf57610edf61241b565b602090810291909101015280610ef481612476565b915050610ebb565b5092915050565b5090565b60ca546001600160a01b03163314610f315760405162461bcd60e51b81526004016104b1906122fc565b60c980546001600160a01b0319166001600160a01b0392909216919091179055565b610f5d33836112c3565b610f795760405162461bcd60e51b81526004016104b190612376565b610f8584848484611735565b50505050565b6000818152606760205260409020546060906001600160a01b031661100a5760405162461bcd60e51b815260206004820152602f60248201527f4552433732314d657461646174613a2055524920717565727920666f72206e6f60448201526e3732bc34b9ba32b73a103a37b5b2b760891b60648201526084016104b1565b6000611014611768565b90506000815111611034576040518060200160405280600081525061105f565b8061103e84611778565b60405160200161104f929190612491565b6040516020818303038152906040525b9392505050565b600054610100900460ff166110815760005460ff1615611085565b303b155b6110e85760405162461bcd60e51b815260206004820152602e60248201527f496e697469616c697a61626c653a20636f6e747261637420697320616c72656160448201526d191e481a5b9a5d1a585b1a5e995960921b60648201526084016104b1565b600054610100900460ff1615801561110a576000805461ffff19166101011790555b611112611876565b6111586040518060400160405280600a8152602001694d617273436f6c6f6e7960b01b815250604051806040016040528060028152602001614d4360f01b81525061189d565b611161836118ce565b6111696118e4565b815161117d9061012f906020850190611e5b565b50801561079a576000805461ff0019169055505050565b3361119e83610af9565b6001600160a01b0316146111e55760405162461bcd60e51b815260206004820152600e60248201526d2737ba103cb7bab9103a37b5b2b760911b60448201526064016104b1565b600082815261013060209081526040909120825161079a92840190611e5b565b60006001600160e01b031982166380ac58cd60e01b148061123657506001600160e01b03198216635b5e139f60e01b145b8061055c57506301ffc9a760e01b6001600160e01b031983161461055c565b600081815260696020526040902080546001600160a01b0319166001600160a01b038416908117909155819061128a82610af9565b6001600160a01b03167f8c5be1e5ebec7d5bd14f71427d1e84f3dd0314c0f7b2291e5b200ac8c7c3b92560405160405180910390a45050565b6000818152606760205260408120546001600160a01b031661133c5760405162461bcd60e51b815260206004820152602c60248201527f4552433732313a206f70657261746f7220717565727920666f72206e6f6e657860448201526b34b9ba32b73a103a37b5b2b760a11b60648201526084016104b1565b600061134783610af9565b9050806001600160a01b0316846001600160a01b031614806113825750836001600160a01b0316611377846105f4565b6001600160a01b0316145b806113b257506001600160a01b038082166000908152606a602090815260408083209388168352929052205460ff165b949350505050565b826001600160a01b03166113cd82610af9565b6001600160a01b0316146114315760405162461bcd60e51b815260206004820152602560248201527f4552433732313a207472616e736665722066726f6d20696e636f72726563742060448201526437bbb732b960d91b60648201526084016104b1565b6001600160a01b0382166114935760405162461bcd60e51b8152602060048201526024808201527f4552433732313a207472616e7366657220746f20746865207a65726f206164646044820152637265737360e01b60648201526084016104b1565b61149e838383611913565b6114a9600082611255565b6001600160a01b03831660009081526068602052604081208054600192906114d2908490612447565b90915550506001600160a01b038216600090815260686020526040812080546001929061150090849061245e565b909155505060008181526067602052604080822080546001600160a01b0319166001600160a01b0386811691821790925591518493918716917fddf252ad1be2c89b69c2b068fc378daa952ba7f163c4a11628f55a4df523b3ef91a4505050565b60fd5460ff166115aa5760405162461bcd60e51b815260206004820152601460248201527314185d5cd8589b194e881b9bdd081c185d5cd95960621b60448201526064016104b1565b60fd805460ff191690557f5db9ee0a495bf2e6ff9c91a7834c1ba4fdd244a5e8aa4e537bd38aeae4b073aa335b6040516001600160a01b03909116815260200160405180910390a1565b610af58282604051806020016040528060008152506119cb565b60fd5460ff16156116315760405162461bcd60e51b81526004016104b1906123f1565b60fd805460ff191660011790557f62e78cea01bee320cd4e420270b5ea74000d11b0c9f74754ebdbfc544b05a2586115d73390565b816001600160a01b0316836001600160a01b031614156116c85760405162461bcd60e51b815260206004820152601960248201527f4552433732313a20617070726f766520746f2063616c6c65720000000000000060448201526064016104b1565b6001600160a01b038381166000818152606a6020908152604080832094871680845294825291829020805460ff191686151590811790915591519182527f17307eab39ab6107e8899845ad3d59bd9653f200f220920489ca2b5937696c31910160405180910390a3505050565b6117408484846113ba565b61174c848484846119fe565b610f855760405162461bcd60e51b81526004016104b1906124c0565b606061012f80546105719061233b565b60608161179c5750506040805180820190915260018152600360fc1b602082015290565b8160005b81156117c657806117b081612476565b91506117bf9050600a83612528565b91506117a0565b60008167ffffffffffffffff8111156117e1576117e1612027565b6040519080825280601f01601f19166020018201604052801561180b576020820181803683370190505b5090505b84156113b257611820600183612447565b915061182d600a8661253c565b61183890603061245e565b60f81b81838151811061184d5761184d61241b565b60200101906001600160f81b031916908160001a90535061186f600a86612528565b945061180f565b600054610100900460ff166108985760405162461bcd60e51b81526004016104b190612550565b600054610100900460ff166118c45760405162461bcd60e51b81526004016104b190612550565b610af58282611afc565b60ca546001600160a01b031615610cc457600080fd5b600054610100900460ff1661190b5760405162461bcd60e51b81526004016104b190612550565b610898611b4a565b6001600160a01b03831661196e5761196981609980546000838152609a60205260408120829055600182018355919091527f72a152ddfb8e864297c917af52ea6c1c68aead0fee1a62673fcc7e0c94979d000155565b611991565b816001600160a01b0316836001600160a01b031614611991576119918382611b7d565b6001600160a01b0382166119a85761079a81611c1a565b826001600160a01b0316826001600160a01b03161461079a5761079a8282611cc9565b6119d58383611d0d565b6119e260008484846119fe565b61079a5760405162461bcd60e51b81526004016104b1906124c0565b60006001600160a01b0384163b15611af157604051630a85bd0160e11b81526001600160a01b0385169063150b7a0290611a4290339089908890889060040161259b565b6020604051808303816000875af1925050508015611a7d575060408051601f3d908101601f19168201909252611a7a918101906125d8565b60015b611ad7573d808015611aab576040519150601f19603f3d011682016040523d82523d6000602084013e611ab0565b606091505b508051611acf5760405162461bcd60e51b81526004016104b1906124c0565b805181602001fd5b6001600160e01b031916630a85bd0160e11b1490506113b2565b506001949350505050565b600054610100900460ff16611b235760405162461bcd60e51b81526004016104b190612550565b8151611b36906065906020850190611e5b565b50805161079a906066906020840190611e5b565b600054610100900460ff16611b715760405162461bcd60e51b81526004016104b190612550565b60fd805460ff19169055565b60006001611b8a84610c13565b611b949190612447565b600083815260986020526040902054909150808214611be7576001600160a01b03841660009081526097602090815260408083208584528252808320548484528184208190558352609890915290208190555b5060009182526098602090815260408084208490556001600160a01b039094168352609781528383209183525290812055565b609954600090611c2c90600190612447565b6000838152609a602052604081205460998054939450909284908110611c5457611c5461241b565b906000526020600020015490508060998381548110611c7557611c7561241b565b6000918252602080832090910192909255828152609a90915260408082208490558582528120556099805480611cad57611cad6125f5565b6001900381819060005260206000200160009055905550505050565b6000611cd483610c13565b6001600160a01b039093166000908152609760209081526040808320868452825280832085905593825260989052919091209190915550565b6001600160a01b038216611d635760405162461bcd60e51b815260206004820181905260248201527f4552433732313a206d696e7420746f20746865207a65726f206164647265737360448201526064016104b1565b6000818152606760205260409020546001600160a01b031615611dc85760405162461bcd60e51b815260206004820152601c60248201527f4552433732313a20746f6b656e20616c7265616479206d696e7465640000000060448201526064016104b1565b611dd460008383611913565b6001600160a01b0382166000908152606860205260408120805460019290611dfd90849061245e565b909155505060008181526067602052604080822080546001600160a01b0319166001600160a01b03861690811790915590518392907fddf252ad1be2c89b69c2b068fc378daa952ba7f163c4a11628f55a4df523b3ef908290a45050565b828054611e679061233b565b90600052602060002090601f016020900481019282611e895760008555611ecf565b82601f10611ea257805160ff1916838001178555611ecf565b82800160010185558215611ecf579182015b82811115611ecf578251825591602001919060010190611eb4565b50610f039291505b80821115610f035760008155600101611ed7565b80356001600160a01b0381168114611f0257600080fd5b919050565b600080600060608486031215611f1c57600080fd5b611f2584611eeb565b9250611f3360208501611eeb565b9150604084013590509250925092565b6001600160e01b031981168114611f5957600080fd5b50565b600060208284031215611f6e57600080fd5b813561105f81611f43565b60005b83811015611f94578181015183820152602001611f7c565b83811115610f855750506000910152565b60008151808452611fbd816020860160208601611f79565b601f01601f19169290920160200192915050565b60208152600061105f6020830184611fa5565b600060208284031215611ff657600080fd5b5035919050565b6000806040838503121561201057600080fd5b61201983611eeb565b946020939093013593505050565b634e487b7160e01b600052604160045260246000fd5b600067ffffffffffffffff8084111561205857612058612027565b604051601f8501601f19908116603f0116810190828211818310171561208057612080612027565b8160405280935085815286868601111561209957600080fd5b858560208301376000602087830101525050509392505050565b600082601f8301126120c457600080fd5b61105f8383356020850161203d565b6000602082840312156120e557600080fd5b813567ffffffffffffffff8111156120fc57600080fd5b6113b2848285016120b3565b60006020828403121561211a57600080fd5b61105f82611eeb565b6000806040838503121561213657600080fd5b50508035926020909101359150565b6020808252825182820181905260009190848201906040850190845b8181101561217d57835183529284019291840191600101612161565b50909695505050505050565b8015158114611f5957600080fd5b600080604083850312156121aa57600080fd5b6121b383611eeb565b915060208301356121c381612189565b809150509250929050565b600080600080608085870312156121e457600080fd5b6121ed85611eeb565b93506121fb60208601611eeb565b925060408501359150606085013567ffffffffffffffff81111561221e57600080fd5b8501601f8101871361222f57600080fd5b61223e8782356020840161203d565b91505092959194509250565b6000806040838503121561225d57600080fd5b61226683611eeb565b915061227460208401611eeb565b90509250929050565b6000806040838503121561229057600080fd5b61229983611eeb565b9150602083013567ffffffffffffffff8111156122b557600080fd5b6122c1858286016120b3565b9150509250929050565b600080604083850312156122de57600080fd5b82359150602083013567ffffffffffffffff8111156122b557600080fd5b6020808252600890820152674f6e6c792044414f60c01b604082015260600190565b60006020828403121561233057600080fd5b815161105f81612189565b600181811c9082168061234f57607f821691505b6020821081141561237057634e487b7160e01b600052602260045260246000fd5b50919050565b60208082526031908201527f4552433732313a207472616e736665722063616c6c6572206973206e6f74206f6040820152701ddb995c881b9bdc88185c1c1c9bdd9959607a1b606082015260800190565b60208082526010908201526f27b7363c9023b0b6b2a6b0b730b3b2b960811b604082015260600190565b60208082526010908201526f14185d5cd8589b194e881c185d5cd95960821b604082015260600190565b634e487b7160e01b600052603260045260246000fd5b634e487b7160e01b600052601160045260246000fd5b60008282101561245957612459612431565b500390565b6000821982111561247157612471612431565b500190565b600060001982141561248a5761248a612431565b5060010190565b600083516124a3818460208801611f79565b8351908301906124b7818360208801611f79565b01949350505050565b60208082526032908201527f4552433732313a207472616e7366657220746f206e6f6e20455243373231526560408201527131b2b4bb32b91034b6b83632b6b2b73a32b960711b606082015260800190565b634e487b7160e01b600052601260045260246000fd5b60008261253757612537612512565b500490565b60008261254b5761254b612512565b500690565b6020808252602b908201527f496e697469616c697a61626c653a20636f6e7472616374206973206e6f74206960408201526a6e697469616c697a696e6760a81b606082015260800190565b6001600160a01b03858116825284166020820152604081018390526080606082018190526000906125ce90830184611fa5565b9695505050505050565b6000602082840312156125ea57600080fd5b815161105f81611f43565b634e487b7160e01b600052603160045260246000fdfea26469706673582212208d345f11fcd60a2d1805041c1f89851a2e5ea19c248a57ab9034273c9be2223364736f6c634300080b0033",
  "immutableReferences": {},
  "source": "/**\n * ERC721 MC token - land plots\n */\n\n// SPDX-License-Identifier: MIT\npragma solidity >=0.8.0 <0.9.0;\nimport '@openzeppelin/contracts-upgradeable/token/ERC721/extensions/ERC721EnumerableUpgradeable.sol';\nimport './GameConnection.sol';\nimport '@openzeppelin/contracts-upgradeable/security/PausableUpgradeable.sol';\nimport '@openzeppelin/contracts/token/ERC20/IERC20.sol';\n\n\ncontract MC is ERC721EnumerableUpgradeable, GameConnection, PausableUpgradeable {\n  string private nftBaseURI;\n  mapping (uint256 => string) public names; // token owner can set a name for their NFT\n\n  bool lockMint;\n\n  uint256[49] private ______mc_gap;\n\n  function initialize(address _DAO, string memory _nftBaseURI) public initializer {\n    ERC721EnumerableUpgradeable.__ERC721Enumerable_init();\n    __ERC721_init('MarsColony', 'MC');\n    GameConnection.__GameConnection_init(_DAO);\n    PausableUpgradeable.__Pausable_init();\n    nftBaseURI = _nftBaseURI;\n  }\n\n  function _baseURI() internal view virtual override returns (string memory) {\n    return nftBaseURI;\n  }\n\n  function setBaseURI(string memory newURI) external onlyDAO whenNotPaused {\n    nftBaseURI = newURI;\n  }\n\n  function mint(address receiver, uint256 tokenId) external onlyGameManager whenNotPaused {\n    require(!lockMint, 'locked');\n    lockMint = true;\n    _safeMint(receiver, tokenId);\n    lockMint = false;\n  }\n\n  function pause() external onlyGameManager {\n    _pause();\n  }\n\n  function unpause() external onlyGameManager {\n    _unpause();\n  }\n\n  function allMyTokens() external view returns(uint256[] memory) {\n    uint256 tokenCount = balanceOf(msg.sender);\n    if (tokenCount == 0) {\n      return new uint256[](0);\n    } else {\n      uint256[] memory result = new uint256[](tokenCount);\n      for (uint256 i = 0; i < tokenCount; i++) {\n        result[i] = tokenOfOwnerByIndex(msg.sender, i);\n      }\n      return result;\n    }\n  }\n\n  function allTokensPaginate(uint256 _from, uint256 _to) external view returns(uint256[] memory) {\n    uint256 tokenCount = ERC721EnumerableUpgradeable.totalSupply();\n    if (tokenCount <= _from || _from > _to || tokenCount == 0) {\n      return new uint256[](0);\n    }\n    uint256 to = (tokenCount - 1 > _to) ? _to : tokenCount - 1;\n    uint256[] memory result = new uint256[](to - _from + 1);\n    for (uint256 i = _from; i <= to; i++) {\n      result[i - _from] = tokenByIndex(i);\n    }\n    return result;\n  }\n\n  function setName(uint256 tokenId, string memory _name) external {\n    require (ownerOf(tokenId) == msg.sender, 'Not your token');\n    names[tokenId] = _name;\n  }\n\n  function getName(uint256 tokenId) external view returns (string memory) {\n    return names[tokenId];\n  }\n\n  function withdrawToken(address _tokenContract, address _whereTo, uint256 _amount) external onlyDAO {\n    IERC20 tokenContract = IERC20(_tokenContract);\n    tokenContract.transfer(_whereTo, _amount);\n  }\n}\n",
  "sourcePath": "/Users/maxim/work/marscolony/contracts/contracts/MC.sol",
  "compiler": {
    "name": "solc",
    "version": "0.8.11+commit.d7f03943.Emscripten.clang"
  },
  "schemaVersion": "3.4.7",
  "updatedAt": "2022-04-30T07:06:00.678Z",
  "devdoc": {
    "kind": "dev",
    "methods": {
      "approve(address,uint256)": {
        "details": "See {IERC721-approve}."
      },
      "balanceOf(address)": {
        "details": "See {IERC721-balanceOf}."
      },
      "getApproved(uint256)": {
        "details": "See {IERC721-getApproved}."
      },
      "isApprovedForAll(address,address)": {
        "details": "See {IERC721-isApprovedForAll}."
      },
      "name()": {
        "details": "See {IERC721Metadata-name}."
      },
      "ownerOf(uint256)": {
        "details": "See {IERC721-ownerOf}."
      },
      "paused()": {
        "details": "Returns true if the contract is paused, and false otherwise."
      },
      "safeTransferFrom(address,address,uint256)": {
        "details": "See {IERC721-safeTransferFrom}."
      },
      "safeTransferFrom(address,address,uint256,bytes)": {
        "details": "See {IERC721-safeTransferFrom}."
      },
      "setApprovalForAll(address,bool)": {
        "details": "See {IERC721-setApprovalForAll}."
      },
      "supportsInterface(bytes4)": {
        "details": "See {IERC165-supportsInterface}."
      },
      "symbol()": {
        "details": "See {IERC721Metadata-symbol}."
      },
      "tokenByIndex(uint256)": {
        "details": "See {IERC721Enumerable-tokenByIndex}."
      },
      "tokenOfOwnerByIndex(address,uint256)": {
        "details": "See {IERC721Enumerable-tokenOfOwnerByIndex}."
      },
      "tokenURI(uint256)": {
        "details": "See {IERC721Metadata-tokenURI}."
      },
      "totalSupply()": {
        "details": "See {IERC721Enumerable-totalSupply}."
      },
      "transferFrom(address,address,uint256)": {
        "details": "See {IERC721-transferFrom}."
      }
    },
    "version": 1
  },
  "userdoc": {
    "kind": "user",
    "methods": {},
    "version": 1
  }
}