{
  "contractName": "MissionManager",
  "abi": [
    {
      "anonymous": false,
      "inputs": [
        {
          "indexed": false,
          "internalType": "address",
          "name": "account",
          "type": "address"
        }
      ],
      "name": "Paused",
      "type": "event"
    },
    {
      "anonymous": false,
      "inputs": [
        {
          "indexed": false,
          "internalType": "address",
          "name": "account",
          "type": "address"
        }
      ],
      "name": "Unpaused",
      "type": "event"
    },
    {
      "inputs": [
        {
          "internalType": "address",
          "name": "",
          "type": "address"
        }
      ],
      "name": "accountMissionState",
      "outputs": [
        {
          "internalType": "bool",
          "name": "isAccountPrivate",
          "type": "bool"
        },
        {
          "internalType": "uint8",
          "name": "revshare",
          "type": "uint8"
        }
      ],
      "stateMutability": "view",
      "type": "function",
      "constant": true
    },
    {
      "inputs": [],
      "name": "d",
      "outputs": [
        {
          "internalType": "contract IDependencies",
          "name": "",
          "type": "address"
        }
      ],
      "stateMutability": "view",
      "type": "function",
      "constant": true
    },
    {
      "inputs": [],
      "name": "paused",
      "outputs": [
        {
          "internalType": "bool",
          "name": "",
          "type": "bool"
        }
      ],
      "stateMutability": "view",
      "type": "function",
      "constant": true
    },
    {
      "inputs": [
        {
          "internalType": "contract IDependencies",
          "name": "_d",
          "type": "address"
        }
      ],
      "name": "initialize",
      "outputs": [],
      "stateMutability": "nonpayable",
      "type": "function"
    },
    {
      "inputs": [
        {
          "internalType": "contract IDependencies",
          "name": "addr",
          "type": "address"
        }
      ],
      "name": "setDependencies",
      "outputs": [],
      "stateMutability": "nonpayable",
      "type": "function"
    },
    {
      "inputs": [
        {
          "internalType": "bool",
          "name": "_isPrivate",
          "type": "bool"
        }
      ],
      "name": "setAccountPrivacy",
      "outputs": [],
      "stateMutability": "nonpayable",
      "type": "function"
    },
    {
      "inputs": [
        {
          "internalType": "uint8",
          "name": "_revshare",
          "type": "uint8"
        }
      ],
      "name": "setAccountRevshare",
      "outputs": [],
      "stateMutability": "nonpayable",
      "type": "function"
    },
    {
      "inputs": [
        {
          "internalType": "address",
          "name": "_address",
          "type": "address"
        }
      ],
      "name": "getRevshare",
      "outputs": [
        {
          "internalType": "uint8",
          "name": "revShare",
          "type": "uint8"
        }
      ],
      "stateMutability": "view",
      "type": "function",
      "constant": true
    },
    {
      "inputs": [
        {
          "internalType": "uint256[]",
          "name": "tokenIds",
          "type": "uint256[]"
        }
      ],
      "name": "getRevshareForLands",
      "outputs": [
        {
          "internalType": "uint8[]",
          "name": "",
          "type": "uint8[]"
        }
      ],
      "stateMutability": "view",
      "type": "function",
      "constant": true
    },
    {
      "inputs": [
        {
          "internalType": "uint256[]",
          "name": "landId",
          "type": "uint256[]"
        }
      ],
      "name": "getLandsData",
      "outputs": [
        {
          "components": [
            {
              "internalType": "uint256",
              "name": "availableMissionCount",
              "type": "uint256"
            },
            {
              "internalType": "address",
              "name": "owner",
              "type": "address"
            },
            {
              "internalType": "bool",
              "name": "isPrivate",
              "type": "bool"
            },
            {
              "internalType": "uint8",
              "name": "revshare",
              "type": "uint8"
            },
            {
              "internalType": "uint8",
              "name": "transportHubLevel",
              "type": "uint8"
            }
          ],
          "internalType": "struct MissionManager.LandData[]",
          "name": "",
          "type": "tuple[]"
        }
      ],
      "stateMutability": "view",
      "type": "function",
      "constant": true
    },
    {
      "inputs": [],
      "name": "pause",
      "outputs": [],
      "stateMutability": "nonpayable",
      "type": "function"
    },
    {
      "inputs": [],
      "name": "unpause",
      "outputs": [],
      "stateMutability": "nonpayable",
      "type": "function"
    },
    {
      "inputs": [
        {
          "internalType": "address",
          "name": "_tokenContract",
          "type": "address"
        },
        {
          "internalType": "address",
          "name": "_whereTo",
          "type": "address"
        },
        {
          "internalType": "uint256",
          "name": "_amount",
          "type": "uint256"
        }
      ],
      "name": "withdrawToken",
      "outputs": [],
      "stateMutability": "nonpayable",
      "type": "function"
    }
  ],
  "bytecode": "0x608060405234801561001057600080fd5b50611591806100206000396000f3fe608060405234801561001057600080fd5b50600436106100af5760003560e01c806301e33667146100b457806315018691146100c957806320993e7f146100dc5780632d81708b146101065780633f4ba83a146101345780635c975abb1461013c5780638389cb18146101525780638456cb59146101655780638a054ac21461016d5780638b35beef1461018d578063ab627c99146101ad578063c014f3a2146101f2578063c4d66de814610212575b600080fd5b6100c76100c236600461104b565b610225565b005b6100c76100d736600461109b565b61036b565b6100ef6100ea3660046110bf565b610456565b60405160ff90911681526020015b60405180910390f35b6100c76101143660046110ea565b336000908152609c60205260409020805460ff1916911515919091179055565b6100c7610488565b60675460ff1660405190151581526020016100fd565b6100c76101603660046110bf565b610539565b6100c76105ef565b609d54610180906001600160a01b031681565b6040516100fd9190611107565b6101a061019b3660046111ac565b61069e565b6040516100fd9190611241565b6101d96101bb3660046110bf565b609c6020526000908152604090205460ff8082169161010090041682565b60408051921515835260ff9091166020830152016100fd565b6102056102003660046111ac565b610796565b6040516100fd91906112c3565b6100c76102203660046110bf565b610930565b609d60009054906101000a90046001600160a01b03166001600160a01b0316638da5cb5b6040518163ffffffff1660e01b8152600401602060405180830381865afa158015610278573d6000803e3d6000fd5b505050506040513d601f19601f8201168201806040525081019061029c919061130a565b6001600160a01b0316336001600160a01b0316146102ee5760405162461bcd60e51b815260206004820152600a60248201526927b7363c9037bbb732b960b11b60448201526064015b60405180910390fd5b60405163a9059cbb60e01b81526001600160a01b0383811660048301526024820183905284919082169063a9059cbb906044016020604051808303816000875af1158015610340573d6000803e3d6000fd5b505050506040513d601f19601f820116820180604052508101906103649190611327565b5050505050565b60018160ff1610156103cb5760405162461bcd60e51b815260206004820152602360248201527f52657673686172652076616c756520697320746f6f206c6f772c20312069732060448201526236b4b760e91b60648201526084016102e5565b60638160ff16111561042d5760405162461bcd60e51b815260206004820152602560248201527f52657673686172652076616c756520697320746f6f20686967682c20393920696044820152640e640dac2f60db1b60648201526084016102e5565b336000908152609c60205260409020805460ff9092166101000261ff0019909216919091179055565b6001600160a01b0381166000908152609c6020526040812054610100900460ff1690819003610483575060145b919050565b609d60009054906101000a90046001600160a01b03166001600160a01b031663c6b052666040518163ffffffff1660e01b8152600401602060405180830381865afa1580156104db573d6000803e3d6000fd5b505050506040513d601f19601f820116820180604052508101906104ff919061130a565b6001600160a01b0316336001600160a01b03161461052f5760405162461bcd60e51b81526004016102e590611344565b610537610a0d565b565b609d546001600160a01b031615806105c45750609d5460408051638da5cb5b60e01b8152905133926001600160a01b031691638da5cb5b9160048083019260209291908290030181865afa158015610595573d6000803e3d6000fd5b505050506040513d601f19601f820116820180604052508101906105b9919061130a565b6001600160a01b0316145b6105cd57600080fd5b609d80546001600160a01b0319166001600160a01b0392909216919091179055565b609d60009054906101000a90046001600160a01b03166001600160a01b031663c6b052666040518163ffffffff1660e01b8152600401602060405180830381865afa158015610642573d6000803e3d6000fd5b505050506040513d601f19601f82011682018060405250810190610666919061130a565b6001600160a01b0316336001600160a01b0316146106965760405162461bcd60e51b81526004016102e590611344565b610537610a9a565b606081516000036106e15760408051600080825260208201909252906106da565b6106c7611005565b8152602001906001900390816106bf5790505b5092915050565b600082516001600160401b038111156106fc576106fc61111b565b60405190808252806020026020018201604052801561073557816020015b610722611005565b81526020019060019003908161071a5790505b50905060005b83518110156106da576107668482815181106107595761075961136f565b6020026020010151610b15565b8282815181106107785761077861136f565b6020026020010181905250808061078e9061139b565b91505061073b565b6060600082516001600160401b038111156107b3576107b361111b565b6040519080825280602002602001820160405280156107dc578160200160208202803683370190505b5090506000609d60009054906101000a90046001600160a01b03166001600160a01b031663cb7956b06040518163ffffffff1660e01b8152600401602060405180830381865afa158015610834573d6000803e3d6000fd5b505050506040513d601f19601f82011682018060405250810190610858919061130a565b905060005b8451811015610927576108f1826001600160a01b0316636352211e87848151811061088a5761088a61136f565b60200260200101516040518263ffffffff1660e01b81526004016108b091815260200190565b602060405180830381865afa1580156108cd573d6000803e3d6000fd5b505050506040513d601f19601f820116820180604052508101906100ea919061130a565b8382815181106109035761090361136f565b60ff909216602092830291909101909101528061091f8161139b565b91505061085d565b50909392505050565b603454610100900460ff1661094b5760345460ff161561094f565b303b155b6109b25760405162461bcd60e51b815260206004820152602e60248201527f496e697469616c697a61626c653a20636f6e747261637420697320616c72656160448201526d191e481a5b9a5d1a585b1a5e995960921b60648201526084016102e5565b603454610100900460ff161580156109d4576034805461ffff19166101011790555b6109dc610def565b609d80546001600160a01b0319166001600160a01b0384161790558015610a09576034805461ff00191690555b5050565b60675460ff16610a565760405162461bcd60e51b815260206004820152601460248201527314185d5cd8589b194e881b9bdd081c185d5cd95960621b60448201526064016102e5565b6067805460ff191690557f5db9ee0a495bf2e6ff9c91a7834c1ba4fdd244a5e8aa4e537bd38aeae4b073aa335b604051610a909190611107565b60405180910390a1565b60675460ff1615610ae05760405162461bcd60e51b815260206004820152601060248201526f14185d5cd8589b194e881c185d5cd95960821b60448201526064016102e5565b6067805460ff191660011790557f62e78cea01bee320cd4e420270b5ea74000d11b0c9f74754ebdbfc544b05a258610a833390565b610b1d611005565b609d5460408051630cb7956b60e41b815290516000926001600160a01b03169163cb7956b09160048083019260209291908290030181865afa158015610b67573d6000803e3d6000fd5b505050506040513d601f19601f82011682018060405250810190610b8b919061130a565b6040516331a9108f60e11b8152600481018590529091506000906001600160a01b03831690636352211e90602401602060405180830381865afa158015610bd6573d6000803e3d6000fd5b505050506040513d601f19601f82011682018060405250810190610bfa919061130a565b6001600160a01b0381166000908152609c602052604081205491925060ff90911690610c2586610e26565b90506000610c5a856001600160a01b0316636352211e896040518263ffffffff1660e01b81526004016108b091815260200190565b60408051600180825281830190925291925060009190602080830190803683370190505090508781600081518110610c9457610c9461136f565b6020026020010181815250506000609d60009054906101000a90046001600160a01b03166001600160a01b031663c6b052666040518163ffffffff1660e01b8152600401602060405180830381865afa158015610cf5573d6000803e3d6000fd5b505050506040513d601f19601f82011682018060405250810190610d19919061130a565b6001600160a01b0316633eb87111836040518263ffffffff1660e01b8152600401610d4491906113b4565b600060405180830381865afa158015610d61573d6000803e3d6000fd5b505050506040513d6000823e601f3d908101601f19168201604052610d8991908101906113ec565b600081518110610d9b57610d9b61136f565b60200260200101516060015190506040518060a00160405280858152602001876001600160a01b0316815260200186151581526020018460ff1681526020018260ff16815250975050505050505050919050565b603454610100900460ff16610e165760405162461bcd60e51b81526004016102e5906114eb565b610e1e610fab565b610537610fd2565b604080516001808252818301909252600091829190602080830190803683370190505090508281600081518110610e5f57610e5f61136f565b6020026020010181815250506000609d60009054906101000a90046001600160a01b03166001600160a01b031663c6b052666040518163ffffffff1660e01b8152600401602060405180830381865afa158015610ec0573d6000803e3d6000fd5b505050506040513d601f19601f82011682018060405250810190610ee4919061130a565b90506000816001600160a01b0316633eb87111846040518263ffffffff1660e01b8152600401610f1491906113b4565b600060405180830381865afa158015610f31573d6000803e3d6000fd5b505050506040513d6000823e601f3d908101601f19168201604052610f5991908101906113ec565b600081518110610f6b57610f6b61136f565b60200260200101519050806040015160ff16600003610f8f57506000949350505050565b60a0810151610f9f906001611536565b60ff1695945050505050565b603454610100900460ff166105375760405162461bcd60e51b81526004016102e5906114eb565b603454610100900460ff16610ff95760405162461bcd60e51b81526004016102e5906114eb565b6067805460ff19169055565b6040805160a08101825260008082526020820181905291810182905260608101829052608081019190915290565b6001600160a01b038116811461104857600080fd5b50565b60008060006060848603121561106057600080fd5b833561106b81611033565b9250602084013561107b81611033565b929592945050506040919091013590565b60ff8116811461104857600080fd5b6000602082840312156110ad57600080fd5b81356110b88161108c565b9392505050565b6000602082840312156110d157600080fd5b81356110b881611033565b801515811461104857600080fd5b6000602082840312156110fc57600080fd5b81356110b8816110dc565b6001600160a01b0391909116815260200190565b634e487b7160e01b600052604160045260246000fd5b60405160c081016001600160401b03811182821017156111535761115361111b565b60405290565b604051601f8201601f191681016001600160401b03811182821017156111815761118161111b565b604052919050565b60006001600160401b038211156111a2576111a261111b565b5060051b60200190565b600060208083850312156111bf57600080fd5b82356001600160401b038111156111d557600080fd5b8301601f810185136111e657600080fd5b80356111f96111f482611189565b611159565b81815260059190911b8201830190838101908783111561121857600080fd5b928401925b828410156112365783358252928401929084019061121d565b979650505050505050565b602080825282518282018190526000919060409081850190868401855b828110156112b657815180518552868101516001600160a01b0316878601528581015115158686015260608082015160ff90811691870191909152608091820151169085015260a0909301929085019060010161125e565b5091979650505050505050565b6020808252825182820181905260009190848201906040850190845b818110156112fe57835160ff16835292840192918401916001016112df565b50909695505050505050565b60006020828403121561131c57600080fd5b81516110b881611033565b60006020828403121561133957600080fd5b81516110b8816110dc565b60208082526011908201527027b7363c9033b0b6b29036b0b730b3b2b960791b604082015260600190565b634e487b7160e01b600052603260045260246000fd5b634e487b7160e01b600052601160045260246000fd5b6000600182016113ad576113ad611385565b5060010190565b6020808252825182820181905260009190848201906040850190845b818110156112fe578351835292840192918401916001016113d0565b600060208083850312156113ff57600080fd5b82516001600160401b0381111561141557600080fd5b8301601f8101851361142657600080fd5b80516114346111f482611189565b81815260c0918202830184019184820191908884111561145357600080fd5b938501935b838510156114df5780858a0312156114705760008081fd5b611478611131565b8551815286860151878201526040808701516114938161108c565b908201526060868101516114a68161108c565b908201526080868101516114b98161108c565b9082015260a0868101516114cc8161108c565b9082015283529384019391850191611458565b50979650505050505050565b6020808252602b908201527f496e697469616c697a61626c653a20636f6e7472616374206973206e6f74206960408201526a6e697469616c697a696e6760a81b606082015260800190565b600060ff821660ff84168060ff0382111561155357611553611385565b01939250505056fea2646970667358221220e53bc6a4524aeeb2a44653494265dd04bad856d15952b487e264ca20044c01ff64736f6c634300080d0033",
  "immutableReferences": {},
  "source": "// SPDX-License-Identifier: MIT\npragma solidity >=0.8.0 <0.9.0;\n\nimport \"@openzeppelin/contracts-upgradeable/security/PausableUpgradeable.sol\";\nimport \"./GameConnection.sol\";\nimport \"./interfaces/IDependencies.sol\";\nimport \"./interfaces/IOwnable.sol\";\nimport \"./interfaces/IGameManager.sol\";\nimport \"@openzeppelin/contracts/token/ERC20/IERC20.sol\";\n\ncontract MissionManager is GameConnection, PausableUpgradeable {\n    address reserved0;\n    address reserved1;\n    address reserved2;\n\n    modifier onlyOwner() {\n        require(msg.sender == d.owner(), \"Only owner\");\n        _;\n    }\n\n    modifier onlyGameManager() {\n        require(msg.sender == address(d.gameManager()), \"Only game manager\");\n        _;\n    }\n\n    struct AccountMissionState {\n        bool isAccountPrivate; // don't allow missions on my lands\n        uint8 revshare;\n    }\n\n    mapping(address => AccountMissionState) public accountMissionState;\n\n    struct LandData {\n        uint256 availableMissionCount;\n        address owner;\n        bool isPrivate;\n        uint8 revshare;\n        uint8 transportHubLevel;\n    }\n\n    IDependencies public d;\n\n    uint256[49] private ______gap;\n\n    function initialize(IDependencies _d) external initializer {\n        PausableUpgradeable.__Pausable_init();\n        d = _d;\n    }\n\n    function setDependencies(IDependencies addr) external {\n        require(address(d) == address(0) || d.owner() == msg.sender);\n        d = addr;\n    }\n\n    function setAccountPrivacy(bool _isPrivate) external {\n        accountMissionState[msg.sender].isAccountPrivate = _isPrivate;\n    }\n\n    function setAccountRevshare(uint8 _revshare) external {\n        require(_revshare >= 1, \"Revshare value is too low, 1 is min\");\n        require(_revshare <= 99, \"Revshare value is too high, 99 is max\");\n        accountMissionState[msg.sender].revshare = _revshare;\n    }\n\n    function _calculateLandMissionsLimits(uint256 landId)\n        private\n        view\n        returns (uint256 availableMissionCount)\n    {\n        uint256[] memory landIds = new uint256[](1);\n        landIds[0] = landId;\n        IGameManager gameManager = d.gameManager();\n        IGameManager.AttributeData memory landAttributes = gameManager\n            .getAttributesMany(landIds)[0];\n\n        if (landAttributes.baseStation == 0) {\n            return 0;\n        }\n\n        return 1 + landAttributes.powerProduction;\n    }\n\n    function getRevshare(address _address)\n        public\n        view\n        returns (uint8 revShare)\n    {\n        revShare = accountMissionState[_address].revshare;\n        if (revShare == 0) {\n            revShare = 20;\n        }\n        return revShare;\n    }\n\n    function getRevshareForLands(uint256[] memory tokenIds)\n        external\n        view\n        returns (uint8[] memory)\n    {\n        uint8[] memory result = new uint8[](tokenIds.length);\n        IMC mc = d.mc();\n        for (uint256 i = 0; i < tokenIds.length; i++) {\n            result[i] = getRevshare(IOwnable(address(mc)).ownerOf(tokenIds[i]));\n        }\n        return result;\n    }\n\n    function _getLandData(uint256 landId)\n        private\n        view\n        returns (LandData memory)\n    {\n        IMC mc = d.mc();\n        address landOwner = IOwnable(address(mc)).ownerOf(landId);\n        bool isPrivate = accountMissionState[landOwner].isAccountPrivate;\n        uint256 availableMissionCount = _calculateLandMissionsLimits(landId);\n        uint8 revshare = getRevshare(IOwnable(address(mc)).ownerOf(landId));\n        uint256[] memory lands = new uint256[](1);\n        lands[0] = landId;\n\n        uint8 transportHubLevel = d\n        .gameManager()\n        .getAttributesMany(lands)[0].transport;\n\n        return\n            LandData(\n                availableMissionCount,\n                landOwner,\n                isPrivate,\n                revshare,\n                transportHubLevel\n            );\n    }\n\n    function getLandsData(uint256[] memory landId)\n        external\n        view\n        returns (LandData[] memory)\n    {\n        if (landId.length == 0) {\n            return new LandData[](0);\n        } else {\n            LandData[] memory result = new LandData[](landId.length);\n            for (uint256 i = 0; i < landId.length; i++) {\n                result[i] = _getLandData(landId[i]);\n            }\n            return result;\n        }\n    }\n\n    function pause() external onlyGameManager {\n        _pause();\n    }\n\n    function unpause() external onlyGameManager {\n        _unpause();\n    }\n\n    function withdrawToken(\n        address _tokenContract,\n        address _whereTo,\n        uint256 _amount\n    ) external onlyOwner {\n        IERC20 tokenContract = IERC20(_tokenContract);\n        tokenContract.transfer(_whereTo, _amount);\n    }\n}\n",
  "sourcePath": "/Users/maxim/work/marscolony/contracts/contracts/MissionManager.sol",
  "compiler": {
    "name": "solc",
    "version": "0.8.13+commit.abaa5c0e.Emscripten.clang"
  },
  "schemaVersion": "3.4.7",
  "updatedAt": "2022-10-05T06:40:45.311Z",
  "networkType": "ethereum",
  "devdoc": {
    "kind": "dev",
    "methods": {
      "paused()": {
        "details": "Returns true if the contract is paused, and false otherwise."
      }
    },
    "version": 1
  },
  "userdoc": {
    "kind": "user",
    "methods": {},
    "version": 1
  }
}